{
  "contractName": "BlockRewardHBBFT",
  "abi": [
    {
      "constant": true,
      "inputs": [
        {
          "name": "_receiver",
          "type": "address"
        }
      ],
      "name": "extraReceiverAmount",
      "outputs": [
        {
          "name": "",
          "type": "uint256"
        }
      ],
      "payable": false,
      "stateMutability": "view",
      "type": "function"
    },
    {
      "constant": false,
      "inputs": [
        {
          "name": "_amount",
          "type": "uint256"
        }
      ],
      "name": "addBridgeTokenFeeReceivers",
      "outputs": [],
      "payable": false,
      "stateMutability": "nonpayable",
      "type": "function"
    },
    {
      "constant": true,
      "inputs": [
        {
          "name": "_stakingEpoch",
          "type": "uint256"
        },
        {
          "name": "_validator",
          "type": "address"
        },
        {
          "name": "_staker",
          "type": "address"
        }
      ],
      "name": "snapshotStakeAmount",
      "outputs": [
        {
          "name": "",
          "type": "uint256"
        }
      ],
      "payable": false,
      "stateMutability": "view",
      "type": "function"
    },
    {
      "constant": false,
      "inputs": [
        {
          "name": "_bridgesAllowed",
          "type": "address[]"
        }
      ],
      "name": "setErcToNativeBridgesAllowed",
      "outputs": [],
      "payable": false,
      "stateMutability": "nonpayable",
      "type": "function"
    },
    {
      "constant": true,
      "inputs": [
        {
          "name": "_stakingEpoch",
          "type": "uint256"
        }
      ],
      "name": "snapshotValidators",
      "outputs": [
        {
          "name": "",
          "type": "address[]"
        }
      ],
      "payable": false,
      "stateMutability": "view",
      "type": "function"
    },
    {
      "constant": true,
      "inputs": [
        {
          "name": "_account",
          "type": "address"
        },
        {
          "name": "_blockNumber",
          "type": "uint256"
        }
      ],
      "name": "mintedForAccountInBlock",
      "outputs": [
        {
          "name": "",
          "type": "uint256"
        }
      ],
      "payable": false,
      "stateMutability": "view",
      "type": "function"
    },
    {
      "constant": false,
      "inputs": [],
      "name": "setSnapshot",
      "outputs": [],
      "payable": false,
      "stateMutability": "nonpayable",
      "type": "function"
    },
    {
      "constant": true,
      "inputs": [
        {
          "name": "_account",
          "type": "address"
        }
      ],
      "name": "mintedForAccount",
      "outputs": [
        {
          "name": "",
          "type": "uint256"
        }
      ],
      "payable": false,
      "stateMutability": "view",
      "type": "function"
    },
    {
      "constant": true,
      "inputs": [],
      "name": "ercToNativeBridgesAllowed",
      "outputs": [
        {
          "name": "",
          "type": "address[]"
        }
      ],
      "payable": false,
      "stateMutability": "view",
      "type": "function"
    },
    {
      "constant": true,
      "inputs": [
        {
          "name": "_blockNumber",
          "type": "uint256"
        }
      ],
      "name": "mintedInBlock",
      "outputs": [
        {
          "name": "",
          "type": "uint256"
        }
      ],
      "payable": false,
      "stateMutability": "view",
      "type": "function"
    },
    {
      "constant": false,
      "inputs": [
        {
          "name": "_amount",
          "type": "uint256"
        }
      ],
      "name": "addBridgeNativeFeeReceivers",
      "outputs": [],
      "payable": false,
      "stateMutability": "nonpayable",
      "type": "function"
    },
    {
      "constant": true,
      "inputs": [],
      "name": "mintedTotally",
      "outputs": [
        {
          "name": "",
          "type": "uint256"
        }
      ],
      "payable": false,
      "stateMutability": "view",
      "type": "function"
    },
    {
      "constant": false,
      "inputs": [
        {
          "name": "_bridgesAllowed",
          "type": "address[]"
        }
      ],
      "name": "setNativeToErcBridgesAllowed",
      "outputs": [],
      "payable": false,
      "stateMutability": "nonpayable",
      "type": "function"
    },
    {
      "constant": true,
      "inputs": [
        {
          "name": "_stakingEpoch",
          "type": "uint256"
        },
        {
          "name": "_validator",
          "type": "address"
        }
      ],
      "name": "snapshotStakers",
      "outputs": [
        {
          "name": "",
          "type": "address[]"
        }
      ],
      "payable": false,
      "stateMutability": "view",
      "type": "function"
    },
    {
      "constant": true,
      "inputs": [],
      "name": "VALIDATOR_SET_CONTRACT",
      "outputs": [
        {
          "name": "",
          "type": "address"
        }
      ],
      "payable": false,
      "stateMutability": "view",
      "type": "function"
    },
    {
      "constant": true,
      "inputs": [],
      "name": "BLOCK_REWARD",
      "outputs": [
        {
          "name": "",
          "type": "uint256"
        }
      ],
      "payable": false,
      "stateMutability": "view",
      "type": "function"
    },
    {
      "constant": false,
      "inputs": [
        {
          "name": "_amount",
          "type": "uint256"
        },
        {
          "name": "_receiver",
          "type": "address"
        }
      ],
      "name": "addExtraReceiver",
      "outputs": [],
      "payable": false,
      "stateMutability": "nonpayable",
      "type": "function"
    },
    {
      "constant": true,
      "inputs": [],
      "name": "nativeToErcBridgesAllowed",
      "outputs": [
        {
          "name": "",
          "type": "address[]"
        }
      ],
      "payable": false,
      "stateMutability": "view",
      "type": "function"
    },
    {
      "constant": true,
      "inputs": [
        {
          "name": "_bridge",
          "type": "address"
        }
      ],
      "name": "mintedTotallyByBridge",
      "outputs": [
        {
          "name": "",
          "type": "uint256"
        }
      ],
      "payable": false,
      "stateMutability": "view",
      "type": "function"
    },
    {
      "constant": true,
      "inputs": [
        {
          "name": "_index",
          "type": "uint256"
        }
      ],
      "name": "extraReceiverByIndex",
      "outputs": [
        {
          "name": "",
          "type": "address"
        }
      ],
      "payable": false,
      "stateMutability": "view",
      "type": "function"
    },
    {
      "constant": true,
      "inputs": [
        {
          "name": "_bridge",
          "type": "address"
        }
      ],
      "name": "bridgeAmount",
      "outputs": [
        {
          "name": "",
          "type": "uint256"
        }
      ],
      "payable": false,
      "stateMutability": "view",
      "type": "function"
    },
    {
      "constant": true,
      "inputs": [],
      "name": "extraReceiversLength",
      "outputs": [
        {
          "name": "",
          "type": "uint256"
        }
      ],
      "payable": false,
      "stateMutability": "view",
      "type": "function"
    },
    {
      "anonymous": false,
      "inputs": [
        {
          "indexed": false,
          "name": "receivers",
          "type": "address[]"
        },
        {
          "indexed": false,
          "name": "rewards",
          "type": "uint256[]"
        }
      ],
      "name": "RewardedERC20ByBlock",
      "type": "event"
    },
    {
      "anonymous": false,
      "inputs": [
        {
          "indexed": false,
          "name": "amount",
          "type": "uint256"
        },
        {
          "indexed": true,
          "name": "receiver",
          "type": "address"
        },
        {
          "indexed": true,
          "name": "bridge",
          "type": "address"
        }
      ],
      "name": "AddedReceiver",
      "type": "event"
    },
    {
      "anonymous": false,
      "inputs": [
        {
          "indexed": false,
          "name": "receivers",
          "type": "address[]"
        },
        {
          "indexed": false,
          "name": "rewards",
          "type": "uint256[]"
        }
      ],
      "name": "MintedByBridge",
      "type": "event"
    },
    {
      "constant": false,
      "inputs": [
        {
          "name": "benefactors",
          "type": "address[]"
        },
        {
          "name": "",
          "type": "uint16[]"
        }
      ],
      "name": "reward",
      "outputs": [
        {
          "name": "",
          "type": "address[]"
        },
        {
          "name": "",
          "type": "uint256[]"
        }
      ],
      "payable": false,
      "stateMutability": "nonpayable",
      "type": "function"
    }
  ],
  "bytecode": "0x608060405234801561001057600080fd5b5061256f806100206000396000f3fe608060405234801561001057600080fd5b50600436106101515760003560e060020a90048063553a5c85116100c7578063b25a00fd11610080578063b25a00fd14610456578063b4a523e81461045e578063db456f7714610484578063e73b9e2f146104a1578063efdc4d01146104c7578063f91c2898146104cf57610151565b8063553a5c851461035a5780636834fc90146103625780636cf5a338146103d257806376137dd9146103fe5780637f05b9ef14610422578063aa9fa2741461042a57610151565b806330f6eb161161011957806330f6eb16146102be57806338a0fdde146102ea5780633d84b8c1146102f2578063419ce264146103185780634476d66a14610320578063532513891461033d57610151565b80630f3a053314610156578063128b265f1461018e578063141f211c146101ad578063171d54dd146101e15780631bcb6fa214610251575b600080fd5b61017c6004803603602081101561016c57600080fd5b5035600160a060020a031661062a565b60408051918252519081900360200190f35b6101ab600480360360208110156101a457600080fd5b5035610691565b005b61017c600480360360608110156101c357600080fd5b50803590600160a060020a03602082013581169160400135166106c5565b6101ab600480360360208110156101f757600080fd5b81019060208101813564010000000081111561021257600080fd5b82018360208201111561022457600080fd5b8035906020019184602083028401116401000000008311171561024657600080fd5b50909250905061073e565b61026e6004803603602081101561026757600080fd5b50356107df565b60408051602080825283518183015283519192839290830191858101910280838360005b838110156102aa578181015183820152602001610292565b505050509050019250505060405180910390f35b61017c600480360360408110156102d457600080fd5b50600160a060020a038135169060200135610894565b6101ab610905565b61017c6004803603602081101561030857600080fd5b5035600160a060020a0316610d7f565b61026e610de3565b61017c6004803603602081101561033657600080fd5b5035610e7d565b6101ab6004803603602081101561035357600080fd5b5035610ed8565b61017c610f09565b6101ab6004803603602081101561037857600080fd5b81019060208101813564010000000081111561039357600080fd5b8201836020820111156103a557600080fd5b803590602001918460208302840111640100000000831117156103c757600080fd5b509092509050610f4a565b61026e600480360360408110156103e857600080fd5b5080359060200135600160a060020a0316610fe6565b6104066110c4565b60408051600160a060020a039092168252519081900360200190f35b61017c6110c4565b6101ab6004803603604081101561044057600080fd5b5080359060200135600160a060020a03166110c9565b61026e61119b565b61017c6004803603602081101561047457600080fd5b5035600160a060020a0316611232565b6104066004803603602081101561049a57600080fd5b5035611296565b61017c600480360360208110156104b757600080fd5b5035600160a060020a03166112ea565b61017c61134e565b610591600480360360408110156104e557600080fd5b81019060208101813564010000000081111561050057600080fd5b82018360208201111561051257600080fd5b8035906020019184602083028401116401000000008311171561053457600080fd5b91939092909160208101903564010000000081111561055257600080fd5b82018360208201111561056457600080fd5b8035906020019184602083028401116401000000008311171561058657600080fd5b50909250905061137d565b604051808060200180602001838103835285818151815260200191508051906020019060200280838360005b838110156105d55781810151838201526020016105bd565b50505050905001838103825284818151815260200191508051906020019060200280838360005b838110156106145781810151838201526020016105fc565b5050505090500194505050505060405180910390f35b604080517f65787472615265636569766572416d6f756e7400000000000000000000000000602080830191909152600160a060020a03841682840152825180830384018152606090920183528151918101919091206000908152600290915220545b919050565b61069a336113f1565b15156106a557600080fd5b8015156106b157600080fd5b6106c26106bc611459565b82611557565b50565b604080517f736e617073686f745374616b65416d6f756e740000000000000000000000000060208083019190915281830195909552600160a060020a039384166060820152919092166080808301919091528251808303909101815260a090910182528051908301206000908152600290925290205490565b604080517f6f776e65720000000000000000000000000000000000000000000000000000008152815190819003600501902060009081526004602052205433600160a060020a039091161461079257600080fd5b604080517f657263546f4e617469766542726964676573416c6c6f77656400000000000000815281519081900360190190206000908152600b602052206107da9083836123c4565b505050565b604080517f736e617073686f7456616c696461746f7273000000000000000000000000000060208083019190915281830184905282518083038401815260608381018086528251928401929092206000908152600b84528590208054608094810286018501909652858352909491939092018282801561088857602002820191906000526020600020905b8154600160a060020a0316815260019091019060200180831161086a575b50505050509050919050565b604080517f6d696e746564466f724163636f756e74496e426c6f636b000000000000000000602080830191909152600160a060020a03851682840152606080830185905283518084039091018152608090920183528151918101919091206000908152600290915220545b92915050565b331561091057600080fd5b60008090506000606080600080600086600160a060020a031663794c0c686040518163ffffffff1660e060020a02815260040160206040518083038186803b15801561095b57600080fd5b505afa15801561096f573d6000803e3d6000fd5b505050506040513d602081101561098557600080fd5b5051905060028110610a3657600119810161099f816107df565b9550600093505b8551841015610a345785848151811015156109bd57fe5b9060200190602002015196506109d681888960006115d6565b6109e08188610fe6565b9450600092505b8451831015610a1f57610a1481888786815181101515610a0357fe5b9060200190602002015160006115d6565b6001909201916109e7565b610a298188611651565b6001909301926109a6565b505b86600160a060020a031663b7ab4db56040518163ffffffff1660e060020a02815260040160006040518083038186803b158015610a7257600080fd5b505afa158015610a86573d6000803e3d6000fd5b505050506040513d6000823e601f3d908101601f191682016040526020811015610aaf57600080fd5b810190808051640100000000811115610ac757600080fd5b82016020810184811115610ada57600080fd5b8151856020820283011164010000000082111715610af757600080fd5b50509291905050509450610b0b81866116dc565b600092505b8451831015610d76578483815181101515610b2757fe5b6020908102909101810151604080517fa697ecff000000000000000000000000000000000000000000000000000000008152600160a060020a038084166004830181905260248301529151929950610bd49385938b938493908e169263a697ecff92604480840193829003018186803b158015610ba357600080fd5b505afa158015610bb7573d6000803e3d6000fd5b505050506040513d6020811015610bcd57600080fd5b50516115d6565b86600160a060020a031663cddb3e7b876040518263ffffffff1660e060020a0281526004018082600160a060020a0316600160a060020a0316815260200191505060006040518083038186803b158015610c2d57600080fd5b505afa158015610c41573d6000803e3d6000fd5b505050506040513d6000823e601f3d908101601f191682016040526020811015610c6a57600080fd5b810190808051640100000000811115610c8257600080fd5b82016020810184811115610c9557600080fd5b8151856020820283011164010000000082111715610cb257600080fd5b5090975060009550505050505b8351821015610d6057610d5581878685815181101515610cdb57fe5b906020019060200201518a600160a060020a031663a697ecff8b8a89815181101515610d0357fe5b60209081029091018101516040805160e060020a63ffffffff8716028152600160a060020a03948516600482015293909116602484015251604480840193829003018186803b158015610ba357600080fd5b600190910190610cbf565b610d6b818786611744565b600190920191610b10565b50505050505050565b604080517f6d696e746564466f724163636f756e7400000000000000000000000000000000602080830191909152600160a060020a039390931681830152815180820383018152606090910182528051908301206000908152600290925290205490565b604080517f657263546f4e617469766542726964676573416c6c6f77656400000000000000815281519081900360190181206000908152600b6020908152908390208054808302840183019094528383526060939091830182828015610e7257602002820191906000526020600020905b8154600160a060020a03168152600190910190602001808311610e54575b505050505090505b90565b604080517f6d696e746564496e426c6f636b0000000000000000000000000000000000000060208083019190915281830193909352815180820383018152606090910182528051908301206000908152600290925290205490565b610ee1336117c6565b1515610eec57600080fd5b801515610ef857600080fd5b6106c2610f03611459565b82611824565b604080517f6d696e746564546f74616c6c79000000000000000000000000000000000000008152815190819003600d01902060009081526002602052205490565b604080517f6f776e65720000000000000000000000000000000000000000000000000000008152815190819003600501902060009081526004602052205433600160a060020a0390911614610f9e57600080fd5b604080517f6e6174697665546f45726342726964676573416c6c6f77656400000000000000815281519081900360190190206000908152600b602052206107da9083836123c4565b6060600b60007f736e617073686f745374616b657273000000000000000000000000000000000085856040516020018084815260200183815260200182600160a060020a0316600160a060020a0316815260200193505050506040516020818303038152906040528051906020012081526020019081526020016000208054806020026020016040519081016040528092919081815260200182805480156110b757602002820191906000526020600020905b8154600160a060020a03168152600190910190602001808311611099575b5050505050905092915050565b600081565b6110d2336117c6565b15156110dd57600080fd5b8115156110e957600080fd5b600160a060020a03811615156110fe57600080fd5b60006111098261062a565b905080151561111b5761111b8261188f565b61113461112e828563ffffffff6118fb16565b83611914565b61115661115084611144336112ea565b9063ffffffff6118fb16565b33611976565b6040805184815290513391600160a060020a038516917f3c798bbcf33115b42c728b8504cff11dd58736e9fa789f1cda2738db7d696b2a9181900360200190a3505050565b604080517f6e6174697665546f45726342726964676573416c6c6f77656400000000000000815281519081900360190181206000908152600b6020908152908390208054808302840183019094528383526060939091830182828015610e7257602002820191906000526020600020908154600160a060020a03168152600190910190602001808311610e54575050505050905090565b604080517f6d696e746564546f74616c6c7942794272696467650000000000000000000000602080830191909152600160a060020a039390931681830152815180820383018152606090910182528051908301206000908152600290925290205490565b604080516000805160206125248339815191528152815190819003600e0190206000908152600b6020529081208054839081106112cf57fe5b600091825260209091200154600160a060020a031692915050565b604080517f627269646765416d6f756e740000000000000000000000000000000000000000602080830191909152600160a060020a039390931681830152815180820383018152606090910182528051908301206000908152600290925290205490565b604080516000805160206125248339815191528152815190819003600e0190206000908152600b602052205490565b60608073fffffffffffffffffffffffffffffffffffffffe33146113a057600080fd5b6113dc8686808060200260200160405190810160405280939291908181526020018383602002808284376000920191909152506119d892505050565b6113e4611c3e565b9150915094509492505050565b600060606113fd61119b565b905060005b815181101561144f57818181518110151561141957fe5b90602001906020020151600160a060020a031684600160a060020a031614156114475760019250505061068c565b600101611402565b5060009392505050565b60008060009050600081600160a060020a031663794c0c686040518163ffffffff1660e060020a02815260040160206040518083038186803b15801561149e57600080fd5b505afa1580156114b2573d6000803e3d6000fd5b505050506040513d60208110156114c857600080fd5b505190508015156114de57600092505050610e7a565b81600160a060020a031663b927ef436040518163ffffffff1660e060020a02815260040160206040518083038186803b15801561151a57600080fd5b505afa15801561152e573d6000803e3d6000fd5b505050506040513d602081101561154457600080fd5b5051151561155157600019015b91505090565b604080517f627269646765546f6b656e4665650000000000000000000000000000000000006020808301919091528183018590528251808303840181526060909201835281519181019190912060008181526002909252919020546115c2908363ffffffff6118fb16565b600091825260026020526040909120555050565b604080517f736e617073686f745374616b65416d6f756e740000000000000000000000000060208083019190915281830196909652600160a060020a039485166060820152929093166080808401919091528351808403909101815260a0909201835281519184019190912060009081526002909352912055565b600b60007f736e617073686f745374616b657273000000000000000000000000000000000084846040516020018084815260200183815260200182600160a060020a0316600160a060020a03168152602001935050505060405160208183030381529060405280519060200120815260200190815260200160002060006116d89190612434565b5050565b604080517f736e617073686f7456616c696461746f72730000000000000000000000000000602080830191909152818301859052825180830384018152606090920183528151918101919091206000908152600b82529190912082516107da92840190612452565b604080517f736e617073686f745374616b6572730000000000000000000000000000000000602080830191909152818301869052600160a060020a03851660608084019190915283518084039091018152608090920183528151918101919091206000908152600b82529190912082516117c092840190612452565b50505050565b600060606117d2610de3565b905060005b815181101561144f5781818151811015156117ee57fe5b90602001906020020151600160a060020a031684600160a060020a0316141561181c5760019250505061068c565b6001016117d7565b604080517f6272696467654e617469766546656500000000000000000000000000000000006020808301919091528183018590528251808303840181526060909201835281519181019190912060008181526002909252919020546115c2908363ffffffff6118fb16565b604080516000805160206125248339815191528152815190819003600e0190206000908152600b60209081529181208054600181018255908252919020018054600160a060020a0390921673ffffffffffffffffffffffffffffffffffffffff19909216919091179055565b60008282018381101561190d57600080fd5b9392505050565b604080517f65787472615265636569766572416d6f756e7400000000000000000000000000602080830191909152600160a060020a03909316818301528151808203830181526060909101825280519083012060009081526002909252902055565b604080517f627269646765416d6f756e740000000000000000000000000000000000000000602080830191909152600160a060020a03909316818301528151808203830181526060909101825280519083012060009081526002909252902055565b600080600160a060020a031663856e84886040518163ffffffff1660e060020a02815260040160206040518083038186803b158015611a1657600080fd5b505afa158015611a2a573d6000803e3d6000fd5b505050506040513d6020811015611a4057600080fd5b506106c2915050565b8551811015611c3657606080611a88868985815181101515611a6757fe5b9060200190602002015185600014611a7f5787611a83565b8688015b611e63565b9150915086600160a060020a031663e2f764a383836040518363ffffffff1660e060020a028152600401808060200180602001838103835285818151815260200191508051906020019060200280838360005b83811015611af3578181015183820152602001611adb565b50505050905001838103825284818151815260200191508051906020019060200280838360005b83811015611b32578181015183820152602001611b1a565b50505050905001945050505050600060405180830381600087803b158015611b5957600080fd5b505af1158015611b6d573d6000803e3d6000fd5b505050507f634e2dddb29f90d7f8048d9de4850a71fad57dba99c4d1513a650a474a76473f8282604051808060200180602001838103835285818151815260200191508051906020019060200280838360005b83811015611bd8578181015183820152602001611bc0565b50505050905001838103825284818151815260200191508051906020019060200280838360005b83811015611c17578181015183820152602001611bff565b5050505090500194505050505060405180910390a15050600101611a49565b505050505050565b6060806000611c4b61134e565b905080604051908082528060200260200182016040528015611c77578160200160208202803883390190505b50925080604051908082528060200260200182016040528015611ca4578160200160208202803883390190505b50915060005b81811015611d2b576000611cbd82611296565b90506000611cca8261062a565b9050611cd7600083611914565b818684815181101515611ce657fe5b600160a060020a0390921660209283029091019091015284518190869085908110611d0d57fe5b60209081029091010152611d21818361212a565b5050600101611caa565b6060611d35610de3565b9050600091505b8051821015611d995760008183815181101515611d5557fe5b9060200190602002015190506000611d6c826112ea565b90506000811115611d8c57611d82600083611976565b611d8c81836122cb565b5050600190910190611d3c565b611da161233e565b7f10fee3decd0f6ad0c977fcb2c1c5992fa39a944deb348ea435790b02b80515238585604051808060200180602001838103835285818151815260200191508051906020019060200280838360005b83811015611e08578181015183820152602001611df0565b50505050905001838103825284818151815260200191508051906020019060200280838360005b83811015611e47578181015183820152602001611e2f565b5050505090500194505050505060405180910390a15050509091565b60608060006060611e748787610fe6565b8051909150611e8a90600163ffffffff6118fb16565b604051908082528060200260200182016040528015611eb3578160200160208202803883390190505b5093508351604051908082528060200260200182016040528015611ee1578160200160208202803883390190505b5092506000611ef18888896106c5565b600093509050825b8251841015611f3057611f2489898587815181101515611f1557fe5b906020019060200201516106c5565b60019094019301611ef9565b600093505b8251841015612033576000611f538a8a8688815181101515611f1557fe5b90508385815181101515611f6357fe5b906020019060200201518786815181101515611f7b57fe5b600160a060020a0390921660209283029091019091015281831115611fd957611fbc838301611fb08a8463ffffffff61237516565b9063ffffffff6123a016565b8686815181101515611fca57fe5b60209081029091010152612027565b61200e611fed83600a63ffffffff61237516565b611fb060076120028c8663ffffffff61237516565b9063ffffffff61237516565b868681518110151561201c57fe5b602090810290910101525b50600190930192611f35565b87868581518110151561204257fe5b600160a060020a039092166020928302909101909101528082111561209457612077828201611fb0898563ffffffff61237516565b858581518110151561208557fe5b602090810290910101526120c3565b6120aa600a611fb089600363ffffffff61237516565b85858151811015156120b857fe5b602090810290910101525b600093505b84518410156120f85784848151811015156120df57fe5b60209081029091010151909603956001909301926120c8565b86856001860381518110151561210a57fe5b906020019060200201818151019150818152505050505050935093915050565b604080517f6d696e746564466f724163636f756e74496e426c6f636b000000000000000000602080830191909152600160a060020a0384168284018190524360608085019190915284518085039091018152608084018552805190830120600090815260028084528582208890557f6d696e746564466f724163636f756e740000000000000000000000000000000060a086015260c0808601939093528551808603909301835260e090940185528151918301919091208082529290915291909120546121fd908463ffffffff6118fb16565b60009182526002602081815260408085209390935582517f6d696e746564496e426c6f636b000000000000000000000000000000000000008183015243818501528351808203850181526060909101845280519082012080855291905291205461226d908463ffffffff6118fb16565b60009182526002602081815260408085209390935582517f6d696e746564546f74616c6c79000000000000000000000000000000000000008152835190819003600d0190208085529190529120546115c2908463ffffffff6118fb16565b604080517f6d696e746564546f74616c6c7942794272696467650000000000000000000000602080830191909152600160a060020a038416828401528251808303840181526060909201835281519181019190912060008181526002909252919020546115c2908463ffffffff6118fb16565b604080516000805160206125248339815191528152815190819003600e0190206000908152600b6020529081206106c290826124b4565b6000821515612386575060006108ff565b82820282848281151561239557fe5b041461190d57600080fd5b60008082116123ae57600080fd5b600082848115156123bb57fe5b04949350505050565b828054828255906000526020600020908101928215612424579160200282015b8281111561242457815473ffffffffffffffffffffffffffffffffffffffff1916600160a060020a038435161782556020909201916001909101906123e4565b506124309291506124d8565b5090565b50805460008255906000526020600020908101906106c29190612509565b828054828255906000526020600020908101928215612424579160200282015b82811115612424578251825473ffffffffffffffffffffffffffffffffffffffff1916600160a060020a03909116178255602090920191600190910190612472565b8154818355818111156107da576000838152602090206107da918101908301612509565b610e7a91905b8082111561243057805473ffffffffffffffffffffffffffffffffffffffff191681556001016124de565b610e7a91905b80821115612430576000815560010161250f56fe6578747261526563656976657273000000000000000000000000000000000000a165627a7a723058203f626f520d1e30c85a8b827ad20c809974441872d168c8e93cb576089c0b69690029",
  "source": "pragma solidity 0.5.2;\n\nimport \"./abstracts/BlockRewardBase.sol\";\nimport \"./interfaces/IERC20Minting.sol\";\n\n\ncontract BlockRewardHBBFT is BlockRewardBase {\n\n    // ============================================== Constants =======================================================\n\n    // This value must be changed before deploy\n    uint256 public constant BLOCK_REWARD = 0 ether; // in ERC20 tokens\n\n    // ================================================ Events ========================================================\n\n    event RewardedERC20ByBlock(address[] receivers, uint256[] rewards);\n\n    // =============================================== Setters ========================================================\n\n    function reward(address[] calldata benefactors, uint16[] calldata/*kind*/)\n        external\n        onlySystem\n        returns (address[] memory, uint256[] memory)\n    {\n        // Mint ERC20 tokens to validators and their stakers as block reward.\n        // This is not bridge's fee distribution.\n        // This call makes sense only if `BLOCK_REWARD` and `ERC20_TOKEN_CONTRACT`\n        // constants are not equal to zero.\n        _mintTokensForStakers(benefactors);\n\n        // We don't accrue any block reward in native coins to validator here.\n        // We just mint native coins by bridge if needed.\n        return _mintNativeCoinsByErcToNativeBridge();\n    }\n\n    // =============================================== Private ========================================================\n\n    // Mint ERC20 tokens for each staker of each active validator\n    function _mintTokensForStakers(address[] memory benefactors) internal {\n        IERC20Minting erc20Contract = IERC20Minting(IValidatorSet(VALIDATOR_SET_CONTRACT).erc20TokenContract());\n\n        if (BLOCK_REWARD == 0) return;\n        if (address(erc20Contract) == address(0)) return;\n\n        uint256 stakingEpoch = _getStakingEpoch();\n\n        if (stakingEpoch == 0) {\n            return;\n        }\n\n        uint256 poolReward = BLOCK_REWARD / snapshotValidators(stakingEpoch).length;\n        uint256 remainder = BLOCK_REWARD % snapshotValidators(stakingEpoch).length;\n\n        for (uint256 i = 0; i < benefactors.length; i++) {\n            (\n                address[] memory receivers,\n                uint256[] memory rewards\n            ) = _distributePoolReward(stakingEpoch, benefactors[i], i == 0 ? poolReward + remainder : poolReward);\n\n            erc20Contract.mintReward(receivers, rewards);\n            \n            emit RewardedERC20ByBlock(receivers, rewards);\n        }\n    }\n}\n",
  "sourcePath": "/home/poa/Dropbox/POA/GitHub/pos-contracts/contracts/BlockRewardHBBFT.sol",
  "compiler": {
    "name": "solc",
    "version": "0.5.2+commit.1df8f40c.Emscripten.clang"
  },
  "schemaVersion": "3.0.1",
  "updatedAt": "2019-01-14T07:31:36.922Z",
  "devdoc": {
    "methods": {}
  },
  "userdoc": {
    "methods": {}
  }
}