{
  "contractName": "BlockRewardBase",
  "abi": [
    {
      "constant": true,
      "inputs": [],
      "name": "VALIDATOR_SET_CONTRACT",
      "outputs": [
        {
          "name": "",
          "type": "address"
        }
      ],
      "payable": false,
      "stateMutability": "view",
      "type": "function"
    },
    {
      "anonymous": false,
      "inputs": [
        {
          "indexed": false,
          "name": "amount",
          "type": "uint256"
        },
        {
          "indexed": true,
          "name": "receiver",
          "type": "address"
        },
        {
          "indexed": true,
          "name": "bridge",
          "type": "address"
        }
      ],
      "name": "AddedReceiver",
      "type": "event"
    },
    {
      "anonymous": false,
      "inputs": [
        {
          "indexed": false,
          "name": "receivers",
          "type": "address[]"
        },
        {
          "indexed": false,
          "name": "rewards",
          "type": "uint256[]"
        }
      ],
      "name": "MintedByBridge",
      "type": "event"
    },
    {
      "constant": false,
      "inputs": [
        {
          "name": "_amount",
          "type": "uint256"
        }
      ],
      "name": "addBridgeNativeFeeReceivers",
      "outputs": [],
      "payable": false,
      "stateMutability": "nonpayable",
      "type": "function"
    },
    {
      "constant": false,
      "inputs": [
        {
          "name": "_amount",
          "type": "uint256"
        }
      ],
      "name": "addBridgeTokenFeeReceivers",
      "outputs": [],
      "payable": false,
      "stateMutability": "nonpayable",
      "type": "function"
    },
    {
      "constant": false,
      "inputs": [
        {
          "name": "_amount",
          "type": "uint256"
        },
        {
          "name": "_receiver",
          "type": "address"
        }
      ],
      "name": "addExtraReceiver",
      "outputs": [],
      "payable": false,
      "stateMutability": "nonpayable",
      "type": "function"
    },
    {
      "constant": false,
      "inputs": [
        {
          "name": "_bridgesAllowed",
          "type": "address[]"
        }
      ],
      "name": "setErcToNativeBridgesAllowed",
      "outputs": [],
      "payable": false,
      "stateMutability": "nonpayable",
      "type": "function"
    },
    {
      "constant": false,
      "inputs": [
        {
          "name": "_bridgesAllowed",
          "type": "address[]"
        }
      ],
      "name": "setNativeToErcBridgesAllowed",
      "outputs": [],
      "payable": false,
      "stateMutability": "nonpayable",
      "type": "function"
    },
    {
      "constant": false,
      "inputs": [],
      "name": "setSnapshot",
      "outputs": [],
      "payable": false,
      "stateMutability": "nonpayable",
      "type": "function"
    },
    {
      "constant": true,
      "inputs": [
        {
          "name": "_bridge",
          "type": "address"
        }
      ],
      "name": "bridgeAmount",
      "outputs": [
        {
          "name": "",
          "type": "uint256"
        }
      ],
      "payable": false,
      "stateMutability": "view",
      "type": "function"
    },
    {
      "constant": true,
      "inputs": [],
      "name": "ercToNativeBridgesAllowed",
      "outputs": [
        {
          "name": "",
          "type": "address[]"
        }
      ],
      "payable": false,
      "stateMutability": "view",
      "type": "function"
    },
    {
      "constant": true,
      "inputs": [
        {
          "name": "_index",
          "type": "uint256"
        }
      ],
      "name": "extraReceiverByIndex",
      "outputs": [
        {
          "name": "",
          "type": "address"
        }
      ],
      "payable": false,
      "stateMutability": "view",
      "type": "function"
    },
    {
      "constant": true,
      "inputs": [
        {
          "name": "_receiver",
          "type": "address"
        }
      ],
      "name": "extraReceiverAmount",
      "outputs": [
        {
          "name": "",
          "type": "uint256"
        }
      ],
      "payable": false,
      "stateMutability": "view",
      "type": "function"
    },
    {
      "constant": true,
      "inputs": [],
      "name": "extraReceiversLength",
      "outputs": [
        {
          "name": "",
          "type": "uint256"
        }
      ],
      "payable": false,
      "stateMutability": "view",
      "type": "function"
    },
    {
      "constant": true,
      "inputs": [
        {
          "name": "_account",
          "type": "address"
        }
      ],
      "name": "mintedForAccount",
      "outputs": [
        {
          "name": "",
          "type": "uint256"
        }
      ],
      "payable": false,
      "stateMutability": "view",
      "type": "function"
    },
    {
      "constant": true,
      "inputs": [
        {
          "name": "_account",
          "type": "address"
        },
        {
          "name": "_blockNumber",
          "type": "uint256"
        }
      ],
      "name": "mintedForAccountInBlock",
      "outputs": [
        {
          "name": "",
          "type": "uint256"
        }
      ],
      "payable": false,
      "stateMutability": "view",
      "type": "function"
    },
    {
      "constant": true,
      "inputs": [
        {
          "name": "_blockNumber",
          "type": "uint256"
        }
      ],
      "name": "mintedInBlock",
      "outputs": [
        {
          "name": "",
          "type": "uint256"
        }
      ],
      "payable": false,
      "stateMutability": "view",
      "type": "function"
    },
    {
      "constant": true,
      "inputs": [
        {
          "name": "_bridge",
          "type": "address"
        }
      ],
      "name": "mintedTotallyByBridge",
      "outputs": [
        {
          "name": "",
          "type": "uint256"
        }
      ],
      "payable": false,
      "stateMutability": "view",
      "type": "function"
    },
    {
      "constant": true,
      "inputs": [],
      "name": "mintedTotally",
      "outputs": [
        {
          "name": "",
          "type": "uint256"
        }
      ],
      "payable": false,
      "stateMutability": "view",
      "type": "function"
    },
    {
      "constant": true,
      "inputs": [],
      "name": "nativeToErcBridgesAllowed",
      "outputs": [
        {
          "name": "",
          "type": "address[]"
        }
      ],
      "payable": false,
      "stateMutability": "view",
      "type": "function"
    },
    {
      "constant": true,
      "inputs": [
        {
          "name": "_stakingEpoch",
          "type": "uint256"
        },
        {
          "name": "_validator",
          "type": "address"
        },
        {
          "name": "_staker",
          "type": "address"
        }
      ],
      "name": "snapshotStakeAmount",
      "outputs": [
        {
          "name": "",
          "type": "uint256"
        }
      ],
      "payable": false,
      "stateMutability": "view",
      "type": "function"
    },
    {
      "constant": true,
      "inputs": [
        {
          "name": "_stakingEpoch",
          "type": "uint256"
        },
        {
          "name": "_validator",
          "type": "address"
        }
      ],
      "name": "snapshotStakers",
      "outputs": [
        {
          "name": "",
          "type": "address[]"
        }
      ],
      "payable": false,
      "stateMutability": "view",
      "type": "function"
    },
    {
      "constant": true,
      "inputs": [
        {
          "name": "_stakingEpoch",
          "type": "uint256"
        }
      ],
      "name": "snapshotValidators",
      "outputs": [
        {
          "name": "",
          "type": "address[]"
        }
      ],
      "payable": false,
      "stateMutability": "view",
      "type": "function"
    }
  ],
  "bytecode": "0x608060405234801561001057600080fd5b506119d5806100206000396000f3fe608060405234801561001057600080fd5b506004361061013b5760003560e060020a9004806353251389116100bc578063aa9fa27411610080578063aa9fa2741461040c578063b25a00fd14610438578063b4a523e814610440578063db456f7714610466578063e73b9e2f14610483578063efdc4d01146104a95761013b565b80635325138914610327578063553a5c85146103445780636834fc901461034c5780636cf5a338146103bc57806376137dd9146103e85761013b565b806330f6eb161161010357806330f6eb16146102a857806338a0fdde146102d45780633d84b8c1146102dc578063419ce264146103025780634476d66a1461030a5761013b565b80630f3a053314610140578063128b265f14610178578063141f211c14610197578063171d54dd146101cb5780631bcb6fa21461023b575b600080fd5b6101666004803603602081101561015657600080fd5b5035600160a060020a03166104b1565b60408051918252519081900360200190f35b6101956004803603602081101561018e57600080fd5b5035610518565b005b610166600480360360608110156101ad57600080fd5b50803590600160a060020a036020820135811691604001351661054c565b610195600480360360208110156101e157600080fd5b8101906020810181356401000000008111156101fc57600080fd5b82018360208201111561020e57600080fd5b8035906020019184602083028401116401000000008311171561023057600080fd5b5090925090506105c5565b6102586004803603602081101561025157600080fd5b5035610666565b60408051602080825283518183015283519192839290830191858101910280838360005b8381101561029457818101518382015260200161027c565b505050509050019250505060405180910390f35b610166600480360360408110156102be57600080fd5b50600160a060020a03813516906020013561071b565b61019561078a565b610166600480360360208110156102f257600080fd5b5035600160a060020a0316610c2d565b610258610c91565b6101666004803603602081101561032057600080fd5b5035610d2b565b6101956004803603602081101561033d57600080fd5b5035610d86565b610166610db7565b6101956004803603602081101561036257600080fd5b81019060208101813564010000000081111561037d57600080fd5b82018360208201111561038f57600080fd5b803590602001918460208302840111640100000000831117156103b157600080fd5b509092509050610df8565b610258600480360360408110156103d257600080fd5b5080359060200135600160a060020a0316610e94565b6103f0610f72565b60408051600160a060020a039092168252519081900360200190f35b6101956004803603604081101561042257600080fd5b5080359060200135600160a060020a0316610f8a565b61025861105c565b6101666004803603602081101561045657600080fd5b5035600160a060020a03166110f3565b6103f06004803603602081101561047c57600080fd5b5035611157565b6101666004803603602081101561049957600080fd5b5035600160a060020a03166111bd565b610166611221565b604080517f65787472615265636569766572416d6f756e7400000000000000000000000000602080830191909152600160a060020a03841682840152825180830384018152606090920183528151918101919091206000908152600290915220545b919050565b61052133611262565b151561052c57600080fd5b80151561053857600080fd5b6105496105436112ca565b826113db565b50565b604080517f736e617073686f745374616b65416d6f756e740000000000000000000000000060208083019190915281830195909552600160a060020a039384166060820152919092166080808301919091528251808303909101815260a090910182528051908301206000908152600290925290205490565b604080517f6f776e65720000000000000000000000000000000000000000000000000000008152815190819003600501902060009081526004602052205433600160a060020a039091161461061957600080fd5b604080517f657263546f4e617469766542726964676573416c6c6f77656400000000000000815281519081900360190190206000908152600b6020522061066190838361186e565b505050565b604080517f736e617073686f7456616c696461746f7273000000000000000000000000000060208083019190915281830184905282518083038401815260608381018086528251928401929092206000908152600b84528590208054608094810286018501909652858352909491939092018282801561070f57602002820191906000526020600020905b8154600160a060020a031681526001909101906020018083116106f1575b50505050509050919050565b604080517f6d696e746564466f724163636f756e74496e426c6f636b000000000000000000602080830191909152600160a060020a0394909416818301526060808201939093528151808203909301835260800181528151918301919091206000908152600290925290205490565b33731000000000000000000000000000000000000001146107aa57600080fd5b600073100000000000000000000000000000000000000190506000606080600080600086600160a060020a031663794c0c686040518163ffffffff1660e060020a02815260040160206040518083038186803b15801561080957600080fd5b505afa15801561081d573d6000803e3d6000fd5b505050506040513d602081101561083357600080fd5b50519050600281106108e457600119810161084d81610666565b9550600093505b85518410156108e257858481518110151561086b57fe5b906020019060200201519650610884818889600061145a565b61088e8188610e94565b9450600092505b84518310156108cd576108c2818887868151811015156108b157fe5b90602001906020020151600061145a565b600190920191610895565b6108d781886114d5565b600190930192610854565b505b86600160a060020a031663b7ab4db56040518163ffffffff1660e060020a02815260040160006040518083038186803b15801561092057600080fd5b505afa158015610934573d6000803e3d6000fd5b505050506040513d6000823e601f3d908101601f19168201604052602081101561095d57600080fd5b81019080805164010000000081111561097557600080fd5b8201602081018481111561098857600080fd5b81518560208202830111640100000000821117156109a557600080fd5b505092919050505094506109b98186611560565b600092505b8451831015610c245784838151811015156109d557fe5b6020908102909101810151604080517fa697ecff000000000000000000000000000000000000000000000000000000008152600160a060020a038084166004830181905260248301529151929950610a829385938b938493908e169263a697ecff92604480840193829003018186803b158015610a5157600080fd5b505afa158015610a65573d6000803e3d6000fd5b505050506040513d6020811015610a7b57600080fd5b505161145a565b86600160a060020a031663cddb3e7b876040518263ffffffff1660e060020a0281526004018082600160a060020a0316600160a060020a0316815260200191505060006040518083038186803b158015610adb57600080fd5b505afa158015610aef573d6000803e3d6000fd5b505050506040513d6000823e601f3d908101601f191682016040526020811015610b1857600080fd5b810190808051640100000000811115610b3057600080fd5b82016020810184811115610b4357600080fd5b8151856020820283011164010000000082111715610b6057600080fd5b5090975060009550505050505b8351821015610c0e57610c0381878685815181101515610b8957fe5b906020019060200201518a600160a060020a031663a697ecff8b8a89815181101515610bb157fe5b60209081029091018101516040805160e060020a63ffffffff8716028152600160a060020a03948516600482015293909116602484015251604480840193829003018186803b158015610a5157600080fd5b600190910190610b6d565b610c198187866115c8565b6001909201916109be565b50505050505050565b604080517f6d696e746564466f724163636f756e7400000000000000000000000000000000602080830191909152600160a060020a039390931681830152815180820383018152606090910182528051908301206000908152600290925290205490565b604080517f657263546f4e617469766542726964676573416c6c6f77656400000000000000815281519081900360190181206000908152600b6020908152908390208054808302840183019094528383526060939091830182828015610d2057602002820191906000526020600020905b8154600160a060020a03168152600190910190602001808311610d02575b505050505090505b90565b604080517f6d696e746564496e426c6f636b0000000000000000000000000000000000000060208083019190915281830193909352815180820383018152606090910182528051908301206000908152600290925290205490565b610d8f3361164a565b1515610d9a57600080fd5b801515610da657600080fd5b610549610db16112ca565b826116a8565b604080517f6d696e746564546f74616c6c79000000000000000000000000000000000000008152815190819003600d01902060009081526002602052205490565b604080517f6f776e65720000000000000000000000000000000000000000000000000000008152815190819003600501902060009081526004602052205433600160a060020a0390911614610e4c57600080fd5b604080517f6e6174697665546f45726342726964676573416c6c6f77656400000000000000815281519081900360190190206000908152600b6020522061066190838361186e565b6060600b60007f736e617073686f745374616b657273000000000000000000000000000000000085856040516020018084815260200183815260200182600160a060020a0316600160a060020a031681526020019350505050604051602081830303815290604052805190602001208152602001908152602001600020805480602002602001604051908101604052809291908181526020018280548015610f6557602002820191906000526020600020905b8154600160a060020a03168152600190910190602001808311610f47575b5050505050905092915050565b73100000000000000000000000000000000000000181565b610f933361164a565b1515610f9e57600080fd5b811515610faa57600080fd5b600160a060020a0381161515610fbf57600080fd5b6000610fca826104b1565b9050801515610fdc57610fdc82611713565b610ff5610fef828563ffffffff61179116565b836117aa565b61101761101184611005336111bd565b9063ffffffff61179116565b3361180c565b6040805184815290513391600160a060020a038516917f3c798bbcf33115b42c728b8504cff11dd58736e9fa789f1cda2738db7d696b2a9181900360200190a3505050565b604080517f6e6174697665546f45726342726964676573416c6c6f77656400000000000000815281519081900360190181206000908152600b6020908152908390208054808302840183019094528383526060939091830182828015610d2057602002820191906000526020600020908154600160a060020a03168152600190910190602001808311610d02575050505050905090565b604080517f6d696e746564546f74616c6c7942794272696467650000000000000000000000602080830191909152600160a060020a039390931681830152815180820383018152606090910182528051908301206000908152600290925290205490565b604080517f65787472615265636569766572730000000000000000000000000000000000008152815190819003600e0190206000908152600b6020529081208054839081106111a257fe5b600091825260209091200154600160a060020a031692915050565b604080517f627269646765416d6f756e740000000000000000000000000000000000000000602080830191909152600160a060020a039390931681830152815180820383018152606090910182528051908301206000908152600290925290205490565b604080517f65787472615265636569766572730000000000000000000000000000000000008152815190819003600e0190206000908152600b602052205490565b6000606061126e61105c565b905060005b81518110156112c057818181518110151561128a57fe5b90602001906020020151600160a060020a031684600160a060020a031614156112b857600192505050610513565b600101611273565b5060009392505050565b6000807310000000000000000000000000000000000000019050600081600160a060020a031663794c0c686040518163ffffffff1660e060020a02815260040160206040518083038186803b15801561132257600080fd5b505afa158015611336573d6000803e3d6000fd5b505050506040513d602081101561134c57600080fd5b5051905080151561136257600092505050610d28565b81600160a060020a031663b927ef436040518163ffffffff1660e060020a02815260040160206040518083038186803b15801561139e57600080fd5b505afa1580156113b2573d6000803e3d6000fd5b505050506040513d60208110156113c857600080fd5b505115156113d557600019015b91505090565b604080517f627269646765546f6b656e466565000000000000000000000000000000000000602080830191909152818301859052825180830384018152606090920183528151918101919091206000818152600290925291902054611446908363ffffffff61179116565b600091825260026020526040909120555050565b604080517f736e617073686f745374616b65416d6f756e740000000000000000000000000060208083019190915281830196909652600160a060020a039485166060820152929093166080808401919091528351808403909101815260a0909201835281519184019190912060009081526002909352912055565b600b60007f736e617073686f745374616b657273000000000000000000000000000000000084846040516020018084815260200183815260200182600160a060020a0316600160a060020a031681526020019350505050604051602081830303815290604052805190602001208152602001908152602001600020600061155c91906118de565b5050565b604080517f736e617073686f7456616c696461746f72730000000000000000000000000000602080830191909152818301859052825180830384018152606090920183528151918101919091206000908152600b8252919091208251610661928401906118fc565b604080517f736e617073686f745374616b6572730000000000000000000000000000000000602080830191909152818301869052600160a060020a03851660608084019190915283518084039091018152608090920183528151918101919091206000908152600b8252919091208251611644928401906118fc565b50505050565b60006060611656610c91565b905060005b81518110156112c057818181518110151561167257fe5b90602001906020020151600160a060020a031684600160a060020a031614156116a057600192505050610513565b60010161165b565b604080517f6272696467654e61746976654665650000000000000000000000000000000000602080830191909152818301859052825180830384018152606090920183528151918101919091206000818152600290925291902054611446908363ffffffff61179116565b604080517f65787472615265636569766572730000000000000000000000000000000000008152815190819003600e0190206000908152600b60209081529181208054600181018255908252919020018054600160a060020a0390921673ffffffffffffffffffffffffffffffffffffffff19909216919091179055565b6000828201838110156117a357600080fd5b9392505050565b604080517f65787472615265636569766572416d6f756e7400000000000000000000000000602080830191909152600160a060020a03909316818301528151808203830181526060909101825280519083012060009081526002909252902055565b604080517f627269646765416d6f756e740000000000000000000000000000000000000000602080830191909152600160a060020a03909316818301528151808203830181526060909101825280519083012060009081526002909252902055565b8280548282559060005260206000209081019282156118ce579160200282015b828111156118ce57815473ffffffffffffffffffffffffffffffffffffffff1916600160a060020a0384351617825560209092019160019091019061188e565b506118da92915061195e565b5090565b5080546000825590600052602060002090810190610549919061198f565b8280548282559060005260206000209081019282156118ce579160200282015b828111156118ce578251825473ffffffffffffffffffffffffffffffffffffffff1916600160a060020a0390911617825560209092019160019091019061191c565b610d2891905b808211156118da57805473ffffffffffffffffffffffffffffffffffffffff19168155600101611964565b610d2891905b808211156118da576000815560010161199556fea165627a7a72305820a141d404231448247837cebd45d35bd3d1fd698505f420560f36ddb8130e58540029",
  "source": "pragma solidity 0.5.2;\n\nimport \"../interfaces/IBlockReward.sol\";\nimport \"../interfaces/IValidatorSet.sol\";\nimport \"../eternal-storage/EternalStorage.sol\";\nimport \"../libs/SafeMath.sol\";\n\n\ncontract BlockRewardBase is EternalStorage, IBlockReward {\n    using SafeMath for uint256;\n\n    // ============================================== Constants =======================================================\n\n    // This address must be set before deploy\n    address public constant VALIDATOR_SET_CONTRACT = address(0x1000000000000000000000000000000000000001);\n\n    // ================================================ Events ========================================================\n\n    event AddedReceiver(uint256 amount, address indexed receiver, address indexed bridge);\n    event MintedByBridge(address[] receivers, uint256[] rewards);\n\n    // ============================================== Modifiers =======================================================\n\n    modifier onlyErcToNativeBridge {\n        require(_isErcToNativeBridge(msg.sender));\n        _;\n    }\n\n    modifier onlyNativeToErcBridge {\n        require(_isNativeToErcBridge(msg.sender));\n        _;\n    }\n\n    modifier onlyOwner() {\n        require(msg.sender == addressStorage[OWNER]);\n        _;\n    }\n\n    modifier onlySystem {\n        require(msg.sender == 0xffffFFFfFFffffffffffffffFfFFFfffFFFfFFfE);\n        _;\n    }\n\n    modifier onlyValidatorSet {\n        require(msg.sender == VALIDATOR_SET_CONTRACT);\n        _;\n    }\n\n    // =============================================== Setters ========================================================\n\n    function addBridgeNativeFeeReceivers(uint256 _amount) external onlyErcToNativeBridge {\n        require(_amount != 0);\n        _addBridgeNativeFee(_getStakingEpoch(), _amount);\n    }\n\n    function addBridgeTokenFeeReceivers(uint256 _amount) external onlyNativeToErcBridge {\n        require(_amount != 0);\n        _addBridgeTokenFee(_getStakingEpoch(), _amount);\n    }\n\n    function addExtraReceiver(uint256 _amount, address _receiver) external onlyErcToNativeBridge {\n        require(_amount != 0);\n        require(_receiver != address(0));\n        uint256 oldAmount = extraReceiverAmount(_receiver);\n        if (oldAmount == 0) {\n            _addExtraReceiver(_receiver);\n        }\n        _setExtraReceiverAmount(oldAmount.add(_amount), _receiver);\n        _setBridgeAmount(bridgeAmount(msg.sender).add(_amount), msg.sender);\n        emit AddedReceiver(_amount, _receiver, msg.sender);\n    }\n\n    function setErcToNativeBridgesAllowed(address[] calldata _bridgesAllowed) external onlyOwner {\n        addressArrayStorage[ERC_TO_NATIVE_BRIDGES_ALLOWED] = _bridgesAllowed;\n    }\n\n    function setNativeToErcBridgesAllowed(address[] calldata _bridgesAllowed) external onlyOwner {\n        addressArrayStorage[NATIVE_TO_ERC_BRIDGES_ALLOWED] = _bridgesAllowed;\n    }\n\n    function setSnapshot() external onlyValidatorSet {\n        IValidatorSet validatorSet = IValidatorSet(VALIDATOR_SET_CONTRACT);\n\n        address validator;\n        address[] memory validators;\n        address[] memory stakers;\n        uint256 i;\n        uint256 s;\n\n        uint256 stakingEpoch = validatorSet.stakingEpoch();\n\n        // Clear the snapshot of the staking epoch before last\n        if (stakingEpoch >= 2) {\n            uint256 stakingEpochBeforeLast = stakingEpoch - 2;\n\n            validators = snapshotValidators(stakingEpochBeforeLast);\n            for (i = 0; i < validators.length; i++) {\n                validator = validators[i];\n                _setSnapshotStakeAmount(stakingEpochBeforeLast, validator, validator, 0);\n                stakers = snapshotStakers(stakingEpochBeforeLast, validator);\n                for (s = 0; s < stakers.length; s++) {\n                    _setSnapshotStakeAmount(stakingEpochBeforeLast, validator, stakers[s], 0);\n                }\n                _clearSnapshotStakers(stakingEpochBeforeLast, validator);\n            }\n        }\n\n        // Set a new snapshot of the current staking epoch\n        validators = validatorSet.getValidators();\n        _setSnapshotValidators(stakingEpoch, validators);\n        for (i = 0; i < validators.length; i++) {\n            validator = validators[i];\n            _setSnapshotStakeAmount(\n                stakingEpoch,\n                validator,\n                validator,\n                validatorSet.stakeAmount(validator, validator)\n            );\n            stakers = validatorSet.poolStakers(validator);\n            for (s = 0; s < stakers.length; s++) {\n                _setSnapshotStakeAmount(\n                    stakingEpoch,\n                    validator,\n                    stakers[s],\n                    validatorSet.stakeAmount(validator, stakers[s])\n                );\n            }\n            _setSnapshotStakers(stakingEpoch, validator, stakers);\n        }\n    }\n\n    // =============================================== Getters ========================================================\n\n    function bridgeAmount(address _bridge) public view returns(uint256) {\n        return uintStorage[\n            keccak256(abi.encode(BRIDGE_AMOUNT, _bridge))\n        ];\n    }\n\n    function ercToNativeBridgesAllowed() public view returns(address[] memory) {\n        return addressArrayStorage[ERC_TO_NATIVE_BRIDGES_ALLOWED];\n    }\n\n    function extraReceiverByIndex(uint256 _index) public view returns(address) {\n        return addressArrayStorage[EXTRA_RECEIVERS][_index];\n    }\n\n    function extraReceiverAmount(address _receiver) public view returns(uint256) {\n        return uintStorage[\n            keccak256(abi.encode(EXTRA_RECEIVER_AMOUNT, _receiver))\n        ];\n    }\n\n    function extraReceiversLength() public view returns(uint256) {\n        return addressArrayStorage[EXTRA_RECEIVERS].length;\n    }\n\n    function mintedForAccount(address _account)\n        public\n        view\n        returns(uint256)\n    {\n        return uintStorage[\n            keccak256(abi.encode(MINTED_FOR_ACCOUNT, _account))\n        ];\n    }\n\n    function mintedForAccountInBlock(address _account, uint256 _blockNumber)\n        public\n        view\n        returns(uint256)\n    {\n        return uintStorage[\n            keccak256(abi.encode(MINTED_FOR_ACCOUNT_IN_BLOCK, _account, _blockNumber))\n        ];\n    }\n\n    function mintedInBlock(uint256 _blockNumber) public view returns(uint256) {\n        return uintStorage[\n            keccak256(abi.encode(MINTED_IN_BLOCK, _blockNumber))\n        ];\n    }\n\n    function mintedTotallyByBridge(address _bridge) public view returns(uint256) {\n        return uintStorage[\n            keccak256(abi.encode(MINTED_TOTALLY_BY_BRIDGE, _bridge))\n        ];\n    }\n\n    function mintedTotally() public view returns(uint256) {\n        return uintStorage[MINTED_TOTALLY];\n    }\n\n    function nativeToErcBridgesAllowed() public view returns(address[] memory ) {\n        return addressArrayStorage[NATIVE_TO_ERC_BRIDGES_ALLOWED];\n    }\n\n    function snapshotStakeAmount(\n        uint256 _stakingEpoch,\n        address _validator,\n        address _staker\n    ) public view returns(uint256) {\n        return uintStorage[\n            keccak256(abi.encode(SNAPSHOT_STAKE_AMOUNT, _stakingEpoch, _validator, _staker))\n        ];\n    }\n\n    function snapshotStakers(uint256 _stakingEpoch, address _validator) public view returns(address[] memory) {\n        return addressArrayStorage[\n            keccak256(abi.encode(SNAPSHOT_STAKERS, _stakingEpoch, _validator))\n        ];\n    }\n\n    function snapshotValidators(uint256 _stakingEpoch) public view returns(address[] memory) {\n        return addressArrayStorage[\n            keccak256(abi.encode(SNAPSHOT_VALIDATORS, _stakingEpoch))\n        ];\n    }\n\n    // =============================================== Private ========================================================\n\n    bytes32 internal constant ERC_TO_NATIVE_BRIDGES_ALLOWED = keccak256(\"ercToNativeBridgesAllowed\");\n    bytes32 internal constant EXTRA_RECEIVERS = keccak256(\"extraReceivers\");\n    bytes32 internal constant MINTED_TOTALLY = keccak256(\"mintedTotally\");\n    bytes32 internal constant NATIVE_TO_ERC_BRIDGES_ALLOWED = keccak256(\"nativeToErcBridgesAllowed\");\n    bytes32 internal constant OWNER = keccak256(\"owner\");\n\n    bytes32 internal constant BRIDGE_AMOUNT = \"bridgeAmount\";\n    bytes32 internal constant BRIDGE_NATIVE_FEE = \"bridgeNativeFee\";\n    bytes32 internal constant BRIDGE_TOKEN_FEE = \"bridgeTokenFee\";\n    bytes32 internal constant EXTRA_RECEIVER_AMOUNT = \"extraReceiverAmount\";\n    bytes32 internal constant MINTED_FOR_ACCOUNT = \"mintedForAccount\";\n    bytes32 internal constant MINTED_FOR_ACCOUNT_IN_BLOCK = \"mintedForAccountInBlock\";\n    bytes32 internal constant MINTED_IN_BLOCK = \"mintedInBlock\";\n    bytes32 internal constant MINTED_TOTALLY_BY_BRIDGE = \"mintedTotallyByBridge\";\n    bytes32 internal constant SNAPSHOT_STAKERS = \"snapshotStakers\";\n    bytes32 internal constant SNAPSHOT_STAKE_AMOUNT = \"snapshotStakeAmount\";\n    bytes32 internal constant SNAPSHOT_VALIDATORS = \"snapshotValidators\";\n\n    function _addBridgeNativeFee(uint256 _stakingEpoch, uint256 _amount) internal {\n        bytes32 hash = keccak256(abi.encode(BRIDGE_NATIVE_FEE, _stakingEpoch));\n        uintStorage[hash] = uintStorage[hash].add(_amount);\n    }\n\n    function _addBridgeTokenFee(uint256 _stakingEpoch, uint256 _amount) internal {\n        bytes32 hash = keccak256(abi.encode(BRIDGE_TOKEN_FEE, _stakingEpoch));\n        uintStorage[hash] = uintStorage[hash].add(_amount);\n    }\n\n    function _addExtraReceiver(address _receiver) internal {\n        addressArrayStorage[EXTRA_RECEIVERS].push(_receiver);\n    }\n\n    function _addMintedTotallyByBridge(uint256 _amount, address _bridge) internal {\n        bytes32 hash = keccak256(abi.encode(MINTED_TOTALLY_BY_BRIDGE, _bridge));\n        uintStorage[hash] = uintStorage[hash].add(_amount);\n    }\n\n    function _clearBridgeNativeFee(uint256 _stakingEpoch) internal {\n        uintStorage[\n            keccak256(abi.encode(BRIDGE_NATIVE_FEE, _stakingEpoch))\n        ] = 0;\n    }\n\n    function _clearBridgeTokenFee(uint256 _stakingEpoch) internal {\n        uintStorage[\n            keccak256(abi.encode(BRIDGE_TOKEN_FEE, _stakingEpoch))\n        ] = 0;\n    }\n\n    function _clearExtraReceivers() internal {\n        addressArrayStorage[EXTRA_RECEIVERS].length = 0;\n    }\n\n    function _clearSnapshotStakers(uint256 _stakingEpoch, address _validator) internal {\n        delete addressArrayStorage[\n            keccak256(abi.encode(SNAPSHOT_STAKERS, _stakingEpoch, _validator))\n        ];\n    }\n\n    // Accrue native coins to bridge's receivers if any\n    function _mintNativeCoinsByErcToNativeBridge()\n        internal\n        returns(address[] memory receivers, uint256[] memory rewards)\n    {\n        uint256 extraLength = extraReceiversLength();\n\n        receivers = new address[](extraLength);\n        rewards = new uint256[](extraLength);\n\n        uint256 i;\n        \n        for (i = 0; i < extraLength; i++) {\n            address extraAddress = extraReceiverByIndex(i);\n            uint256 extraAmount = extraReceiverAmount(extraAddress);\n            _setExtraReceiverAmount(0, extraAddress);\n            receivers[i] = extraAddress;\n            rewards[i] = extraAmount;\n            _setMinted(extraAmount, extraAddress);\n        }\n\n        address[] memory bridgesAllowed = ercToNativeBridgesAllowed();\n        for (i = 0; i < bridgesAllowed.length; i++) {\n            address bridgeAddress = bridgesAllowed[i];\n            uint256 bridgeAmountForBlock = bridgeAmount(bridgeAddress);\n\n            if (bridgeAmountForBlock > 0) {\n                _setBridgeAmount(0, bridgeAddress);\n                _addMintedTotallyByBridge(bridgeAmountForBlock, bridgeAddress);\n            }\n        }\n\n        _clearExtraReceivers();\n\n        emit MintedByBridge(receivers, rewards);\n\n        return (receivers, rewards);\n    }\n\n    function _setBridgeAmount(uint256 _amount, address _bridge) internal {\n        uintStorage[\n            keccak256(abi.encode(BRIDGE_AMOUNT, _bridge))\n        ] = _amount;\n    }\n\n    function _setExtraReceiverAmount(uint256 _amount, address _receiver) internal {\n        uintStorage[\n            keccak256(abi.encode(EXTRA_RECEIVER_AMOUNT, _receiver))\n        ] = _amount;\n    }\n\n    function _setMinted(uint256 _amount, address _account) internal {\n        bytes32 hash;\n\n        hash = keccak256(abi.encode(MINTED_FOR_ACCOUNT_IN_BLOCK, _account, block.number));\n        uintStorage[hash] = _amount;\n\n        hash = keccak256(abi.encode(MINTED_FOR_ACCOUNT, _account));\n        uintStorage[hash] = uintStorage[hash].add(_amount);\n\n        hash = keccak256(abi.encode(MINTED_IN_BLOCK, block.number));\n        uintStorage[hash] = uintStorage[hash].add(_amount);\n\n        hash = MINTED_TOTALLY;\n        uintStorage[hash] = uintStorage[hash].add(_amount);\n    }\n\n    function _setSnapshotStakeAmount(\n        uint256 _stakingEpoch,\n        address _validator,\n        address _staker,\n        uint256 _amount\n    ) internal {\n        uintStorage[\n            keccak256(abi.encode(SNAPSHOT_STAKE_AMOUNT, _stakingEpoch, _validator, _staker))\n        ] = _amount;\n    }\n\n    function _setSnapshotStakers(uint256 _stakingEpoch, address _validator, address[] memory _stakers) internal {\n        addressArrayStorage[\n            keccak256(abi.encode(SNAPSHOT_STAKERS, _stakingEpoch, _validator))\n        ] = _stakers;\n    }\n\n    function _setSnapshotValidators(uint256 _stakingEpoch, address[] memory _validators) internal {\n        addressArrayStorage[\n            keccak256(abi.encode(SNAPSHOT_VALIDATORS, _stakingEpoch))\n        ] = _validators;\n    }\n\n    function _distributePoolReward(\n        uint256 _stakingEpoch,\n        address _validator,\n        uint256 _poolReward\n    ) internal view returns(address[] memory receivers, uint256[] memory rewards) {\n        uint256 s;\n        address[] memory stakers = snapshotStakers(_stakingEpoch, _validator);\n        receivers = new address[](stakers.length.add(1));\n        rewards = new uint256[](receivers.length);\n\n        uint256 validatorStake = snapshotStakeAmount(_stakingEpoch, _validator, _validator);\n        uint256 stakersAmount = 0;\n\n        for (s = 0; s < stakers.length; s++) {\n            stakersAmount += snapshotStakeAmount(_stakingEpoch, _validator, stakers[s]);\n        }\n\n        // Calculate reward for each staker\n        for (s = 0; s < stakers.length; s++) {\n            uint256 stakerStake = snapshotStakeAmount(_stakingEpoch, _validator, stakers[s]);\n            receivers[s] = stakers[s];\n            if (validatorStake > stakersAmount) {\n                rewards[s] = _poolReward.mul(stakerStake).div(validatorStake + stakersAmount);\n            } else {\n                rewards[s] = _poolReward.mul(stakerStake).mul(7).div(stakersAmount.mul(10));\n            }\n        }\n\n        // Calculate reward for validator\n        receivers[s] = _validator;\n        if (validatorStake > stakersAmount) {\n            rewards[s] = _poolReward.mul(validatorStake).div(validatorStake + stakersAmount);\n        } else {\n            rewards[s] = _poolReward.mul(3).div(10);\n        }\n\n        // Give remainder to validator\n        for (s = 0; s < rewards.length; s++) {\n            _poolReward -= rewards[s];\n        }\n        rewards[s - 1] += _poolReward;\n    }\n\n    function _getBridgeNativeFee(uint256 _stakingEpoch) internal view returns(uint256) {\n        return uintStorage[keccak256(abi.encode(BRIDGE_NATIVE_FEE, _stakingEpoch))];\n    }\n\n    function _getBridgeTokenFee(uint256 _stakingEpoch) internal view returns(uint256) {\n        return uintStorage[keccak256(abi.encode(BRIDGE_TOKEN_FEE, _stakingEpoch))];\n    }\n\n    function _getStakingEpoch() internal view returns(uint256) {\n        IValidatorSet validatorSetContract = IValidatorSet(VALIDATOR_SET_CONTRACT);\n\n        uint256 stakingEpoch = validatorSetContract.stakingEpoch();\n\n        if (stakingEpoch == 0) {\n            return 0;\n        }\n\n        if (validatorSetContract.validatorSetApplyBlock() == 0) {\n            stakingEpoch--; // use the previous staking epoch because the current one is not applied yet\n        }\n\n        return stakingEpoch;\n    }\n\n    function _isErcToNativeBridge(address _addr) internal view returns(bool) {\n        address[] memory bridges = ercToNativeBridgesAllowed();\n        \n        for (uint256 i = 0; i < bridges.length; i++) {\n            if (_addr == bridges[i]) {\n                return true;\n            }\n        }\n\n        return false;\n    }\n\n    function _isNativeToErcBridge(address _addr) internal view returns(bool) {\n        address[] memory bridges = nativeToErcBridgesAllowed();\n        \n        for (uint256 i = 0; i < bridges.length; i++) {\n            if (_addr == bridges[i]) {\n                return true;\n            }\n        }\n\n        return false;\n    }\n}\n",
  "sourcePath": "/home/poa/Dropbox/POA/GitHub/pos-contracts/contracts/abstracts/BlockRewardBase.sol",
  "compiler": {
    "name": "solc",
    "version": "0.5.2+commit.1df8f40c.Emscripten.clang"
  },
  "schemaVersion": "3.0.1",
  "updatedAt": "2019-01-15T09:01:22.285Z",
  "devdoc": {
    "methods": {}
  },
  "userdoc": {
    "methods": {}
  }
}