{
  "contractName": "BlockRewardAuRa",
  "abi": [
    {
      "constant": true,
      "inputs": [
        {
          "name": "_receiver",
          "type": "address"
        }
      ],
      "name": "extraReceiverAmount",
      "outputs": [
        {
          "name": "",
          "type": "uint256"
        }
      ],
      "payable": false,
      "stateMutability": "view",
      "type": "function"
    },
    {
      "constant": false,
      "inputs": [
        {
          "name": "_amount",
          "type": "uint256"
        }
      ],
      "name": "addBridgeTokenFeeReceivers",
      "outputs": [],
      "payable": false,
      "stateMutability": "nonpayable",
      "type": "function"
    },
    {
      "constant": true,
      "inputs": [
        {
          "name": "_stakingEpoch",
          "type": "uint256"
        },
        {
          "name": "_validator",
          "type": "address"
        },
        {
          "name": "_staker",
          "type": "address"
        }
      ],
      "name": "snapshotStakeAmount",
      "outputs": [
        {
          "name": "",
          "type": "uint256"
        }
      ],
      "payable": false,
      "stateMutability": "view",
      "type": "function"
    },
    {
      "constant": false,
      "inputs": [
        {
          "name": "_bridgesAllowed",
          "type": "address[]"
        }
      ],
      "name": "setErcToNativeBridgesAllowed",
      "outputs": [],
      "payable": false,
      "stateMutability": "nonpayable",
      "type": "function"
    },
    {
      "constant": true,
      "inputs": [
        {
          "name": "_stakingEpoch",
          "type": "uint256"
        }
      ],
      "name": "snapshotValidators",
      "outputs": [
        {
          "name": "",
          "type": "address[]"
        }
      ],
      "payable": false,
      "stateMutability": "view",
      "type": "function"
    },
    {
      "constant": true,
      "inputs": [
        {
          "name": "_account",
          "type": "address"
        },
        {
          "name": "_blockNumber",
          "type": "uint256"
        }
      ],
      "name": "mintedForAccountInBlock",
      "outputs": [
        {
          "name": "",
          "type": "uint256"
        }
      ],
      "payable": false,
      "stateMutability": "view",
      "type": "function"
    },
    {
      "constant": false,
      "inputs": [],
      "name": "setSnapshot",
      "outputs": [],
      "payable": false,
      "stateMutability": "nonpayable",
      "type": "function"
    },
    {
      "constant": true,
      "inputs": [
        {
          "name": "_account",
          "type": "address"
        }
      ],
      "name": "mintedForAccount",
      "outputs": [
        {
          "name": "",
          "type": "uint256"
        }
      ],
      "payable": false,
      "stateMutability": "view",
      "type": "function"
    },
    {
      "constant": true,
      "inputs": [],
      "name": "ercToNativeBridgesAllowed",
      "outputs": [
        {
          "name": "",
          "type": "address[]"
        }
      ],
      "payable": false,
      "stateMutability": "view",
      "type": "function"
    },
    {
      "constant": true,
      "inputs": [
        {
          "name": "_blockNumber",
          "type": "uint256"
        }
      ],
      "name": "mintedInBlock",
      "outputs": [
        {
          "name": "",
          "type": "uint256"
        }
      ],
      "payable": false,
      "stateMutability": "view",
      "type": "function"
    },
    {
      "constant": false,
      "inputs": [
        {
          "name": "_amount",
          "type": "uint256"
        }
      ],
      "name": "addBridgeNativeFeeReceivers",
      "outputs": [],
      "payable": false,
      "stateMutability": "nonpayable",
      "type": "function"
    },
    {
      "constant": true,
      "inputs": [],
      "name": "mintedTotally",
      "outputs": [
        {
          "name": "",
          "type": "uint256"
        }
      ],
      "payable": false,
      "stateMutability": "view",
      "type": "function"
    },
    {
      "constant": false,
      "inputs": [
        {
          "name": "_bridgesAllowed",
          "type": "address[]"
        }
      ],
      "name": "setNativeToErcBridgesAllowed",
      "outputs": [],
      "payable": false,
      "stateMutability": "nonpayable",
      "type": "function"
    },
    {
      "constant": true,
      "inputs": [
        {
          "name": "_stakingEpoch",
          "type": "uint256"
        },
        {
          "name": "_validator",
          "type": "address"
        }
      ],
      "name": "snapshotStakers",
      "outputs": [
        {
          "name": "",
          "type": "address[]"
        }
      ],
      "payable": false,
      "stateMutability": "view",
      "type": "function"
    },
    {
      "constant": true,
      "inputs": [],
      "name": "VALIDATOR_SET_CONTRACT",
      "outputs": [
        {
          "name": "",
          "type": "address"
        }
      ],
      "payable": false,
      "stateMutability": "view",
      "type": "function"
    },
    {
      "constant": false,
      "inputs": [
        {
          "name": "_amount",
          "type": "uint256"
        },
        {
          "name": "_receiver",
          "type": "address"
        }
      ],
      "name": "addExtraReceiver",
      "outputs": [],
      "payable": false,
      "stateMutability": "nonpayable",
      "type": "function"
    },
    {
      "constant": true,
      "inputs": [],
      "name": "nativeToErcBridgesAllowed",
      "outputs": [
        {
          "name": "",
          "type": "address[]"
        }
      ],
      "payable": false,
      "stateMutability": "view",
      "type": "function"
    },
    {
      "constant": true,
      "inputs": [
        {
          "name": "_bridge",
          "type": "address"
        }
      ],
      "name": "mintedTotallyByBridge",
      "outputs": [
        {
          "name": "",
          "type": "uint256"
        }
      ],
      "payable": false,
      "stateMutability": "view",
      "type": "function"
    },
    {
      "constant": true,
      "inputs": [
        {
          "name": "_index",
          "type": "uint256"
        }
      ],
      "name": "extraReceiverByIndex",
      "outputs": [
        {
          "name": "",
          "type": "address"
        }
      ],
      "payable": false,
      "stateMutability": "view",
      "type": "function"
    },
    {
      "constant": true,
      "inputs": [
        {
          "name": "_bridge",
          "type": "address"
        }
      ],
      "name": "bridgeAmount",
      "outputs": [
        {
          "name": "",
          "type": "uint256"
        }
      ],
      "payable": false,
      "stateMutability": "view",
      "type": "function"
    },
    {
      "constant": true,
      "inputs": [],
      "name": "extraReceiversLength",
      "outputs": [
        {
          "name": "",
          "type": "uint256"
        }
      ],
      "payable": false,
      "stateMutability": "view",
      "type": "function"
    },
    {
      "anonymous": false,
      "inputs": [
        {
          "indexed": false,
          "name": "amount",
          "type": "uint256"
        },
        {
          "indexed": true,
          "name": "receiver",
          "type": "address"
        },
        {
          "indexed": true,
          "name": "bridge",
          "type": "address"
        }
      ],
      "name": "AddedReceiver",
      "type": "event"
    },
    {
      "anonymous": false,
      "inputs": [
        {
          "indexed": false,
          "name": "receivers",
          "type": "address[]"
        },
        {
          "indexed": false,
          "name": "rewards",
          "type": "uint256[]"
        }
      ],
      "name": "MintedByBridge",
      "type": "event"
    },
    {
      "constant": false,
      "inputs": [
        {
          "name": "benefactors",
          "type": "address[]"
        },
        {
          "name": "kind",
          "type": "uint16[]"
        }
      ],
      "name": "reward",
      "outputs": [
        {
          "name": "",
          "type": "address[]"
        },
        {
          "name": "",
          "type": "uint256[]"
        }
      ],
      "payable": false,
      "stateMutability": "nonpayable",
      "type": "function"
    }
  ],
  "bytecode": "0x608060405234801561001057600080fd5b506135ae806100206000396000f3fe608060405234801561001057600080fd5b50600436106101465760003560e060020a90048063553a5c85116100bc578063b25a00fd11610080578063b25a00fd14610443578063b4a523e81461044b578063db456f7714610471578063e73b9e2f1461048e578063efdc4d01146104b4578063f91c2898146104bc57610146565b8063553a5c851461034f5780636834fc90146103575780636cf5a338146103c757806376137dd9146103f3578063aa9fa2741461041757610146565b806330f6eb161161010e57806330f6eb16146102b357806338a0fdde146102df5780633d84b8c1146102e7578063419ce2641461030d5780634476d66a14610315578063532513891461033257610146565b80630f3a05331461014b578063128b265f14610183578063141f211c146101a2578063171d54dd146101d65780631bcb6fa214610246575b600080fd5b6101716004803603602081101561016157600080fd5b5035600160a060020a0316610617565b60408051918252519081900360200190f35b6101a06004803603602081101561019957600080fd5b503561067e565b005b610171600480360360608110156101b857600080fd5b50803590600160a060020a03602082013581169160400135166106b2565b6101a0600480360360208110156101ec57600080fd5b81019060208101813564010000000081111561020757600080fd5b82018360208201111561021957600080fd5b8035906020019184602083028401116401000000008311171561023b57600080fd5b50909250905061072b565b6102636004803603602081101561025c57600080fd5b50356107cc565b60408051602080825283518183015283519192839290830191858101910280838360005b8381101561029f578181015183820152602001610287565b505050509050019250505060405180910390f35b610171600480360360408110156102c957600080fd5b50600160a060020a038135169060200135610881565b6101a06108f2565b610171600480360360208110156102fd57600080fd5b5035600160a060020a0316610d95565b610263610df9565b6101716004803603602081101561032b57600080fd5b5035610e93565b6101a06004803603602081101561034857600080fd5b5035610eee565b610171610f1f565b6101a06004803603602081101561036d57600080fd5b81019060208101813564010000000081111561038857600080fd5b82018360208201111561039a57600080fd5b803590602001918460208302840111640100000000831117156103bc57600080fd5b509092509050610f60565b610263600480360360408110156103dd57600080fd5b5080359060200135600160a060020a0316610ffc565b6103fb6110da565b60408051600160a060020a039092168252519081900360200190f35b6101a06004803603604081101561042d57600080fd5b5080359060200135600160a060020a03166110f2565b6102636111c4565b6101716004803603602081101561046157600080fd5b5035600160a060020a031661125b565b6103fb6004803603602081101561048757600080fd5b50356112bf565b610171600480360360208110156104a457600080fd5b5035600160a060020a0316611313565b610171611377565b61057e600480360360408110156104d257600080fd5b8101906020810181356401000000008111156104ed57600080fd5b8201836020820111156104ff57600080fd5b8035906020019184602083028401116401000000008311171561052157600080fd5b91939092909160208101903564010000000081111561053f57600080fd5b82018360208201111561055157600080fd5b8035906020019184602083028401116401000000008311171561057357600080fd5b5090925090506113a6565b604051808060200180602001838103835285818151815260200191508051906020019060200280838360005b838110156105c25781810151838201526020016105aa565b50505050905001838103825284818151815260200191508051906020019060200280838360005b838110156106015781810151838201526020016105e9565b5050505090500194505050505060405180910390f35b604080517f65787472615265636569766572416d6f756e7400000000000000000000000000602080830191909152600160a060020a03841682840152825180830384018152606090920183528151918101919091206000908152600290915220545b919050565b61068733611f69565b151561069257600080fd5b80151561069e57600080fd5b6106af6106a9611fd1565b826120e2565b50565b604080517f736e617073686f745374616b65416d6f756e740000000000000000000000000060208083019190915281830195909552600160a060020a039384166060820152919092166080808301919091528251808303909101815260a090910182528051908301206000908152600290925290205490565b604080517f6f776e65720000000000000000000000000000000000000000000000000000008152815190819003600501902060009081526004602052205433600160a060020a039091161461077f57600080fd5b604080517f657263546f4e617469766542726964676573416c6c6f77656400000000000000815281519081900360190190206000908152600b602052206107c79083836133ea565b505050565b604080517f736e617073686f7456616c696461746f7273000000000000000000000000000060208083019190915281830184905282518083038401815260608381018086528251928401929092206000908152600b84528590208054608094810286018501909652858352909491939092018282801561087557602002820191906000526020600020905b8154600160a060020a03168152600190910190602001808311610857575b50505050509050919050565b604080517f6d696e746564466f724163636f756e74496e426c6f636b000000000000000000602080830191909152600160a060020a03851682840152606080830185905283518084039091018152608090920183528151918101919091206000908152600290915220545b92915050565b337310000000000000000000000000000000000000011461091257600080fd5b600073100000000000000000000000000000000000000190506000606080600080600086600160a060020a031663794c0c686040518163ffffffff1660e060020a02815260040160206040518083038186803b15801561097157600080fd5b505afa158015610985573d6000803e3d6000fd5b505050506040513d602081101561099b57600080fd5b5051905060028110610a4c5760011981016109b5816107cc565b9550600093505b8551841015610a4a5785848151811015156109d357fe5b9060200190602002015196506109ec8188896000612161565b6109f68188610ffc565b9450600092505b8451831015610a3557610a2a81888786815181101515610a1957fe5b906020019060200201516000612161565b6001909201916109fd565b610a3f81886121dc565b6001909301926109bc565b505b86600160a060020a031663b7ab4db56040518163ffffffff1660e060020a02815260040160006040518083038186803b158015610a8857600080fd5b505afa158015610a9c573d6000803e3d6000fd5b505050506040513d6000823e601f3d908101601f191682016040526020811015610ac557600080fd5b810190808051640100000000811115610add57600080fd5b82016020810184811115610af057600080fd5b8151856020820283011164010000000082111715610b0d57600080fd5b50509291905050509450610b218186612267565b600092505b8451831015610d8c578483815181101515610b3d57fe5b6020908102909101810151604080517fa697ecff000000000000000000000000000000000000000000000000000000008152600160a060020a038084166004830181905260248301529151929950610bea9385938b938493908e169263a697ecff92604480840193829003018186803b158015610bb957600080fd5b505afa158015610bcd573d6000803e3d6000fd5b505050506040513d6020811015610be357600080fd5b5051612161565b86600160a060020a031663cddb3e7b876040518263ffffffff1660e060020a0281526004018082600160a060020a0316600160a060020a0316815260200191505060006040518083038186803b158015610c4357600080fd5b505afa158015610c57573d6000803e3d6000fd5b505050506040513d6000823e601f3d908101601f191682016040526020811015610c8057600080fd5b810190808051640100000000811115610c9857600080fd5b82016020810184811115610cab57600080fd5b8151856020820283011164010000000082111715610cc857600080fd5b5090975060009550505050505b8351821015610d7657610d6b81878685815181101515610cf157fe5b906020019060200201518a600160a060020a031663a697ecff8b8a89815181101515610d1957fe5b60209081029091018101516040805160e060020a63ffffffff8716028152600160a060020a03948516600482015293909116602484015251604480840193829003018186803b158015610bb957600080fd5b600190910190610cd5565b610d818187866122cf565b600190920191610b26565b50505050505050565b604080517f6d696e746564466f724163636f756e7400000000000000000000000000000000602080830191909152600160a060020a039390931681830152815180820383018152606090910182528051908301206000908152600290925290205490565b604080517f657263546f4e617469766542726964676573416c6c6f77656400000000000000815281519081900360190181206000908152600b6020908152908390208054808302840183019094528383526060939091830182828015610e8857602002820191906000526020600020905b8154600160a060020a03168152600190910190602001808311610e6a575b505050505090505b90565b604080517f6d696e746564496e426c6f636b0000000000000000000000000000000000000060208083019190915281830193909352815180820383018152606090910182528051908301206000908152600290925290205490565b610ef733612351565b1515610f0257600080fd5b801515610f0e57600080fd5b6106af610f19611fd1565b826123af565b604080517f6d696e746564546f74616c6c79000000000000000000000000000000000000008152815190819003600d01902060009081526002602052205490565b604080517f6f776e65720000000000000000000000000000000000000000000000000000008152815190819003600501902060009081526004602052205433600160a060020a0390911614610fb457600080fd5b604080517f6e6174697665546f45726342726964676573416c6c6f77656400000000000000815281519081900360190190206000908152600b602052206107c79083836133ea565b6060600b60007f736e617073686f745374616b657273000000000000000000000000000000000085856040516020018084815260200183815260200182600160a060020a0316600160a060020a0316815260200193505050506040516020818303038152906040528051906020012081526020019081526020016000208054806020026020016040519081016040528092919081815260200182805480156110cd57602002820191906000526020600020905b8154600160a060020a031681526001909101906020018083116110af575b5050505050905092915050565b73100000000000000000000000000000000000000181565b6110fb33612351565b151561110657600080fd5b81151561111257600080fd5b600160a060020a038116151561112757600080fd5b600061113282610617565b9050801515611144576111448261241a565b61115d611157828563ffffffff61247916565b83612492565b61117f6111798461116d33611313565b9063ffffffff61247916565b336124f4565b6040805184815290513391600160a060020a038516917f3c798bbcf33115b42c728b8504cff11dd58736e9fa789f1cda2738db7d696b2a9181900360200190a3505050565b604080517f6e6174697665546f45726342726964676573416c6c6f77656400000000000000815281519081900360190181206000908152600b6020908152908390208054808302840183019094528383526060939091830182828015610e8857602002820191906000526020600020908154600160a060020a03168152600190910190602001808311610e6a575050505050905090565b604080517f6d696e746564546f74616c6c7942794272696467650000000000000000000000602080830191909152600160a060020a039390931681830152815180820383018152606090910182528051908301206000908152600290925290205490565b604080516000805160206135638339815191528152815190819003600e0190206000908152600b6020529081208054839081106112f857fe5b600091825260209091200154600160a060020a031692915050565b604080517f627269646765416d6f756e740000000000000000000000000000000000000000602080830191909152600160a060020a039390931681830152815180820383018152606090910182528051908301206000908152600290925290205490565b604080516000805160206135638339815191528152815190819003600e0190206000908152600b602052205490565b60608073fffffffffffffffffffffffffffffffffffffffe33146113c957600080fd5b8483146113d557600080fd5b600185146113e257600080fd5b838360008181106113ef57fe5b9050602002013561ffff1661ffff16600014151561140c57600080fd5b600086868281811061141a57fe5b90506020020135600160a060020a0316600160a060020a031614156114575750506040805160008082526020820190815281830190925290611f60565b600073100000000000000000000000000000000000000190504381600160a060020a031663b927ef436040518163ffffffff1660e060020a02815260040160206040518083038186803b1580156114ad57600080fd5b505afa1580156114c1573d6000803e3d6000fd5b505050506040513d60208110156114d757600080fd5b5051141561163857600160a060020a03811663facd743b888860008181106114fb57fe5b90506020020135600160a060020a03166040518263ffffffff1660e060020a0281526004018082600160a060020a0316600160a060020a0316815260200191505060206040518083038186803b15801561155457600080fd5b505afa158015611568573d6000803e3d6000fd5b505050506040513d602081101561157e57600080fd5b5051806116285750600160a060020a038116632d7416a5888860008181106115a257fe5b90506020020135600160a060020a03166040518263ffffffff1660e060020a0281526004018082600160a060020a0316600160a060020a0316815260200191505060206040518083038186803b1580156115fb57600080fd5b505afa15801561160f573d6000803e3d6000fd5b505050506040513d602081101561162557600080fd5b50515b151561163357600080fd5b6116e4565b600160a060020a03811663facd743b8888600081811061165457fe5b90506020020135600160a060020a03166040518263ffffffff1660e060020a0281526004018082600160a060020a0316600160a060020a0316815260200191505060206040518083038186803b1580156116ad57600080fd5b505afa1580156116c1573d6000803e3d6000fd5b505050506040513d60208110156116d757600080fd5b505115156116e457600080fd5b80600160a060020a0316635ccee1de6040518163ffffffff1660e060020a028152600401600060405180830381600087803b15801561172257600080fd5b505af1158015611736573d6000803e3d6000fd5b50505050606080600080611748611fd1565b90506117578160006001612556565b9094509250600091505b83518210156118435760408051600080516020613543833981519152815281519081900360140190206000908152600b6020522084518590849081106117a357fe5b602090810290910181015182546001810184556000938452828420018054600160a060020a03909216600160a060020a03199092169190911790556040805160008051602061354383398151915281528151908190036014019020835260099091529020835184908490811061181557fe5b6020908102909101810151825460018181018555600094855292909320909201919091559190910190611761565b60008111156119475761185b60018203600180612556565b9094509250600091505b83518210156119475760408051600080516020613543833981519152815281519081900360140190206000908152600b6020522084518590849081106118a757fe5b602090810290910181015182546001810184556000938452828420018054600160a060020a03909216600160a060020a03199092169190911790556040805160008051602061354383398151915281528151908190036014019020835260099091529020835184908490811061191957fe5b6020908102909101810151825460018181018555600094855292909320909201919091559190910190611865565b600085600160a060020a031663856e84886040518163ffffffff1660e060020a02815260040160206040518083038186803b15801561198557600080fd5b505afa158015611999573d6000803e3d6000fd5b505050506040513d60208110156119af57600080fd5b50519050600160a060020a03811615611bfd576119ce82600080612556565b8151919650945060001015611ad957604080517fe2f764a300000000000000000000000000000000000000000000000000000000815260048101918252865160448201528651600160a060020a0384169263e2f764a392899289929182916024820191606401906020808801910280838360005b83811015611a5a578181015183820152602001611a42565b50505050905001838103825284818151815260200191508051906020019060200280838360005b83811015611a99578181015183820152602001611a81565b50505050905001945050505050600060405180830381600087803b158015611ac057600080fd5b505af1158015611ad4573d6000803e3d6000fd5b505050505b6000821115611bfd57611af26001830360016000612556565b8151919650945060001015611bfd57604080517fe2f764a300000000000000000000000000000000000000000000000000000000815260048101918252865160448201528651600160a060020a0384169263e2f764a392899289929182916024820191606401906020808801910280838360005b83811015611b7e578181015183820152602001611b66565b50505050905001838103825284818151815260200191508051906020019060200280838360005b83811015611bbd578181015183820152602001611ba5565b50505050905001945050505050600060405180830381600087803b158015611be457600080fd5b505af1158015611bf8573d6000803e3d6000fd5b505050505b611c05612afa565b9095509350600092505b8451831015611cf15760408051600080516020613543833981519152815281519081900360140190206000908152600b602052208551869085908110611c5157fe5b602090810290910181015182546001810184556000938452828420018054600160a060020a03909216600160a060020a031990921691909117905560408051600080516020613543833981519152815281519081900360140190208352600990915290208451859085908110611cc357fe5b6020908102909101810151825460018181018555600094855292909320909201919091559290920191611c0f565b60408051600080516020613543833981519152815281519081900360140181206000908152600b602090815290839020805480830284018301909452838352919290830182828015611d6c57602002820191906000526020600020905b8154600160a060020a03168152600190910190602001808311611d4e575b5050604080516000805160206135438339815191528152815190819003601401812060009081526009602090815290839020805480830284018301909452838352969b50909594509092508401905082828015611de857602002820191906000526020600020905b815481526020019060010190808311611dd4575b505060408051600080516020613543833981519152815281519081900360140190206000908152600b602052908120949850611e29949350915061344d9050565b604080516000805160206135438339815191528152815190819003601401902060009081526009602052908120611e5f9161344d565b85600160a060020a031663ccf69e9b6040518163ffffffff1660e060020a02815260040160206040518083038186803b158015611e9b57600080fd5b505afa158015611eaf573d6000803e3d6000fd5b505050506040513d6020811015611ec557600080fd5b5051600160a060020a031663bc3619dd8d8d6000818110611ee257fe5b90506020020135600160a060020a03166040518263ffffffff1660e060020a0281526004018082600160a060020a0316600160a060020a03168152602001915050600060405180830381600087803b158015611f3d57600080fd5b505af1158015611f51573d6000803e3d6000fd5b50969950949750505050505050505b94509492505050565b60006060611f756111c4565b905060005b8151811015611fc7578181815181101515611f9157fe5b90602001906020020151600160a060020a031684600160a060020a03161415611fbf57600192505050610679565b600101611f7a565b5060009392505050565b6000807310000000000000000000000000000000000000019050600081600160a060020a031663794c0c686040518163ffffffff1660e060020a02815260040160206040518083038186803b15801561202957600080fd5b505afa15801561203d573d6000803e3d6000fd5b505050506040513d602081101561205357600080fd5b5051905080151561206957600092505050610e90565b81600160a060020a031663b927ef436040518163ffffffff1660e060020a02815260040160206040518083038186803b1580156120a557600080fd5b505afa1580156120b9573d6000803e3d6000fd5b505050506040513d60208110156120cf57600080fd5b505115156120dc57600019015b91505090565b604080517f627269646765546f6b656e46656500000000000000000000000000000000000060208083019190915281830185905282518083038401815260609092018352815191810191909120600081815260029092529190205461214d908363ffffffff61247916565b600091825260026020526040909120555050565b604080517f736e617073686f745374616b65416d6f756e740000000000000000000000000060208083019190915281830196909652600160a060020a039485166060820152929093166080808401919091528351808403909101815260a0909201835281519184019190912060009081526002909352912055565b600b60007f736e617073686f745374616b657273000000000000000000000000000000000084846040516020018084815260200183815260200182600160a060020a0316600160a060020a0316815260200193505050506040516020818303038152906040528051906020012081526020019081526020016000206000612263919061344d565b5050565b604080517f736e617073686f7456616c696461746f72730000000000000000000000000000602080830191909152818301859052825180830384018152606090920183528151918101919091206000908152600b82529190912082516107c79284019061346b565b604080517f736e617073686f745374616b6572730000000000000000000000000000000000602080830191909152818301869052600160a060020a03851660608084019190915283518084039091018152608090920183528151918101919091206000908152600b825291909120825161234b9284019061346b565b50505050565b6000606061235d610df9565b905060005b8151811015611fc757818181518110151561237957fe5b90602001906020020151600160a060020a031684600160a060020a031614156123a757600192505050610679565b600101612362565b604080517f6272696467654e6174697665466565000000000000000000000000000000000060208083019190915281830185905282518083038401815260609092018352815191810191909120600081815260029092529190205461214d908363ffffffff61247916565b604080516000805160206135638339815191528152815190819003600e0190206000908152600b60209081529181208054600181018255908252919020018054600160a060020a03909216600160a060020a0319909216919091179055565b60008282018381101561248b57600080fd5b9392505050565b604080517f65787472615265636569766572416d6f756e7400000000000000000000000000602080830191909152600160a060020a03909316818301528151808203830181526060909101825280519083012060009081526002909252902055565b604080517f627269646765416d6f756e740000000000000000000000000000000000000000602080830191909152600160a060020a03909316818301528151808203830181526060909101825280519083012060009081526002909252902055565b6060806000831561257a5761256a86612d1f565b905061257586612d7a565b61258e565b61258386612dd4565b905061258e86612e2f565b8015156125b4575050604080516000808252602082019081528183019092529150612af2565b7310000000000000000000000000000000000000016060600080808915156126a55784600160a060020a031663b7ab4db56040518163ffffffff1660e060020a02815260040160006040518083038186803b15801561261257600080fd5b505afa158015612626573d6000803e3d6000fd5b505050506040513d6000823e601f3d908101601f19168201604052602081101561264f57600080fd5b81019080805164010000000081111561266757600080fd5b8201602081018481111561267a57600080fd5b815185602082028301116401000000008211171561269757600080fd5b5090975061276f9350505050565b84600160a060020a03166385602ad56040518163ffffffff1660e060020a02815260040160006040518083038186803b1580156126e157600080fd5b505afa1580156126f5573d6000803e3d6000fd5b505050506040513d6000823e601f3d908101601f19168201604052602081101561271e57600080fd5b81019080805164010000000081111561273657600080fd5b8201602081018481111561274957600080fd5b815185602082028301116401000000008211171561276657600080fd5b50909750505050505b8a151561281f5783518681151561278257fe5b04925083518681151561279157fe5b06915083516040519080825280602002602001820160405280156127bf578160200160208202803883390190505b509650600090505b83518110156127f1578287828151811015156127df57fe5b602090810290910101526001016127c7565b8187600081518110151561280157fe5b6020908102909101018051909101905250919550612af29350505050565b6128288b6107cc565b518681151561283357fe5b04925061283f8b6107cc565b518681151561284a57fe5b069150600090505b835181101561297d5761288e8b858381518110151561286d57fe5b90602001906020020151836000146128855785612889565b8486015b612e89565b909850965060005b88518110156129745760408051600080516020613523833981519152815281519081900360180190206000908152600b6020522089518a90839081106128d857fe5b602090810290910181015182546001810184556000938452828420018054600160a060020a03909216600160a060020a03199092169190911790556040805160008051602061352383398151915281528151908190036018019020835260099091529020885189908390811061294a57fe5b60209081029091018101518254600181810185556000948552929093209092019190915501612896565b50600101612852565b60408051600080516020613523833981519152815281519081900360180181206000908152600b6020908152908390208054808302840183019094528383529192908301828280156129f857602002820191906000526020600020905b8154600160a060020a031681526001909101906020018083116129da575b5050604080516000805160206135238339815191528152815190819003601801812060009081526009602090815290839020805480830284018301909452838352969e50909594509092508401905082828015612a7457602002820191906000526020600020905b815481526020019060010190808311612a60575b505060408051600080516020613523833981519152815281519081900360180190206000908152600b602052908120949b50612ab5949350915061344d9050565b604080516000805160206135238339815191528152815190819003601801902060009081526009602052908120612aeb9161344d565b5050505050505b935093915050565b6060806000612b07611377565b905080604051908082528060200260200182016040528015612b33578160200160208202803883390190505b50925080604051908082528060200260200182016040528015612b60578160200160208202803883390190505b50915060005b81811015612be7576000612b79826112bf565b90506000612b8682610617565b9050612b93600083612492565b818684815181101515612ba257fe5b600160a060020a0390921660209283029091019091015284518190869085908110612bc957fe5b60209081029091010152612bdd8183613150565b5050600101612b66565b6060612bf1610df9565b9050600091505b8051821015612c555760008183815181101515612c1157fe5b9060200190602002015190506000612c2882611313565b90506000811115612c4857612c3e6000836124f4565b612c4881836132f1565b5050600190910190612bf8565b612c5d613364565b7f10fee3decd0f6ad0c977fcb2c1c5992fa39a944deb348ea435790b02b80515238585604051808060200180602001838103835285818151815260200191508051906020019060200280838360005b83811015612cc4578181015183820152602001612cac565b50505050905001838103825284818151815260200191508051906020019060200280838360005b83811015612d03578181015183820152602001612ceb565b5050505090500194505050505060405180910390a15050509091565b604080517f6272696467654e6174697665466565000000000000000000000000000000000060208083019190915281830193909352815180820383018152606090910182528051908301206000908152600290925290205490565b604080517f6272696467654e61746976654665650000000000000000000000000000000000602080830191909152818301939093528151808203830181526060909101825280519083012060009081526002909252812055565b604080517f627269646765546f6b656e46656500000000000000000000000000000000000060208083019190915281830193909352815180820383018152606090910182528051908301206000908152600290925290205490565b604080517f627269646765546f6b656e466565000000000000000000000000000000000000602080830191909152818301939093528151808203830181526060909101825280519083012060009081526002909252812055565b60608060006060612e9a8787610ffc565b8051909150612eb090600163ffffffff61247916565b604051908082528060200260200182016040528015612ed9578160200160208202803883390190505b5093508351604051908082528060200260200182016040528015612f07578160200160208202803883390190505b5092506000612f178888896106b2565b600093509050825b8251841015612f5657612f4a89898587815181101515612f3b57fe5b906020019060200201516106b2565b60019094019301612f1f565b600093505b8251841015613059576000612f798a8a8688815181101515612f3b57fe5b90508385815181101515612f8957fe5b906020019060200201518786815181101515612fa157fe5b600160a060020a0390921660209283029091019091015281831115612fff57612fe2838301612fd68a8463ffffffff61339b16565b9063ffffffff6133c616565b8686815181101515612ff057fe5b6020908102909101015261304d565b61303461301383600a63ffffffff61339b16565b612fd660076130288c8663ffffffff61339b16565b9063ffffffff61339b16565b868681518110151561304257fe5b602090810290910101525b50600190930192612f5b565b87868581518110151561306857fe5b600160a060020a03909216602092830290910190910152808211156130ba5761309d828201612fd6898563ffffffff61339b16565b85858151811015156130ab57fe5b602090810290910101526130e9565b6130d0600a612fd689600363ffffffff61339b16565b85858151811015156130de57fe5b602090810290910101525b600093505b845184101561311e57848481518110151561310557fe5b60209081029091010151909603956001909301926130ee565b86856001860381518110151561313057fe5b906020019060200201818151019150818152505050505050935093915050565b604080517f6d696e746564466f724163636f756e74496e426c6f636b000000000000000000602080830191909152600160a060020a0384168284018190524360608085019190915284518085039091018152608084018552805190830120600090815260028084528582208890557f6d696e746564466f724163636f756e740000000000000000000000000000000060a086015260c0808601939093528551808603909301835260e09094018552815191830191909120808252929091529190912054613223908463ffffffff61247916565b60009182526002602081815260408085209390935582517f6d696e746564496e426c6f636b0000000000000000000000000000000000000081830152438185015283518082038501815260609091018452805190820120808552919052912054613293908463ffffffff61247916565b60009182526002602081815260408085209390935582517f6d696e746564546f74616c6c79000000000000000000000000000000000000008152835190819003600d01902080855291905291205461214d908463ffffffff61247916565b604080517f6d696e746564546f74616c6c7942794272696467650000000000000000000000602080830191909152600160a060020a0384168284015282518083038401815260609092018352815191810191909120600081815260029092529190205461214d908463ffffffff61247916565b604080516000805160206135638339815191528152815190819003600e0190206000908152600b6020529081206106af90826134c0565b60008215156133ac575060006108ec565b8282028284828115156133bb57fe5b041461248b57600080fd5b60008082116133d457600080fd5b600082848115156133e157fe5b04949350505050565b82805482825590600052602060002090810192821561343d579160200282015b8281111561343d578154600160a060020a031916600160a060020a0384351617825560209092019160019091019061340a565b506134499291506134e4565b5090565b50805460008255906000526020600020908101906106af9190613508565b82805482825590600052602060002090810192821561343d579160200282015b8281111561343d5782518254600160a060020a031916600160a060020a0390911617825560209092019160019091019061348b565b8154818355818111156107c7576000838152602090206107c7918101908301613508565b610e9091905b80821115613449578054600160a060020a03191681556001016134ea565b610e9091905b80821115613449576000815560010161350e56fe6469737472696275746554656d706f726172794172726179000000000000000072657761726454656d706f7261727941727261790000000000000000000000006578747261526563656976657273000000000000000000000000000000000000a165627a7a72305820f4821d7e902ffc2045a5dc0fc21897661ba167e87c14806aadd161a2ff423a780029",
  "source": "pragma solidity 0.5.2;\n\nimport \"./abstracts/BlockRewardBase.sol\";\nimport \"./interfaces/IERC20Minting.sol\";\nimport \"./interfaces/IRandomAuRa.sol\";\n\n\ncontract BlockRewardAuRa is BlockRewardBase {\n\n    function reward(address[] calldata benefactors, uint16[] calldata kind)\n        external\n        onlySystem\n        returns(address[] memory, uint256[] memory)\n    {\n        require(benefactors.length == kind.length);\n        require(benefactors.length == 1);\n        require(kind[0] == 0);\n\n        if (benefactors[0] == address(0)) {\n            // Return empty arrays for zero input address\n            // https://github.com/paritytech/parity-ethereum/issues/9764\n            return (new address[](0), new uint256[](0));\n        }\n\n        IValidatorSet validatorSetContract = IValidatorSet(VALIDATOR_SET_CONTRACT);\n\n        // Check if the validator is existed\n        if (validatorSetContract.validatorSetApplyBlock() == block.number) {\n            // If `finalizeChange` was called in this block\n            require(\n                validatorSetContract.isValidator(benefactors[0]) ||\n                validatorSetContract.isValidatorOnPreviousEpoch(benefactors[0])\n            );\n        } else {\n            require(validatorSetContract.isValidator(benefactors[0]));\n        }\n\n        // Start new staking epoch every `stakingEpochDuration()` blocks\n        validatorSetContract.newValidatorSet();\n\n        // Distribute fees\n        address[] memory receivers;\n        uint256[] memory rewards;\n        uint256 i;\n\n        uint256 stakingEpoch = _getStakingEpoch();\n\n        // Distribute bridge's native fee\n        (receivers, rewards) = _distributeBridgeFee(stakingEpoch, false, true);\n        for (i = 0; i < receivers.length; i++) {\n            addressArrayStorage[REWARD_TEMPORARY_ARRAY].push(receivers[i]);\n            uintArrayStorage[REWARD_TEMPORARY_ARRAY].push(rewards[i]);\n        }\n        if (stakingEpoch > 0) {\n            // Handle previous staking epoch as well (just in case)\n            (receivers, rewards) = _distributeBridgeFee(stakingEpoch - 1, true, true);\n            for (i = 0; i < receivers.length; i++) {\n                addressArrayStorage[REWARD_TEMPORARY_ARRAY].push(receivers[i]);\n                uintArrayStorage[REWARD_TEMPORARY_ARRAY].push(rewards[i]);\n            }\n        }\n\n        // Distribute bridge's token fee\n        IERC20Minting erc20TokenContract = IERC20Minting(\n            validatorSetContract.erc20TokenContract()\n        );\n        if (address(erc20TokenContract) != address(0)) {\n            (receivers, rewards) = _distributeBridgeFee(stakingEpoch, false, false);\n            if (receivers.length > 0) {\n                erc20TokenContract.mintReward(receivers, rewards);\n            }\n            if (stakingEpoch > 0) {\n                // Handle previous staking epoch as well (just in case)\n                (receivers, rewards) = _distributeBridgeFee(stakingEpoch - 1, true, false);\n                if (receivers.length > 0) {\n                    erc20TokenContract.mintReward(receivers, rewards);\n                }\n            }\n        }\n\n        // We don't accrue any block reward in native coins to validator here.\n        // We just mint native coins by bridge if needed.\n        (receivers, rewards) = _mintNativeCoinsByErcToNativeBridge();\n        for (i = 0; i < receivers.length; i++) {\n            addressArrayStorage[REWARD_TEMPORARY_ARRAY].push(receivers[i]);\n            uintArrayStorage[REWARD_TEMPORARY_ARRAY].push(rewards[i]);\n        }\n\n        // Move the arrays of receivers and their rewards from storage to memory\n        receivers = addressArrayStorage[REWARD_TEMPORARY_ARRAY];\n        rewards = uintArrayStorage[REWARD_TEMPORARY_ARRAY];\n\n        delete addressArrayStorage[REWARD_TEMPORARY_ARRAY];\n        delete uintArrayStorage[REWARD_TEMPORARY_ARRAY];\n\n        // Mark that the current validator produced a block during the current phase.\n        // Publish current random number at the end of the current collection round.\n        // Check if current validators participated in the current collection round.\n        IRandomAuRa(validatorSetContract.randomContract()).onBlockClose(benefactors[0]);\n\n        return (receivers, rewards);\n    }\n\n    function _distributeBridgeFee(uint256 _stakingEpoch, bool _previousEpoch, bool _native)\n        internal\n        returns(address[] memory receivers, uint256[] memory rewards)\n    {\n        uint256 bridgeFeeAmount;\n\n        if (_native) {\n            bridgeFeeAmount = _getBridgeNativeFee(_stakingEpoch);\n            _clearBridgeNativeFee(_stakingEpoch);\n        } else {\n            bridgeFeeAmount = _getBridgeTokenFee(_stakingEpoch);\n            _clearBridgeTokenFee(_stakingEpoch);\n        }\n\n        if (bridgeFeeAmount == 0) {\n            return (new address[](0), new uint256[](0));\n        }\n\n        IValidatorSet validatorSetContract = IValidatorSet(VALIDATOR_SET_CONTRACT);\n        address[] memory validators;\n        uint256 poolReward;\n        uint256 remainder;\n        uint256 i;\n\n        if (!_previousEpoch) {\n            validators = validatorSetContract.getValidators();\n        } else {\n            validators = validatorSetContract.getPreviousValidators();\n        }\n        if (_stakingEpoch == 0) {\n            // On initial staking epoch only initial validators get reward\n\n            poolReward = bridgeFeeAmount / validators.length;\n            remainder = bridgeFeeAmount % validators.length;\n\n            rewards = new uint256[](validators.length);\n\n            for (i = 0; i < validators.length; i++) {\n                rewards[i] = poolReward;\n            }\n            rewards[0] += remainder;\n\n            return (validators, rewards);\n        } else {\n            poolReward = bridgeFeeAmount / snapshotValidators(_stakingEpoch).length;\n            remainder = bridgeFeeAmount % snapshotValidators(_stakingEpoch).length;\n\n            for (i = 0; i < validators.length; i++) {\n                // Distribute the reward among validators and their stakers\n                (\n                    receivers,\n                    rewards\n                ) = _distributePoolReward(\n                    _stakingEpoch,\n                    validators[i],\n                    i == 0 ? poolReward + remainder : poolReward\n                );\n\n                for (uint256 r = 0; r < receivers.length; r++) {\n                    addressArrayStorage[DISTRIBUTE_TEMPORARY_ARRAY].push(receivers[r]);\n                    uintArrayStorage[DISTRIBUTE_TEMPORARY_ARRAY].push(rewards[r]);\n                }\n            }\n\n            receivers = addressArrayStorage[DISTRIBUTE_TEMPORARY_ARRAY];\n            rewards = uintArrayStorage[DISTRIBUTE_TEMPORARY_ARRAY];\n\n            delete addressArrayStorage[DISTRIBUTE_TEMPORARY_ARRAY];\n            delete uintArrayStorage[DISTRIBUTE_TEMPORARY_ARRAY];\n        }\n    }\n\n    bytes32 internal constant DISTRIBUTE_TEMPORARY_ARRAY = keccak256(\"distributeTemporaryArray\");\n    bytes32 internal constant REWARD_TEMPORARY_ARRAY = keccak256(\"rewardTemporaryArray\");\n\n}\n",
  "sourcePath": "/home/poa/Dropbox/POA/GitHub/pos-contracts/contracts/BlockRewardAuRa.sol",
  "compiler": {
    "name": "solc",
    "version": "0.5.2+commit.1df8f40c.Emscripten.clang"
  },
  "schemaVersion": "3.0.1",
  "updatedAt": "2019-01-16T07:39:32.237Z",
  "devdoc": {
    "methods": {}
  },
  "userdoc": {
    "methods": {}
  }
}