{
  "contractName": "BlockRewardAuRa",
  "abi": [
    {
      "constant": true,
      "inputs": [
        {
          "name": "_receiver",
          "type": "address"
        }
      ],
      "name": "extraReceiverAmount",
      "outputs": [
        {
          "name": "",
          "type": "uint256"
        }
      ],
      "payable": false,
      "stateMutability": "view",
      "type": "function"
    },
    {
      "constant": false,
      "inputs": [
        {
          "name": "_amount",
          "type": "uint256"
        }
      ],
      "name": "addBridgeTokenFeeReceivers",
      "outputs": [],
      "payable": false,
      "stateMutability": "nonpayable",
      "type": "function"
    },
    {
      "constant": true,
      "inputs": [
        {
          "name": "_stakingEpoch",
          "type": "uint256"
        },
        {
          "name": "_validator",
          "type": "address"
        },
        {
          "name": "_staker",
          "type": "address"
        }
      ],
      "name": "snapshotStakeAmount",
      "outputs": [
        {
          "name": "",
          "type": "uint256"
        }
      ],
      "payable": false,
      "stateMutability": "view",
      "type": "function"
    },
    {
      "constant": false,
      "inputs": [
        {
          "name": "_bridgesAllowed",
          "type": "address[]"
        }
      ],
      "name": "setErcToNativeBridgesAllowed",
      "outputs": [],
      "payable": false,
      "stateMutability": "nonpayable",
      "type": "function"
    },
    {
      "constant": true,
      "inputs": [
        {
          "name": "_stakingEpoch",
          "type": "uint256"
        }
      ],
      "name": "snapshotValidators",
      "outputs": [
        {
          "name": "",
          "type": "address[]"
        }
      ],
      "payable": false,
      "stateMutability": "view",
      "type": "function"
    },
    {
      "constant": true,
      "inputs": [
        {
          "name": "_account",
          "type": "address"
        },
        {
          "name": "_blockNumber",
          "type": "uint256"
        }
      ],
      "name": "mintedForAccountInBlock",
      "outputs": [
        {
          "name": "",
          "type": "uint256"
        }
      ],
      "payable": false,
      "stateMutability": "view",
      "type": "function"
    },
    {
      "constant": false,
      "inputs": [],
      "name": "setSnapshot",
      "outputs": [],
      "payable": false,
      "stateMutability": "nonpayable",
      "type": "function"
    },
    {
      "constant": true,
      "inputs": [
        {
          "name": "_account",
          "type": "address"
        }
      ],
      "name": "mintedForAccount",
      "outputs": [
        {
          "name": "",
          "type": "uint256"
        }
      ],
      "payable": false,
      "stateMutability": "view",
      "type": "function"
    },
    {
      "constant": true,
      "inputs": [],
      "name": "ercToNativeBridgesAllowed",
      "outputs": [
        {
          "name": "",
          "type": "address[]"
        }
      ],
      "payable": false,
      "stateMutability": "view",
      "type": "function"
    },
    {
      "constant": true,
      "inputs": [
        {
          "name": "_blockNumber",
          "type": "uint256"
        }
      ],
      "name": "mintedInBlock",
      "outputs": [
        {
          "name": "",
          "type": "uint256"
        }
      ],
      "payable": false,
      "stateMutability": "view",
      "type": "function"
    },
    {
      "constant": false,
      "inputs": [
        {
          "name": "_amount",
          "type": "uint256"
        }
      ],
      "name": "addBridgeNativeFeeReceivers",
      "outputs": [],
      "payable": false,
      "stateMutability": "nonpayable",
      "type": "function"
    },
    {
      "constant": true,
      "inputs": [],
      "name": "mintedTotally",
      "outputs": [
        {
          "name": "",
          "type": "uint256"
        }
      ],
      "payable": false,
      "stateMutability": "view",
      "type": "function"
    },
    {
      "constant": false,
      "inputs": [
        {
          "name": "_bridgesAllowed",
          "type": "address[]"
        }
      ],
      "name": "setNativeToErcBridgesAllowed",
      "outputs": [],
      "payable": false,
      "stateMutability": "nonpayable",
      "type": "function"
    },
    {
      "constant": true,
      "inputs": [
        {
          "name": "_stakingEpoch",
          "type": "uint256"
        },
        {
          "name": "_validator",
          "type": "address"
        }
      ],
      "name": "snapshotStakers",
      "outputs": [
        {
          "name": "",
          "type": "address[]"
        }
      ],
      "payable": false,
      "stateMutability": "view",
      "type": "function"
    },
    {
      "constant": true,
      "inputs": [],
      "name": "VALIDATOR_SET_CONTRACT",
      "outputs": [
        {
          "name": "",
          "type": "address"
        }
      ],
      "payable": false,
      "stateMutability": "view",
      "type": "function"
    },
    {
      "constant": false,
      "inputs": [
        {
          "name": "_amount",
          "type": "uint256"
        },
        {
          "name": "_receiver",
          "type": "address"
        }
      ],
      "name": "addExtraReceiver",
      "outputs": [],
      "payable": false,
      "stateMutability": "nonpayable",
      "type": "function"
    },
    {
      "constant": true,
      "inputs": [],
      "name": "nativeToErcBridgesAllowed",
      "outputs": [
        {
          "name": "",
          "type": "address[]"
        }
      ],
      "payable": false,
      "stateMutability": "view",
      "type": "function"
    },
    {
      "constant": true,
      "inputs": [
        {
          "name": "_bridge",
          "type": "address"
        }
      ],
      "name": "mintedTotallyByBridge",
      "outputs": [
        {
          "name": "",
          "type": "uint256"
        }
      ],
      "payable": false,
      "stateMutability": "view",
      "type": "function"
    },
    {
      "constant": true,
      "inputs": [
        {
          "name": "_index",
          "type": "uint256"
        }
      ],
      "name": "extraReceiverByIndex",
      "outputs": [
        {
          "name": "",
          "type": "address"
        }
      ],
      "payable": false,
      "stateMutability": "view",
      "type": "function"
    },
    {
      "constant": true,
      "inputs": [
        {
          "name": "_bridge",
          "type": "address"
        }
      ],
      "name": "bridgeAmount",
      "outputs": [
        {
          "name": "",
          "type": "uint256"
        }
      ],
      "payable": false,
      "stateMutability": "view",
      "type": "function"
    },
    {
      "constant": true,
      "inputs": [],
      "name": "extraReceiversLength",
      "outputs": [
        {
          "name": "",
          "type": "uint256"
        }
      ],
      "payable": false,
      "stateMutability": "view",
      "type": "function"
    },
    {
      "anonymous": false,
      "inputs": [
        {
          "indexed": false,
          "name": "amount",
          "type": "uint256"
        },
        {
          "indexed": true,
          "name": "receiver",
          "type": "address"
        },
        {
          "indexed": true,
          "name": "bridge",
          "type": "address"
        }
      ],
      "name": "AddedReceiver",
      "type": "event"
    },
    {
      "anonymous": false,
      "inputs": [
        {
          "indexed": false,
          "name": "receivers",
          "type": "address[]"
        },
        {
          "indexed": false,
          "name": "rewards",
          "type": "uint256[]"
        }
      ],
      "name": "MintedByBridge",
      "type": "event"
    },
    {
      "constant": false,
      "inputs": [
        {
          "name": "benefactors",
          "type": "address[]"
        },
        {
          "name": "kind",
          "type": "uint16[]"
        }
      ],
      "name": "reward",
      "outputs": [
        {
          "name": "",
          "type": "address[]"
        },
        {
          "name": "",
          "type": "uint256[]"
        }
      ],
      "payable": false,
      "stateMutability": "nonpayable",
      "type": "function"
    }
  ],
  "bytecode": "0x608060405234801561001057600080fd5b50613537806100206000396000f3fe608060405234801561001057600080fd5b50600436106101465760003560e060020a90048063553a5c85116100bc578063b25a00fd11610080578063b25a00fd14610443578063b4a523e81461044b578063db456f7714610471578063e73b9e2f1461048e578063efdc4d01146104b4578063f91c2898146104bc57610146565b8063553a5c851461034f5780636834fc90146103575780636cf5a338146103c757806376137dd9146103f3578063aa9fa2741461041757610146565b806330f6eb161161010e57806330f6eb16146102b357806338a0fdde146102df5780633d84b8c1146102e7578063419ce2641461030d5780634476d66a14610315578063532513891461033257610146565b80630f3a05331461014b578063128b265f14610183578063141f211c146101a2578063171d54dd146101d65780631bcb6fa214610246575b600080fd5b6101716004803603602081101561016157600080fd5b5035600160a060020a0316610617565b60408051918252519081900360200190f35b6101a06004803603602081101561019957600080fd5b503561067e565b005b610171600480360360608110156101b857600080fd5b50803590600160a060020a03602082013581169160400135166106b2565b6101a0600480360360208110156101ec57600080fd5b81019060208101813564010000000081111561020757600080fd5b82018360208201111561021957600080fd5b8035906020019184602083028401116401000000008311171561023b57600080fd5b50909250905061072b565b6102636004803603602081101561025c57600080fd5b50356107cc565b60408051602080825283518183015283519192839290830191858101910280838360005b8381101561029f578181015183820152602001610287565b505050509050019250505060405180910390f35b610171600480360360408110156102c957600080fd5b50600160a060020a038135169060200135610881565b6101a06108f2565b610171600480360360208110156102fd57600080fd5b5035600160a060020a0316610d6c565b610263610dd0565b6101716004803603602081101561032b57600080fd5b5035610e6a565b6101a06004803603602081101561034857600080fd5b5035610ec5565b610171610ef6565b6101a06004803603602081101561036d57600080fd5b81019060208101813564010000000081111561038857600080fd5b82018360208201111561039a57600080fd5b803590602001918460208302840111640100000000831117156103bc57600080fd5b509092509050610f37565b610263600480360360408110156103dd57600080fd5b5080359060200135600160a060020a0316610fd3565b6103fb6110b1565b60408051600160a060020a039092168252519081900360200190f35b6101a06004803603604081101561042d57600080fd5b5080359060200135600160a060020a03166110b6565b610263611188565b6101716004803603602081101561046157600080fd5b5035600160a060020a031661121f565b6103fb6004803603602081101561048757600080fd5b5035611283565b610171600480360360208110156104a457600080fd5b5035600160a060020a03166112d7565b61017161133b565b61057e600480360360408110156104d257600080fd5b8101906020810181356401000000008111156104ed57600080fd5b8201836020820111156104ff57600080fd5b8035906020019184602083028401116401000000008311171561052157600080fd5b91939092909160208101903564010000000081111561053f57600080fd5b82018360208201111561055157600080fd5b8035906020019184602083028401116401000000008311171561057357600080fd5b50909250905061136a565b604051808060200180602001838103835285818151815260200191508051906020019060200280838360005b838110156105c25781810151838201526020016105aa565b50505050905001838103825284818151815260200191508051906020019060200280838360005b838110156106015781810151838201526020016105e9565b5050505090500194505050505060405180910390f35b604080517f65787472615265636569766572416d6f756e7400000000000000000000000000602080830191909152600160a060020a03841682840152825180830384018152606090920183528151918101919091206000908152600290915220545b919050565b61068733611f19565b151561069257600080fd5b80151561069e57600080fd5b6106af6106a9611f81565b8261207f565b50565b604080517f736e617073686f745374616b65416d6f756e740000000000000000000000000060208083019190915281830195909552600160a060020a039384166060820152919092166080808301919091528251808303909101815260a090910182528051908301206000908152600290925290205490565b604080517f6f776e65720000000000000000000000000000000000000000000000000000008152815190819003600501902060009081526004602052205433600160a060020a039091161461077f57600080fd5b604080517f657263546f4e617469766542726964676573416c6c6f77656400000000000000815281519081900360190190206000908152600b602052206107c7908383613373565b505050565b604080517f736e617073686f7456616c696461746f7273000000000000000000000000000060208083019190915281830184905282518083038401815260608381018086528251928401929092206000908152600b84528590208054608094810286018501909652858352909491939092018282801561087557602002820191906000526020600020905b8154600160a060020a03168152600190910190602001808311610857575b50505050509050919050565b604080517f6d696e746564466f724163636f756e74496e426c6f636b000000000000000000602080830191909152600160a060020a03851682840152606080830185905283518084039091018152608090920183528151918101919091206000908152600290915220545b92915050565b33156108fd57600080fd5b60008090506000606080600080600086600160a060020a031663794c0c686040518163ffffffff1660e060020a02815260040160206040518083038186803b15801561094857600080fd5b505afa15801561095c573d6000803e3d6000fd5b505050506040513d602081101561097257600080fd5b5051905060028110610a2357600119810161098c816107cc565b9550600093505b8551841015610a215785848151811015156109aa57fe5b9060200190602002015196506109c381888960006120fe565b6109cd8188610fd3565b9450600092505b8451831015610a0c57610a01818887868151811015156109f057fe5b9060200190602002015160006120fe565b6001909201916109d4565b610a168188612179565b600190930192610993565b505b86600160a060020a031663b7ab4db56040518163ffffffff1660e060020a02815260040160006040518083038186803b158015610a5f57600080fd5b505afa158015610a73573d6000803e3d6000fd5b505050506040513d6000823e601f3d908101601f191682016040526020811015610a9c57600080fd5b810190808051640100000000811115610ab457600080fd5b82016020810184811115610ac757600080fd5b8151856020820283011164010000000082111715610ae457600080fd5b50509291905050509450610af88186612204565b600092505b8451831015610d63578483815181101515610b1457fe5b6020908102909101810151604080517fa697ecff000000000000000000000000000000000000000000000000000000008152600160a060020a038084166004830181905260248301529151929950610bc19385938b938493908e169263a697ecff92604480840193829003018186803b158015610b9057600080fd5b505afa158015610ba4573d6000803e3d6000fd5b505050506040513d6020811015610bba57600080fd5b50516120fe565b86600160a060020a031663cddb3e7b876040518263ffffffff1660e060020a0281526004018082600160a060020a0316600160a060020a0316815260200191505060006040518083038186803b158015610c1a57600080fd5b505afa158015610c2e573d6000803e3d6000fd5b505050506040513d6000823e601f3d908101601f191682016040526020811015610c5757600080fd5b810190808051640100000000811115610c6f57600080fd5b82016020810184811115610c8257600080fd5b8151856020820283011164010000000082111715610c9f57600080fd5b5090975060009550505050505b8351821015610d4d57610d4281878685815181101515610cc857fe5b906020019060200201518a600160a060020a031663a697ecff8b8a89815181101515610cf057fe5b60209081029091018101516040805160e060020a63ffffffff8716028152600160a060020a03948516600482015293909116602484015251604480840193829003018186803b158015610b9057600080fd5b600190910190610cac565b610d5881878661226c565b600190920191610afd565b50505050505050565b604080517f6d696e746564466f724163636f756e7400000000000000000000000000000000602080830191909152600160a060020a039390931681830152815180820383018152606090910182528051908301206000908152600290925290205490565b604080517f657263546f4e617469766542726964676573416c6c6f77656400000000000000815281519081900360190181206000908152600b6020908152908390208054808302840183019094528383526060939091830182828015610e5f57602002820191906000526020600020905b8154600160a060020a03168152600190910190602001808311610e41575b505050505090505b90565b604080517f6d696e746564496e426c6f636b0000000000000000000000000000000000000060208083019190915281830193909352815180820383018152606090910182528051908301206000908152600290925290205490565b610ece336122ee565b1515610ed957600080fd5b801515610ee557600080fd5b6106af610ef0611f81565b8261234c565b604080517f6d696e746564546f74616c6c79000000000000000000000000000000000000008152815190819003600d01902060009081526002602052205490565b604080517f6f776e65720000000000000000000000000000000000000000000000000000008152815190819003600501902060009081526004602052205433600160a060020a0390911614610f8b57600080fd5b604080517f6e6174697665546f45726342726964676573416c6c6f77656400000000000000815281519081900360190190206000908152600b602052206107c7908383613373565b6060600b60007f736e617073686f745374616b657273000000000000000000000000000000000085856040516020018084815260200183815260200182600160a060020a0316600160a060020a0316815260200193505050506040516020818303038152906040528051906020012081526020019081526020016000208054806020026020016040519081016040528092919081815260200182805480156110a457602002820191906000526020600020905b8154600160a060020a03168152600190910190602001808311611086575b5050505050905092915050565b600081565b6110bf336122ee565b15156110ca57600080fd5b8115156110d657600080fd5b600160a060020a03811615156110eb57600080fd5b60006110f682610617565b905080151561110857611108826123b7565b61112161111b828563ffffffff61241616565b8361242f565b61114361113d84611131336112d7565b9063ffffffff61241616565b33612491565b6040805184815290513391600160a060020a038516917f3c798bbcf33115b42c728b8504cff11dd58736e9fa789f1cda2738db7d696b2a9181900360200190a3505050565b604080517f6e6174697665546f45726342726964676573416c6c6f77656400000000000000815281519081900360190181206000908152600b6020908152908390208054808302840183019094528383526060939091830182828015610e5f57602002820191906000526020600020908154600160a060020a03168152600190910190602001808311610e41575050505050905090565b604080517f6d696e746564546f74616c6c7942794272696467650000000000000000000000602080830191909152600160a060020a039390931681830152815180820383018152606090910182528051908301206000908152600290925290205490565b604080516000805160206134ec8339815191528152815190819003600e0190206000908152600b6020529081208054839081106112bc57fe5b600091825260209091200154600160a060020a031692915050565b604080517f627269646765416d6f756e740000000000000000000000000000000000000000602080830191909152600160a060020a039390931681830152815180820383018152606090910182528051908301206000908152600290925290205490565b604080516000805160206134ec8339815191528152815190819003600e0190206000908152600b602052205490565b60608073fffffffffffffffffffffffffffffffffffffffe331461138d57600080fd5b84831461139957600080fd5b600185146113a657600080fd5b838360008181106113b357fe5b9050602002013561ffff1661ffff1660001415156113d057600080fd5b60008686828181106113de57fe5b90506020020135600160a060020a0316600160a060020a0316141561141b5750506040805160008082526020820190815281830190925290611f10565b60008090504381600160a060020a031663b927ef436040518163ffffffff1660e060020a02815260040160206040518083038186803b15801561145d57600080fd5b505afa158015611471573d6000803e3d6000fd5b505050506040513d602081101561148757600080fd5b505114156115e857600160a060020a03811663facd743b888860008181106114ab57fe5b90506020020135600160a060020a03166040518263ffffffff1660e060020a0281526004018082600160a060020a0316600160a060020a0316815260200191505060206040518083038186803b15801561150457600080fd5b505afa158015611518573d6000803e3d6000fd5b505050506040513d602081101561152e57600080fd5b5051806115d85750600160a060020a038116632d7416a58888600081811061155257fe5b90506020020135600160a060020a03166040518263ffffffff1660e060020a0281526004018082600160a060020a0316600160a060020a0316815260200191505060206040518083038186803b1580156115ab57600080fd5b505afa1580156115bf573d6000803e3d6000fd5b505050506040513d60208110156115d557600080fd5b50515b15156115e357600080fd5b611694565b600160a060020a03811663facd743b8888600081811061160457fe5b90506020020135600160a060020a03166040518263ffffffff1660e060020a0281526004018082600160a060020a0316600160a060020a0316815260200191505060206040518083038186803b15801561165d57600080fd5b505afa158015611671573d6000803e3d6000fd5b505050506040513d602081101561168757600080fd5b5051151561169457600080fd5b80600160a060020a0316635ccee1de6040518163ffffffff1660e060020a028152600401600060405180830381600087803b1580156116d257600080fd5b505af11580156116e6573d6000803e3d6000fd5b505050506060806000806116f8611f81565b905061170781600060016124f3565b9094509250600091505b83518210156117f357604080516000805160206134cc833981519152815281519081900360140190206000908152600b60205220845185908490811061175357fe5b602090810290910181015182546001810184556000938452828420018054600160a060020a03909216600160a060020a0319909216919091179055604080516000805160206134cc8339815191528152815190819003601401902083526009909152902083518490849081106117c557fe5b6020908102909101810151825460018181018555600094855292909320909201919091559190910190611711565b60008111156118f75761180b600182036001806124f3565b9094509250600091505b83518210156118f757604080516000805160206134cc833981519152815281519081900360140190206000908152600b60205220845185908490811061185757fe5b602090810290910181015182546001810184556000938452828420018054600160a060020a03909216600160a060020a0319909216919091179055604080516000805160206134cc8339815191528152815190819003601401902083526009909152902083518490849081106118c957fe5b6020908102909101810151825460018181018555600094855292909320909201919091559190910190611815565b600085600160a060020a031663856e84886040518163ffffffff1660e060020a02815260040160206040518083038186803b15801561193557600080fd5b505afa158015611949573d6000803e3d6000fd5b505050506040513d602081101561195f57600080fd5b50519050600160a060020a03811615611bad5761197e826000806124f3565b8151919650945060001015611a8957604080517fe2f764a300000000000000000000000000000000000000000000000000000000815260048101918252865160448201528651600160a060020a0384169263e2f764a392899289929182916024820191606401906020808801910280838360005b83811015611a0a5781810151838201526020016119f2565b50505050905001838103825284818151815260200191508051906020019060200280838360005b83811015611a49578181015183820152602001611a31565b50505050905001945050505050600060405180830381600087803b158015611a7057600080fd5b505af1158015611a84573d6000803e3d6000fd5b505050505b6000821115611bad57611aa260018303600160006124f3565b8151919650945060001015611bad57604080517fe2f764a300000000000000000000000000000000000000000000000000000000815260048101918252865160448201528651600160a060020a0384169263e2f764a392899289929182916024820191606401906020808801910280838360005b83811015611b2e578181015183820152602001611b16565b50505050905001838103825284818151815260200191508051906020019060200280838360005b83811015611b6d578181015183820152602001611b55565b50505050905001945050505050600060405180830381600087803b158015611b9457600080fd5b505af1158015611ba8573d6000803e3d6000fd5b505050505b611bb5612a83565b9095509350600092505b8451831015611ca157604080516000805160206134cc833981519152815281519081900360140190206000908152600b602052208551869085908110611c0157fe5b602090810290910181015182546001810184556000938452828420018054600160a060020a03909216600160a060020a0319909216919091179055604080516000805160206134cc833981519152815281519081900360140190208352600990915290208451859085908110611c7357fe5b6020908102909101810151825460018181018555600094855292909320909201919091559290920191611bbf565b604080516000805160206134cc833981519152815281519081900360140181206000908152600b602090815290839020805480830284018301909452838352919290830182828015611d1c57602002820191906000526020600020905b8154600160a060020a03168152600190910190602001808311611cfe575b5050604080516000805160206134cc8339815191528152815190819003601401812060009081526009602090815290839020805480830284018301909452838352969b50909594509092508401905082828015611d9857602002820191906000526020600020905b815481526020019060010190808311611d84575b5050604080516000805160206134cc833981519152815281519081900360140190206000908152600b602052908120949850611dd994935091506133d69050565b604080516000805160206134cc8339815191528152815190819003601401902060009081526009602052908120611e0f916133d6565b85600160a060020a031663ccf69e9b6040518163ffffffff1660e060020a02815260040160206040518083038186803b158015611e4b57600080fd5b505afa158015611e5f573d6000803e3d6000fd5b505050506040513d6020811015611e7557600080fd5b5051600160a060020a031663bc3619dd8d8d6000818110611e9257fe5b90506020020135600160a060020a03166040518263ffffffff1660e060020a0281526004018082600160a060020a0316600160a060020a03168152602001915050600060405180830381600087803b158015611eed57600080fd5b505af1158015611f01573d6000803e3d6000fd5b50969950949750505050505050505b94509492505050565b60006060611f25611188565b905060005b8151811015611f77578181815181101515611f4157fe5b90602001906020020151600160a060020a031684600160a060020a03161415611f6f57600192505050610679565b600101611f2a565b5060009392505050565b60008060009050600081600160a060020a031663794c0c686040518163ffffffff1660e060020a02815260040160206040518083038186803b158015611fc657600080fd5b505afa158015611fda573d6000803e3d6000fd5b505050506040513d6020811015611ff057600080fd5b5051905080151561200657600092505050610e67565b81600160a060020a031663b927ef436040518163ffffffff1660e060020a02815260040160206040518083038186803b15801561204257600080fd5b505afa158015612056573d6000803e3d6000fd5b505050506040513d602081101561206c57600080fd5b5051151561207957600019015b91505090565b604080517f627269646765546f6b656e4665650000000000000000000000000000000000006020808301919091528183018590528251808303840181526060909201835281519181019190912060008181526002909252919020546120ea908363ffffffff61241616565b600091825260026020526040909120555050565b604080517f736e617073686f745374616b65416d6f756e740000000000000000000000000060208083019190915281830196909652600160a060020a039485166060820152929093166080808401919091528351808403909101815260a0909201835281519184019190912060009081526002909352912055565b600b60007f736e617073686f745374616b657273000000000000000000000000000000000084846040516020018084815260200183815260200182600160a060020a0316600160a060020a031681526020019350505050604051602081830303815290604052805190602001208152602001908152602001600020600061220091906133d6565b5050565b604080517f736e617073686f7456616c696461746f72730000000000000000000000000000602080830191909152818301859052825180830384018152606090920183528151918101919091206000908152600b82529190912082516107c7928401906133f4565b604080517f736e617073686f745374616b6572730000000000000000000000000000000000602080830191909152818301869052600160a060020a03851660608084019190915283518084039091018152608090920183528151918101919091206000908152600b82529190912082516122e8928401906133f4565b50505050565b600060606122fa610dd0565b905060005b8151811015611f7757818181518110151561231657fe5b90602001906020020151600160a060020a031684600160a060020a0316141561234457600192505050610679565b6001016122ff565b604080517f6272696467654e617469766546656500000000000000000000000000000000006020808301919091528183018590528251808303840181526060909201835281519181019190912060008181526002909252919020546120ea908363ffffffff61241616565b604080516000805160206134ec8339815191528152815190819003600e0190206000908152600b60209081529181208054600181018255908252919020018054600160a060020a03909216600160a060020a0319909216919091179055565b60008282018381101561242857600080fd5b9392505050565b604080517f65787472615265636569766572416d6f756e7400000000000000000000000000602080830191909152600160a060020a03909316818301528151808203830181526060909101825280519083012060009081526002909252902055565b604080517f627269646765416d6f756e740000000000000000000000000000000000000000602080830191909152600160a060020a03909316818301528151808203830181526060909101825280519083012060009081526002909252902055565b606080600083156125175761250786612ca8565b905061251286612d03565b61252b565b61252086612d5d565b905061252b86612db8565b801515612551575050604080516000808252602082019081528183019092529150612a7b565b6000606081808089151561262e5784600160a060020a031663b7ab4db56040518163ffffffff1660e060020a02815260040160006040518083038186803b15801561259b57600080fd5b505afa1580156125af573d6000803e3d6000fd5b505050506040513d6000823e601f3d908101601f1916820160405260208110156125d857600080fd5b8101908080516401000000008111156125f057600080fd5b8201602081018481111561260357600080fd5b815185602082028301116401000000008211171561262057600080fd5b509097506126f89350505050565b84600160a060020a03166385602ad56040518163ffffffff1660e060020a02815260040160006040518083038186803b15801561266a57600080fd5b505afa15801561267e573d6000803e3d6000fd5b505050506040513d6000823e601f3d908101601f1916820160405260208110156126a757600080fd5b8101908080516401000000008111156126bf57600080fd5b820160208101848111156126d257600080fd5b81518560208202830111640100000000821117156126ef57600080fd5b50909750505050505b8a15156127a85783518681151561270b57fe5b04925083518681151561271a57fe5b0691508351604051908082528060200260200182016040528015612748578160200160208202803883390190505b509650600090505b835181101561277a5782878281518110151561276857fe5b60209081029091010152600101612750565b8187600081518110151561278a57fe5b6020908102909101018051909101905250919550612a7b9350505050565b6127b18b6107cc565b51868115156127bc57fe5b0492506127c88b6107cc565b51868115156127d357fe5b069150600090505b8351811015612906576128178b85838151811015156127f657fe5b906020019060200201518360001461280e5785612812565b8486015b612e12565b909850965060005b88518110156128fd57604080516000805160206134ac833981519152815281519081900360180190206000908152600b6020522089518a908390811061286157fe5b602090810290910181015182546001810184556000938452828420018054600160a060020a03909216600160a060020a0319909216919091179055604080516000805160206134ac8339815191528152815190819003601801902083526009909152902088518990839081106128d357fe5b6020908102909101810151825460018181018555600094855292909320909201919091550161281f565b506001016127db565b604080516000805160206134ac833981519152815281519081900360180181206000908152600b60209081529083902080548083028401830190945283835291929083018282801561298157602002820191906000526020600020905b8154600160a060020a03168152600190910190602001808311612963575b5050604080516000805160206134ac8339815191528152815190819003601801812060009081526009602090815290839020805480830284018301909452838352969e509095945090925084019050828280156129fd57602002820191906000526020600020905b8154815260200190600101908083116129e9575b5050604080516000805160206134ac833981519152815281519081900360180190206000908152600b602052908120949b50612a3e94935091506133d69050565b604080516000805160206134ac8339815191528152815190819003601801902060009081526009602052908120612a74916133d6565b5050505050505b935093915050565b6060806000612a9061133b565b905080604051908082528060200260200182016040528015612abc578160200160208202803883390190505b50925080604051908082528060200260200182016040528015612ae9578160200160208202803883390190505b50915060005b81811015612b70576000612b0282611283565b90506000612b0f82610617565b9050612b1c60008361242f565b818684815181101515612b2b57fe5b600160a060020a0390921660209283029091019091015284518190869085908110612b5257fe5b60209081029091010152612b6681836130d9565b5050600101612aef565b6060612b7a610dd0565b9050600091505b8051821015612bde5760008183815181101515612b9a57fe5b9060200190602002015190506000612bb1826112d7565b90506000811115612bd157612bc7600083612491565b612bd1818361327a565b5050600190910190612b81565b612be66132ed565b7f10fee3decd0f6ad0c977fcb2c1c5992fa39a944deb348ea435790b02b80515238585604051808060200180602001838103835285818151815260200191508051906020019060200280838360005b83811015612c4d578181015183820152602001612c35565b50505050905001838103825284818151815260200191508051906020019060200280838360005b83811015612c8c578181015183820152602001612c74565b5050505090500194505050505060405180910390a15050509091565b604080517f6272696467654e6174697665466565000000000000000000000000000000000060208083019190915281830193909352815180820383018152606090910182528051908301206000908152600290925290205490565b604080517f6272696467654e61746976654665650000000000000000000000000000000000602080830191909152818301939093528151808203830181526060909101825280519083012060009081526002909252812055565b604080517f627269646765546f6b656e46656500000000000000000000000000000000000060208083019190915281830193909352815180820383018152606090910182528051908301206000908152600290925290205490565b604080517f627269646765546f6b656e466565000000000000000000000000000000000000602080830191909152818301939093528151808203830181526060909101825280519083012060009081526002909252812055565b60608060006060612e238787610fd3565b8051909150612e3990600163ffffffff61241616565b604051908082528060200260200182016040528015612e62578160200160208202803883390190505b5093508351604051908082528060200260200182016040528015612e90578160200160208202803883390190505b5092506000612ea08888896106b2565b600093509050825b8251841015612edf57612ed389898587815181101515612ec457fe5b906020019060200201516106b2565b60019094019301612ea8565b600093505b8251841015612fe2576000612f028a8a8688815181101515612ec457fe5b90508385815181101515612f1257fe5b906020019060200201518786815181101515612f2a57fe5b600160a060020a0390921660209283029091019091015281831115612f8857612f6b838301612f5f8a8463ffffffff61332416565b9063ffffffff61334f16565b8686815181101515612f7957fe5b60209081029091010152612fd6565b612fbd612f9c83600a63ffffffff61332416565b612f5f6007612fb18c8663ffffffff61332416565b9063ffffffff61332416565b8686815181101515612fcb57fe5b602090810290910101525b50600190930192612ee4565b878685815181101515612ff157fe5b600160a060020a039092166020928302909101909101528082111561304357613026828201612f5f898563ffffffff61332416565b858581518110151561303457fe5b60209081029091010152613072565b613059600a612f5f89600363ffffffff61332416565b858581518110151561306757fe5b602090810290910101525b600093505b84518410156130a757848481518110151561308e57fe5b6020908102909101015190960395600190930192613077565b8685600186038151811015156130b957fe5b906020019060200201818151019150818152505050505050935093915050565b604080517f6d696e746564466f724163636f756e74496e426c6f636b000000000000000000602080830191909152600160a060020a0384168284018190524360608085019190915284518085039091018152608084018552805190830120600090815260028084528582208890557f6d696e746564466f724163636f756e740000000000000000000000000000000060a086015260c0808601939093528551808603909301835260e090940185528151918301919091208082529290915291909120546131ac908463ffffffff61241616565b60009182526002602081815260408085209390935582517f6d696e746564496e426c6f636b000000000000000000000000000000000000008183015243818501528351808203850181526060909101845280519082012080855291905291205461321c908463ffffffff61241616565b60009182526002602081815260408085209390935582517f6d696e746564546f74616c6c79000000000000000000000000000000000000008152835190819003600d0190208085529190529120546120ea908463ffffffff61241616565b604080517f6d696e746564546f74616c6c7942794272696467650000000000000000000000602080830191909152600160a060020a038416828401528251808303840181526060909201835281519181019190912060008181526002909252919020546120ea908463ffffffff61241616565b604080516000805160206134ec8339815191528152815190819003600e0190206000908152600b6020529081206106af9082613449565b6000821515613335575060006108ec565b82820282848281151561334457fe5b041461242857600080fd5b600080821161335d57600080fd5b6000828481151561336a57fe5b04949350505050565b8280548282559060005260206000209081019282156133c6579160200282015b828111156133c6578154600160a060020a031916600160a060020a03843516178255602090920191600190910190613393565b506133d292915061346d565b5090565b50805460008255906000526020600020908101906106af9190613491565b8280548282559060005260206000209081019282156133c6579160200282015b828111156133c65782518254600160a060020a031916600160a060020a03909116178255602090920191600190910190613414565b8154818355818111156107c7576000838152602090206107c7918101908301613491565b610e6791905b808211156133d2578054600160a060020a0319168155600101613473565b610e6791905b808211156133d2576000815560010161349756fe6469737472696275746554656d706f726172794172726179000000000000000072657761726454656d706f7261727941727261790000000000000000000000006578747261526563656976657273000000000000000000000000000000000000a165627a7a72305820b2f352968758f7a693a2f704555ec26ff7b68d6775223746826cef799d38886a0029",
  "source": "pragma solidity 0.5.2;\n\nimport \"./abstracts/BlockRewardBase.sol\";\nimport \"./interfaces/IERC20Minting.sol\";\nimport \"./interfaces/IRandomAuRa.sol\";\n\n\ncontract BlockRewardAuRa is BlockRewardBase {\n\n    function reward(address[] calldata benefactors, uint16[] calldata kind)\n        external\n        onlySystem\n        returns(address[] memory, uint256[] memory)\n    {\n        require(benefactors.length == kind.length);\n        require(benefactors.length == 1);\n        require(kind[0] == 0);\n\n        if (benefactors[0] == address(0)) {\n            // Return empty arrays for zero input address\n            // https://github.com/paritytech/parity-ethereum/issues/9764\n            return (new address[](0), new uint256[](0));\n        }\n\n        IValidatorSet validatorSetContract = IValidatorSet(VALIDATOR_SET_CONTRACT);\n\n        // Check if the validator is existed\n        if (validatorSetContract.validatorSetApplyBlock() == block.number) {\n            // If `finalizeChange` was called in this block\n            require(\n                validatorSetContract.isValidator(benefactors[0]) ||\n                validatorSetContract.isValidatorOnPreviousEpoch(benefactors[0])\n            );\n        } else {\n            require(validatorSetContract.isValidator(benefactors[0]));\n        }\n\n        // Start new staking epoch every `STAKING_EPOCH_DURATION` blocks\n        validatorSetContract.newValidatorSet();\n\n        // Distribute fees\n        address[] memory receivers;\n        uint256[] memory rewards;\n        uint256 i;\n\n        uint256 stakingEpoch = _getStakingEpoch();\n\n        // Distribute bridge's native fee\n        (receivers, rewards) = _distributeBridgeFee(stakingEpoch, false, true);\n        for (i = 0; i < receivers.length; i++) {\n            addressArrayStorage[REWARD_TEMPORARY_ARRAY].push(receivers[i]);\n            uintArrayStorage[REWARD_TEMPORARY_ARRAY].push(rewards[i]);\n        }\n        if (stakingEpoch > 0) {\n            // Handle previous staking epoch as well (just in case)\n            (receivers, rewards) = _distributeBridgeFee(stakingEpoch - 1, true, true);\n            for (i = 0; i < receivers.length; i++) {\n                addressArrayStorage[REWARD_TEMPORARY_ARRAY].push(receivers[i]);\n                uintArrayStorage[REWARD_TEMPORARY_ARRAY].push(rewards[i]);\n            }\n        }\n\n        // Distribute bridge's token fee\n        IERC20Minting erc20TokenContract = IERC20Minting(\n            validatorSetContract.erc20TokenContract()\n        );\n        if (address(erc20TokenContract) != address(0)) {\n            (receivers, rewards) = _distributeBridgeFee(stakingEpoch, false, false);\n            if (receivers.length > 0) {\n                erc20TokenContract.mintReward(receivers, rewards);\n            }\n            if (stakingEpoch > 0) {\n                // Handle previous staking epoch as well (just in case)\n                (receivers, rewards) = _distributeBridgeFee(stakingEpoch - 1, true, false);\n                if (receivers.length > 0) {\n                    erc20TokenContract.mintReward(receivers, rewards);\n                }\n            }\n        }\n\n        // We don't accrue any block reward in native coins to validator here.\n        // We just mint native coins by bridge if needed.\n        (receivers, rewards) = _mintNativeCoinsByErcToNativeBridge();\n        for (i = 0; i < receivers.length; i++) {\n            addressArrayStorage[REWARD_TEMPORARY_ARRAY].push(receivers[i]);\n            uintArrayStorage[REWARD_TEMPORARY_ARRAY].push(rewards[i]);\n        }\n\n        // Move the arrays of receivers and their rewards from storage to memory\n        receivers = addressArrayStorage[REWARD_TEMPORARY_ARRAY];\n        rewards = uintArrayStorage[REWARD_TEMPORARY_ARRAY];\n\n        delete addressArrayStorage[REWARD_TEMPORARY_ARRAY];\n        delete uintArrayStorage[REWARD_TEMPORARY_ARRAY];\n\n        // Mark that the current validator produced a block during the current phase.\n        // Publish current random number at the end of the current collection round.\n        // Check if current validators participated in the current collection round.\n        IRandomAuRa(validatorSetContract.randomContract()).onBlockClose(benefactors[0]);\n\n        return (receivers, rewards);\n    }\n\n    function _distributeBridgeFee(uint256 _stakingEpoch, bool _previousEpoch, bool _native)\n        internal\n        returns(address[] memory receivers, uint256[] memory rewards)\n    {\n        uint256 bridgeFeeAmount;\n\n        if (_native) {\n            bridgeFeeAmount = _getBridgeNativeFee(_stakingEpoch);\n            _clearBridgeNativeFee(_stakingEpoch);\n        } else {\n            bridgeFeeAmount = _getBridgeTokenFee(_stakingEpoch);\n            _clearBridgeTokenFee(_stakingEpoch);\n        }\n\n        if (bridgeFeeAmount == 0) {\n            return (new address[](0), new uint256[](0));\n        }\n\n        IValidatorSet validatorSetContract = IValidatorSet(VALIDATOR_SET_CONTRACT);\n        address[] memory validators;\n        uint256 poolReward;\n        uint256 remainder;\n        uint256 i;\n\n        if (!_previousEpoch) {\n            validators = validatorSetContract.getValidators();\n        } else {\n            validators = validatorSetContract.getPreviousValidators();\n        }\n        if (_stakingEpoch == 0) {\n            // On initial staking epoch only initial validators get reward\n\n            poolReward = bridgeFeeAmount / validators.length;\n            remainder = bridgeFeeAmount % validators.length;\n\n            rewards = new uint256[](validators.length);\n\n            for (i = 0; i < validators.length; i++) {\n                rewards[i] = poolReward;\n            }\n            rewards[0] += remainder;\n\n            return (validators, rewards);\n        } else {\n            poolReward = bridgeFeeAmount / snapshotValidators(_stakingEpoch).length;\n            remainder = bridgeFeeAmount % snapshotValidators(_stakingEpoch).length;\n\n            for (i = 0; i < validators.length; i++) {\n                // Distribute the reward among validators and their stakers\n                (\n                    receivers,\n                    rewards\n                ) = _distributePoolReward(\n                    _stakingEpoch,\n                    validators[i],\n                    i == 0 ? poolReward + remainder : poolReward\n                );\n\n                for (uint256 r = 0; r < receivers.length; r++) {\n                    addressArrayStorage[DISTRIBUTE_TEMPORARY_ARRAY].push(receivers[r]);\n                    uintArrayStorage[DISTRIBUTE_TEMPORARY_ARRAY].push(rewards[r]);\n                }\n            }\n\n            receivers = addressArrayStorage[DISTRIBUTE_TEMPORARY_ARRAY];\n            rewards = uintArrayStorage[DISTRIBUTE_TEMPORARY_ARRAY];\n\n            delete addressArrayStorage[DISTRIBUTE_TEMPORARY_ARRAY];\n            delete uintArrayStorage[DISTRIBUTE_TEMPORARY_ARRAY];\n        }\n    }\n\n    bytes32 internal constant DISTRIBUTE_TEMPORARY_ARRAY = keccak256(\"distributeTemporaryArray\");\n    bytes32 internal constant REWARD_TEMPORARY_ARRAY = keccak256(\"rewardTemporaryArray\");\n\n}\n",
  "sourcePath": "/home/poa/Dropbox/POA/GitHub/pos-contracts/contracts/BlockRewardAuRa.sol",
  "compiler": {
    "name": "solc",
    "version": "0.5.2+commit.1df8f40c.Emscripten.clang"
  },
  "schemaVersion": "3.0.1",
  "updatedAt": "2019-01-14T07:31:36.916Z",
  "devdoc": {
    "methods": {}
  },
  "userdoc": {
    "methods": {}
  }
}