{
  "contractName": "BlockRewardHBBFT",
  "abi": [
    {
      "constant": true,
      "inputs": [
        {
          "name": "_receiver",
          "type": "address"
        }
      ],
      "name": "extraReceiverAmount",
      "outputs": [
        {
          "name": "",
          "type": "uint256"
        }
      ],
      "payable": false,
      "stateMutability": "view",
      "type": "function"
    },
    {
      "constant": false,
      "inputs": [
        {
          "name": "_amount",
          "type": "uint256"
        }
      ],
      "name": "addBridgeTokenFeeReceivers",
      "outputs": [],
      "payable": false,
      "stateMutability": "nonpayable",
      "type": "function"
    },
    {
      "constant": true,
      "inputs": [
        {
          "name": "_stakingEpoch",
          "type": "uint256"
        },
        {
          "name": "_validator",
          "type": "address"
        },
        {
          "name": "_staker",
          "type": "address"
        }
      ],
      "name": "snapshotStakeAmount",
      "outputs": [
        {
          "name": "",
          "type": "uint256"
        }
      ],
      "payable": false,
      "stateMutability": "view",
      "type": "function"
    },
    {
      "constant": false,
      "inputs": [
        {
          "name": "_bridgesAllowed",
          "type": "address[]"
        }
      ],
      "name": "setErcToNativeBridgesAllowed",
      "outputs": [],
      "payable": false,
      "stateMutability": "nonpayable",
      "type": "function"
    },
    {
      "constant": true,
      "inputs": [
        {
          "name": "_stakingEpoch",
          "type": "uint256"
        }
      ],
      "name": "snapshotValidators",
      "outputs": [
        {
          "name": "",
          "type": "address[]"
        }
      ],
      "payable": false,
      "stateMutability": "view",
      "type": "function"
    },
    {
      "constant": true,
      "inputs": [
        {
          "name": "_account",
          "type": "address"
        },
        {
          "name": "_blockNumber",
          "type": "uint256"
        }
      ],
      "name": "mintedForAccountInBlock",
      "outputs": [
        {
          "name": "",
          "type": "uint256"
        }
      ],
      "payable": false,
      "stateMutability": "view",
      "type": "function"
    },
    {
      "constant": false,
      "inputs": [],
      "name": "setSnapshot",
      "outputs": [],
      "payable": false,
      "stateMutability": "nonpayable",
      "type": "function"
    },
    {
      "constant": true,
      "inputs": [
        {
          "name": "_account",
          "type": "address"
        }
      ],
      "name": "mintedForAccount",
      "outputs": [
        {
          "name": "",
          "type": "uint256"
        }
      ],
      "payable": false,
      "stateMutability": "view",
      "type": "function"
    },
    {
      "constant": true,
      "inputs": [],
      "name": "ercToNativeBridgesAllowed",
      "outputs": [
        {
          "name": "",
          "type": "address[]"
        }
      ],
      "payable": false,
      "stateMutability": "view",
      "type": "function"
    },
    {
      "constant": true,
      "inputs": [
        {
          "name": "_blockNumber",
          "type": "uint256"
        }
      ],
      "name": "mintedInBlock",
      "outputs": [
        {
          "name": "",
          "type": "uint256"
        }
      ],
      "payable": false,
      "stateMutability": "view",
      "type": "function"
    },
    {
      "constant": false,
      "inputs": [
        {
          "name": "_amount",
          "type": "uint256"
        }
      ],
      "name": "addBridgeNativeFeeReceivers",
      "outputs": [],
      "payable": false,
      "stateMutability": "nonpayable",
      "type": "function"
    },
    {
      "constant": true,
      "inputs": [],
      "name": "mintedTotally",
      "outputs": [
        {
          "name": "",
          "type": "uint256"
        }
      ],
      "payable": false,
      "stateMutability": "view",
      "type": "function"
    },
    {
      "constant": false,
      "inputs": [
        {
          "name": "_bridgesAllowed",
          "type": "address[]"
        }
      ],
      "name": "setNativeToErcBridgesAllowed",
      "outputs": [],
      "payable": false,
      "stateMutability": "nonpayable",
      "type": "function"
    },
    {
      "constant": true,
      "inputs": [
        {
          "name": "_stakingEpoch",
          "type": "uint256"
        },
        {
          "name": "_validator",
          "type": "address"
        }
      ],
      "name": "snapshotStakers",
      "outputs": [
        {
          "name": "",
          "type": "address[]"
        }
      ],
      "payable": false,
      "stateMutability": "view",
      "type": "function"
    },
    {
      "constant": true,
      "inputs": [],
      "name": "VALIDATOR_SET_CONTRACT",
      "outputs": [
        {
          "name": "",
          "type": "address"
        }
      ],
      "payable": false,
      "stateMutability": "view",
      "type": "function"
    },
    {
      "constant": true,
      "inputs": [],
      "name": "BLOCK_REWARD",
      "outputs": [
        {
          "name": "",
          "type": "uint256"
        }
      ],
      "payable": false,
      "stateMutability": "view",
      "type": "function"
    },
    {
      "constant": false,
      "inputs": [
        {
          "name": "_amount",
          "type": "uint256"
        },
        {
          "name": "_receiver",
          "type": "address"
        }
      ],
      "name": "addExtraReceiver",
      "outputs": [],
      "payable": false,
      "stateMutability": "nonpayable",
      "type": "function"
    },
    {
      "constant": true,
      "inputs": [],
      "name": "nativeToErcBridgesAllowed",
      "outputs": [
        {
          "name": "",
          "type": "address[]"
        }
      ],
      "payable": false,
      "stateMutability": "view",
      "type": "function"
    },
    {
      "constant": true,
      "inputs": [
        {
          "name": "_bridge",
          "type": "address"
        }
      ],
      "name": "mintedTotallyByBridge",
      "outputs": [
        {
          "name": "",
          "type": "uint256"
        }
      ],
      "payable": false,
      "stateMutability": "view",
      "type": "function"
    },
    {
      "constant": true,
      "inputs": [
        {
          "name": "_index",
          "type": "uint256"
        }
      ],
      "name": "extraReceiverByIndex",
      "outputs": [
        {
          "name": "",
          "type": "address"
        }
      ],
      "payable": false,
      "stateMutability": "view",
      "type": "function"
    },
    {
      "constant": true,
      "inputs": [
        {
          "name": "_bridge",
          "type": "address"
        }
      ],
      "name": "bridgeAmount",
      "outputs": [
        {
          "name": "",
          "type": "uint256"
        }
      ],
      "payable": false,
      "stateMutability": "view",
      "type": "function"
    },
    {
      "constant": true,
      "inputs": [],
      "name": "extraReceiversLength",
      "outputs": [
        {
          "name": "",
          "type": "uint256"
        }
      ],
      "payable": false,
      "stateMutability": "view",
      "type": "function"
    },
    {
      "anonymous": false,
      "inputs": [
        {
          "indexed": false,
          "name": "receivers",
          "type": "address[]"
        },
        {
          "indexed": false,
          "name": "rewards",
          "type": "uint256[]"
        }
      ],
      "name": "RewardedERC20ByBlock",
      "type": "event"
    },
    {
      "anonymous": false,
      "inputs": [
        {
          "indexed": false,
          "name": "amount",
          "type": "uint256"
        },
        {
          "indexed": true,
          "name": "receiver",
          "type": "address"
        },
        {
          "indexed": true,
          "name": "bridge",
          "type": "address"
        }
      ],
      "name": "AddedReceiver",
      "type": "event"
    },
    {
      "anonymous": false,
      "inputs": [
        {
          "indexed": false,
          "name": "receivers",
          "type": "address[]"
        },
        {
          "indexed": false,
          "name": "rewards",
          "type": "uint256[]"
        }
      ],
      "name": "MintedByBridge",
      "type": "event"
    },
    {
      "constant": false,
      "inputs": [
        {
          "name": "benefactors",
          "type": "address[]"
        },
        {
          "name": "",
          "type": "uint16[]"
        }
      ],
      "name": "reward",
      "outputs": [
        {
          "name": "",
          "type": "address[]"
        },
        {
          "name": "",
          "type": "uint256[]"
        }
      ],
      "payable": false,
      "stateMutability": "nonpayable",
      "type": "function"
    }
  ],
  "bytecode": "0x608060405234801561001057600080fd5b506125d7806100206000396000f3fe608060405234801561001057600080fd5b50600436106101515760003560e060020a90048063553a5c85116100c7578063b25a00fd11610080578063b25a00fd14610456578063b4a523e81461045e578063db456f7714610484578063e73b9e2f146104a1578063efdc4d01146104c7578063f91c2898146104cf57610151565b8063553a5c851461035a5780636834fc90146103625780636cf5a338146103d257806376137dd9146103fe5780637f05b9ef14610422578063aa9fa2741461042a57610151565b806330f6eb161161011957806330f6eb16146102be57806338a0fdde146102ea5780633d84b8c1146102f2578063419ce264146103185780634476d66a14610320578063532513891461033d57610151565b80630f3a053314610156578063128b265f1461018e578063141f211c146101ad578063171d54dd146101e15780631bcb6fa214610251575b600080fd5b61017c6004803603602081101561016c57600080fd5b5035600160a060020a031661062a565b60408051918252519081900360200190f35b6101ab600480360360208110156101a457600080fd5b5035610691565b005b61017c600480360360608110156101c357600080fd5b50803590600160a060020a03602082013581169160400135166106c5565b6101ab600480360360208110156101f757600080fd5b81019060208101813564010000000081111561021257600080fd5b82018360208201111561022457600080fd5b8035906020019184602083028401116401000000008311171561024657600080fd5b50909250905061073e565b61026e6004803603602081101561026757600080fd5b50356107df565b60408051602080825283518183015283519192839290830191858101910280838360005b838110156102aa578181015183820152602001610292565b505050509050019250505060405180910390f35b61017c600480360360408110156102d457600080fd5b50600160a060020a038135169060200135610894565b6101ab610905565b61017c6004803603602081101561030857600080fd5b5035600160a060020a0316610da8565b61026e610e0c565b61017c6004803603602081101561033657600080fd5b5035610ea6565b6101ab6004803603602081101561035357600080fd5b5035610f01565b61017c610f32565b6101ab6004803603602081101561037857600080fd5b81019060208101813564010000000081111561039357600080fd5b8201836020820111156103a557600080fd5b803590602001918460208302840111640100000000831117156103c757600080fd5b509092509050610f73565b61026e600480360360408110156103e857600080fd5b5080359060200135600160a060020a031661100f565b6104066110ed565b60408051600160a060020a039092168252519081900360200190f35b61017c611105565b6101ab6004803603604081101561044057600080fd5b5080359060200135600160a060020a031661110a565b61026e6111dc565b61017c6004803603602081101561047457600080fd5b5035600160a060020a0316611273565b6104066004803603602081101561049a57600080fd5b50356112d7565b61017c600480360360208110156104b757600080fd5b5035600160a060020a031661132b565b61017c61138f565b610591600480360360408110156104e557600080fd5b81019060208101813564010000000081111561050057600080fd5b82018360208201111561051257600080fd5b8035906020019184602083028401116401000000008311171561053457600080fd5b91939092909160208101903564010000000081111561055257600080fd5b82018360208201111561056457600080fd5b8035906020019184602083028401116401000000008311171561058657600080fd5b5090925090506113be565b604051808060200180602001838103835285818151815260200191508051906020019060200280838360005b838110156105d55781810151838201526020016105bd565b50505050905001838103825284818151815260200191508051906020019060200280838360005b838110156106145781810151838201526020016105fc565b5050505090500194505050505060405180910390f35b604080517f65787472615265636569766572416d6f756e7400000000000000000000000000602080830191909152600160a060020a03841682840152825180830384018152606090920183528151918101919091206000908152600290915220545b919050565b61069a33611432565b15156106a557600080fd5b8015156106b157600080fd5b6106c26106bc61149a565b826115ab565b50565b604080517f736e617073686f745374616b65416d6f756e740000000000000000000000000060208083019190915281830195909552600160a060020a039384166060820152919092166080808301919091528251808303909101815260a090910182528051908301206000908152600290925290205490565b604080517f6f776e65720000000000000000000000000000000000000000000000000000008152815190819003600501902060009081526004602052205433600160a060020a039091161461079257600080fd5b604080517f657263546f4e617469766542726964676573416c6c6f77656400000000000000815281519081900360190190206000908152600b602052206107da90838361242c565b505050565b604080517f736e617073686f7456616c696461746f7273000000000000000000000000000060208083019190915281830184905282518083038401815260608381018086528251928401929092206000908152600b84528590208054608094810286018501909652858352909491939092018282801561088857602002820191906000526020600020905b8154600160a060020a0316815260019091019060200180831161086a575b50505050509050919050565b604080517f6d696e746564466f724163636f756e74496e426c6f636b000000000000000000602080830191909152600160a060020a03851682840152606080830185905283518084039091018152608090920183528151918101919091206000908152600290915220545b92915050565b337310000000000000000000000000000000000000011461092557600080fd5b600073100000000000000000000000000000000000000190506000606080600080600086600160a060020a031663794c0c686040518163ffffffff1660e060020a02815260040160206040518083038186803b15801561098457600080fd5b505afa158015610998573d6000803e3d6000fd5b505050506040513d60208110156109ae57600080fd5b5051905060028110610a5f5760011981016109c8816107df565b9550600093505b8551841015610a5d5785848151811015156109e657fe5b9060200190602002015196506109ff818889600061162a565b610a09818861100f565b9450600092505b8451831015610a4857610a3d81888786815181101515610a2c57fe5b90602001906020020151600061162a565b600190920191610a10565b610a5281886116a5565b6001909301926109cf565b505b86600160a060020a031663b7ab4db56040518163ffffffff1660e060020a02815260040160006040518083038186803b158015610a9b57600080fd5b505afa158015610aaf573d6000803e3d6000fd5b505050506040513d6000823e601f3d908101601f191682016040526020811015610ad857600080fd5b810190808051640100000000811115610af057600080fd5b82016020810184811115610b0357600080fd5b8151856020820283011164010000000082111715610b2057600080fd5b50509291905050509450610b348186611730565b600092505b8451831015610d9f578483815181101515610b5057fe5b6020908102909101810151604080517fa697ecff000000000000000000000000000000000000000000000000000000008152600160a060020a038084166004830181905260248301529151929950610bfd9385938b938493908e169263a697ecff92604480840193829003018186803b158015610bcc57600080fd5b505afa158015610be0573d6000803e3d6000fd5b505050506040513d6020811015610bf657600080fd5b505161162a565b86600160a060020a031663cddb3e7b876040518263ffffffff1660e060020a0281526004018082600160a060020a0316600160a060020a0316815260200191505060006040518083038186803b158015610c5657600080fd5b505afa158015610c6a573d6000803e3d6000fd5b505050506040513d6000823e601f3d908101601f191682016040526020811015610c9357600080fd5b810190808051640100000000811115610cab57600080fd5b82016020810184811115610cbe57600080fd5b8151856020820283011164010000000082111715610cdb57600080fd5b5090975060009550505050505b8351821015610d8957610d7e81878685815181101515610d0457fe5b906020019060200201518a600160a060020a031663a697ecff8b8a89815181101515610d2c57fe5b60209081029091018101516040805160e060020a63ffffffff8716028152600160a060020a03948516600482015293909116602484015251604480840193829003018186803b158015610bcc57600080fd5b600190910190610ce8565b610d94818786611798565b600190920191610b39565b50505050505050565b604080517f6d696e746564466f724163636f756e7400000000000000000000000000000000602080830191909152600160a060020a039390931681830152815180820383018152606090910182528051908301206000908152600290925290205490565b604080517f657263546f4e617469766542726964676573416c6c6f77656400000000000000815281519081900360190181206000908152600b6020908152908390208054808302840183019094528383526060939091830182828015610e9b57602002820191906000526020600020905b8154600160a060020a03168152600190910190602001808311610e7d575b505050505090505b90565b604080517f6d696e746564496e426c6f636b0000000000000000000000000000000000000060208083019190915281830193909352815180820383018152606090910182528051908301206000908152600290925290205490565b610f0a3361181a565b1515610f1557600080fd5b801515610f2157600080fd5b6106c2610f2c61149a565b82611878565b604080517f6d696e746564546f74616c6c79000000000000000000000000000000000000008152815190819003600d01902060009081526002602052205490565b604080517f6f776e65720000000000000000000000000000000000000000000000000000008152815190819003600501902060009081526004602052205433600160a060020a0390911614610fc757600080fd5b604080517f6e6174697665546f45726342726964676573416c6c6f77656400000000000000815281519081900360190190206000908152600b602052206107da90838361242c565b6060600b60007f736e617073686f745374616b657273000000000000000000000000000000000085856040516020018084815260200183815260200182600160a060020a0316600160a060020a0316815260200193505050506040516020818303038152906040528051906020012081526020019081526020016000208054806020026020016040519081016040528092919081815260200182805480156110e057602002820191906000526020600020905b8154600160a060020a031681526001909101906020018083116110c2575b5050505050905092915050565b73100000000000000000000000000000000000000181565b600081565b6111133361181a565b151561111e57600080fd5b81151561112a57600080fd5b600160a060020a038116151561113f57600080fd5b600061114a8261062a565b905080151561115c5761115c826118e3565b61117561116f828563ffffffff61194f16565b83611968565b611197611191846111853361132b565b9063ffffffff61194f16565b336119ca565b6040805184815290513391600160a060020a038516917f3c798bbcf33115b42c728b8504cff11dd58736e9fa789f1cda2738db7d696b2a9181900360200190a3505050565b604080517f6e6174697665546f45726342726964676573416c6c6f77656400000000000000815281519081900360190181206000908152600b6020908152908390208054808302840183019094528383526060939091830182828015610e9b57602002820191906000526020600020908154600160a060020a03168152600190910190602001808311610e7d575050505050905090565b604080517f6d696e746564546f74616c6c7942794272696467650000000000000000000000602080830191909152600160a060020a039390931681830152815180820383018152606090910182528051908301206000908152600290925290205490565b6040805160008051602061258c8339815191528152815190819003600e0190206000908152600b60205290812080548390811061131057fe5b600091825260209091200154600160a060020a031692915050565b604080517f627269646765416d6f756e740000000000000000000000000000000000000000602080830191909152600160a060020a039390931681830152815180820383018152606090910182528051908301206000908152600290925290205490565b6040805160008051602061258c8339815191528152815190819003600e0190206000908152600b602052205490565b60608073fffffffffffffffffffffffffffffffffffffffe33146113e157600080fd5b61141d868680806020026020016040519081016040528093929190818152602001838360200280828437600092019190915250611a2c92505050565b611425611ca6565b9150915094509492505050565b6000606061143e6111dc565b905060005b815181101561149057818181518110151561145a57fe5b90602001906020020151600160a060020a031684600160a060020a031614156114885760019250505061068c565b600101611443565b5060009392505050565b6000807310000000000000000000000000000000000000019050600081600160a060020a031663794c0c686040518163ffffffff1660e060020a02815260040160206040518083038186803b1580156114f257600080fd5b505afa158015611506573d6000803e3d6000fd5b505050506040513d602081101561151c57600080fd5b5051905080151561153257600092505050610ea3565b81600160a060020a031663b927ef436040518163ffffffff1660e060020a02815260040160206040518083038186803b15801561156e57600080fd5b505afa158015611582573d6000803e3d6000fd5b505050506040513d602081101561159857600080fd5b505115156115a557600019015b91505090565b604080517f627269646765546f6b656e466565000000000000000000000000000000000000602080830191909152818301859052825180830384018152606090920183528151918101919091206000818152600290925291902054611616908363ffffffff61194f16565b600091825260026020526040909120555050565b604080517f736e617073686f745374616b65416d6f756e740000000000000000000000000060208083019190915281830196909652600160a060020a039485166060820152929093166080808401919091528351808403909101815260a0909201835281519184019190912060009081526002909352912055565b600b60007f736e617073686f745374616b657273000000000000000000000000000000000084846040516020018084815260200183815260200182600160a060020a0316600160a060020a031681526020019350505050604051602081830303815290604052805190602001208152602001908152602001600020600061172c919061249c565b5050565b604080517f736e617073686f7456616c696461746f72730000000000000000000000000000602080830191909152818301859052825180830384018152606090920183528151918101919091206000908152600b82529190912082516107da928401906124ba565b604080517f736e617073686f745374616b6572730000000000000000000000000000000000602080830191909152818301869052600160a060020a03851660608084019190915283518084039091018152608090920183528151918101919091206000908152600b8252919091208251611814928401906124ba565b50505050565b60006060611826610e0c565b905060005b815181101561149057818181518110151561184257fe5b90602001906020020151600160a060020a031684600160a060020a031614156118705760019250505061068c565b60010161182b565b604080517f6272696467654e61746976654665650000000000000000000000000000000000602080830191909152818301859052825180830384018152606090920183528151918101919091206000818152600290925291902054611616908363ffffffff61194f16565b6040805160008051602061258c8339815191528152815190819003600e0190206000908152600b60209081529181208054600181018255908252919020018054600160a060020a0390921673ffffffffffffffffffffffffffffffffffffffff19909216919091179055565b60008282018381101561196157600080fd5b9392505050565b604080517f65787472615265636569766572416d6f756e7400000000000000000000000000602080830191909152600160a060020a03909316818301528151808203830181526060909101825280519083012060009081526002909252902055565b604080517f627269646765416d6f756e740000000000000000000000000000000000000000602080830191909152600160a060020a03909316818301528151808203830181526060909101825280519083012060009081526002909252902055565b6000731000000000000000000000000000000000000001600160a060020a031663856e84886040518163ffffffff1660e060020a02815260040160206040518083038186803b158015611a7e57600080fd5b505afa158015611a92573d6000803e3d6000fd5b505050506040513d6020811015611aa857600080fd5b506106c2915050565b8551811015611c9e57606080611af0868985815181101515611acf57fe5b9060200190602002015185600014611ae75787611aeb565b8688015b611ecb565b9150915086600160a060020a031663e2f764a383836040518363ffffffff1660e060020a028152600401808060200180602001838103835285818151815260200191508051906020019060200280838360005b83811015611b5b578181015183820152602001611b43565b50505050905001838103825284818151815260200191508051906020019060200280838360005b83811015611b9a578181015183820152602001611b82565b50505050905001945050505050600060405180830381600087803b158015611bc157600080fd5b505af1158015611bd5573d6000803e3d6000fd5b505050507f634e2dddb29f90d7f8048d9de4850a71fad57dba99c4d1513a650a474a76473f8282604051808060200180602001838103835285818151815260200191508051906020019060200280838360005b83811015611c40578181015183820152602001611c28565b50505050905001838103825284818151815260200191508051906020019060200280838360005b83811015611c7f578181015183820152602001611c67565b5050505090500194505050505060405180910390a15050600101611ab1565b505050505050565b6060806000611cb361138f565b905080604051908082528060200260200182016040528015611cdf578160200160208202803883390190505b50925080604051908082528060200260200182016040528015611d0c578160200160208202803883390190505b50915060005b81811015611d93576000611d25826112d7565b90506000611d328261062a565b9050611d3f600083611968565b818684815181101515611d4e57fe5b600160a060020a0390921660209283029091019091015284518190869085908110611d7557fe5b60209081029091010152611d898183612192565b5050600101611d12565b6060611d9d610e0c565b9050600091505b8051821015611e015760008183815181101515611dbd57fe5b9060200190602002015190506000611dd48261132b565b90506000811115611df457611dea6000836119ca565b611df48183612333565b5050600190910190611da4565b611e096123a6565b7f10fee3decd0f6ad0c977fcb2c1c5992fa39a944deb348ea435790b02b80515238585604051808060200180602001838103835285818151815260200191508051906020019060200280838360005b83811015611e70578181015183820152602001611e58565b50505050905001838103825284818151815260200191508051906020019060200280838360005b83811015611eaf578181015183820152602001611e97565b5050505090500194505050505060405180910390a15050509091565b60608060006060611edc878761100f565b8051909150611ef290600163ffffffff61194f16565b604051908082528060200260200182016040528015611f1b578160200160208202803883390190505b5093508351604051908082528060200260200182016040528015611f49578160200160208202803883390190505b5092506000611f598888896106c5565b600093509050825b8251841015611f9857611f8c89898587815181101515611f7d57fe5b906020019060200201516106c5565b60019094019301611f61565b600093505b825184101561209b576000611fbb8a8a8688815181101515611f7d57fe5b90508385815181101515611fcb57fe5b906020019060200201518786815181101515611fe357fe5b600160a060020a0390921660209283029091019091015281831115612041576120248383016120188a8463ffffffff6123dd16565b9063ffffffff61240816565b868681518110151561203257fe5b6020908102909101015261208f565b61207661205583600a63ffffffff6123dd16565b612018600761206a8c8663ffffffff6123dd16565b9063ffffffff6123dd16565b868681518110151561208457fe5b602090810290910101525b50600190930192611f9d565b8786858151811015156120aa57fe5b600160a060020a03909216602092830290910190910152808211156120fc576120df828201612018898563ffffffff6123dd16565b85858151811015156120ed57fe5b6020908102909101015261212b565b612112600a61201889600363ffffffff6123dd16565b858581518110151561212057fe5b602090810290910101525b600093505b845184101561216057848481518110151561214757fe5b6020908102909101015190960395600190930192612130565b86856001860381518110151561217257fe5b906020019060200201818151019150818152505050505050935093915050565b604080517f6d696e746564466f724163636f756e74496e426c6f636b000000000000000000602080830191909152600160a060020a0384168284018190524360608085019190915284518085039091018152608084018552805190830120600090815260028084528582208890557f6d696e746564466f724163636f756e740000000000000000000000000000000060a086015260c0808601939093528551808603909301835260e09094018552815191830191909120808252929091529190912054612265908463ffffffff61194f16565b60009182526002602081815260408085209390935582517f6d696e746564496e426c6f636b00000000000000000000000000000000000000818301524381850152835180820385018152606090910184528051908201208085529190529120546122d5908463ffffffff61194f16565b60009182526002602081815260408085209390935582517f6d696e746564546f74616c6c79000000000000000000000000000000000000008152835190819003600d019020808552919052912054611616908463ffffffff61194f16565b604080517f6d696e746564546f74616c6c7942794272696467650000000000000000000000602080830191909152600160a060020a03841682840152825180830384018152606090920183528151918101919091206000818152600290925291902054611616908463ffffffff61194f16565b6040805160008051602061258c8339815191528152815190819003600e0190206000908152600b6020529081206106c2908261251c565b60008215156123ee575060006108ff565b8282028284828115156123fd57fe5b041461196157600080fd5b600080821161241657600080fd5b6000828481151561242357fe5b04949350505050565b82805482825590600052602060002090810192821561248c579160200282015b8281111561248c57815473ffffffffffffffffffffffffffffffffffffffff1916600160a060020a0384351617825560209092019160019091019061244c565b50612498929150612540565b5090565b50805460008255906000526020600020908101906106c29190612571565b82805482825590600052602060002090810192821561248c579160200282015b8281111561248c578251825473ffffffffffffffffffffffffffffffffffffffff1916600160a060020a039091161782556020909201916001909101906124da565b8154818355818111156107da576000838152602090206107da918101908301612571565b610ea391905b8082111561249857805473ffffffffffffffffffffffffffffffffffffffff19168155600101612546565b610ea391905b80821115612498576000815560010161257756fe6578747261526563656976657273000000000000000000000000000000000000a165627a7a72305820d9f32a84fe20fb9613fbf7c0415977b220f494c3498100d284c8283b41a526e10029",
  "source": "pragma solidity 0.5.2;\n\nimport \"./abstracts/BlockRewardBase.sol\";\nimport \"./interfaces/IERC20Minting.sol\";\n\n\ncontract BlockRewardHBBFT is BlockRewardBase {\n\n    // ============================================== Constants =======================================================\n\n    // This value must be changed before deploy\n    uint256 public constant BLOCK_REWARD = 0 ether; // in ERC20 tokens\n\n    // ================================================ Events ========================================================\n\n    event RewardedERC20ByBlock(address[] receivers, uint256[] rewards);\n\n    // =============================================== Setters ========================================================\n\n    function reward(address[] calldata benefactors, uint16[] calldata/*kind*/)\n        external\n        onlySystem\n        returns (address[] memory, uint256[] memory)\n    {\n        // Mint ERC20 tokens to validators and their stakers as block reward.\n        // This is not bridge's fee distribution.\n        // This call makes sense only if `BLOCK_REWARD` and `ERC20_TOKEN_CONTRACT`\n        // constants are not equal to zero.\n        _mintTokensForStakers(benefactors);\n\n        // We don't accrue any block reward in native coins to validator here.\n        // We just mint native coins by bridge if needed.\n        return _mintNativeCoinsByErcToNativeBridge();\n    }\n\n    // =============================================== Private ========================================================\n\n    // Mint ERC20 tokens for each staker of each active validator\n    function _mintTokensForStakers(address[] memory benefactors) internal {\n        IERC20Minting erc20Contract = IERC20Minting(IValidatorSet(VALIDATOR_SET_CONTRACT).erc20TokenContract());\n\n        if (BLOCK_REWARD == 0) return;\n        if (address(erc20Contract) == address(0)) return;\n\n        uint256 stakingEpoch = _getStakingEpoch();\n\n        if (stakingEpoch == 0) {\n            return;\n        }\n\n        uint256 poolReward = BLOCK_REWARD / snapshotValidators(stakingEpoch).length;\n        uint256 remainder = BLOCK_REWARD % snapshotValidators(stakingEpoch).length;\n\n        for (uint256 i = 0; i < benefactors.length; i++) {\n            (\n                address[] memory receivers,\n                uint256[] memory rewards\n            ) = _distributePoolReward(stakingEpoch, benefactors[i], i == 0 ? poolReward + remainder : poolReward);\n\n            erc20Contract.mintReward(receivers, rewards);\n            \n            emit RewardedERC20ByBlock(receivers, rewards);\n        }\n    }\n}\n",
  "sourcePath": "/home/user/pos-contracts/contracts/BlockRewardHBBFT.sol",
  "compiler": {
    "name": "solc",
    "version": "0.5.2+commit.1df8f40c.Emscripten.clang"
  },
  "schemaVersion": "3.0.1",
  "updatedAt": "2019-01-14T23:08:28.684Z",
  "devdoc": {
    "methods": {}
  },
  "userdoc": {
    "methods": {}
  }
}