{
  "contractName": "Certifier",
  "abi": [
    {
      "constant": true,
      "inputs": [],
      "name": "VALIDATOR_SET_CONTRACT",
      "outputs": [
        {
          "name": "",
          "type": "address"
        }
      ],
      "payable": false,
      "stateMutability": "view",
      "type": "function"
    },
    {
      "anonymous": false,
      "inputs": [
        {
          "indexed": true,
          "name": "who",
          "type": "address"
        }
      ],
      "name": "Confirmed",
      "type": "event"
    },
    {
      "anonymous": false,
      "inputs": [
        {
          "indexed": true,
          "name": "who",
          "type": "address"
        }
      ],
      "name": "Revoked",
      "type": "event"
    },
    {
      "constant": false,
      "inputs": [
        {
          "name": "_who",
          "type": "address"
        }
      ],
      "name": "certify",
      "outputs": [],
      "payable": false,
      "stateMutability": "nonpayable",
      "type": "function"
    },
    {
      "constant": false,
      "inputs": [
        {
          "name": "_who",
          "type": "address"
        }
      ],
      "name": "revoke",
      "outputs": [],
      "payable": false,
      "stateMutability": "nonpayable",
      "type": "function"
    },
    {
      "constant": true,
      "inputs": [
        {
          "name": "_who",
          "type": "address"
        }
      ],
      "name": "certified",
      "outputs": [
        {
          "name": "",
          "type": "bool"
        }
      ],
      "payable": false,
      "stateMutability": "view",
      "type": "function"
    }
  ],
  "bytecode": "0x608060405234801561001057600080fd5b50610448806100206000396000f3fe608060405234801561001057600080fd5b5060043610610068577c0100000000000000000000000000000000000000000000000000000000600035046314253887811461006d57806374a8f1031461009557806376137dd9146100bb578063cc1d4c02146100df575b600080fd5b6100936004803603602081101561008357600080fd5b5035600160a060020a0316610119565b005b610093600480360360208110156100ab57600080fd5b5035600160a060020a0316610203565b6100c36102ea565b60408051600160a060020a039092168252519081900360200190f35b610105600480360360208110156100f557600080fd5b5035600160a060020a0316610302565b604080519115158252519081900360200190f35b604080517f6f776e65720000000000000000000000000000000000000000000000000000008152815190819003600501902060009081526004602052205433600160a060020a039091161461016d57600080fd5b604080517f6365727469666965640000000000000000000000000000000000000000000000602080830191909152600160a060020a038416828401819052835180840385018152606090930180855283519383019390932060009081526006909252928120805460ff191660011790557fd415b905d4dd806bfba99a7a0e6351bd0c9db3a9912add21c0e6bef4479f673f91a250565b604080517f6f776e65720000000000000000000000000000000000000000000000000000008152815190819003600501902060009081526004602052205433600160a060020a039091161461025757600080fd5b604080517f6365727469666965640000000000000000000000000000000000000000000000602080830191909152600160a060020a038416828401819052835180840385018152606090930180855283519383019390932060009081526006909252928120805460ff191690557fb6fa8b8bd5eab60f292eca876e3ef90722275b785309d84b1de113ce0b8c4e7491a250565b73100000000000000000000000000000000000000181565b604080517f6365727469666965640000000000000000000000000000000000000000000000602080830191909152600160a060020a0384168284015282518083038401815260609092018352815191810191909120600090815260069091529081205460ff161561037557506001610417565b604080517f87eed76a000000000000000000000000000000000000000000000000000000008152600160a060020a03841660048201529051731000000000000000000000000000000000000001916387eed76a916024808301926020929190829003018186803b1580156103e857600080fd5b505afa1580156103fc573d6000803e3d6000fd5b505050506040513d602081101561041257600080fd5b505190505b91905056fea165627a7a723058202d578fab4e86115f506bd7c3cc9a03eb01d592dfbd9d848ef4b08c4c35dba06d0029",
  "source": "pragma solidity 0.5.2;\n\nimport \"./interfaces/IValidatorSet.sol\";\nimport \"./eternal-storage/EternalStorage.sol\";\n\n\ncontract Certifier is EternalStorage {\n\n    // ============================================== Constants =======================================================\n\n    // This address must be set before deploy\n    IValidatorSet public constant VALIDATOR_SET_CONTRACT = IValidatorSet(0x1000000000000000000000000000000000000001);\n\n    // ================================================ Events ========================================================\n\n    event Confirmed(address indexed who);\n    event Revoked(address indexed who);\n\n    // ============================================== Modifiers =======================================================\n\n    modifier onlyOwner {\n        require(msg.sender == addressStorage[OWNER]);\n        _;\n    }\n\n    // =============================================== Setters ========================================================\n\n    function certify(address _who) external onlyOwner {\n        boolStorage[keccak256(abi.encode(CERTIFIED, _who))] = true;\n        emit Confirmed(_who);\n    }\n\n    function revoke(address _who) external onlyOwner {\n        boolStorage[keccak256(abi.encode(CERTIFIED, _who))] = false;\n        emit Revoked(_who);\n    }\n\n    // =============================================== Getters ========================================================\n\n    function certified(address _who) external view returns(bool) {\n        if (boolStorage[keccak256(abi.encode(CERTIFIED, _who))]) {\n            return true;\n        }\n        return VALIDATOR_SET_CONTRACT.isReportValidatorValid(_who);\n    }\n\n    // =============================================== Private ========================================================\n\n    bytes32 internal constant OWNER = keccak256(\"owner\");\n    bytes32 internal constant CERTIFIED = \"certified\";\n}\n",
  "sourcePath": "/home/user/pos-contracts/contracts/Certifier.sol",
  "compiler": {
    "name": "solc",
    "version": "0.5.2+commit.1df8f40c.Emscripten.clang"
  },
  "schemaVersion": "3.0.1",
  "updatedAt": "2019-01-14T23:08:28.686Z",
  "devdoc": {
    "methods": {}
  },
  "userdoc": {
    "methods": {}
  }
}