{
  "contractName": "EternalStorageProxy",
  "abi": [
    {
      "inputs": [
        {
          "name": "_implementationAddress",
          "type": "address"
        },
        {
          "name": "_owner",
          "type": "address"
        }
      ],
      "payable": false,
      "stateMutability": "nonpayable",
      "type": "constructor"
    },
    {
      "payable": true,
      "stateMutability": "payable",
      "type": "fallback"
    },
    {
      "anonymous": false,
      "inputs": [
        {
          "indexed": false,
          "name": "version",
          "type": "uint256"
        },
        {
          "indexed": true,
          "name": "implementation",
          "type": "address"
        }
      ],
      "name": "Upgraded",
      "type": "event"
    },
    {
      "anonymous": false,
      "inputs": [
        {
          "indexed": true,
          "name": "previousOwner",
          "type": "address"
        },
        {
          "indexed": true,
          "name": "newOwner",
          "type": "address"
        }
      ],
      "name": "OwnershipTransferred",
      "type": "event"
    },
    {
      "constant": true,
      "inputs": [],
      "name": "getOwner",
      "outputs": [
        {
          "name": "",
          "type": "address"
        }
      ],
      "payable": false,
      "stateMutability": "view",
      "type": "function"
    },
    {
      "constant": true,
      "inputs": [],
      "name": "implementation",
      "outputs": [
        {
          "name": "",
          "type": "address"
        }
      ],
      "payable": false,
      "stateMutability": "view",
      "type": "function"
    },
    {
      "constant": false,
      "inputs": [
        {
          "name": "_newOwner",
          "type": "address"
        }
      ],
      "name": "transferOwnership",
      "outputs": [],
      "payable": false,
      "stateMutability": "nonpayable",
      "type": "function"
    },
    {
      "constant": false,
      "inputs": [
        {
          "name": "_newImplementation",
          "type": "address"
        }
      ],
      "name": "upgradeTo",
      "outputs": [
        {
          "name": "",
          "type": "bool"
        }
      ],
      "payable": false,
      "stateMutability": "nonpayable",
      "type": "function"
    },
    {
      "constant": true,
      "inputs": [],
      "name": "version",
      "outputs": [
        {
          "name": "",
          "type": "uint256"
        }
      ],
      "payable": false,
      "stateMutability": "view",
      "type": "function"
    }
  ],
  "bytecode": "0x608060405234801561001057600080fd5b506040516040806105308339810180604052604081101561003057600080fd5b508051602090910151600160a060020a038216156100815761005a826401000000006100c0810204565b151561006557600080fd5b60018054600160a060020a031916600160a060020a0384161790555b600160a060020a038116156100a7576100a2816401000000006100c6810204565b6100b9565b6100b9336401000000006100c6810204565b5050610124565b3b151590565b604080517f6f776e65720000000000000000000000000000000000000000000000000000008152815190819003600501902060009081526004602052208054600160a060020a03909216600160a060020a0319909216919091179055565b6103fd806101336000396000f3fe608060405260043610610066577c010000000000000000000000000000000000000000000000000000000060003504633659cfe681146100a257806354fd4d50146100e95780635c60da1b14610110578063893d20e814610141578063f2fde38b14610156575b600154600160a060020a031680151561007e57600080fd5b3660008037600080366000845af43d6000803e80801561009d573d6000f35b3d6000fd5b3480156100ae57600080fd5b506100d5600480360360208110156100c557600080fd5b5035600160a060020a031661018b565b604080519115158252519081900360200190f35b3480156100f557600080fd5b506100fe61027d565b60408051918252519081900360200190f35b34801561011c57600080fd5b50610125610283565b60408051600160a060020a039092168252519081900360200190f35b34801561014d57600080fd5b50610125610292565b34801561016257600080fd5b506101896004803603602081101561017957600080fd5b5035600160a060020a03166102dc565b005b6000610195610292565b600160a060020a031633146101a957600080fd5b600160a060020a03821615156101c157506000610278565b600154600160a060020a03838116911614156101df57506000610278565b6101e882610360565b15156101f657506000610278565b6000546001810190811161020e576000915050610278565b600081905560018054600160a060020a03851673ffffffffffffffffffffffffffffffffffffffff1990911681179091556040805183815290517f4289d6195cf3c2d2174adf98d0e19d4d2d08887995b99cb7b100e7ffe795820e9181900360200190a260019150505b919050565b60005490565b600154600160a060020a031690565b604080517f6f776e657200000000000000000000000000000000000000000000000000000081528151908190036005019020600090815260046020522054600160a060020a031690565b6102e4610292565b600160a060020a031633146102f857600080fd5b600160a060020a038116151561030d57600080fd5b80600160a060020a031661031f610292565b600160a060020a03167f8be0079c531659141344cd1fd0a4f28419497f9722a3daafe3b4186f6b6457e060405160405180910390a361035d81610366565b50565b3b151590565b604080517f6f776e65720000000000000000000000000000000000000000000000000000008152815190819003600501902060009081526004602052208054600160a060020a0390921673ffffffffffffffffffffffffffffffffffffffff1990921691909117905556fea165627a7a723058200990f409a0a06b1ceb5c3790a81c82577d5cc849ce3f72bcf17422971c52ef2a0029",
  "source": "pragma solidity 0.5.2;\n\nimport \"./EternalStorage.sol\";\nimport \"../interfaces/IEternalStorageProxy.sol\";\n\n\n/**\n * @title EternalStorageProxy\n * @dev This proxy holds the storage of the token contract and delegates every call to the current implementation set.\n * Besides, it allows to upgrade the token's behaviour towards further implementations, and provides\n * authorization control functionalities\n */\ncontract EternalStorageProxy is EternalStorage, IEternalStorageProxy {\n    bytes32 internal constant OWNER = keccak256(\"owner\");\n\n    /**\n    * @dev This event will be emitted every time the implementation gets upgraded\n    * @param version representing the version number of the upgraded implementation\n    * @param implementation representing the address of the upgraded implementation\n    */\n    event Upgraded(uint256 version, address indexed implementation);\n    \n    event OwnershipTransferred(address indexed previousOwner, address indexed newOwner);\n\n    modifier onlyOwner() {\n        require(msg.sender == getOwner());\n        _;\n    }\n\n    constructor(address _implementationAddress, address _owner) public {\n        if (_implementationAddress != address(0)) {\n            require(_isContract(_implementationAddress));\n            _implementation = _implementationAddress;\n        }\n        if (_owner != address(0)) {\n            _setOwner(_owner);\n        } else {\n            _setOwner(msg.sender);\n        }\n    }\n\n    /**\n    * @dev Fallback function allowing to perform a delegatecall to the given implementation.\n    * This function will return whatever the implementation call returns\n    */\n    // solhint-disable no-complex-fallback, no-inline-assembly\n    function() external payable {\n        address _impl = _implementation;\n        require(_impl != address(0));\n\n        assembly {\n            // Copy msg.data. We take full control of memory in this inline assembly\n            // block because it will not return to Solidity code. We overwrite the\n            // Solidity scratch pad at memory position 0\n            calldatacopy(0, 0, calldatasize)\n\n            // Call the implementation.\n            // out and outsize are 0 because we don't know the size yet\n            let result := delegatecall(gas, _impl, 0, calldatasize, 0, 0)\n\n            // Copy the returned data\n            returndatacopy(0, 0, returndatasize)\n\n            switch result\n            // delegatecall returns 0 on error\n            case 0 { revert(0, returndatasize) }\n            default { return(0, returndatasize) }\n        }\n    }\n    // solhint-enable no-complex-fallback, no-inline-assembly\n\n    function getOwner() public view returns(address) {\n        return addressStorage[OWNER];\n    }\n\n    /**\n    * @dev Tells the address of the current implementation\n    * @return address of the current implementation\n    */\n    function implementation() public view returns(address) {\n        return _implementation;\n    }\n\n    /**\n     * @dev Allows the current owner to transfer control of the contract to a _newOwner.\n     * @param _newOwner The address to transfer ownership to.\n     */\n    function transferOwnership(address _newOwner) public onlyOwner {\n        require(_newOwner != address(0));\n        emit OwnershipTransferred(getOwner(), _newOwner);\n        _setOwner(_newOwner);\n    }\n\n    /**\n     * @dev Allows owner to upgrade the current implementation.\n     * @param _newImplementation representing the address of the new implementation to be set.\n     */\n    function upgradeTo(address _newImplementation) public onlyOwner returns(bool) {\n        if (_newImplementation == address(0)) return false;\n        if (_implementation == _newImplementation) return false;\n        if (!_isContract(_newImplementation)) return false;\n\n        uint256 newVersion = _version + 1;\n        if (newVersion <= _version) return false;\n\n        _version = newVersion;\n        _implementation = _newImplementation;\n\n        emit Upgraded(newVersion, _newImplementation);\n        return true;\n    }\n\n    /**\n    * @dev Tells the version number of the current implementation\n    * @return uint representing the number of the current version\n    */\n    function version() public view returns(uint256) {\n        return _version;\n    }\n\n    function _setOwner(address _owner) private {\n        addressStorage[OWNER] = _owner;\n    }\n\n    function _isContract(address _addr) private view returns(bool) {\n        uint256 size;\n        assembly { size := extcodesize(_addr) } // solhint-disable-line no-inline-assembly\n        return size != 0;\n    }\n}\n",
  "sourcePath": "/home/poa/Dropbox/POA/GitHub/pos-contracts/contracts/eternal-storage/EternalStorageProxy.sol",
  "compiler": {
    "name": "solc",
    "version": "0.5.2+commit.1df8f40c.Emscripten.clang"
  },
  "schemaVersion": "3.0.1",
  "updatedAt": "2019-01-16T07:39:32.324Z",
  "devdoc": {
    "details": "This proxy holds the storage of the token contract and delegates every call to the current implementation set. Besides, it allows to upgrade the token's behaviour towards further implementations, and provides authorization control functionalities",
    "methods": {
      "implementation()": {
        "details": "Tells the address of the current implementation",
        "return": "address of the current implementation"
      },
      "transferOwnership(address)": {
        "details": "Allows the current owner to transfer control of the contract to a _newOwner.",
        "params": {
          "_newOwner": "The address to transfer ownership to."
        }
      },
      "upgradeTo(address)": {
        "details": "Allows owner to upgrade the current implementation.",
        "params": {
          "_newImplementation": "representing the address of the new implementation to be set."
        }
      },
      "version()": {
        "details": "Tells the version number of the current implementation",
        "return": "uint representing the number of the current version"
      }
    },
    "title": "EternalStorageProxy"
  },
  "userdoc": {
    "methods": {}
  }
}