{
  "contractName": "KeyGenHistory",
  "abi": [
    {
      "anonymous": false,
      "inputs": [
        {
          "indexed": true,
          "name": "validator",
          "type": "address"
        },
        {
          "indexed": false,
          "name": "part",
          "type": "bytes"
        },
        {
          "indexed": true,
          "name": "stakingEpoch",
          "type": "uint256"
        },
        {
          "indexed": true,
          "name": "changeRequestCount",
          "type": "uint256"
        }
      ],
      "name": "PartWritten",
      "type": "event"
    },
    {
      "anonymous": false,
      "inputs": [
        {
          "indexed": true,
          "name": "validator",
          "type": "address"
        },
        {
          "indexed": false,
          "name": "ack",
          "type": "bytes"
        },
        {
          "indexed": true,
          "name": "stakingEpoch",
          "type": "uint256"
        },
        {
          "indexed": true,
          "name": "changeRequestCount",
          "type": "uint256"
        }
      ],
      "name": "AckWritten",
      "type": "event"
    },
    {
      "constant": false,
      "inputs": [
        {
          "name": "_validatorSet",
          "type": "address"
        }
      ],
      "name": "setValidatorSetContract",
      "outputs": [],
      "payable": false,
      "stateMutability": "nonpayable",
      "type": "function"
    },
    {
      "constant": false,
      "inputs": [
        {
          "name": "_part",
          "type": "bytes"
        }
      ],
      "name": "writePart",
      "outputs": [],
      "payable": false,
      "stateMutability": "nonpayable",
      "type": "function"
    },
    {
      "constant": false,
      "inputs": [
        {
          "name": "_ack",
          "type": "bytes"
        }
      ],
      "name": "writeAck",
      "outputs": [],
      "payable": false,
      "stateMutability": "nonpayable",
      "type": "function"
    },
    {
      "constant": true,
      "inputs": [],
      "name": "validatorSet",
      "outputs": [
        {
          "name": "",
          "type": "address"
        }
      ],
      "payable": false,
      "stateMutability": "view",
      "type": "function"
    },
    {
      "constant": true,
      "inputs": [
        {
          "name": "_changeRequestCount",
          "type": "uint256"
        },
        {
          "name": "_validator",
          "type": "address"
        }
      ],
      "name": "validatorWrotePart",
      "outputs": [
        {
          "name": "",
          "type": "bool"
        }
      ],
      "payable": false,
      "stateMutability": "view",
      "type": "function"
    }
  ],
  "bytecode": "0x608060405234801561001057600080fd5b506108f1806100206000396000f3fe608060405234801561001057600080fd5b506004361061005a5760e060020a60003504630625db39811461005f578063359dbafe146101075780633f8e80dc146101475780635d685ba4146101ed5780639426e22614610213575b600080fd5b6101056004803603602081101561007557600080fd5b81019060208101813564010000000081111561009057600080fd5b8201836020820111156100a257600080fd5b803590602001918460018302840111640100000000831117156100c457600080fd5b91908080601f016020809104026020016040519081016040528093929190818152602001838380828437600092019190915250929550610237945050505050565b005b6101336004803603604081101561011d57600080fd5b5080359060200135600160a060020a0316610476565b604080519115158252519081900360200190f35b6101056004803603602081101561015d57600080fd5b81019060208101813564010000000081111561017857600080fd5b82018360208201111561018a57600080fd5b803590602001918460018302840111640100000000831117156101ac57600080fd5b91908080601f0160208091040260200160405190810160405280939291908181526020018383808284376000920191909152509295506104ec945050505050565b6101056004803603602081101561020357600080fd5b5035600160a060020a031661070e565b61021b6107ff565b60408051600160a060020a039092168252519081900360200190f35b61023f6107ff565b600160a060020a031663facd743b336040518263ffffffff1660e060020a0281526004018082600160a060020a0316600160a060020a0316815260200191505060206040518083038186803b15801561029757600080fd5b505afa1580156102ab573d6000803e3d6000fd5b505050506040513d60208110156102c157600080fd5b505115156102ce57600080fd5b60006102d86107ff565b9050600081600160a060020a031663794c0c686040518163ffffffff1660e060020a02815260040160206040518083038186803b15801561031857600080fd5b505afa15801561032c573d6000803e3d6000fd5b505050506040513d602081101561034257600080fd5b5051604080517fd20777820000000000000000000000000000000000000000000000000000000081529051919250600091600160a060020a0385169163d2077782916004808301926020929190829003018186803b1580156103a357600080fd5b505afa1580156103b7573d6000803e3d6000fd5b505050506040513d60208110156103cd57600080fd5b505160408051602080825287518282015287519394508493869333937f0d1b06290384e9fafa6b46d168dfd792abb701025c0c2e77068fd00881368c64938b93919283929083019185019080838360005b8381101561043657818101518382015260200161041e565b50505050905090810190601f1680156104635780820380516001836020036101000a031916815260200191505b509250505060405180910390a450505050565b604080517f76616c696461746f7257726f7465506172740000000000000000000000000000602080830191909152818301859052600160a060020a038416606080840191909152835180840390910181526080909201835281519181019190912060009081526006909152205460ff1692915050565b6104f46107ff565b600160a060020a031663facd743b336040518263ffffffff1660e060020a0281526004018082600160a060020a0316600160a060020a0316815260200191505060206040518083038186803b15801561054c57600080fd5b505afa158015610560573d6000803e3d6000fd5b505050506040513d602081101561057657600080fd5b5051151561058357600080fd5b600061058d6107ff565b9050600081600160a060020a031663794c0c686040518163ffffffff1660e060020a02815260040160206040518083038186803b1580156105cd57600080fd5b505afa1580156105e1573d6000803e3d6000fd5b505050506040513d60208110156105f757600080fd5b5051604080517fd20777820000000000000000000000000000000000000000000000000000000081529051919250600091600160a060020a0385169163d2077782916004808301926020929190829003018186803b15801561065857600080fd5b505afa15801561066c573d6000803e3d6000fd5b505050506040513d602081101561068257600080fd5b505190506106908133610476565b1561069a57600080fd5b6106a48133610849565b808233600160a060020a03167f273e48fa7559da80314de89c5630a09b8673a98f4e81612decf00cb73345c592876040518080602001828103825283818151815260200191508051906020019080838360008381101561043657818101518382015260200161041e565b604080517f6f776e65720000000000000000000000000000000000000000000000000000008152815190819003600501902060009081526004602052205433600160a060020a039091161461076257600080fd5b600061076c6107ff565b600160a060020a03161461077f57600080fd5b600160a060020a038116151561079457600080fd5b604080517f76616c696461746f7253657400000000000000000000000000000000000000008152815190819003600c01902060009081526004602052208054600160a060020a0390921673ffffffffffffffffffffffffffffffffffffffff19909216919091179055565b604080517f76616c696461746f7253657400000000000000000000000000000000000000008152815190819003600c019020600090815260046020522054600160a060020a031690565b604080517f76616c696461746f7257726f746550617274000000000000000000000000000060208083019190915281830194909452600160a060020a039092166060808401919091528151808403909101815260809092018152815191830191909120600090815260069092529020805460ff1916600117905556fea165627a7a723058204ab57311cb55ab1b1d4624bf7d5b5816a0c54a267f0bac75ee0f3c5bad04165a0029",
  "source": "pragma solidity 0.5.2;\n\nimport \"./interfaces/IValidatorSet.sol\";\nimport \"./eternal-storage/EternalStorage.sol\";\nimport \"./libs/SafeMath.sol\";\n\n\ncontract KeyGenHistory is EternalStorage {\n    using SafeMath for uint256;\n\n    // ================================================ Events ========================================================\n\n    event PartWritten(\n        address indexed validator,\n        bytes part,\n        uint256 indexed stakingEpoch,\n        uint256 indexed changeRequestCount\n    );\n\n    event AckWritten(\n        address indexed validator,\n        bytes ack,\n        uint256 indexed stakingEpoch,\n        uint256 indexed changeRequestCount\n    );\n\n    // ============================================== Modifiers =======================================================\n\n    modifier onlyOwner() {\n        require(msg.sender == addressStorage[OWNER]);\n        _;\n    }\n\n    modifier onlyValidator() {\n        require(validatorSet().isValidator(msg.sender));\n        _;\n    }\n\n    // =============================================== Setters ========================================================\n\n    function setValidatorSetContract(IValidatorSet _validatorSet) public onlyOwner {\n        require(address(validatorSet()) == address(0));\n        require(address(_validatorSet) != address(0));\n        addressStorage[VALIDATOR_SET] = address(_validatorSet);\n    }\n\n    // Note: since this is non-system transaction, the calling validator\n    // should have enough balance to call this function.\n    function writePart(bytes memory _part) public onlyValidator {\n        IValidatorSet validatorSetContract = validatorSet();\n\n        uint256 stakingEpoch = validatorSetContract.stakingEpoch();\n        uint256 changeRequestCount = validatorSetContract.changeRequestCount();\n\n        require(!validatorWrotePart(changeRequestCount, msg.sender));\n\n        _setValidatorWrotePart(changeRequestCount, msg.sender);\n\n        emit PartWritten(msg.sender, _part, stakingEpoch, changeRequestCount);\n    }\n\n    // Note: since this is non-system transaction, the calling validator\n    // should have enough balance to call this function.\n    function writeAck(bytes memory _ack) public onlyValidator {\n        IValidatorSet validatorSetContract = validatorSet();\n\n        uint256 stakingEpoch = validatorSetContract.stakingEpoch();\n        uint256 changeRequestCount = validatorSetContract.changeRequestCount();\n\n        emit AckWritten(msg.sender, _ack, stakingEpoch, changeRequestCount);\n    }\n\n    // =============================================== Getters ========================================================\n\n    function validatorSet() public view returns(IValidatorSet) {\n        return IValidatorSet(addressStorage[VALIDATOR_SET]);\n    }\n\n    function validatorWrotePart(uint256 _changeRequestCount, address _validator) public view returns(bool) {\n        return boolStorage[\n            keccak256(abi.encode(VALIDATOR_WROTE_PART, _changeRequestCount, _validator))\n        ];\n    }\n\n    // =============================================== Private ========================================================\n\n    bytes32 internal constant OWNER = keccak256(\"owner\");\n    bytes32 internal constant VALIDATOR_SET = keccak256(\"validatorSet\");\n    bytes32 internal constant VALIDATOR_WROTE_PART = \"validatorWrotePart\";\n\n    function _setValidatorWrotePart(uint256 _changeRequestCount, address _validator) internal {\n        boolStorage[\n            keccak256(abi.encode(VALIDATOR_WROTE_PART, _changeRequestCount, _validator))\n        ] = true;\n    }\n}\n",
  "sourcePath": "/home/poa/Dropbox/POA/GitHub/pos-contracts/contracts/KeyGenHistory.sol",
  "compiler": {
    "name": "solc",
    "version": "0.5.2+commit.1df8f40c.Emscripten.clang"
  },
  "schemaVersion": "3.0.1",
  "updatedAt": "2019-01-14T07:16:48.115Z",
  "devdoc": {
    "methods": {}
  },
  "userdoc": {
    "methods": {}
  }
}