{
  "contractName": "RandomBase",
  "abi": [
    {
      "constant": true,
      "inputs": [],
      "name": "VALIDATOR_SET_CONTRACT",
      "outputs": [
        {
          "name": "",
          "type": "address"
        }
      ],
      "payable": false,
      "stateMutability": "view",
      "type": "function"
    },
    {
      "constant": true,
      "inputs": [],
      "name": "currentRandom",
      "outputs": [
        {
          "name": "",
          "type": "uint256[]"
        }
      ],
      "payable": false,
      "stateMutability": "view",
      "type": "function"
    }
  ],
  "bytecode": "0x608060405234801561001057600080fd5b506101b3806100206000396000f3fe608060405234801561001057600080fd5b5060043610610052577c0100000000000000000000000000000000000000000000000000000000600035046350b0021c811461005757806376137dd9146100af575b600080fd5b61005f6100e0565b60408051602080825283518183015283519192839290830191858101910280838360005b8381101561009b578181015183820152602001610083565b505050509050019250505060405180910390f35b6100b761016f565b6040805173ffffffffffffffffffffffffffffffffffffffff9092168252519081900360200190f35b604080517f72616e646f6d41727261790000000000000000000000000000000000000000008152815190819003600b01812060009081526009602090815290839020805480830284018301909452838352606093909183018282801561016557602002820191906000526020600020905b815481526020019060010190808311610151575b5050505050905090565b7310000000000000000000000000000000000000018156fea165627a7a72305820684357ce18f14aaba6882da437eb9174c2f9322607d9e4900924065bc384bb0e0029",
  "source": "pragma solidity 0.5.2;\n\nimport \"../interfaces/IRandom.sol\";\nimport \"../interfaces/IValidatorSet.sol\";\nimport \"../eternal-storage/EternalStorage.sol\";\nimport \"../libs/SafeMath.sol\";\n\n\ncontract RandomBase is EternalStorage, IRandom {\n    using SafeMath for uint256;\n\n    // ============================================== Constants =======================================================\n\n    // This address must be set before deploy\n    address public constant VALIDATOR_SET_CONTRACT = address(0x1000000000000000000000000000000000000001);\n\n    // ============================================== Modifiers =======================================================\n\n    modifier onlySystem() {\n        require(msg.sender == 0xffffFFFfFFffffffffffffffFfFFFfffFFFfFFfE);\n        _;\n    }\n\n    // =============================================== Getters ========================================================\n\n    // This function is called by ValidatorSet contract.\n    function currentRandom() public view returns(uint256[] memory) {\n        return uintArrayStorage[RANDOM_ARRAY];\n    }\n\n    // =============================================== Private ========================================================\n\n    bytes32 internal constant RANDOM_ARRAY = keccak256(\"randomArray\");\n\n}",
  "sourcePath": "/home/user/pos-contracts/contracts/abstracts/RandomBase.sol",
  "compiler": {
    "name": "solc",
    "version": "0.5.2+commit.1df8f40c.Emscripten.clang"
  },
  "schemaVersion": "3.0.1",
  "updatedAt": "2019-01-15T15:35:28.340Z",
  "devdoc": {
    "methods": {}
  },
  "userdoc": {
    "methods": {}
  }
}