{
  "contractName": "RandomHBBFT",
  "abi": [
    {
      "constant": true,
      "inputs": [],
      "name": "currentRandom",
      "outputs": [
        {
          "name": "",
          "type": "uint256[]"
        }
      ],
      "payable": false,
      "stateMutability": "view",
      "type": "function"
    },
    {
      "constant": true,
      "inputs": [],
      "name": "VALIDATOR_SET_CONTRACT",
      "outputs": [
        {
          "name": "",
          "type": "address"
        }
      ],
      "payable": false,
      "stateMutability": "view",
      "type": "function"
    },
    {
      "constant": false,
      "inputs": [
        {
          "name": "_random",
          "type": "uint256[]"
        }
      ],
      "name": "storeRandom",
      "outputs": [],
      "payable": false,
      "stateMutability": "nonpayable",
      "type": "function"
    }
  ],
  "bytecode": "0x608060405234801561001057600080fd5b506103ea806100206000396000f3fe608060405234801561001057600080fd5b506004361061005d577c0100000000000000000000000000000000000000000000000000000000600035046350b0021c811461006257806376137dd9146100ba578063dd956ed0146100eb575b600080fd5b61006a610190565b60408051602080825283518183015283519192839290830191858101910280838360005b838110156100a657818101518382015260200161008e565b505050509050019250505060405180910390f35b6100c2610220565b6040805173ffffffffffffffffffffffffffffffffffffffff9092168252519081900360200190f35b61018e6004803603602081101561010157600080fd5b81019060208101813564010000000081111561011c57600080fd5b82018360208201111561012e57600080fd5b8035906020019184602083028401116401000000008311171561015057600080fd5b919080806020026020016040519081016040528093929190818152602001838360200280828437600092019190915250929550610238945050505050565b005b604080517f72616e646f6d41727261790000000000000000000000000000000000000000008152815190819003600b01812060009081526009602090815290839020805480830284018301909452838352606093909183018282801561021557602002820191906000526020600020905b815481526020019060010190808311610201575b505050505090505b90565b73100000000000000000000000000000000000000181565b73fffffffffffffffffffffffffffffffffffffffe331461025857600080fd5b73100000000000000000000000000000000000000173ffffffffffffffffffffffffffffffffffffffff1663714897df6040518163ffffffff167c010000000000000000000000000000000000000000000000000000000002815260040160206040518083038186803b1580156102ce57600080fd5b505afa1580156102e2573d6000803e3d6000fd5b505050506040513d60208110156102f857600080fd5b505181511461030657600080fd5b604080517f72616e646f6d41727261790000000000000000000000000000000000000000008152815190819003600b019020600090815260096020908152919020825161035592840190610359565b5050565b828054828255906000526020600020908101928215610394579160200282015b82811115610394578251825591602001919060010190610379565b506103a09291506103a4565b5090565b61021d91905b808211156103a057600081556001016103aa56fea165627a7a72305820b609f2156e50f1f4df4a368851de2e56f173cec9fed2ee67c0d56380502e708b0029",
  "source": "pragma solidity 0.5.2;\n\nimport \"./abstracts/RandomBase.sol\";\n\n\ncontract RandomHBBFT is RandomBase {\n\n    function storeRandom(uint256[] memory _random) public onlySystem {\n        require(_random.length == IValidatorSet(VALIDATOR_SET_CONTRACT).MAX_VALIDATORS());\n        uintArrayStorage[RANDOM_ARRAY] = _random;\n    }\n\n}",
  "sourcePath": "/home/poa/Dropbox/POA/GitHub/pos-contracts/contracts/RandomHBBFT.sol",
  "compiler": {
    "name": "solc",
    "version": "0.5.2+commit.1df8f40c.Emscripten.clang"
  },
  "schemaVersion": "3.0.1",
  "updatedAt": "2019-01-15T09:01:22.214Z",
  "devdoc": {
    "methods": {}
  },
  "userdoc": {
    "methods": {}
  }
}