{
  "contractName": "RandomAuRa",
  "abi": [
    {
      "constant": true,
      "inputs": [],
      "name": "currentRandom",
      "outputs": [
        {
          "name": "",
          "type": "uint256[]"
        }
      ],
      "payable": false,
      "stateMutability": "view",
      "type": "function"
    },
    {
      "constant": true,
      "inputs": [],
      "name": "VALIDATOR_SET_CONTRACT",
      "outputs": [
        {
          "name": "",
          "type": "address"
        }
      ],
      "payable": false,
      "stateMutability": "view",
      "type": "function"
    },
    {
      "constant": true,
      "inputs": [],
      "name": "getCollectRoundLength",
      "outputs": [
        {
          "name": "",
          "type": "uint256"
        }
      ],
      "payable": false,
      "stateMutability": "view",
      "type": "function"
    },
    {
      "constant": false,
      "inputs": [
        {
          "name": "collectRoundLength",
          "type": "uint256"
        }
      ],
      "name": "initialize",
      "outputs": [],
      "payable": false,
      "stateMutability": "nonpayable",
      "type": "function"
    },
    {
      "constant": false,
      "inputs": [
        {
          "name": "_secretHash",
          "type": "bytes32"
        }
      ],
      "name": "commitHash",
      "outputs": [],
      "payable": false,
      "stateMutability": "nonpayable",
      "type": "function"
    },
    {
      "constant": false,
      "inputs": [
        {
          "name": "_secret",
          "type": "uint256"
        }
      ],
      "name": "revealSecret",
      "outputs": [],
      "payable": false,
      "stateMutability": "nonpayable",
      "type": "function"
    },
    {
      "constant": false,
      "inputs": [
        {
          "name": "_currentValidator",
          "type": "address"
        }
      ],
      "name": "onBlockClose",
      "outputs": [],
      "payable": false,
      "stateMutability": "nonpayable",
      "type": "function"
    },
    {
      "constant": true,
      "inputs": [
        {
          "name": "_collectRound",
          "type": "uint256"
        }
      ],
      "name": "blocksProducers",
      "outputs": [
        {
          "name": "",
          "type": "address[]"
        }
      ],
      "payable": false,
      "stateMutability": "view",
      "type": "function"
    },
    {
      "constant": true,
      "inputs": [
        {
          "name": "_collectRound",
          "type": "uint256"
        }
      ],
      "name": "committedValidators",
      "outputs": [
        {
          "name": "",
          "type": "address[]"
        }
      ],
      "payable": false,
      "stateMutability": "view",
      "type": "function"
    },
    {
      "constant": true,
      "inputs": [
        {
          "name": "_collectRound",
          "type": "uint256"
        },
        {
          "name": "_validator",
          "type": "address"
        }
      ],
      "name": "createdBlockOnCommitsPhase",
      "outputs": [
        {
          "name": "",
          "type": "bool"
        }
      ],
      "payable": false,
      "stateMutability": "view",
      "type": "function"
    },
    {
      "constant": true,
      "inputs": [
        {
          "name": "_collectRound",
          "type": "uint256"
        },
        {
          "name": "_validator",
          "type": "address"
        }
      ],
      "name": "createdBlockOnRevealsPhase",
      "outputs": [
        {
          "name": "",
          "type": "bool"
        }
      ],
      "payable": false,
      "stateMutability": "view",
      "type": "function"
    },
    {
      "constant": true,
      "inputs": [],
      "name": "currentCollectRound",
      "outputs": [
        {
          "name": "",
          "type": "uint256"
        }
      ],
      "payable": false,
      "stateMutability": "view",
      "type": "function"
    },
    {
      "constant": true,
      "inputs": [
        {
          "name": "_collectRound",
          "type": "uint256"
        },
        {
          "name": "_validator",
          "type": "address"
        }
      ],
      "name": "getCommit",
      "outputs": [
        {
          "name": "",
          "type": "bytes32"
        }
      ],
      "payable": false,
      "stateMutability": "view",
      "type": "function"
    },
    {
      "constant": true,
      "inputs": [],
      "name": "getCurrentSecret",
      "outputs": [
        {
          "name": "",
          "type": "uint256"
        }
      ],
      "payable": false,
      "stateMutability": "view",
      "type": "function"
    },
    {
      "constant": true,
      "inputs": [
        {
          "name": "_collectRound",
          "type": "uint256"
        },
        {
          "name": "_validator",
          "type": "address"
        }
      ],
      "name": "isCommitted",
      "outputs": [
        {
          "name": "",
          "type": "bool"
        }
      ],
      "payable": false,
      "stateMutability": "view",
      "type": "function"
    },
    {
      "constant": true,
      "inputs": [],
      "name": "isCommitPhase",
      "outputs": [
        {
          "name": "",
          "type": "bool"
        }
      ],
      "payable": false,
      "stateMutability": "view",
      "type": "function"
    },
    {
      "constant": true,
      "inputs": [],
      "name": "isRevealPhase",
      "outputs": [
        {
          "name": "",
          "type": "bool"
        }
      ],
      "payable": false,
      "stateMutability": "view",
      "type": "function"
    },
    {
      "constant": true,
      "inputs": [
        {
          "name": "_collectRound",
          "type": "uint256"
        }
      ],
      "name": "revealsCount",
      "outputs": [
        {
          "name": "",
          "type": "uint256"
        }
      ],
      "payable": false,
      "stateMutability": "view",
      "type": "function"
    },
    {
      "constant": true,
      "inputs": [
        {
          "name": "_collectRound",
          "type": "uint256"
        },
        {
          "name": "_validator",
          "type": "address"
        }
      ],
      "name": "sentReveal",
      "outputs": [
        {
          "name": "",
          "type": "bool"
        }
      ],
      "payable": false,
      "stateMutability": "view",
      "type": "function"
    }
  ],
  "bytecode": "0x608060405234801561001057600080fd5b50611c8d806100206000396000f3fe608060405234801561001057600080fd5b50600436106101255760003560e060020a9004806398df67c6116100b1578063d29c8c9611610075578063d29c8c961461030c578063e235ca5914610338578063e9a7017814610355578063f2f56ffe1461035d578063fe4b84df1461038957610125565b806398df67c61461028d578063baf11cab146102aa578063bc3619dd146102d6578063c358ced0146102fc578063c9b31d4b1461030457610125565b806363f160e6116100f857806363f160e6146101db57806374ce90671461021b57806376137dd9146102235780637a3e286b1461024757806389cc5c2b1461026157610125565b80631109a0a81461012a5780633c37b6401461019757806350b0021c146101b657806359d20b55146101be575b600080fd5b6101476004803603602081101561014057600080fd5b50356103a6565b60408051602080825283518183015283519192839290830191858101910280838360005b8381101561018357818101518382015260200161016b565b505050509050019250505060405180910390f35b6101b4600480360360208110156101ad57600080fd5b503561045b565b005b61014761054d565b610147600480360360208110156101d457600080fd5b50356105dd565b610207600480360360408110156101f157600080fd5b5080359060200135600160a060020a0316610690565b604080519115158252519081900360200190f35b610207610706565b61022b61077d565b60408051600160a060020a039092168252519081900360200190f35b61024f610788565b60408051918252519081900360200190f35b6102076004803603604081101561027757600080fd5b5080359060200135600160a060020a03166107c6565b6101b4600480360360208110156102a357600080fd5b503561083c565b610207600480360360408110156102c057600080fd5b5080359060200135600160a060020a03166109b4565b6101b4600480360360208110156102ec57600080fd5b5035600160a060020a03166109ca565b6102076110a3565b61024f6110b3565b6102076004803603604081101561032257600080fd5b5080359060200135600160a060020a0316611116565b61024f6004803603602081101561034e57600080fd5b503561118c565b61024f6111e7565b61024f6004803603604081101561037357600080fd5b5080359060200135600160a060020a0316611216565b6101b46004803603602081101561039f57600080fd5b5035611289565b604080517f626c6f636b7350726f647563657273000000000000000000000000000000000060208083019190915281830184905282518083038401815260608381018086528251928401929092206000908152600b84528590208054608094810286018501909652858352909491939092018282801561044f57602002820191906000526020600020905b8154600160a060020a03168152600190910190602001808311610431575b50505050509050919050565b610463610706565b151561046e57600080fd5b80151561047a57600080fd5b604080517ffacd743b000000000000000000000000000000000000000000000000000000008152336004820181905291516001609c60020a019163facd743b916024808301926020929190829003018186803b1580156104d957600080fd5b505afa1580156104ed573d6000803e3d6000fd5b505050506040513d602081101561050357600080fd5b5051151561051057600080fd5b600061051a610788565b905061052681836109b4565b1561053257505061054a565b61053d8183856113c8565b610547818361143a565b50505b50565b604080517f72616e646f6d41727261790000000000000000000000000000000000000000008152815190819003600b0181206000908152600960209081529083902080548083028401830190945283835260609390918301828280156105d257602002820191906000526020600020905b8154815260200190600101908083116105be575b505050505090505b90565b604080517f636f6d6d697474656456616c696461746f72730000000000000000000000000060208083019190915281830184905282518083038401815260608381018086528251928401929092206000908152600b84528590208054608094810286018501909652858352909491939092018282801561044f57602002820191906000526020600020908154600160a060020a031681526001909101906020018083116104315750505050509050919050565b604080517f73656e7452657665616c00000000000000000000000000000000000000000000602080830191909152818301859052600160a060020a038416606080840191909152835180840390910181526080909201835281519181019190912060009081526006909152205460ff1692915050565b604080517f636f6d6d697450686173654c656e6774680000000000000000000000000000008152815190819003601101812060009081526002602081815284832054600080516020611c058339815191528552855194859003601201909420835252918220544381151561077657fe5b0610905090565b6001609c60020a0181565b60408051600080516020611c05833981519152815281519081900360120190206000908152600260205290812054438115156107c057fe5b04905090565b604080517f63726561746564426c6f636b4f6e52657665616c735068617365000000000000602080830191909152818301859052600160a060020a038416606080840191909152835180840390910181526080909201835281519181019190912060009081526006909152205460ff1692915050565b6108446110a3565b151561084f57600080fd5b604080516020808201849052825180830382018152918301909252805191012080151561087b57600080fd5b604080517ffacd743b000000000000000000000000000000000000000000000000000000008152336004820181905291516001609c60020a019163facd743b916024808301926020929190829003018186803b1580156108da57600080fd5b505afa1580156108ee573d6000803e3d6000fd5b505050506040513d602081101561090457600080fd5b5051151561091157600080fd5b600061091b610788565b90506109278183610690565b156109345750505061054a565b61093e8183611216565b831461094c5750505061054a565b61095e846109586114ce565b1861150f565b61096a8183600161154f565b61098d81610988600161097c8561118c565b9063ffffffff6115d016565b6115e9565b610996816105dd565b516109a08261118c565b14156109ae576109ae611644565b50505050565b6000806109c18484611216565b14159392505050565b6001609c60020a01600160a060020a03166356b54bae6040518163ffffffff1660e060020a02815260040160206040518083038186803b158015610a0d57600080fd5b505afa158015610a21573d6000803e3d6000fd5b505050506040513d6020811015610a3757600080fd5b5051600160a060020a03163314610a4d57600080fd5b6000610a57610788565b9050610a61610706565b15610a9157610a708183611116565b1515610a8c57610a828183600161168e565b610a8c818361170f565b610ac7565b610a9b81836107c6565b1515610ac757610aad818360016117a3565b610ab78183611116565b1515610ac757610ac7818361170f565b60408051600080516020611c058339815191528082528251601292819003830181206000908152600260208181528683205494845286519384900390950190922081529252919020546000199091019043811515610b2157fe5b06141561109f57604080517f616c6c6f775075626c69736853656372657400000000000000000000000000008152815190819003601201902060009081526006602052205460ff1615610b7657610b76611824565b606060008060006001609c60020a01600160a060020a031663b927ef436040518163ffffffff1660e060020a02815260040160206040518083038186803b158015610bc057600080fd5b505afa158015610bd4573d6000803e3d6000fd5b505050506040513d6020811015610bea57600080fd5b505191506001609c60020a018215801590610c36575060408051600080516020611c05833981519152815281519081900360120190206000908152600260208190529190205402830143115b80610c3f575082155b15610dee576001609c60020a01600160a060020a031663b7ab4db56040518163ffffffff1660e060020a02815260040160006040518083038186803b158015610c8757600080fd5b505afa158015610c9b573d6000803e3d6000fd5b505050506040513d6000823e601f3d908101601f191682016040526020811015610cc457600080fd5b810190808051640100000000811115610cdc57600080fd5b82016020810184811115610cef57600080fd5b8151856020820283011164010000000082111715610d0c57600080fd5b5090985060009550505050505b8451821015610dee578482815181101515610d3057fe5b906020019060200201519350610d468685611116565b8015610d575750610d5786856107c6565b8015610d6a5750610d688685610690565b155b15610de35780600160a060020a031663317ec08b856040518263ffffffff1660e060020a0281526004018082600160a060020a0316600160a060020a03168152602001915050600060405180830381600087803b158015610dca57600080fd5b505af1158015610dde573d6000803e3d6000fd5b505050505b600190910190610d19565b80600160a060020a0316637069e7466040518163ffffffff1660e060020a02815260040160206040518083038186803b158015610e2a57600080fd5b505afa158015610e3e573d6000803e3d6000fd5b505050506040513d6020811015610e5457600080fd5b5051925043831480610f045750600181600160a060020a0316636579e1316040518163ffffffff1660e060020a02815260040160206040518083038186803b158015610e9f57600080fd5b505afa158015610eb3573d6000803e3d6000fd5b505050506040513d6020811015610ec957600080fd5b505160408051600080516020611c05833981519152815281519081900360120190206000908152600260205220549085019190910343909101115b15611090576001609c60020a01600160a060020a031663b7ab4db56040518163ffffffff1660e060020a02815260040160006040518083038186803b158015610f4c57600080fd5b505afa158015610f60573d6000803e3d6000fd5b505050506040513d6000823e601f3d908101601f191682016040526020811015610f8957600080fd5b810190808051640100000000811115610fa157600080fd5b82016020810184811115610fb457600080fd5b8151856020820283011164010000000082111715610fd157600080fd5b5090985060009550505050505b8451821015611090578482815181101515610ff557fe5b90602001906020020151935061100b8685610690565b15156110855780600160a060020a031663317ec08b856040518263ffffffff1660e060020a0281526004018082600160a060020a0316600160a060020a03168152602001915050600060405180830381600087803b15801561106c57600080fd5b505af1158015611080573d6000803e3d6000fd5b505050505b600190910190610fde565b6110998661197e565b50505050505b5050565b60006110ad610706565b15905090565b604080517f6f776e657200000000000000000000000000000000000000000000000000000081528151908190036005019020600090815260046020529081205433600160a060020a039091161461110957600080fd5b6111116114ce565b905090565b604080517f63726561746564426c6f636b4f6e436f6d6d6974735068617365000000000000602080830191909152818301859052600160a060020a038416606080840191909152835180840390910181526080909201835281519181019190912060009081526006909152205460ff1692915050565b604080517f72657665616c73436f756e74000000000000000000000000000000000000000060208083019190915281830193909352815180820383018152606090910182528051908301206000908152600290925290205490565b60408051600080516020611c058339815191528152815190819003601201902060009081526002602052205490565b604080517f636f6d6d69747300000000000000000000000000000000000000000000000000602080830191909152818301859052600160a060020a038416606080840191909152835180840390910181526080909201835281519181019190912060009081526008909152205492915050565b60028106156112f957604080517f08c379a000000000000000000000000000000000000000000000000000000000815260206004820152601f60248201527f636f6c6c656374526f756e644c656e677468206d757374206265206576656e00604482015290519081900360640190fd5b4315611350576040517f08c379a000000000000000000000000000000000000000000000000000000000815260040180806020018281038252603d815260200180611c25603d913960400191505060405180910390fd5b60408051600080516020611c058339815191528152815190819003601201902060009081526002602081905291902082905581604080517f636f6d6d697450686173654c656e677468000000000000000000000000000000815281519081900360110190206000908152600260205220919004905550565b604080517f636f6d6d6974730000000000000000000000000000000000000000000000000060208083019190915281830195909552600160a060020a03909316606080850191909152815180850390910181526080909301815282519284019290922060009081526008909352912055565b604080517f636f6d6d697474656456616c696461746f72730000000000000000000000000060208083019190915281830194909452815180820383018152606090910182528051908401206000908152600b84529081208054600181018255908252929020909101805473ffffffffffffffffffffffffffffffffffffffff1916600160a060020a03909216919091179055565b604080517f63757272656e74536563726574000000000000000000000000000000000000008152815190819003600d01902060009081526002602052205490565b604080517f63757272656e74536563726574000000000000000000000000000000000000008152815190819003600d019020600090815260026020522055565b604080517f73656e7452657665616c0000000000000000000000000000000000000000000060208083019190915281830195909552600160a060020a03939093166060808501919091528151808503909101815260809093018152825192840192909220600090815260069093529120805460ff1916911515919091179055565b6000828201838110156115e257600080fd5b9392505050565b604080517f72657665616c73436f756e74000000000000000000000000000000000000000060208083019190915281830194909452815180820383018152606090910182528051908401206000908152600290935290912055565b604080517f616c6c6f775075626c6973685365637265740000000000000000000000000000815281519081900360120190206000908152600660205220805460ff19166001179055565b604080517f63726561746564426c6f636b4f6e436f6d6d697473506861736500000000000060208083019190915281830195909552600160a060020a03939093166060808501919091528151808503909101815260809093018152825192840192909220600090815260069093529120805460ff1916911515919091179055565b604080517f626c6f636b7350726f647563657273000000000000000000000000000000000060208083019190915281830194909452815180820383018152606090910182528051908401206000908152600b84529081208054600181018255908252929020909101805473ffffffffffffffffffffffffffffffffffffffff1916600160a060020a03909216919091179055565b604080517f63726561746564426c6f636b4f6e52657665616c73506861736500000000000060208083019190915281830195909552600160a060020a03939093166060808501919091528151808503909101815260809093018152825192840192909220600090815260069093529120805460ff1916911515919091179055565b604080517f72616e646f6d41727261790000000000000000000000000000000000000000008152815190819003600b01902060009081526009602052208061186a6114ce565b815460018101835560009283526020928390200155604080517f714897df00000000000000000000000000000000000000000000000000000000815290516001609c60020a019263714897df9260048082019391829003018186803b1580156118d257600080fd5b505afa1580156118e6573d6000803e3d6000fd5b505050506040513d60208110156118fc57600080fd5b50518154111561197657805460009061191c90600163ffffffff611a8616565b905060005b8181101561196757828160010181548110151561193a57fe5b9060005260206000200154838281548110151561195357fe5b600091825260209091200155600101611921565b50806119738382611ba8565b50505b61054a611a9b565b80151561198a5761054a565b60001981016060600061199c836105dd565b9150600090505b81518110156119fa576119cf8383838151811015156119be57fe5b6020908102909101015160006113c8565b6119f28383838151811015156119e157fe5b90602001906020020151600061154f565b6001016119a3565b611a0383611ae2565b611a0c836103a6565b9150600090505b8151811015611a6a57611a3f838383815181101515611a2e57fe5b90602001906020020151600061168e565b611a62838383815181101515611a5157fe5b9060200190602002015160006117a3565b600101611a13565b611a7383611b45565b611a7e8360006115e9565b6109ae611a9b565b600082821115611a9557600080fd5b50900390565b604080517f616c6c6f775075626c6973685365637265740000000000000000000000000000815281519081900360120190206000908152600660205220805460ff19169055565b604080517f636f6d6d697474656456616c696461746f727300000000000000000000000000602080830191909152818301849052825180830384018152606090920183528151918101919091206000908152600b90915290812061054a91611bcc565b604080517f626c6f636b7350726f6475636572730000000000000000000000000000000000602080830191909152818301849052825180830384018152606090920183528151918101919091206000908152600b90915290812061054a91611bcc565b81548183558181111561054757600083815260209020610547918101908301611be6565b508054600082559060005260206000209081019061054a91905b6105da91905b80821115611c005760008155600101611bec565b509056fe636f6c6c656374526f756e644c656e677468000000000000000000000000000052616e646f6d417552612e696e697469616c697a652063616e206f6e6c792062652063616c6c6564206f6e207468652067656e6573697320626c6f636ba165627a7a72305820dabbc83c7c1a61f7ac5b91708a5dd8af536b49b8911f91d7eae1a04f01d52bdb0029",
  "source": "pragma solidity 0.5.2;\n\nimport \"./abstracts/RandomBase.sol\";\nimport \"./interfaces/IRandomAuRa.sol\";\nimport \"./interfaces/IValidatorSetAuRa.sol\";\n\n\ncontract RandomAuRa is RandomBase, IRandomAuRa {\n\n    // ============================================== Constants =======================================================\n    // returns the answer in *blocks*\n    function getCollectRoundLength() external view returns(uint256) {\n        return uintStorage[COLLECT_ROUND_LENGTH];\n    }\n\n    // ============================================== Modifiers =======================================================\n    modifier onlyBlockReward() {\n        require(msg.sender == VALIDATOR_SET_CONTRACT.blockRewardContract());\n        _;\n    }\n\n    modifier onlyOwner() {\n        require(msg.sender == addressStorage[OWNER]);\n        _;\n    }\n\n    function initialize(uint256 collectRoundLength) external {\n        require(collectRoundLength % 2 == 0, \"collectRoundLength must be even\");\n        require(block.number == 0, \"RandomAuRa.initialize can only be called on the genesis block\");\n        uintStorage[COLLECT_ROUND_LENGTH] = collectRoundLength;\n        uintStorage[COMMIT_PHASE_LENGTH] = collectRoundLength/2;\n    }\n\n    // =============================================== Setters ========================================================\n    function commitHash(bytes32 _secretHash) external {\n        require(isCommitPhase()); // must only be called in `commits phase`\n        require(_secretHash != bytes32(0));\n\n        address validator = msg.sender;\n        require(VALIDATOR_SET_CONTRACT.isValidator(validator));\n\n        uint256 collectRound = currentCollectRound();\n\n        if (isCommitted(collectRound, validator)) return; // cannot commit more than once\n\n        _setCommit(collectRound, validator, _secretHash);\n        _addCommittedValidator(collectRound, validator);\n    }\n\n    function revealSecret(uint256 _secret) external {\n        require(isRevealPhase()); // must only be called in `reveals phase`\n\n        bytes32 secretHash = keccak256(abi.encodePacked(_secret));\n        require(secretHash != bytes32(0));\n\n        address validator = msg.sender;\n        require(VALIDATOR_SET_CONTRACT.isValidator(validator));\n\n        uint256 collectRound = currentCollectRound();\n\n        if (sentReveal(collectRound, validator)) return; // cannot reveal more than once during the same collectRound\n\n        if (secretHash != getCommit(collectRound, validator)) return; // the hash must be commited\n\n        _setCurrentSecret(_getCurrentSecret() ^ _secret);\n        _setSentReveal(collectRound, validator, true);\n        _setRevealsCount(collectRound, revealsCount(collectRound).add(1));\n\n        if (revealsCount(collectRound) == committedValidators(collectRound).length) {\n            _allowPublishSecret();\n        }\n    }\n\n    function onBlockClose(address _currentValidator) external onlyBlockReward {\n        uint256 currentRound = currentCollectRound();\n\n        if (isCommitPhase()) {\n            // Remember that the current validator produced the current block\n            // during the `commits phase` of the current collection round\n            if (!createdBlockOnCommitsPhase(currentRound, _currentValidator)) {\n                _setCreatedBlockOnCommitsPhase(currentRound, _currentValidator, true);\n                _addBlockProducer(currentRound, _currentValidator);\n            }\n        } else {\n            // Remember that the current validator produced the current block\n            // during the `reveals phase` of the current collection round\n            if (!createdBlockOnRevealsPhase(currentRound, _currentValidator)) {\n                _setCreatedBlockOnRevealsPhase(currentRound, _currentValidator, true);\n                if (!createdBlockOnCommitsPhase(currentRound, _currentValidator)) {\n                    _addBlockProducer(currentRound, _currentValidator);\n                }\n            }\n        }\n\n        if (block.number % uintStorage[COLLECT_ROUND_LENGTH] == uintStorage[COLLECT_ROUND_LENGTH] - 1) {\n            // This is the last block of the current collection round\n\n            if (boolStorage[ALLOW_PUBLISH_SECRET]) {\n                _publishSecret(); // publish new secret if `reveals phase` fully completed\n            }\n\n            address[] memory validators;\n            address validator;\n            uint256 blockNumber;\n            uint256 i;\n\n            blockNumber = VALIDATOR_SET_CONTRACT.validatorSetApplyBlock();\n\n            // UNSAFE: this is OK because we *know* this is an IValidatorSetAuRa\n            IValidatorSetAuRa validatorSetContract = IValidatorSetAuRa(address(VALIDATOR_SET_CONTRACT));\n\n            if (blockNumber != 0 && block.number > blockNumber + uintStorage[COLLECT_ROUND_LENGTH]*2 || blockNumber == 0) {\n                // Check each validator whether he created at least one block\n                // during commits phase and at least one block during reveals phase\n                // but didn't reveal his secret during reveals phase\n\n                validators = VALIDATOR_SET_CONTRACT.getValidators();\n                for (i = 0; i < validators.length; i++) {\n                    validator = validators[i];\n                    if (\n                        createdBlockOnCommitsPhase(currentRound, validator) &&\n                        createdBlockOnRevealsPhase(currentRound, validator) &&\n                        !sentReveal(currentRound, validator)\n                    ) {\n                        // The validator produced the blocks but didn't reveal his secret during\n                        // the current collection round, so remove him from validator set as malicious\n                        validatorSetContract.removeMaliciousValidator(validator);\n                    }\n                }\n            }\n\n            blockNumber = validatorSetContract.stakingEpochStartBlock();\n\n            // If this is the last collection round in the current staking epoch\n            if (\n                blockNumber == block.number ||\n                block.number + uintStorage[COLLECT_ROUND_LENGTH] >\n                blockNumber + validatorSetContract.STAKING_EPOCH_DURATION() - 1\n            ) {\n                // Check each validator whether he didn't reveal\n                // his secret during the last full `reveals phase`\n                validators = VALIDATOR_SET_CONTRACT.getValidators();\n                for (i = 0; i < validators.length; i++) {\n                    validator = validators[i];\n                    if (!sentReveal(currentRound, validator)) {\n                        // Remove the validator as malicious\n                        validatorSetContract.removeMaliciousValidator(validator);\n                    }\n                }\n            }\n\n            // Clear info about previous collection round\n            _clear(currentRound);\n        }\n    }\n\n    // =============================================== Getters ========================================================\n\n    function blocksProducers(uint256 _collectRound) public view returns(address[] memory) {\n        return addressArrayStorage[keccak256(abi.encode(BLOCKS_PRODUCERS, _collectRound))];\n    }\n\n    function committedValidators(uint256 _collectRound) public view returns(address[] memory) {\n        return addressArrayStorage[keccak256(abi.encode(COMMITTED_VALIDATORS, _collectRound))];\n    }\n\n    function createdBlockOnCommitsPhase(uint256 _collectRound, address _validator) public view returns(bool) {\n        return boolStorage[keccak256(abi.encode(CREATED_BLOCK_ON_COMMITS_PHASE, _collectRound, _validator))];\n    }\n\n    function createdBlockOnRevealsPhase(uint256 _collectRound, address _validator) public view returns(bool) {\n        return boolStorage[keccak256(abi.encode(CREATED_BLOCK_ON_REVEALS_PHASE, _collectRound, _validator))];\n    }\n\n    // Returns the number of collection round for the current block\n    function currentCollectRound() public view returns(uint256) {\n        return block.number / uintStorage[COLLECT_ROUND_LENGTH];\n    }\n\n    function getCommit(uint256 _collectRound, address _validator) public view returns(bytes32) {\n        return bytes32Storage[keccak256(abi.encode(COMMITS, _collectRound, _validator))];\n    }\n\n    function getCurrentSecret() public onlyOwner view returns(uint256) {\n        return _getCurrentSecret();\n    }\n\n    function isCommitted(uint256 _collectRound, address _validator) public view returns(bool) {\n        return getCommit(_collectRound, _validator) != bytes32(0);\n    }\n\n    function isCommitPhase() public view returns(bool) {\n        return (block.number % uintStorage[COLLECT_ROUND_LENGTH]) < uintStorage[COMMIT_PHASE_LENGTH];\n    }\n\n    function isRevealPhase() public view returns(bool) {\n        return !isCommitPhase();\n    }\n\n    function revealsCount(uint256 _collectRound) public view returns(uint256) {\n        return uintStorage[keccak256(abi.encode(REVEALS_COUNT, _collectRound))];\n    }\n\n    function sentReveal(uint256 _collectRound, address _validator) public view returns(bool) {\n        return boolStorage[keccak256(abi.encode(SENT_REVEAL, _collectRound, _validator))];\n    }\n\n    // =============================================== Private ========================================================\n\n    bytes32 internal constant ALLOW_PUBLISH_SECRET = keccak256(\"allowPublishSecret\");\n    bytes32 internal constant CURRENT_SECRET = keccak256(\"currentSecret\");\n    bytes32 internal constant OWNER = keccak256(\"owner\");\n    bytes32 internal constant COMMIT_PHASE_LENGTH = keccak256(\"commitPhaseLength\"); // blocks\n    bytes32 internal constant COLLECT_ROUND_LENGTH = keccak256(\"collectRoundLength\"); // blocks\n    bytes32 internal constant BLOCKS_PRODUCERS = \"blocksProducers\";\n    bytes32 internal constant COMMITS = \"commits\";\n    bytes32 internal constant COMMITTED_VALIDATORS = \"committedValidators\";\n    bytes32 internal constant CREATED_BLOCK_ON_COMMITS_PHASE = \"createdBlockOnCommitsPhase\";\n    bytes32 internal constant CREATED_BLOCK_ON_REVEALS_PHASE = \"createdBlockOnRevealsPhase\";\n    bytes32 internal constant REVEALS_COUNT = \"revealsCount\";\n    bytes32 internal constant SENT_REVEAL = \"sentReveal\";\n\n    function _addBlockProducer(uint256 _collectRound, address _validator) private {\n        addressArrayStorage[\n            keccak256(abi.encode(BLOCKS_PRODUCERS, _collectRound))\n        ].push(_validator);\n    }\n\n    function _addCommittedValidator(uint256 _collectRound, address _validator) private {\n        addressArrayStorage[keccak256(abi.encode(COMMITTED_VALIDATORS, _collectRound))].push(_validator);\n    }\n\n    function _allowPublishSecret() private {\n        boolStorage[ALLOW_PUBLISH_SECRET] = true;\n    }\n\n    function _clearBlocksProducers(uint256 _collectRound) private {\n        delete addressArrayStorage[keccak256(abi.encode(BLOCKS_PRODUCERS, _collectRound))];\n    }\n\n    function _denyPublishSecret() private {\n        boolStorage[ALLOW_PUBLISH_SECRET] = false;\n    }\n\n    // Removes garbage\n    function _clear(uint256 _currentCollectRound) private {\n        if (_currentCollectRound == 0) {\n            return;\n        }\n\n        uint256 collectRound = _currentCollectRound - 1;\n        address[] memory validators;\n        uint256 i;\n\n        validators = committedValidators(collectRound);\n        for (i = 0; i < validators.length; i++) {\n            _setCommit(collectRound, validators[i], bytes32(0));\n            _setSentReveal(collectRound, validators[i], false);\n        }\n        _clearCommittedValidators(collectRound);\n\n        validators = blocksProducers(collectRound);\n        for (i = 0; i < validators.length; i++) {\n            _setCreatedBlockOnCommitsPhase(collectRound, validators[i], false);\n            _setCreatedBlockOnRevealsPhase(collectRound, validators[i], false);\n        }\n        _clearBlocksProducers(collectRound);\n\n        _setRevealsCount(collectRound, 0);\n        _denyPublishSecret();\n    }\n\n    function _clearCommittedValidators(uint256 _collectRound) private {\n        delete addressArrayStorage[keccak256(abi.encode(COMMITTED_VALIDATORS, _collectRound))];\n    }\n\n    function _publishSecret() private {\n        uint256[] storage randomArray = uintArrayStorage[RANDOM_ARRAY];\n\n        randomArray.push(_getCurrentSecret());\n\n        if (randomArray.length > VALIDATOR_SET_CONTRACT.MAX_VALIDATORS()) {\n            // Shift random array to remove the first item\n            uint256 length = randomArray.length.sub(1);\n            for (uint256 i = 0; i < length; i++) {\n                randomArray[i] = randomArray[i + 1];\n            }\n            randomArray.length = length;\n        }\n\n        _denyPublishSecret();\n    }\n\n    function _setCommit(uint256 _collectRound, address _validator, bytes32 _secretHash) private {\n        bytes32Storage[keccak256(abi.encode(COMMITS, _collectRound, _validator))] = _secretHash;\n    }\n\n    function _setCreatedBlockOnCommitsPhase(uint256 _collectRound, address _validator, bool _flag) private {\n        boolStorage[\n            keccak256(abi.encode(CREATED_BLOCK_ON_COMMITS_PHASE, _collectRound, _validator))\n        ] = _flag;\n    }\n\n    function _setCreatedBlockOnRevealsPhase(uint256 _collectRound, address _validator, bool _flag) private {\n        boolStorage[\n            keccak256(abi.encode(CREATED_BLOCK_ON_REVEALS_PHASE, _collectRound, _validator))\n        ] = _flag;\n    }\n\n    function _setCurrentSecret(uint256 _secret) private {\n        uintStorage[CURRENT_SECRET] = _secret;\n    }\n\n    function _setRevealsCount(uint256 _collectRound, uint256 _count) private {\n        uintStorage[keccak256(abi.encode(REVEALS_COUNT, _collectRound))] = _count;\n    }\n\n    function _setSentReveal(uint256 _collectRound, address _validator, bool _sent) private {\n        boolStorage[keccak256(abi.encode(SENT_REVEAL, _collectRound, _validator))] = _sent;\n    }\n\n    function _getCurrentSecret() private view returns(uint256) {\n        return uintStorage[CURRENT_SECRET];\n    }\n}",
  "sourcePath": "/home/user/pos-contracts/contracts/RandomAuRa.sol",
  "compiler": {
    "name": "solc",
    "version": "0.5.2+commit.1df8f40c.Emscripten.clang"
  },
  "schemaVersion": "3.0.1",
  "updatedAt": "2019-01-14T23:08:28.715Z",
  "devdoc": {
    "methods": {}
  },
  "userdoc": {
    "methods": {}
  }
}