{
  "contractName": "RandomAuRa",
  "abi": [
    {
      "constant": true,
      "inputs": [],
      "name": "currentRandom",
      "outputs": [
        {
          "name": "",
          "type": "uint256[]"
        }
      ],
      "payable": false,
      "stateMutability": "view",
      "type": "function"
    },
    {
      "constant": true,
      "inputs": [],
      "name": "VALIDATOR_SET_CONTRACT",
      "outputs": [
        {
          "name": "",
          "type": "address"
        }
      ],
      "payable": false,
      "stateMutability": "view",
      "type": "function"
    },
    {
      "constant": false,
      "inputs": [
        {
          "name": "_secretHash",
          "type": "bytes32"
        }
      ],
      "name": "commitHash",
      "outputs": [],
      "payable": false,
      "stateMutability": "nonpayable",
      "type": "function"
    },
    {
      "constant": false,
      "inputs": [
        {
          "name": "_secret",
          "type": "uint256"
        }
      ],
      "name": "revealSecret",
      "outputs": [],
      "payable": false,
      "stateMutability": "nonpayable",
      "type": "function"
    },
    {
      "constant": false,
      "inputs": [
        {
          "name": "_collectRoundLength",
          "type": "uint256"
        }
      ],
      "name": "initialize",
      "outputs": [],
      "payable": false,
      "stateMutability": "nonpayable",
      "type": "function"
    },
    {
      "constant": false,
      "inputs": [
        {
          "name": "_currentValidator",
          "type": "address"
        }
      ],
      "name": "onBlockClose",
      "outputs": [],
      "payable": false,
      "stateMutability": "nonpayable",
      "type": "function"
    },
    {
      "constant": true,
      "inputs": [
        {
          "name": "_collectRound",
          "type": "uint256"
        }
      ],
      "name": "blocksProducers",
      "outputs": [
        {
          "name": "",
          "type": "address[]"
        }
      ],
      "payable": false,
      "stateMutability": "view",
      "type": "function"
    },
    {
      "constant": true,
      "inputs": [],
      "name": "collectRoundLength",
      "outputs": [
        {
          "name": "",
          "type": "uint256"
        }
      ],
      "payable": false,
      "stateMutability": "view",
      "type": "function"
    },
    {
      "constant": true,
      "inputs": [],
      "name": "commitPhaseLength",
      "outputs": [
        {
          "name": "",
          "type": "uint256"
        }
      ],
      "payable": false,
      "stateMutability": "view",
      "type": "function"
    },
    {
      "constant": true,
      "inputs": [
        {
          "name": "_collectRound",
          "type": "uint256"
        }
      ],
      "name": "committedValidators",
      "outputs": [
        {
          "name": "",
          "type": "address[]"
        }
      ],
      "payable": false,
      "stateMutability": "view",
      "type": "function"
    },
    {
      "constant": true,
      "inputs": [
        {
          "name": "_collectRound",
          "type": "uint256"
        },
        {
          "name": "_validator",
          "type": "address"
        }
      ],
      "name": "createdBlockOnCommitsPhase",
      "outputs": [
        {
          "name": "",
          "type": "bool"
        }
      ],
      "payable": false,
      "stateMutability": "view",
      "type": "function"
    },
    {
      "constant": true,
      "inputs": [
        {
          "name": "_collectRound",
          "type": "uint256"
        },
        {
          "name": "_validator",
          "type": "address"
        }
      ],
      "name": "createdBlockOnRevealsPhase",
      "outputs": [
        {
          "name": "",
          "type": "bool"
        }
      ],
      "payable": false,
      "stateMutability": "view",
      "type": "function"
    },
    {
      "constant": true,
      "inputs": [],
      "name": "currentCollectRound",
      "outputs": [
        {
          "name": "",
          "type": "uint256"
        }
      ],
      "payable": false,
      "stateMutability": "view",
      "type": "function"
    },
    {
      "constant": true,
      "inputs": [
        {
          "name": "_collectRound",
          "type": "uint256"
        },
        {
          "name": "_validator",
          "type": "address"
        }
      ],
      "name": "getCommit",
      "outputs": [
        {
          "name": "",
          "type": "bytes32"
        }
      ],
      "payable": false,
      "stateMutability": "view",
      "type": "function"
    },
    {
      "constant": true,
      "inputs": [],
      "name": "getCurrentSecret",
      "outputs": [
        {
          "name": "",
          "type": "uint256"
        }
      ],
      "payable": false,
      "stateMutability": "view",
      "type": "function"
    },
    {
      "constant": true,
      "inputs": [
        {
          "name": "_collectRound",
          "type": "uint256"
        },
        {
          "name": "_validator",
          "type": "address"
        }
      ],
      "name": "isCommitted",
      "outputs": [
        {
          "name": "",
          "type": "bool"
        }
      ],
      "payable": false,
      "stateMutability": "view",
      "type": "function"
    },
    {
      "constant": true,
      "inputs": [],
      "name": "isCommitPhase",
      "outputs": [
        {
          "name": "",
          "type": "bool"
        }
      ],
      "payable": false,
      "stateMutability": "view",
      "type": "function"
    },
    {
      "constant": true,
      "inputs": [],
      "name": "isRevealPhase",
      "outputs": [
        {
          "name": "",
          "type": "bool"
        }
      ],
      "payable": false,
      "stateMutability": "view",
      "type": "function"
    },
    {
      "constant": true,
      "inputs": [
        {
          "name": "_collectRound",
          "type": "uint256"
        }
      ],
      "name": "revealsCount",
      "outputs": [
        {
          "name": "",
          "type": "uint256"
        }
      ],
      "payable": false,
      "stateMutability": "view",
      "type": "function"
    },
    {
      "constant": true,
      "inputs": [
        {
          "name": "_collectRound",
          "type": "uint256"
        },
        {
          "name": "_validator",
          "type": "address"
        }
      ],
      "name": "sentReveal",
      "outputs": [
        {
          "name": "",
          "type": "bool"
        }
      ],
      "payable": false,
      "stateMutability": "view",
      "type": "function"
    }
  ],
  "bytecode": "0x608060405234801561001057600080fd5b50611abe806100206000396000f3fe608060405234801561001057600080fd5b50600436106101305760003560e060020a9004806389cc5c2b116100b1578063c9b31d4b11610075578063c9b31d4b1461031f578063d29c8c9614610327578063e235ca5914610353578063f2f56ffe14610370578063fe4b84df1461039c57610130565b806389cc5c2b1461027c57806398df67c6146102a8578063baf11cab146102c5578063bc3619dd146102f1578063c358ced01461031757610130565b806359d20b55116100f857806359d20b55146101eb57806363f160e61461020857806374ce90671461024857806376137dd9146102505780637a3e286b1461027457610130565b80631109a0a8146101355780631c77c58c146101a25780633c37b640146101bc57806343e7aa1d146101db57806350b0021c146101e3575b600080fd5b6101526004803603602081101561014b57600080fd5b50356103b9565b60408051602080825283518183015283519192839290830191858101910280838360005b8381101561018e578181015183820152602001610176565b505050509050019250505060405180910390f35b6101aa61046e565b60408051918252519081900360200190f35b6101d9600480360360208110156101d257600080fd5b50356104b0565b005b6101aa6105a2565b6101526105bd565b6101526004803603602081101561020157600080fd5b503561064c565b6102346004803603604081101561021e57600080fd5b5080359060200135600160a060020a03166106ff565b604080519115158252519081900360200190f35b610234610775565b610258610798565b60408051600160a060020a039092168252519081900360200190f35b6101aa6107a3565b6102346004803603604081101561029257600080fd5b5080359060200135600160a060020a03166107b7565b6101d9600480360360208110156102be57600080fd5b503561082d565b610234600480360360408110156102db57600080fd5b5080359060200135600160a060020a03166109a5565b6101d96004803603602081101561030757600080fd5b5035600160a060020a03166109bb565b61023461101e565b6101aa61102e565b6102346004803603604081101561033d57600080fd5b5080359060200135600160a060020a0316611091565b6101aa6004803603602081101561036957600080fd5b5035611107565b6101aa6004803603604081101561038657600080fd5b5080359060200135600160a060020a0316611162565b6101d9600480360360208110156103b257600080fd5b50356111d5565b604080517f626c6f636b7350726f647563657273000000000000000000000000000000000060208083019190915281830184905282518083038401815260608381018086528251928401929092206000908152600b84528590208054608094810286018501909652858352909491939092018282801561046257602002820191906000526020600020905b8154600160a060020a03168152600190910190602001808311610444575b50505050509050919050565b604080517f636f6c6c656374526f756e644c656e6774680000000000000000000000000000815281519081900360120190206000908152600260205220545b90565b6104b8610775565b15156104c357600080fd5b8015156104cf57600080fd5b604080517ffacd743b000000000000000000000000000000000000000000000000000000008152336004820181905291516001609c60020a019163facd743b916024808301926020929190829003018186803b15801561052e57600080fd5b505afa158015610542573d6000803e3d6000fd5b505050506040513d602081101561055857600080fd5b5051151561056557600080fd5b600061056f6107a3565b905061057b81836109a5565b1561058757505061059f565b610592818385611216565b61059c8183611288565b50505b50565b600060026105ae61046e565b8115156105b757fe5b04905090565b604080517f72616e646f6d41727261790000000000000000000000000000000000000000008152815190819003600b01812060009081526009602090815290839020805480830284018301909452838352606093909183018282801561064257602002820191906000526020600020905b81548152602001906001019080831161062e575b5050505050905090565b604080517f636f6d6d697474656456616c696461746f72730000000000000000000000000060208083019190915281830184905282518083038401815260608381018086528251928401929092206000908152600b84528590208054608094810286018501909652858352909491939092018282801561046257602002820191906000526020600020908154600160a060020a031681526001909101906020018083116104445750505050509050919050565b604080517f73656e7452657665616c00000000000000000000000000000000000000000000602080830191909152818301859052600160a060020a038416606080840191909152835180840390910181526080909201835281519181019190912060009081526006909152205460ff1692915050565b600061077f6105a2565b61078761046e565b4381151561079157fe5b0610905090565b6001609c60020a0181565b60006107ad61046e565b438115156105b757fe5b604080517f63726561746564426c6f636b4f6e52657665616c735068617365000000000000602080830191909152818301859052600160a060020a038416606080840191909152835180840390910181526080909201835281519181019190912060009081526006909152205460ff1692915050565b61083561101e565b151561084057600080fd5b604080516020808201849052825180830382018152918301909252805191012080151561086c57600080fd5b604080517ffacd743b000000000000000000000000000000000000000000000000000000008152336004820181905291516001609c60020a019163facd743b916024808301926020929190829003018186803b1580156108cb57600080fd5b505afa1580156108df573d6000803e3d6000fd5b505050506040513d60208110156108f557600080fd5b5051151561090257600080fd5b600061090c6107a3565b905061091881836106ff565b156109255750505061059f565b61092f8183611162565b831461093d5750505061059f565b61094f8461094961131c565b1861135d565b61095b8183600161139d565b61097e81610979600161096d85611107565b9063ffffffff61141e16565b611437565b6109878161064c565b5161099182611107565b141561099f5761099f611492565b50505050565b6000806109b28484611162565b14159392505050565b6001609c60020a01600160a060020a03166356b54bae6040518163ffffffff1660e060020a02815260040160206040518083038186803b1580156109fe57600080fd5b505afa158015610a12573d6000803e3d6000fd5b505050506040513d6020811015610a2857600080fd5b5051600160a060020a03163314610a3e57600080fd5b6000610a486107a3565b9050610a52610775565b15610a8257610a618183611091565b1515610a7d57610a73818360016114dc565b610a7d818361155d565b610ab8565b610a8c81836107b7565b1515610ab857610a9e818360016115f1565b610aa88183611091565b1515610ab857610ab8818361155d565b6001610ac261046e565b03610acb61046e565b43811515610ad557fe5b06141561101a57604080517f616c6c6f775075626c69736853656372657400000000000000000000000000008152815190819003601201902060009081526006602052205460ff1615610b2a57610b2a611672565b606060008060006001609c60020a01600160a060020a031663b927ef436040518163ffffffff1660e060020a02815260040160206040518083038186803b158015610b7457600080fd5b505afa158015610b88573d6000803e3d6000fd5b505050506040513d6020811015610b9e57600080fd5b505191508115801590610bbc5750610bb461046e565b600202820143115b80610bc5575081155b15610d7d576001609c60020a01600160a060020a031663b7ab4db56040518163ffffffff1660e060020a02815260040160006040518083038186803b158015610c0d57600080fd5b505afa158015610c21573d6000803e3d6000fd5b505050506040513d6000823e601f3d908101601f191682016040526020811015610c4a57600080fd5b810190808051640100000000811115610c6257600080fd5b82016020810184811115610c7557600080fd5b8151856020820283011164010000000082111715610c9257600080fd5b5090975060009450505050505b8351811015610d7d578381815181101515610cb657fe5b906020019060200201519250610ccc8584611091565b8015610cdd5750610cdd85846107b7565b8015610cf05750610cee85846106ff565b155b15610d7557604080517f317ec08b000000000000000000000000000000000000000000000000000000008152600160a060020a038516600482015290516001609c60020a019163317ec08b91602480830192600092919082900301818387803b158015610d5c57600080fd5b505af1158015610d70573d6000803e3d6000fd5b505050505b600101610c9f565b6001609c60020a01600160a060020a0316637069e7466040518163ffffffff1660e060020a02815260040160206040518083038186803b158015610dc057600080fd5b505afa158015610dd4573d6000803e3d6000fd5b505050506040513d6020811015610dea57600080fd5b5051915043821480610e77575060016001609c60020a01600160a060020a031663d609ea936040518163ffffffff1660e060020a02815260040160206040518083038186803b158015610e3c57600080fd5b505afa158015610e50573d6000803e3d6000fd5b505050506040513d6020811015610e6657600080fd5b5051830103610e7361046e565b4301115b1561100c576001609c60020a01600160a060020a031663b7ab4db56040518163ffffffff1660e060020a02815260040160006040518083038186803b158015610ebf57600080fd5b505afa158015610ed3573d6000803e3d6000fd5b505050506040513d6000823e601f3d908101601f191682016040526020811015610efc57600080fd5b810190808051640100000000811115610f1457600080fd5b82016020810184811115610f2757600080fd5b8151856020820283011164010000000082111715610f4457600080fd5b5090975060009450505050505b835181101561100c578381815181101515610f6857fe5b906020019060200201519250610f7e85846106ff565b151561100457604080517f317ec08b000000000000000000000000000000000000000000000000000000008152600160a060020a038516600482015290516001609c60020a019163317ec08b91602480830192600092919082900301818387803b158015610feb57600080fd5b505af1158015610fff573d6000803e3d6000fd5b505050505b600101610f51565b611015856117cc565b505050505b5050565b6000611028610775565b15905090565b604080517f6f776e657200000000000000000000000000000000000000000000000000000081528151908190036005019020600090815260046020529081205433600160a060020a039091161461108457600080fd5b61108c61131c565b905090565b604080517f63726561746564426c6f636b4f6e436f6d6d6974735068617365000000000000602080830191909152818301859052600160a060020a038416606080840191909152835180840390910181526080909201835281519181019190912060009081526006909152205460ff1692915050565b604080517f72657665616c73436f756e74000000000000000000000000000000000000000060208083019190915281830193909352815180820383018152606090910182528051908301206000908152600290925290205490565b604080517f636f6d6d69747300000000000000000000000000000000000000000000000000602080830191909152818301859052600160a060020a038416606080840191909152835180840390910181526080909201835281519181019190912060009081526008909152205492915050565b43156111e057600080fd5b60028106156111ee57600080fd5b600081116111fb57600080fd5b61120361046e565b1561120d57600080fd5b61059f816118d4565b604080517f636f6d6d6974730000000000000000000000000000000000000000000000000060208083019190915281830195909552600160a060020a03909316606080850191909152815180850390910181526080909301815282519284019290922060009081526008909352912055565b604080517f636f6d6d697474656456616c696461746f72730000000000000000000000000060208083019190915281830194909452815180820383018152606090910182528051908401206000908152600b84529081208054600181018255908252929020909101805473ffffffffffffffffffffffffffffffffffffffff1916600160a060020a03909216919091179055565b604080517f63757272656e74536563726574000000000000000000000000000000000000008152815190819003600d01902060009081526002602052205490565b604080517f63757272656e74536563726574000000000000000000000000000000000000008152815190819003600d019020600090815260026020522055565b604080517f73656e7452657665616c0000000000000000000000000000000000000000000060208083019190915281830195909552600160a060020a03939093166060808501919091528151808503909101815260809093018152825192840192909220600090815260069093529120805460ff1916911515919091179055565b60008282018381101561143057600080fd5b9392505050565b604080517f72657665616c73436f756e74000000000000000000000000000000000000000060208083019190915281830194909452815180820383018152606090910182528051908401206000908152600290935290912055565b604080517f616c6c6f775075626c6973685365637265740000000000000000000000000000815281519081900360120190206000908152600660205220805460ff19166001179055565b604080517f63726561746564426c6f636b4f6e436f6d6d697473506861736500000000000060208083019190915281830195909552600160a060020a03939093166060808501919091528151808503909101815260809093018152825192840192909220600090815260069093529120805460ff1916911515919091179055565b604080517f626c6f636b7350726f647563657273000000000000000000000000000000000060208083019190915281830194909452815180820383018152606090910182528051908401206000908152600b84529081208054600181018255908252929020909101805473ffffffffffffffffffffffffffffffffffffffff1916600160a060020a03909216919091179055565b604080517f63726561746564426c6f636b4f6e52657665616c73506861736500000000000060208083019190915281830195909552600160a060020a03939093166060808501919091528151808503909101815260809093018152825192840192909220600090815260069093529120805460ff1916911515919091179055565b604080517f72616e646f6d41727261790000000000000000000000000000000000000000008152815190819003600b0190206000908152600960205220806116b861131c565b815460018101835560009283526020928390200155604080517f714897df00000000000000000000000000000000000000000000000000000000815290516001609c60020a019263714897df9260048082019391829003018186803b15801561172057600080fd5b505afa158015611734573d6000803e3d6000fd5b505050506040513d602081101561174a57600080fd5b5051815411156117c457805460009061176a90600163ffffffff61191416565b905060005b818110156117b557828160010181548110151561178857fe5b906000526020600020015483828154811015156117a157fe5b60009182526020909120015560010161176f565b50806117c18382611a36565b50505b61059f611929565b8015156117d85761059f565b6000198101606060006117ea8361064c565b9150600090505b81518110156118485761181d83838381518110151561180c57fe5b602090810290910101516000611216565b61184083838381518110151561182f57fe5b90602001906020020151600061139d565b6001016117f1565b61185183611970565b61185a836103b9565b9150600090505b81518110156118b85761188d83838381518110151561187c57fe5b9060200190602002015160006114dc565b6118b083838381518110151561189f57fe5b9060200190602002015160006115f1565b600101611861565b6118c1836119d3565b6118cc836000611437565b61099f611929565b604080517f636f6c6c656374526f756e644c656e677468000000000000000000000000000081528151908190036012019020600090815260026020522055565b60008282111561192357600080fd5b50900390565b604080517f616c6c6f775075626c6973685365637265740000000000000000000000000000815281519081900360120190206000908152600660205220805460ff19169055565b604080517f636f6d6d697474656456616c696461746f727300000000000000000000000000602080830191909152818301849052825180830384018152606090920183528151918101919091206000908152600b90915290812061059f91611a5a565b604080517f626c6f636b7350726f6475636572730000000000000000000000000000000000602080830191909152818301849052825180830384018152606090920183528151918101919091206000908152600b90915290812061059f91611a5a565b81548183558181111561059c5760008381526020902061059c918101908301611a74565b508054600082559060005260206000209081019061059f91905b6104ad91905b80821115611a8e5760008155600101611a7a565b509056fea165627a7a72305820424ba9888a0660a56cb2586671239eb9e1e426348e29ac31c38d952739555c9c0029",
  "source": "pragma solidity 0.5.2;\n\nimport \"./abstracts/RandomBase.sol\";\nimport \"./interfaces/IRandomAuRa.sol\";\nimport \"./interfaces/IValidatorSetAuRa.sol\";\n\n\ncontract RandomAuRa is RandomBase, IRandomAuRa {\n\n    // ============================================== Modifiers =======================================================\n\n    modifier onlyBlockReward() {\n        require(msg.sender == IValidatorSet(VALIDATOR_SET_CONTRACT).blockRewardContract());\n        _;\n    }\n\n    modifier onlyOwner() {\n        require(msg.sender == addressStorage[OWNER]);\n        _;\n    }\n\n    // =============================================== Setters ========================================================\n\n    function commitHash(bytes32 _secretHash) external {\n        require(isCommitPhase()); // must only be called in `commits phase`\n        require(_secretHash != bytes32(0));\n\n        address validator = msg.sender;\n        require(IValidatorSet(VALIDATOR_SET_CONTRACT).isValidator(validator));\n\n        uint256 collectRound = currentCollectRound();\n\n        if (isCommitted(collectRound, validator)) return; // cannot commit more than once\n\n        _setCommit(collectRound, validator, _secretHash);\n        _addCommittedValidator(collectRound, validator);\n    }\n\n    function revealSecret(uint256 _secret) external {\n        require(isRevealPhase()); // must only be called in `reveals phase`\n\n        bytes32 secretHash = keccak256(abi.encodePacked(_secret));\n        require(secretHash != bytes32(0));\n\n        address validator = msg.sender;\n        require(IValidatorSet(VALIDATOR_SET_CONTRACT).isValidator(validator));\n\n        uint256 collectRound = currentCollectRound();\n\n        if (sentReveal(collectRound, validator)) return; // cannot reveal more than once during the same collectRound\n\n        if (secretHash != getCommit(collectRound, validator)) return; // the hash must be commited\n\n        _setCurrentSecret(_getCurrentSecret() ^ _secret);\n        _setSentReveal(collectRound, validator, true);\n        _setRevealsCount(collectRound, revealsCount(collectRound).add(1));\n\n        if (revealsCount(collectRound) == committedValidators(collectRound).length) {\n            _allowPublishSecret();\n        }\n    }\n\n    /// Initializes the contract at the start of the network.\n    /// Must be called by the constructor of `Initializer` contract on genesis block.\n    /// This is used instead of `constructor()` because this contract is upgradable.\n    function initialize(\n        uint256 _collectRoundLength // in blocks\n    ) external {\n        require(block.number == 0);\n        require(_collectRoundLength % 2 == 0);\n        require(_collectRoundLength > 0);\n        require(collectRoundLength() == 0);\n        _setCollectRoundLength(_collectRoundLength);\n    }\n\n    function onBlockClose(address _currentValidator) external onlyBlockReward {\n        uint256 currentRound = currentCollectRound();\n\n        if (isCommitPhase()) {\n            // Remember that the current validator produced the current block\n            // during the `commits phase` of the current collection round\n            if (!createdBlockOnCommitsPhase(currentRound, _currentValidator)) {\n                _setCreatedBlockOnCommitsPhase(currentRound, _currentValidator, true);\n                _addBlockProducer(currentRound, _currentValidator);\n            }\n        } else {\n            // Remember that the current validator produced the current block\n            // during the `reveals phase` of the current collection round\n            if (!createdBlockOnRevealsPhase(currentRound, _currentValidator)) {\n                _setCreatedBlockOnRevealsPhase(currentRound, _currentValidator, true);\n                if (!createdBlockOnCommitsPhase(currentRound, _currentValidator)) {\n                    _addBlockProducer(currentRound, _currentValidator);\n                }\n            }\n        }\n\n        if (block.number % collectRoundLength() == collectRoundLength() - 1) {\n            // This is the last block of the current collection round\n\n            if (boolStorage[ALLOW_PUBLISH_SECRET]) {\n                _publishSecret(); // publish new secret if `reveals phase` fully completed\n            }\n\n            address[] memory validators;\n            address validator;\n            uint256 blockNumber;\n            uint256 i;\n\n            blockNumber = IValidatorSet(VALIDATOR_SET_CONTRACT).validatorSetApplyBlock();\n\n            if (blockNumber != 0 && block.number > blockNumber + collectRoundLength() * 2 || blockNumber == 0) {\n                // Check each validator whether he created at least one block\n                // during commits phase and at least one block during reveals phase\n                // but didn't reveal his secret during reveals phase\n\n                validators = IValidatorSet(VALIDATOR_SET_CONTRACT).getValidators();\n                for (i = 0; i < validators.length; i++) {\n                    validator = validators[i];\n                    if (\n                        createdBlockOnCommitsPhase(currentRound, validator) &&\n                        createdBlockOnRevealsPhase(currentRound, validator) &&\n                        !sentReveal(currentRound, validator)\n                    ) {\n                        // The validator produced the blocks but didn't reveal his secret during\n                        // the current collection round, so remove him from validator set as malicious\n                        IValidatorSetAuRa(VALIDATOR_SET_CONTRACT).removeMaliciousValidator(validator);\n                    }\n                }\n            }\n\n            blockNumber = IValidatorSetAuRa(VALIDATOR_SET_CONTRACT).stakingEpochStartBlock();\n\n            // If this is the last collection round in the current staking epoch\n            if (\n                blockNumber == block.number ||\n                block.number + collectRoundLength() >\n                blockNumber + IValidatorSetAuRa(VALIDATOR_SET_CONTRACT).stakingEpochDuration() - 1\n            ) {\n                // Check each validator whether he didn't reveal\n                // his secret during the last full `reveals phase`\n                validators = IValidatorSet(VALIDATOR_SET_CONTRACT).getValidators();\n                for (i = 0; i < validators.length; i++) {\n                    validator = validators[i];\n                    if (!sentReveal(currentRound, validator)) {\n                        // Remove the validator as malicious\n                        IValidatorSetAuRa(VALIDATOR_SET_CONTRACT).removeMaliciousValidator(validator);\n                    }\n                }\n            }\n\n            // Clear info about previous collection round\n            _clear(currentRound);\n        }\n    }\n\n    // =============================================== Getters ========================================================\n\n    function blocksProducers(uint256 _collectRound) public view returns(address[] memory) {\n        return addressArrayStorage[keccak256(abi.encode(BLOCKS_PRODUCERS, _collectRound))];\n    }\n\n    function collectRoundLength() public view returns(uint256) {\n        return uintStorage[COLLECT_ROUND_LENGTH];\n    }\n    function commitPhaseLength() public view returns(uint256) {\n        return collectRoundLength() / 2;\n    }\n\n    function committedValidators(uint256 _collectRound) public view returns(address[] memory) {\n        return addressArrayStorage[keccak256(abi.encode(COMMITTED_VALIDATORS, _collectRound))];\n    }\n\n    function createdBlockOnCommitsPhase(uint256 _collectRound, address _validator) public view returns(bool) {\n        return boolStorage[keccak256(abi.encode(CREATED_BLOCK_ON_COMMITS_PHASE, _collectRound, _validator))];\n    }\n\n    function createdBlockOnRevealsPhase(uint256 _collectRound, address _validator) public view returns(bool) {\n        return boolStorage[keccak256(abi.encode(CREATED_BLOCK_ON_REVEALS_PHASE, _collectRound, _validator))];\n    }\n\n    // Returns the number of collection round for the current block\n    function currentCollectRound() public view returns(uint256) {\n        return block.number / collectRoundLength();\n    }\n\n    function getCommit(uint256 _collectRound, address _validator) public view returns(bytes32) {\n        return bytes32Storage[keccak256(abi.encode(COMMITS, _collectRound, _validator))];\n    }\n\n    function getCurrentSecret() public onlyOwner view returns(uint256) {\n        return _getCurrentSecret();\n    }\n\n    function isCommitted(uint256 _collectRound, address _validator) public view returns(bool) {\n        return getCommit(_collectRound, _validator) != bytes32(0);\n    }\n\n    function isCommitPhase() public view returns(bool) {\n        return (block.number % collectRoundLength()) < commitPhaseLength();\n    }\n\n    function isRevealPhase() public view returns(bool) {\n        return !isCommitPhase();\n    }\n\n    function revealsCount(uint256 _collectRound) public view returns(uint256) {\n        return uintStorage[keccak256(abi.encode(REVEALS_COUNT, _collectRound))];\n    }\n\n    function sentReveal(uint256 _collectRound, address _validator) public view returns(bool) {\n        return boolStorage[keccak256(abi.encode(SENT_REVEAL, _collectRound, _validator))];\n    }\n\n    // =============================================== Private ========================================================\n\n    bytes32 internal constant ALLOW_PUBLISH_SECRET = keccak256(\"allowPublishSecret\");\n    bytes32 internal constant COLLECT_ROUND_LENGTH = keccak256(\"collectRoundLength\");\n    bytes32 internal constant CURRENT_SECRET = keccak256(\"currentSecret\");\n    bytes32 internal constant OWNER = keccak256(\"owner\");\n\n    bytes32 internal constant BLOCKS_PRODUCERS = \"blocksProducers\";\n    bytes32 internal constant COMMITS = \"commits\";\n    bytes32 internal constant COMMITTED_VALIDATORS = \"committedValidators\";\n    bytes32 internal constant CREATED_BLOCK_ON_COMMITS_PHASE = \"createdBlockOnCommitsPhase\";\n    bytes32 internal constant CREATED_BLOCK_ON_REVEALS_PHASE = \"createdBlockOnRevealsPhase\";\n    bytes32 internal constant REVEALS_COUNT = \"revealsCount\";\n    bytes32 internal constant SENT_REVEAL = \"sentReveal\";\n\n    function _addBlockProducer(uint256 _collectRound, address _validator) private {\n        addressArrayStorage[\n            keccak256(abi.encode(BLOCKS_PRODUCERS, _collectRound))\n        ].push(_validator);\n    }\n\n    function _addCommittedValidator(uint256 _collectRound, address _validator) private {\n        addressArrayStorage[keccak256(abi.encode(COMMITTED_VALIDATORS, _collectRound))].push(_validator);\n    }\n\n    function _allowPublishSecret() private {\n        boolStorage[ALLOW_PUBLISH_SECRET] = true;\n    }\n\n    function _clearBlocksProducers(uint256 _collectRound) private {\n        delete addressArrayStorage[keccak256(abi.encode(BLOCKS_PRODUCERS, _collectRound))];\n    }\n\n    function _denyPublishSecret() private {\n        boolStorage[ALLOW_PUBLISH_SECRET] = false;\n    }\n\n    // Removes garbage\n    function _clear(uint256 _currentCollectRound) private {\n        if (_currentCollectRound == 0) {\n            return;\n        }\n\n        uint256 collectRound = _currentCollectRound - 1;\n        address[] memory validators;\n        uint256 i;\n\n        validators = committedValidators(collectRound);\n        for (i = 0; i < validators.length; i++) {\n            _setCommit(collectRound, validators[i], bytes32(0));\n            _setSentReveal(collectRound, validators[i], false);\n        }\n        _clearCommittedValidators(collectRound);\n\n        validators = blocksProducers(collectRound);\n        for (i = 0; i < validators.length; i++) {\n            _setCreatedBlockOnCommitsPhase(collectRound, validators[i], false);\n            _setCreatedBlockOnRevealsPhase(collectRound, validators[i], false);\n        }\n        _clearBlocksProducers(collectRound);\n\n        _setRevealsCount(collectRound, 0);\n        _denyPublishSecret();\n    }\n\n    function _clearCommittedValidators(uint256 _collectRound) private {\n        delete addressArrayStorage[keccak256(abi.encode(COMMITTED_VALIDATORS, _collectRound))];\n    }\n\n    function _publishSecret() private {\n        uint256[] storage randomArray = uintArrayStorage[RANDOM_ARRAY];\n\n        randomArray.push(_getCurrentSecret());\n\n        if (randomArray.length > IValidatorSet(VALIDATOR_SET_CONTRACT).MAX_VALIDATORS()) {\n            // Shift random array to remove the first item\n            uint256 length = randomArray.length.sub(1);\n            for (uint256 i = 0; i < length; i++) {\n                randomArray[i] = randomArray[i + 1];\n            }\n            randomArray.length = length;\n        }\n\n        _denyPublishSecret();\n    }\n\n    function _setCollectRoundLength(uint256 _length) private {\n        uintStorage[COLLECT_ROUND_LENGTH] = _length;\n    }\n\n    function _setCommit(uint256 _collectRound, address _validator, bytes32 _secretHash) private {\n        bytes32Storage[keccak256(abi.encode(COMMITS, _collectRound, _validator))] = _secretHash;\n    }\n\n    function _setCreatedBlockOnCommitsPhase(uint256 _collectRound, address _validator, bool _flag) private {\n        boolStorage[\n            keccak256(abi.encode(CREATED_BLOCK_ON_COMMITS_PHASE, _collectRound, _validator))\n        ] = _flag;\n    }\n\n    function _setCreatedBlockOnRevealsPhase(uint256 _collectRound, address _validator, bool _flag) private {\n        boolStorage[\n            keccak256(abi.encode(CREATED_BLOCK_ON_REVEALS_PHASE, _collectRound, _validator))\n        ] = _flag;\n    }\n\n    function _setCurrentSecret(uint256 _secret) private {\n        uintStorage[CURRENT_SECRET] = _secret;\n    }\n\n    function _setRevealsCount(uint256 _collectRound, uint256 _count) private {\n        uintStorage[keccak256(abi.encode(REVEALS_COUNT, _collectRound))] = _count;\n    }\n\n    function _setSentReveal(uint256 _collectRound, address _validator, bool _sent) private {\n        boolStorage[keccak256(abi.encode(SENT_REVEAL, _collectRound, _validator))] = _sent;\n    }\n\n    function _getCurrentSecret() private view returns(uint256) {\n        return uintStorage[CURRENT_SECRET];\n    }\n}",
  "sourcePath": "/home/poa/Dropbox/POA/GitHub/pos-contracts/contracts/RandomAuRa.sol",
  "compiler": {
    "name": "solc",
    "version": "0.5.2+commit.1df8f40c.Emscripten.clang"
  },
  "schemaVersion": "3.0.1",
  "updatedAt": "2019-01-16T07:39:32.251Z",
  "devdoc": {
    "methods": {}
  },
  "userdoc": {
    "methods": {
      "initialize(uint256)": {
        "notice": "Initializes the contract at the start of the network. Must be called by the constructor of `Initializer` contract on genesis block. This is used instead of `constructor()` because this contract is upgradable."
      }
    }
  }
}