{
  "contractName": "RandomAuRa",
  "abi": [
    {
      "constant": true,
      "inputs": [],
      "name": "COMMIT_PHASE_LENGTH",
      "outputs": [
        {
          "name": "",
          "type": "uint256"
        }
      ],
      "payable": false,
      "stateMutability": "view",
      "type": "function"
    },
    {
      "constant": true,
      "inputs": [],
      "name": "currentRandom",
      "outputs": [
        {
          "name": "",
          "type": "uint256[]"
        }
      ],
      "payable": false,
      "stateMutability": "view",
      "type": "function"
    },
    {
      "constant": true,
      "inputs": [],
      "name": "VALIDATOR_SET_CONTRACT",
      "outputs": [
        {
          "name": "",
          "type": "address"
        }
      ],
      "payable": false,
      "stateMutability": "view",
      "type": "function"
    },
    {
      "constant": true,
      "inputs": [],
      "name": "COLLECT_ROUND_LENGTH",
      "outputs": [
        {
          "name": "",
          "type": "uint256"
        }
      ],
      "payable": false,
      "stateMutability": "view",
      "type": "function"
    },
    {
      "constant": false,
      "inputs": [
        {
          "name": "_secretHash",
          "type": "bytes32"
        }
      ],
      "name": "commitHash",
      "outputs": [],
      "payable": false,
      "stateMutability": "nonpayable",
      "type": "function"
    },
    {
      "constant": false,
      "inputs": [
        {
          "name": "_secret",
          "type": "uint256"
        }
      ],
      "name": "revealSecret",
      "outputs": [],
      "payable": false,
      "stateMutability": "nonpayable",
      "type": "function"
    },
    {
      "constant": false,
      "inputs": [
        {
          "name": "_currentValidator",
          "type": "address"
        }
      ],
      "name": "onBlockClose",
      "outputs": [],
      "payable": false,
      "stateMutability": "nonpayable",
      "type": "function"
    },
    {
      "constant": true,
      "inputs": [
        {
          "name": "_collectRound",
          "type": "uint256"
        }
      ],
      "name": "blocksProducers",
      "outputs": [
        {
          "name": "",
          "type": "address[]"
        }
      ],
      "payable": false,
      "stateMutability": "view",
      "type": "function"
    },
    {
      "constant": true,
      "inputs": [
        {
          "name": "_collectRound",
          "type": "uint256"
        }
      ],
      "name": "committedValidators",
      "outputs": [
        {
          "name": "",
          "type": "address[]"
        }
      ],
      "payable": false,
      "stateMutability": "view",
      "type": "function"
    },
    {
      "constant": true,
      "inputs": [
        {
          "name": "_collectRound",
          "type": "uint256"
        },
        {
          "name": "_validator",
          "type": "address"
        }
      ],
      "name": "createdBlockOnCommitsPhase",
      "outputs": [
        {
          "name": "",
          "type": "bool"
        }
      ],
      "payable": false,
      "stateMutability": "view",
      "type": "function"
    },
    {
      "constant": true,
      "inputs": [
        {
          "name": "_collectRound",
          "type": "uint256"
        },
        {
          "name": "_validator",
          "type": "address"
        }
      ],
      "name": "createdBlockOnRevealsPhase",
      "outputs": [
        {
          "name": "",
          "type": "bool"
        }
      ],
      "payable": false,
      "stateMutability": "view",
      "type": "function"
    },
    {
      "constant": true,
      "inputs": [],
      "name": "currentCollectRound",
      "outputs": [
        {
          "name": "",
          "type": "uint256"
        }
      ],
      "payable": false,
      "stateMutability": "view",
      "type": "function"
    },
    {
      "constant": true,
      "inputs": [
        {
          "name": "_collectRound",
          "type": "uint256"
        },
        {
          "name": "_validator",
          "type": "address"
        }
      ],
      "name": "getCommit",
      "outputs": [
        {
          "name": "",
          "type": "bytes32"
        }
      ],
      "payable": false,
      "stateMutability": "view",
      "type": "function"
    },
    {
      "constant": true,
      "inputs": [],
      "name": "getCurrentSecret",
      "outputs": [
        {
          "name": "",
          "type": "uint256"
        }
      ],
      "payable": false,
      "stateMutability": "view",
      "type": "function"
    },
    {
      "constant": true,
      "inputs": [
        {
          "name": "_collectRound",
          "type": "uint256"
        },
        {
          "name": "_validator",
          "type": "address"
        }
      ],
      "name": "isCommitted",
      "outputs": [
        {
          "name": "",
          "type": "bool"
        }
      ],
      "payable": false,
      "stateMutability": "view",
      "type": "function"
    },
    {
      "constant": true,
      "inputs": [],
      "name": "isCommitPhase",
      "outputs": [
        {
          "name": "",
          "type": "bool"
        }
      ],
      "payable": false,
      "stateMutability": "view",
      "type": "function"
    },
    {
      "constant": true,
      "inputs": [],
      "name": "isRevealPhase",
      "outputs": [
        {
          "name": "",
          "type": "bool"
        }
      ],
      "payable": false,
      "stateMutability": "view",
      "type": "function"
    },
    {
      "constant": true,
      "inputs": [
        {
          "name": "_collectRound",
          "type": "uint256"
        }
      ],
      "name": "revealsCount",
      "outputs": [
        {
          "name": "",
          "type": "uint256"
        }
      ],
      "payable": false,
      "stateMutability": "view",
      "type": "function"
    },
    {
      "constant": true,
      "inputs": [
        {
          "name": "_collectRound",
          "type": "uint256"
        },
        {
          "name": "_validator",
          "type": "address"
        }
      ],
      "name": "sentReveal",
      "outputs": [
        {
          "name": "",
          "type": "bool"
        }
      ],
      "payable": false,
      "stateMutability": "view",
      "type": "function"
    }
  ],
  "bytecode": "0x608060405234801561001057600080fd5b5061192f806100206000396000f3fe608060405234801561001057600080fd5b50600436106101255760003560e060020a9004806389cc5c2b116100b1578063c358ced011610075578063c358ced01461030c578063c9b31d4b14610314578063d29c8c961461031c578063e235ca5914610348578063f2f56ffe1461036557610125565b806389cc5c2b1461026957806398df67c614610295578063a4baaaed146102b2578063baf11cab146102ba578063bc3619dd146102e657610125565b806359d20b55116100f857806359d20b55146101d857806363f160e6146101f557806374ce90671461023557806376137dd91461023d5780637a3e286b1461026157610125565b80631109a0a81461012a5780631a90f2a5146101975780633c37b640146101b157806350b0021c146101d0575b600080fd5b6101476004803603602081101561014057600080fd5b5035610391565b60408051602080825283518183015283519192839290830191858101910280838360005b8381101561018357818101518382015260200161016b565b505050509050019250505060405180910390f35b61019f610446565b60408051918252519081900360200190f35b6101ce600480360360208110156101c757600080fd5b503561044b565b005b610147610537565b610147600480360360208110156101ee57600080fd5b50356105c7565b6102216004803603604081101561020b57600080fd5b5080359060200135600160a060020a031661067a565b604080519115158252519081900360200190f35b6102216106f0565b6102456106fa565b60408051600160a060020a039092168252519081900360200190f35b61019f6106ff565b6102216004803603604081101561027f57600080fd5b5080359060200135600160a060020a0316610706565b6101ce600480360360208110156102ab57600080fd5b503561077c565b61019f6108ee565b610221600480360360408110156102d057600080fd5b5080359060200135600160a060020a03166108f3565b6101ce600480360360208110156102fc57600080fd5b5035600160a060020a0316610909565b610221610f13565b61019f610f23565b6102216004803603604081101561033257600080fd5b5080359060200135600160a060020a0316610f86565b61019f6004803603602081101561035e57600080fd5b5035610ffc565b61019f6004803603604081101561037b57600080fd5b5080359060200135600160a060020a0316611057565b604080517f626c6f636b7350726f647563657273000000000000000000000000000000000060208083019190915281830184905282518083038401815260608381018086528251928401929092206000908152600b84528590208054608094810286018501909652858352909491939092018282801561043a57602002820191906000526020600020905b8154600160a060020a0316815260019091019060200180831161041c575b50505050509050919050565b606481565b6104536106f0565b151561045e57600080fd5b80151561046a57600080fd5b604080517ffacd743b0000000000000000000000000000000000000000000000000000000081523360048201819052915160009163facd743b916024808301926020929190829003018186803b1580156104c357600080fd5b505afa1580156104d7573d6000803e3d6000fd5b505050506040513d60208110156104ed57600080fd5b505115156104fa57600080fd5b60006105046106ff565b905061051081836108f3565b1561051c575050610534565b6105278183856110ca565b610531818361113c565b50505b50565b604080517f72616e646f6d41727261790000000000000000000000000000000000000000008152815190819003600b0181206000908152600960209081529083902080548083028401830190945283835260609390918301828280156105bc57602002820191906000526020600020905b8154815260200190600101908083116105a8575b505050505090505b90565b604080517f636f6d6d697474656456616c696461746f72730000000000000000000000000060208083019190915281830184905282518083038401815260608381018086528251928401929092206000908152600b84528590208054608094810286018501909652858352909491939092018282801561043a57602002820191906000526020600020908154600160a060020a0316815260019091019060200180831161041c5750505050509050919050565b604080517f73656e7452657665616c00000000000000000000000000000000000000000000602080830191909152818301859052600160a060020a038416606080840191909152835180840390910181526080909201835281519181019190912060009081526006909152205460ff1692915050565b606460c843061090565b600081565b60c8430490565b604080517f63726561746564426c6f636b4f6e52657665616c735068617365000000000000602080830191909152818301859052600160a060020a038416606080840191909152835180840390910181526080909201835281519181019190912060009081526006909152205460ff1692915050565b610784610f13565b151561078f57600080fd5b60408051602080820184905282518083038201815291830190925280519101208015156107bb57600080fd5b604080517ffacd743b0000000000000000000000000000000000000000000000000000000081523360048201819052915160009163facd743b916024808301926020929190829003018186803b15801561081457600080fd5b505afa158015610828573d6000803e3d6000fd5b505050506040513d602081101561083e57600080fd5b5051151561084b57600080fd5b60006108556106ff565b9050610861818361067a565b1561086e57505050610534565b6108788183611057565b831461088657505050610534565b610898846108926111d0565b18611211565b6108a481836001611251565b6108c7816108c260016108b685610ffc565b9063ffffffff6112d216565b6112eb565b6108d0816105c7565b516108da82610ffc565b14156108e8576108e8611346565b50505050565b60c881565b6000806109008484611057565b14159392505050565b6000600160a060020a03166356b54bae6040518163ffffffff1660e060020a02815260040160206040518083038186803b15801561094657600080fd5b505afa15801561095a573d6000803e3d6000fd5b505050506040513d602081101561097057600080fd5b5051600160a060020a0316331461098657600080fd5b60006109906106ff565b905061099a6106f0565b156109ca576109a98183610f86565b15156109c5576109bb81836001611390565b6109c58183611411565b610a00565b6109d48183610706565b1515610a00576109e6818360016114a5565b6109f08183610f86565b1515610a0057610a008183611411565b60c760c843061415610f0f57604080517f616c6c6f775075626c69736853656372657400000000000000000000000000008152815190819003601201902060009081526006602052205460ff1615610a5a57610a5a611526565b6060600080600080600160a060020a031663b927ef436040518163ffffffff1660e060020a02815260040160206040518083038186803b158015610a9d57600080fd5b505afa158015610ab1573d6000803e3d6000fd5b505050506040513d6020811015610ac757600080fd5b505191508115801590610add5750610190820143115b80610ae6575081155b15610c91576000600160a060020a031663b7ab4db56040518163ffffffff1660e060020a02815260040160006040518083038186803b158015610b2857600080fd5b505afa158015610b3c573d6000803e3d6000fd5b505050506040513d6000823e601f3d908101601f191682016040526020811015610b6557600080fd5b810190808051640100000000811115610b7d57600080fd5b82016020810184811115610b9057600080fd5b8151856020820283011164010000000082111715610bad57600080fd5b5090975060009450505050505b8351811015610c91578381815181101515610bd157fe5b906020019060200201519250610be78584610f86565b8015610bf85750610bf88584610706565b8015610c0b5750610c09858461067a565b155b15610c8957604080517f317ec08b000000000000000000000000000000000000000000000000000000008152600160a060020a0385166004820152905160009163317ec08b916024808301928592919082900301818380803b158015610c7057600080fd5b505af1158015610c84573d6000803e3d6000fd5b505050505b600101610bba565b6000600160a060020a0316637069e7466040518163ffffffff1660e060020a02815260040160206040518083038186803b158015610cce57600080fd5b505afa158015610ce2573d6000803e3d6000fd5b505050506040513d6020811015610cf857600080fd5b5051915043821480610d79575060016000600160a060020a0316636579e1316040518163ffffffff1660e060020a02815260040160206040518083038186803b158015610d4457600080fd5b505afa158015610d58573d6000803e3d6000fd5b505050506040513d6020811015610d6e57600080fd5b50518301034360c801115b15610f01576000600160a060020a031663b7ab4db56040518163ffffffff1660e060020a02815260040160006040518083038186803b158015610dbb57600080fd5b505afa158015610dcf573d6000803e3d6000fd5b505050506040513d6000823e601f3d908101601f191682016040526020811015610df857600080fd5b810190808051640100000000811115610e1057600080fd5b82016020810184811115610e2357600080fd5b8151856020820283011164010000000082111715610e4057600080fd5b5090975060009450505050505b8351811015610f01578381815181101515610e6457fe5b906020019060200201519250610e7a858461067a565b1515610ef957604080517f317ec08b000000000000000000000000000000000000000000000000000000008152600160a060020a0385166004820152905160009163317ec08b916024808301928592919082900301818380803b158015610ee057600080fd5b505af1158015610ef4573d6000803e3d6000fd5b505050505b600101610e4d565b610f0a8561167d565b505050505b5050565b6000610f1d6106f0565b15905090565b604080517f6f776e657200000000000000000000000000000000000000000000000000000081528151908190036005019020600090815260046020529081205433600160a060020a0390911614610f7957600080fd5b610f816111d0565b905090565b604080517f63726561746564426c6f636b4f6e436f6d6d6974735068617365000000000000602080830191909152818301859052600160a060020a038416606080840191909152835180840390910181526080909201835281519181019190912060009081526006909152205460ff1692915050565b604080517f72657665616c73436f756e74000000000000000000000000000000000000000060208083019190915281830193909352815180820383018152606090910182528051908301206000908152600290925290205490565b604080517f636f6d6d69747300000000000000000000000000000000000000000000000000602080830191909152818301859052600160a060020a038416606080840191909152835180840390910181526080909201835281519181019190912060009081526008909152205492915050565b604080517f636f6d6d6974730000000000000000000000000000000000000000000000000060208083019190915281830195909552600160a060020a03909316606080850191909152815180850390910181526080909301815282519284019290922060009081526008909352912055565b604080517f636f6d6d697474656456616c696461746f72730000000000000000000000000060208083019190915281830194909452815180820383018152606090910182528051908401206000908152600b84529081208054600181018255908252929020909101805473ffffffffffffffffffffffffffffffffffffffff1916600160a060020a03909216919091179055565b604080517f63757272656e74536563726574000000000000000000000000000000000000008152815190819003600d01902060009081526002602052205490565b604080517f63757272656e74536563726574000000000000000000000000000000000000008152815190819003600d019020600090815260026020522055565b604080517f73656e7452657665616c0000000000000000000000000000000000000000000060208083019190915281830195909552600160a060020a03939093166060808501919091528151808503909101815260809093018152825192840192909220600090815260069093529120805460ff1916911515919091179055565b6000828201838110156112e457600080fd5b9392505050565b604080517f72657665616c73436f756e74000000000000000000000000000000000000000060208083019190915281830194909452815180820383018152606090910182528051908401206000908152600290935290912055565b604080517f616c6c6f775075626c6973685365637265740000000000000000000000000000815281519081900360120190206000908152600660205220805460ff19166001179055565b604080517f63726561746564426c6f636b4f6e436f6d6d697473506861736500000000000060208083019190915281830195909552600160a060020a03939093166060808501919091528151808503909101815260809093018152825192840192909220600090815260069093529120805460ff1916911515919091179055565b604080517f626c6f636b7350726f647563657273000000000000000000000000000000000060208083019190915281830194909452815180820383018152606090910182528051908401206000908152600b84529081208054600181018255908252929020909101805473ffffffffffffffffffffffffffffffffffffffff1916600160a060020a03909216919091179055565b604080517f63726561746564426c6f636b4f6e52657665616c73506861736500000000000060208083019190915281830195909552600160a060020a03939093166060808501919091528151808503909101815260809093018152825192840192909220600090815260069093529120805460ff1916911515919091179055565b604080517f72616e646f6d41727261790000000000000000000000000000000000000000008152815190819003600b01902060009081526009602052208061156c6111d0565b81546001810183556000928352602080842090910191909155604080517f714897df000000000000000000000000000000000000000000000000000000008152905163714897df92600480840193919291829003018186803b1580156115d157600080fd5b505afa1580156115e5573d6000803e3d6000fd5b505050506040513d60208110156115fb57600080fd5b50518154111561167557805460009061161b90600163ffffffff61178516565b905060005b8181101561166657828160010181548110151561163957fe5b9060005260206000200154838281548110151561165257fe5b600091825260209091200155600101611620565b508061167283826118a7565b50505b61053461179a565b80151561168957610534565b60001981016060600061169b836105c7565b9150600090505b81518110156116f9576116ce8383838151811015156116bd57fe5b6020908102909101015160006110ca565b6116f18383838151811015156116e057fe5b906020019060200201516000611251565b6001016116a2565b611702836117e1565b61170b83610391565b9150600090505b81518110156117695761173e83838381518110151561172d57fe5b906020019060200201516000611390565b61176183838381518110151561175057fe5b9060200190602002015160006114a5565b600101611712565b61177283611844565b61177d8360006112eb565b6108e861179a565b60008282111561179457600080fd5b50900390565b604080517f616c6c6f775075626c6973685365637265740000000000000000000000000000815281519081900360120190206000908152600660205220805460ff19169055565b604080517f636f6d6d697474656456616c696461746f727300000000000000000000000000602080830191909152818301849052825180830384018152606090920183528151918101919091206000908152600b909152908120610534916118cb565b604080517f626c6f636b7350726f6475636572730000000000000000000000000000000000602080830191909152818301849052825180830384018152606090920183528151918101919091206000908152600b909152908120610534916118cb565b815481835581811115610531576000838152602090206105319181019083016118e5565b508054600082559060005260206000209081019061053491905b6105c491905b808211156118ff57600081556001016118eb565b509056fea165627a7a72305820f17b0fea4681fa2b7b6544b8fa4d568b461ac5ffa7f9c80081ca2e3e261c435d0029",
  "source": "pragma solidity 0.5.2;\n\nimport \"./abstracts/RandomBase.sol\";\nimport \"./interfaces/IRandomAuRa.sol\";\nimport \"./interfaces/IValidatorSetAuRa.sol\";\n\n\ncontract RandomAuRa is RandomBase, IRandomAuRa {\n\n    // ============================================== Constants =======================================================\n\n    uint256 public constant COLLECT_ROUND_LENGTH = 200; // blocks\n    uint256 public constant COMMIT_PHASE_LENGTH = COLLECT_ROUND_LENGTH / 2; // blocks\n\n    // ============================================== Modifiers =======================================================\n\n    modifier onlyBlockReward() {\n        require(msg.sender == IValidatorSet(VALIDATOR_SET_CONTRACT).blockRewardContract());\n        _;\n    }\n\n    modifier onlyOwner() {\n        require(msg.sender == addressStorage[OWNER]);\n        _;\n    }\n\n    // =============================================== Setters ========================================================\n\n    function commitHash(bytes32 _secretHash) external {\n        require(isCommitPhase()); // must only be called in `commits phase`\n        require(_secretHash != bytes32(0));\n\n        address validator = msg.sender;\n        require(IValidatorSet(VALIDATOR_SET_CONTRACT).isValidator(validator));\n\n        uint256 collectRound = currentCollectRound();\n\n        if (isCommitted(collectRound, validator)) return; // cannot commit more than once\n\n        _setCommit(collectRound, validator, _secretHash);\n        _addCommittedValidator(collectRound, validator);\n    }\n\n    function revealSecret(uint256 _secret) external {\n        require(isRevealPhase()); // must only be called in `reveals phase`\n\n        bytes32 secretHash = keccak256(abi.encodePacked(_secret));\n        require(secretHash != bytes32(0));\n\n        address validator = msg.sender;\n        require(IValidatorSet(VALIDATOR_SET_CONTRACT).isValidator(validator));\n\n        uint256 collectRound = currentCollectRound();\n\n        if (sentReveal(collectRound, validator)) return; // cannot reveal more than once during the same collectRound\n\n        if (secretHash != getCommit(collectRound, validator)) return; // the hash must be commited\n\n        _setCurrentSecret(_getCurrentSecret() ^ _secret);\n        _setSentReveal(collectRound, validator, true);\n        _setRevealsCount(collectRound, revealsCount(collectRound).add(1));\n\n        if (revealsCount(collectRound) == committedValidators(collectRound).length) {\n            _allowPublishSecret();\n        }\n    }\n\n    function onBlockClose(address _currentValidator) external onlyBlockReward {\n        uint256 currentRound = currentCollectRound();\n\n        if (isCommitPhase()) {\n            // Remember that the current validator produced the current block\n            // during the `commits phase` of the current collection round\n            if (!createdBlockOnCommitsPhase(currentRound, _currentValidator)) {\n                _setCreatedBlockOnCommitsPhase(currentRound, _currentValidator, true);\n                _addBlockProducer(currentRound, _currentValidator);\n            }\n        } else {\n            // Remember that the current validator produced the current block\n            // during the `reveals phase` of the current collection round\n            if (!createdBlockOnRevealsPhase(currentRound, _currentValidator)) {\n                _setCreatedBlockOnRevealsPhase(currentRound, _currentValidator, true);\n                if (!createdBlockOnCommitsPhase(currentRound, _currentValidator)) {\n                    _addBlockProducer(currentRound, _currentValidator);\n                }\n            }\n        }\n\n        if (block.number % COLLECT_ROUND_LENGTH == COLLECT_ROUND_LENGTH - 1) {\n            // This is the last block of the current collection round\n\n            if (boolStorage[ALLOW_PUBLISH_SECRET]) {\n                _publishSecret(); // publish new secret if `reveals phase` fully completed\n            }\n\n            address[] memory validators;\n            address validator;\n            uint256 blockNumber;\n            uint256 i;\n\n            blockNumber = IValidatorSet(VALIDATOR_SET_CONTRACT).validatorSetApplyBlock();\n\n            if (blockNumber != 0 && block.number > blockNumber + COLLECT_ROUND_LENGTH * 2 || blockNumber == 0) {\n                // Check each validator whether he created at least one block\n                // during commits phase and at least one block during reveals phase\n                // but didn't reveal his secret during reveals phase\n\n                validators = IValidatorSet(VALIDATOR_SET_CONTRACT).getValidators();\n                for (i = 0; i < validators.length; i++) {\n                    validator = validators[i];\n                    if (\n                        createdBlockOnCommitsPhase(currentRound, validator) &&\n                        createdBlockOnRevealsPhase(currentRound, validator) &&\n                        !sentReveal(currentRound, validator)\n                    ) {\n                        // The validator produced the blocks but didn't reveal his secret during\n                        // the current collection round, so remove him from validator set as malicious\n                        IValidatorSetAuRa(VALIDATOR_SET_CONTRACT).removeMaliciousValidator(validator);\n                    }\n                }\n            }\n\n            blockNumber = IValidatorSetAuRa(VALIDATOR_SET_CONTRACT).stakingEpochStartBlock();\n\n            // If this is the last collection round in the current staking epoch\n            if (\n                blockNumber == block.number ||\n                block.number + COLLECT_ROUND_LENGTH >\n                blockNumber + IValidatorSetAuRa(VALIDATOR_SET_CONTRACT).STAKING_EPOCH_DURATION() - 1\n            ) {\n                // Check each validator whether he didn't reveal\n                // his secret during the last full `reveals phase`\n                validators = IValidatorSet(VALIDATOR_SET_CONTRACT).getValidators();\n                for (i = 0; i < validators.length; i++) {\n                    validator = validators[i];\n                    if (!sentReveal(currentRound, validator)) {\n                        // Remove the validator as malicious\n                        IValidatorSetAuRa(VALIDATOR_SET_CONTRACT).removeMaliciousValidator(validator);\n                    }\n                }\n            }\n\n            // Clear info about previous collection round\n            _clear(currentRound);\n        }\n    }\n\n    // =============================================== Getters ========================================================\n\n    function blocksProducers(uint256 _collectRound) public view returns(address[] memory) {\n        return addressArrayStorage[keccak256(abi.encode(BLOCKS_PRODUCERS, _collectRound))];\n    }\n\n    function committedValidators(uint256 _collectRound) public view returns(address[] memory) {\n        return addressArrayStorage[keccak256(abi.encode(COMMITTED_VALIDATORS, _collectRound))];\n    }\n\n    function createdBlockOnCommitsPhase(uint256 _collectRound, address _validator) public view returns(bool) {\n        return boolStorage[keccak256(abi.encode(CREATED_BLOCK_ON_COMMITS_PHASE, _collectRound, _validator))];\n    }\n\n    function createdBlockOnRevealsPhase(uint256 _collectRound, address _validator) public view returns(bool) {\n        return boolStorage[keccak256(abi.encode(CREATED_BLOCK_ON_REVEALS_PHASE, _collectRound, _validator))];\n    }\n\n    // Returns the number of collection round for the current block\n    function currentCollectRound() public view returns(uint256) {\n        return block.number / COLLECT_ROUND_LENGTH;\n    }\n\n    function getCommit(uint256 _collectRound, address _validator) public view returns(bytes32) {\n        return bytes32Storage[keccak256(abi.encode(COMMITS, _collectRound, _validator))];\n    }\n\n    function getCurrentSecret() public onlyOwner view returns(uint256) {\n        return _getCurrentSecret();\n    }\n\n    function isCommitted(uint256 _collectRound, address _validator) public view returns(bool) {\n        return getCommit(_collectRound, _validator) != bytes32(0);\n    }\n\n    function isCommitPhase() public view returns(bool) {\n        return (block.number % COLLECT_ROUND_LENGTH) < COMMIT_PHASE_LENGTH;\n    }\n\n    function isRevealPhase() public view returns(bool) {\n        return !isCommitPhase();\n    }\n\n    function revealsCount(uint256 _collectRound) public view returns(uint256) {\n        return uintStorage[keccak256(abi.encode(REVEALS_COUNT, _collectRound))];\n    }\n\n    function sentReveal(uint256 _collectRound, address _validator) public view returns(bool) {\n        return boolStorage[keccak256(abi.encode(SENT_REVEAL, _collectRound, _validator))];\n    }\n\n    // =============================================== Private ========================================================\n\n    bytes32 internal constant ALLOW_PUBLISH_SECRET = keccak256(\"allowPublishSecret\");\n    bytes32 internal constant CURRENT_SECRET = keccak256(\"currentSecret\");\n    bytes32 internal constant OWNER = keccak256(\"owner\");\n\n    bytes32 internal constant BLOCKS_PRODUCERS = \"blocksProducers\";\n    bytes32 internal constant COMMITS = \"commits\";\n    bytes32 internal constant COMMITTED_VALIDATORS = \"committedValidators\";\n    bytes32 internal constant CREATED_BLOCK_ON_COMMITS_PHASE = \"createdBlockOnCommitsPhase\";\n    bytes32 internal constant CREATED_BLOCK_ON_REVEALS_PHASE = \"createdBlockOnRevealsPhase\";\n    bytes32 internal constant REVEALS_COUNT = \"revealsCount\";\n    bytes32 internal constant SENT_REVEAL = \"sentReveal\";\n\n    function _addBlockProducer(uint256 _collectRound, address _validator) private {\n        addressArrayStorage[\n            keccak256(abi.encode(BLOCKS_PRODUCERS, _collectRound))\n        ].push(_validator);\n    }\n\n    function _addCommittedValidator(uint256 _collectRound, address _validator) private {\n        addressArrayStorage[keccak256(abi.encode(COMMITTED_VALIDATORS, _collectRound))].push(_validator);\n    }\n\n    function _allowPublishSecret() private {\n        boolStorage[ALLOW_PUBLISH_SECRET] = true;\n    }\n\n    function _clearBlocksProducers(uint256 _collectRound) private {\n        delete addressArrayStorage[keccak256(abi.encode(BLOCKS_PRODUCERS, _collectRound))];\n    }\n\n    function _denyPublishSecret() private {\n        boolStorage[ALLOW_PUBLISH_SECRET] = false;\n    }\n\n    // Removes garbage\n    function _clear(uint256 _currentCollectRound) private {\n        if (_currentCollectRound == 0) {\n            return;\n        }\n\n        uint256 collectRound = _currentCollectRound - 1;\n        address[] memory validators;\n        uint256 i;\n\n        validators = committedValidators(collectRound);\n        for (i = 0; i < validators.length; i++) {\n            _setCommit(collectRound, validators[i], bytes32(0));\n            _setSentReveal(collectRound, validators[i], false);\n        }\n        _clearCommittedValidators(collectRound);\n\n        validators = blocksProducers(collectRound);\n        for (i = 0; i < validators.length; i++) {\n            _setCreatedBlockOnCommitsPhase(collectRound, validators[i], false);\n            _setCreatedBlockOnRevealsPhase(collectRound, validators[i], false);\n        }\n        _clearBlocksProducers(collectRound);\n\n        _setRevealsCount(collectRound, 0);\n        _denyPublishSecret();\n    }\n\n    function _clearCommittedValidators(uint256 _collectRound) private {\n        delete addressArrayStorage[keccak256(abi.encode(COMMITTED_VALIDATORS, _collectRound))];\n    }\n\n    function _publishSecret() private {\n        uint256[] storage randomArray = uintArrayStorage[RANDOM_ARRAY];\n\n        randomArray.push(_getCurrentSecret());\n\n        if (randomArray.length > IValidatorSet(VALIDATOR_SET_CONTRACT).MAX_VALIDATORS()) {\n            // Shift random array to remove the first item\n            uint256 length = randomArray.length.sub(1);\n            for (uint256 i = 0; i < length; i++) {\n                randomArray[i] = randomArray[i + 1];\n            }\n            randomArray.length = length;\n        }\n\n        _denyPublishSecret();\n    }\n\n    function _setCommit(uint256 _collectRound, address _validator, bytes32 _secretHash) private {\n        bytes32Storage[keccak256(abi.encode(COMMITS, _collectRound, _validator))] = _secretHash;\n    }\n\n    function _setCreatedBlockOnCommitsPhase(uint256 _collectRound, address _validator, bool _flag) private {\n        boolStorage[\n            keccak256(abi.encode(CREATED_BLOCK_ON_COMMITS_PHASE, _collectRound, _validator))\n        ] = _flag;\n    }\n\n    function _setCreatedBlockOnRevealsPhase(uint256 _collectRound, address _validator, bool _flag) private {\n        boolStorage[\n            keccak256(abi.encode(CREATED_BLOCK_ON_REVEALS_PHASE, _collectRound, _validator))\n        ] = _flag;\n    }\n\n    function _setCurrentSecret(uint256 _secret) private {\n        uintStorage[CURRENT_SECRET] = _secret;\n    }\n\n    function _setRevealsCount(uint256 _collectRound, uint256 _count) private {\n        uintStorage[keccak256(abi.encode(REVEALS_COUNT, _collectRound))] = _count;\n    }\n\n    function _setSentReveal(uint256 _collectRound, address _validator, bool _sent) private {\n        boolStorage[keccak256(abi.encode(SENT_REVEAL, _collectRound, _validator))] = _sent;\n    }\n\n    function _getCurrentSecret() private view returns(uint256) {\n        return uintStorage[CURRENT_SECRET];\n    }\n}",
  "sourcePath": "/home/poa/Dropbox/POA/GitHub/pos-contracts/contracts/RandomAuRa.sol",
  "compiler": {
    "name": "solc",
    "version": "0.5.2+commit.1df8f40c.Emscripten.clang"
  },
  "schemaVersion": "3.0.1",
  "updatedAt": "2019-01-14T07:31:36.946Z",
  "devdoc": {
    "methods": {}
  },
  "userdoc": {
    "methods": {}
  }
}