{
  "contractName": "Registry",
  "abi": [
    {
      "constant": false,
      "inputs": [
        {
          "name": "_new",
          "type": "address"
        }
      ],
      "name": "setOwner",
      "outputs": [],
      "payable": false,
      "stateMutability": "nonpayable",
      "type": "function"
    },
    {
      "constant": true,
      "inputs": [],
      "name": "owner",
      "outputs": [
        {
          "name": "",
          "type": "address"
        }
      ],
      "payable": false,
      "stateMutability": "view",
      "type": "function"
    },
    {
      "constant": true,
      "inputs": [],
      "name": "fee",
      "outputs": [
        {
          "name": "",
          "type": "uint256"
        }
      ],
      "payable": false,
      "stateMutability": "view",
      "type": "function"
    },
    {
      "inputs": [
        {
          "name": "_certifierContract",
          "type": "address"
        }
      ],
      "payable": false,
      "stateMutability": "nonpayable",
      "type": "constructor"
    },
    {
      "anonymous": false,
      "inputs": [
        {
          "indexed": false,
          "name": "amount",
          "type": "uint256"
        }
      ],
      "name": "Drained",
      "type": "event"
    },
    {
      "anonymous": false,
      "inputs": [
        {
          "indexed": false,
          "name": "amount",
          "type": "uint256"
        }
      ],
      "name": "FeeChanged",
      "type": "event"
    },
    {
      "anonymous": false,
      "inputs": [
        {
          "indexed": false,
          "name": "name",
          "type": "string"
        },
        {
          "indexed": true,
          "name": "reverse",
          "type": "address"
        }
      ],
      "name": "ReverseProposed",
      "type": "event"
    },
    {
      "anonymous": false,
      "inputs": [
        {
          "indexed": false,
          "name": "name",
          "type": "string"
        },
        {
          "indexed": true,
          "name": "reverse",
          "type": "address"
        }
      ],
      "name": "ReverseConfirmed",
      "type": "event"
    },
    {
      "anonymous": false,
      "inputs": [
        {
          "indexed": false,
          "name": "name",
          "type": "string"
        },
        {
          "indexed": true,
          "name": "reverse",
          "type": "address"
        }
      ],
      "name": "ReverseRemoved",
      "type": "event"
    },
    {
      "anonymous": false,
      "inputs": [
        {
          "indexed": true,
          "name": "name",
          "type": "bytes32"
        },
        {
          "indexed": true,
          "name": "owner",
          "type": "address"
        }
      ],
      "name": "Reserved",
      "type": "event"
    },
    {
      "anonymous": false,
      "inputs": [
        {
          "indexed": true,
          "name": "name",
          "type": "bytes32"
        },
        {
          "indexed": true,
          "name": "oldOwner",
          "type": "address"
        },
        {
          "indexed": true,
          "name": "newOwner",
          "type": "address"
        }
      ],
      "name": "Transferred",
      "type": "event"
    },
    {
      "anonymous": false,
      "inputs": [
        {
          "indexed": true,
          "name": "name",
          "type": "bytes32"
        },
        {
          "indexed": true,
          "name": "owner",
          "type": "address"
        }
      ],
      "name": "Dropped",
      "type": "event"
    },
    {
      "anonymous": false,
      "inputs": [
        {
          "indexed": true,
          "name": "name",
          "type": "bytes32"
        },
        {
          "indexed": false,
          "name": "key",
          "type": "string"
        },
        {
          "indexed": false,
          "name": "plainKey",
          "type": "string"
        }
      ],
      "name": "DataChanged",
      "type": "event"
    },
    {
      "anonymous": false,
      "inputs": [
        {
          "indexed": true,
          "name": "old",
          "type": "address"
        },
        {
          "indexed": true,
          "name": "current",
          "type": "address"
        }
      ],
      "name": "NewOwner",
      "type": "event"
    },
    {
      "constant": false,
      "inputs": [
        {
          "name": "_name",
          "type": "bytes32"
        }
      ],
      "name": "reserve",
      "outputs": [
        {
          "name": "success",
          "type": "bool"
        }
      ],
      "payable": true,
      "stateMutability": "payable",
      "type": "function"
    },
    {
      "constant": false,
      "inputs": [
        {
          "name": "_name",
          "type": "bytes32"
        },
        {
          "name": "_to",
          "type": "address"
        }
      ],
      "name": "transfer",
      "outputs": [
        {
          "name": "success",
          "type": "bool"
        }
      ],
      "payable": false,
      "stateMutability": "nonpayable",
      "type": "function"
    },
    {
      "constant": false,
      "inputs": [
        {
          "name": "_name",
          "type": "bytes32"
        }
      ],
      "name": "drop",
      "outputs": [
        {
          "name": "success",
          "type": "bool"
        }
      ],
      "payable": false,
      "stateMutability": "nonpayable",
      "type": "function"
    },
    {
      "constant": false,
      "inputs": [
        {
          "name": "_name",
          "type": "bytes32"
        },
        {
          "name": "_key",
          "type": "string"
        },
        {
          "name": "_value",
          "type": "bytes32"
        }
      ],
      "name": "setData",
      "outputs": [
        {
          "name": "success",
          "type": "bool"
        }
      ],
      "payable": false,
      "stateMutability": "nonpayable",
      "type": "function"
    },
    {
      "constant": false,
      "inputs": [
        {
          "name": "_name",
          "type": "bytes32"
        },
        {
          "name": "_key",
          "type": "string"
        },
        {
          "name": "_value",
          "type": "address"
        }
      ],
      "name": "setAddress",
      "outputs": [
        {
          "name": "success",
          "type": "bool"
        }
      ],
      "payable": false,
      "stateMutability": "nonpayable",
      "type": "function"
    },
    {
      "constant": false,
      "inputs": [
        {
          "name": "_name",
          "type": "bytes32"
        },
        {
          "name": "_key",
          "type": "string"
        },
        {
          "name": "_value",
          "type": "uint256"
        }
      ],
      "name": "setUint",
      "outputs": [
        {
          "name": "success",
          "type": "bool"
        }
      ],
      "payable": false,
      "stateMutability": "nonpayable",
      "type": "function"
    },
    {
      "constant": false,
      "inputs": [
        {
          "name": "_name",
          "type": "string"
        },
        {
          "name": "_who",
          "type": "address"
        }
      ],
      "name": "proposeReverse",
      "outputs": [
        {
          "name": "success",
          "type": "bool"
        }
      ],
      "payable": false,
      "stateMutability": "nonpayable",
      "type": "function"
    },
    {
      "constant": false,
      "inputs": [
        {
          "name": "_name",
          "type": "string"
        }
      ],
      "name": "confirmReverse",
      "outputs": [
        {
          "name": "success",
          "type": "bool"
        }
      ],
      "payable": false,
      "stateMutability": "nonpayable",
      "type": "function"
    },
    {
      "constant": false,
      "inputs": [
        {
          "name": "_name",
          "type": "string"
        },
        {
          "name": "_who",
          "type": "address"
        }
      ],
      "name": "confirmReverseAs",
      "outputs": [
        {
          "name": "success",
          "type": "bool"
        }
      ],
      "payable": false,
      "stateMutability": "nonpayable",
      "type": "function"
    },
    {
      "constant": false,
      "inputs": [],
      "name": "removeReverse",
      "outputs": [],
      "payable": false,
      "stateMutability": "nonpayable",
      "type": "function"
    },
    {
      "constant": false,
      "inputs": [
        {
          "name": "_amount",
          "type": "uint256"
        }
      ],
      "name": "setFee",
      "outputs": [
        {
          "name": "",
          "type": "bool"
        }
      ],
      "payable": false,
      "stateMutability": "nonpayable",
      "type": "function"
    },
    {
      "constant": false,
      "inputs": [],
      "name": "drain",
      "outputs": [
        {
          "name": "",
          "type": "bool"
        }
      ],
      "payable": false,
      "stateMutability": "nonpayable",
      "type": "function"
    },
    {
      "constant": true,
      "inputs": [
        {
          "name": "_name",
          "type": "bytes32"
        },
        {
          "name": "_key",
          "type": "string"
        }
      ],
      "name": "getData",
      "outputs": [
        {
          "name": "",
          "type": "bytes32"
        }
      ],
      "payable": false,
      "stateMutability": "view",
      "type": "function"
    },
    {
      "constant": true,
      "inputs": [
        {
          "name": "_name",
          "type": "bytes32"
        },
        {
          "name": "_key",
          "type": "string"
        }
      ],
      "name": "getAddress",
      "outputs": [
        {
          "name": "",
          "type": "address"
        }
      ],
      "payable": false,
      "stateMutability": "view",
      "type": "function"
    },
    {
      "constant": true,
      "inputs": [
        {
          "name": "_name",
          "type": "bytes32"
        },
        {
          "name": "_key",
          "type": "string"
        }
      ],
      "name": "getUint",
      "outputs": [
        {
          "name": "",
          "type": "uint256"
        }
      ],
      "payable": false,
      "stateMutability": "view",
      "type": "function"
    },
    {
      "constant": true,
      "inputs": [
        {
          "name": "_name",
          "type": "bytes32"
        }
      ],
      "name": "getOwner",
      "outputs": [
        {
          "name": "",
          "type": "address"
        }
      ],
      "payable": false,
      "stateMutability": "view",
      "type": "function"
    },
    {
      "constant": true,
      "inputs": [
        {
          "name": "_name",
          "type": "bytes32"
        }
      ],
      "name": "hasReverse",
      "outputs": [
        {
          "name": "",
          "type": "bool"
        }
      ],
      "payable": false,
      "stateMutability": "view",
      "type": "function"
    },
    {
      "constant": true,
      "inputs": [
        {
          "name": "_name",
          "type": "bytes32"
        }
      ],
      "name": "getReverse",
      "outputs": [
        {
          "name": "",
          "type": "address"
        }
      ],
      "payable": false,
      "stateMutability": "view",
      "type": "function"
    },
    {
      "constant": true,
      "inputs": [
        {
          "name": "_data",
          "type": "address"
        }
      ],
      "name": "canReverse",
      "outputs": [
        {
          "name": "",
          "type": "bool"
        }
      ],
      "payable": false,
      "stateMutability": "view",
      "type": "function"
    },
    {
      "constant": true,
      "inputs": [
        {
          "name": "_data",
          "type": "address"
        }
      ],
      "name": "reverse",
      "outputs": [
        {
          "name": "",
          "type": "string"
        }
      ],
      "payable": false,
      "stateMutability": "view",
      "type": "function"
    },
    {
      "constant": true,
      "inputs": [
        {
          "name": "_name",
          "type": "bytes32"
        }
      ],
      "name": "reserved",
      "outputs": [
        {
          "name": "",
          "type": "bool"
        }
      ],
      "payable": false,
      "stateMutability": "view",
      "type": "function"
    }
  ],
  "bytecode": "0x608060405260008054600160a060020a03191633179055670de0b6b3a764000060035534801561002e57600080fd5b50604051602080611c838339810180604052602081101561004e57600080fd5b5051600160a060020a038116151561006557600080fd5b604080517f736572766963655f7472616e73616374696f6e5f636865636b657200000000008152815190819003601b018120600090815260016020819052908390207f410000000000000000000000000000000000000000000000000000000000000083526002019082015290519081900360210190206001606060020a03196c01000000000000000000000000909202919091169055611b788061010b6000396000f3fe608060405260043610610168576000357c0100000000000000000000000000000000000000000000000000000000900480639890220b116100d3578063df57b7421161008c578063df57b7421461060d578063e30bd74014610637578063eadf9760146106df578063ef5454d614610763578063f25eb5c1146107e9578063f6d339e4146107fe57610168565b80639890220b14610509578063ac4e73f91461051e578063ac72c120146105a4578063c3a3582514610449578063ddca3f43146105ce578063deb931a2146105e357610168565b80636795dbcd116101255780636795dbcd1461033157806369fe0e2d146103d157806379ce9fac146103fb5780638da5cb5b1461043457806390b97fc11461044957806392698814146104df57610168565b806306b2ff471461016d57806313af4035146101b457806319362a28146101e95780633f3935d11461026d578063432ced04146102ea5780634f39ca5914610307575b600080fd5b34801561017957600080fd5b506101a06004803603602081101561019057600080fd5b5035600160a060020a031661088b565b604080519115158252519081900360200190f35b3480156101c057600080fd5b506101e7600480360360208110156101d757600080fd5b5035600160a060020a03166108ba565b005b3480156101f557600080fd5b506101a06004803603606081101561020c57600080fd5b8135919081019060408101602082013564010000000081111561022e57600080fd5b82018360208201111561024057600080fd5b8035906020019184600183028401116401000000008311171561026257600080fd5b919350915035610939565b34801561027957600080fd5b506101a06004803603602081101561029057600080fd5b8101906020810181356401000000008111156102ab57600080fd5b8201836020820111156102bd57600080fd5b803590602001918460018302840111640100000000831117156102df57600080fd5b509092509050610a60565b6101a06004803603602081101561030057600080fd5b5035610bbc565b34801561031357600080fd5b506101a06004803603602081101561032a57600080fd5b5035610c7a565b34801561033d57600080fd5b506103b56004803603604081101561035457600080fd5b8135919081019060408101602082013564010000000081111561037657600080fd5b82018360208201111561038857600080fd5b803590602001918460018302840111640100000000831117156103aa57600080fd5b509092509050610d5f565b60408051600160a060020a039092168252519081900360200190f35b3480156103dd57600080fd5b506101a0600480360360208110156103f457600080fd5b5035610ddc565b34801561040757600080fd5b506101a06004803603604081101561041e57600080fd5b5080359060200135600160a060020a0316610e34565b34801561044057600080fd5b506103b5610eef565b34801561045557600080fd5b506104cd6004803603604081101561046c57600080fd5b8135919081019060408101602082013564010000000081111561048e57600080fd5b8201836020820111156104a057600080fd5b803590602001918460018302840111640100000000831117156104c257600080fd5b509092509050610efe565b60408051918252519081900360200190f35b3480156104eb57600080fd5b506101a06004803603602081101561050257600080fd5b5035610f6b565b34801561051557600080fd5b506101a0610fb2565b34801561052a57600080fd5b506101a06004803603604081101561054157600080fd5b81019060208101813564010000000081111561055c57600080fd5b82018360208201111561056e57600080fd5b8035906020019184600183028401116401000000008311171561059057600080fd5b919350915035600160a060020a0316611034565b3480156105b057600080fd5b506101a0600480360360208110156105c757600080fd5b503561131d565b3480156105da57600080fd5b506104cd611368565b3480156105ef57600080fd5b506103b56004803603602081101561060657600080fd5b503561136e565b34801561061957600080fd5b506103b56004803603602081101561063057600080fd5b50356113b3565b34801561064357600080fd5b5061066a6004803603602081101561065a57600080fd5b5035600160a060020a03166113fc565b6040805160208082528351818301528351919283929083019185019080838360005b838110156106a457818101518382015260200161068c565b50505050905090810190601f1680156106d15780820380516001836020036101000a031916815260200191505b509250505060405180910390f35b3480156106eb57600080fd5b506101a06004803603606081101561070257600080fd5b8135919081019060408101602082013564010000000081111561072457600080fd5b82018360208201111561073657600080fd5b8035906020019184600183028401116401000000008311171561075857600080fd5b9193509150356114a5565b34801561076f57600080fd5b506101a06004803603604081101561078657600080fd5b8101906020810181356401000000008111156107a157600080fd5b8201836020820111156107b357600080fd5b803590602001918460018302840111640100000000831117156107d557600080fd5b919350915035600160a060020a03166115cf565b3480156107f557600080fd5b506101e76116e6565b34801561080a57600080fd5b506101a06004803603606081101561082157600080fd5b8135919081019060408101602082013564010000000081111561084357600080fd5b82018360208201111561085557600080fd5b8035906020019184600183028401116401000000008311171561087757600080fd5b919350915035600160a060020a031661192f565b600160a060020a0316600090815260026020819052604090912054600181161561010002600019011604151590565b600054600160a060020a031633146108d157600080fd5b60008054604051600160a060020a03808516939216917f70aea8d848e8a90fb7661b227dc522eb6395c3dac71b63cb59edd5c9899b236491a36000805473ffffffffffffffffffffffffffffffffffffffff1916600160a060020a0392909216919091179055565b600084815260016020819052604082200154859060a060020a900460ff161561096157600080fd5b6000868152600160205260409020548690600160a060020a0316331461098657600080fd5b83600160008981526020019081526020016000206002018787604051808383808284378083019250505092505050908152602001604051809103902081905550867fb829c3e412537bbe794c048ccb9e4605bb4aaaa8e4d4c15c1a6e0c2adc1716ea878789896040518080602001806020018381038352878782818152602001925080828437600083820152601f01601f191690910184810383528581526020019050858580828437600083820152604051601f909101601f19169092018290039850909650505050505050a25060019695505050505050565b600082828080601f0160208091040260200160405190810160405280939291908181526020018383808284376000920182905250845160208087019190912082526001908190526040909120015460a060020a900460ff16159250610ac791505057600080fd5b83838080601f01602080910402602001604051908101604052809392919081815260200183838082843760009201829052508451602080870191909120825260019081905260409091200154600160a060020a031633149250610b2c91505057600080fd5b336000908152600260205260409020610b46908686611a74565b5033600160a060020a03167f098ae8581bb8bd9af1beaf7f2e9f51f31a8e5a8bfada4e303a645d71d9c91920868660405180806020018281038252848482818152602001925080828437600083820152604051601f909101601f19169092018290039550909350505050a2506001949350505050565b600081815260016020819052604082200154829060a060020a900460ff1615610be457600080fd5b6000838152600160205260409020548390600160a060020a031615610c0857600080fd5b600354341015610c1757600080fd5b600084815260016020526040808220805473ffffffffffffffffffffffffffffffffffffffff1916339081179091559051909186917f4963513eca575aba66fdcd25f267aae85958fe6fb97e75fa25d783f1a091a2219190a35060019392505050565b600081815260016020819052604082200154829060a060020a900460ff1615610ca257600080fd5b6000838152600160205260409020548390600160a060020a03163314610cc757600080fd5b600084815260016020818152604080842090920154600160a060020a03168352600290528120610cf691611af2565b6000848152600160208190526040808320909101805474ff0000000000000000000000000000000000000000191660a060020a17905551339186917fef1961b4d2909dc23643b309bfe5c3e5646842d98c3a58517037ef3871185af39190a35060019392505050565b600083815260016020819052604082200154849060a060020a900460ff1615610d8757600080fd5b6001600086815260200190815260200160002060020184846040518083838082843791909101948552505060405192839003602001909220546c01000000000000000000000000900493505050509392505050565b60008054600160a060020a03163314610df457600080fd5b60038290556040805183815290517f6bbc57480a46553fa4d156ce702beef5f3ad66303b0ed1a5d4cb44966c6584c39181900360200190a1506001919050565b600082815260016020819052604082200154839060a060020a900460ff1615610e5c57600080fd5b6000848152600160205260409020548490600160a060020a03163314610e8157600080fd5b600085815260016020526040808220805473ffffffffffffffffffffffffffffffffffffffff1916600160a060020a03881690811790915590519091339188917f7b97c62130aa09acbbcbf7482630e756592496f1759eaf702f469cf64dfb779491a4506001949350505050565b600054600160a060020a031681565b600083815260016020819052604082200154849060a060020a900460ff1615610f2657600080fd5b60016000868152602001908152602001600020600201848460405180838380828437919091019485525050604051928390036020019092205493505050509392505050565b600081815260016020819052604082200154829060a060020a900460ff1615610f9357600080fd5b5050600090815260016020526040902054600160a060020a0316151590565b60008054600160a060020a03163314610fca57600080fd5b604080513031815290517fdef931299fe61d176f949118058530c1f3f539dcb6950b4e372c9b835c33ca079181900360200190a16040513390303180156108fc02916000818181858888f1935050505015801561102b573d6000803e3d6000fd5b50600190505b90565b600083838080601f0160208091040260200160405190810160405280939291908181526020018383808284376000920182905250845160208087019190912082526001908190526040909120015460a060020a900460ff1615925061109b91505057600080fd5b848460405180838380828437604080519390910183900390922060008181526001602052929092205491945050600160a060020a0316331491506110e0905057600080fd5b6000868660405180838380828437604080519190930181900390206000818152600160208190529390209092015491955050600160a060020a0316158015935091506111c2905057506000818152600160208181526040808420830154600160a060020a031684526002918290529283902092518354859493919283928592600019918116156101000291909101160480156111b35780601f106111915761010080835404028352918201916111b3565b820191906000526020600020905b81548152906001019060200180831161119f575b50509150506040518091039020145b1561127457600081815260016020818152604080842090920154600160a060020a031683526002905281206111f691611af2565b600081815260016020818152604092839020909101548251828152918201899052600160a060020a0316917f12491ad95fd945e444d88a894ffad3c21959880a4dcd8af99d4ae4ffc71d4abd918a918a919081908101848480828437600083820152604051601f909101601f19169092018290039550909350505050a25b600081815260016020818152604092839020909101805473ffffffffffffffffffffffffffffffffffffffff1916600160a060020a0389169081179091558251828152918201899052917f728435a0031f6a04538fcdd24922a7e06bc7bc945db03e83d22122d1bc5f28df918a918a919081908101848480828437600083820152604051601f909101601f19169092018290039550909350505050a25060019695505050505050565b600081815260016020819052604082200154829060a060020a900460ff161561134557600080fd5b505060009081526001602081905260409091200154600160a060020a0316151590565b60035481565b600081815260016020819052604082200154829060a060020a900460ff161561139657600080fd5b5050600090815260016020526040902054600160a060020a031690565b600081815260016020819052604082200154829060a060020a900460ff16156113db57600080fd5b505060009081526001602081905260409091200154600160a060020a031690565b600160a060020a038116600090815260026020818152604092839020805484516001821615610100026000190190911693909304601f810183900483028401830190945283835260609390918301828280156114995780601f1061146e57610100808354040283529160200191611499565b820191906000526020600020905b81548152906001019060200180831161147c57829003601f168201915b50505050509050919050565b600084815260016020819052604082200154859060a060020a900460ff16156114cd57600080fd5b6000868152600160205260409020548690600160a060020a031633146114f257600080fd5b83600102600160008981526020019081526020016000206002018787604051808383808284378083019250505092505050908152602001604051809103902081905550867fb829c3e412537bbe794c048ccb9e4605bb4aaaa8e4d4c15c1a6e0c2adc1716ea878789896040518080602001806020018381038352878782818152602001925080828437600083820152601f01601f191690910184810383528581526020019050858580828437600083820152604051601f909101601f19169092018290039850909650505050505050a25060019695505050505050565b600083838080601f0160208091040260200160405190810160405280939291908181526020018383808284376000920182905250845160208087019190912082526001908190526040909120015460a060020a900460ff1615925061163691505057600080fd5b600054600160a060020a0316331461164d57600080fd5b600160a060020a0383166000908152600260205260409020611670908686611a74565b5082600160a060020a03167f098ae8581bb8bd9af1beaf7f2e9f51f31a8e5a8bfada4e303a645d71d9c91920868660405180806020018281038252848482818152602001925080828437600083820152604051601f909101601f19169092018290039550909350505050a2506001949350505050565b33600090815260026020818152604092839020805484516001821615610100026000190190911693909304601f81018390048302840183019094528383529192908301828280156117785780601f1061174d57610100808354040283529160200191611778565b820191906000526020600020905b81548152906001019060200180831161175b57829003601f168201915b50508351602080860191909120600090815260019182905260409020015460a060020a900460ff161592506117af91505057600080fd5b33600081815260026020818152604092839020835182815281546000196101006001831615020116939093049183018290527f12491ad95fd945e444d88a894ffad3c21959880a4dcd8af99d4ae4ffc71d4abd9390929182918201908490801561185a5780601f1061182f5761010080835404028352916020019161185a565b820191906000526020600020905b81548152906001019060200180831161183d57829003601f168201915b50509250505060405180910390a2336000908152600260208190526040808320905181546001949382918491600019610100838a161502019091160480156118d95780601f106118b75761010080835404028352918201916118d9565b820191906000526020600020905b8154815290600101906020018083116118c5575b5050604080519182900390912084526020808501959095529283016000908120600101805473ffffffffffffffffffffffffffffffffffffffff1916905533815260029094525050812061192c91611af2565b50565b600084815260016020819052604082200154859060a060020a900460ff161561195757600080fd5b6000868152600160205260409020548690600160a060020a0316331461197c57600080fd5b836c01000000000000000000000000026bffffffffffffffffffffffff1916600160008981526020019081526020016000206002018787604051808383808284378083019250505092505050908152602001604051809103902081905550867fb829c3e412537bbe794c048ccb9e4605bb4aaaa8e4d4c15c1a6e0c2adc1716ea878789896040518080602001806020018381038352878782818152602001925080828437600083820152601f01601f191690910184810383528581526020019050858580828437600083820152604051601f909101601f19169092018290039850909650505050505050a25060019695505050505050565b828054600181600116156101000203166002900490600052602060002090601f016020900481019282601f10611ab55782800160ff19823516178555611ae2565b82800160010185558215611ae2579182015b82811115611ae2578235825591602001919060010190611ac7565b50611aee929150611b32565b5090565b50805460018160011615610100020316600290046000825580601f10611b18575061192c565b601f01602090049060005260206000209081019061192c91905b61103191905b80821115611aee5760008155600101611b3856fea165627a7a72305820703359b1446f26dc5a91d8e30156c7835ec46425eb32fbc7664215931da3e1f90029",
  "source": "pragma solidity 0.5.2;\n\nimport \"./interfaces/IMetadataRegistry.sol\";\nimport \"./interfaces/IOwnerRegistry.sol\";\nimport \"./interfaces/IReverseRegistry.sol\";\n\n\ncontract Owned {\n    event NewOwner(address indexed old, address indexed current);\n\n    address public owner = msg.sender;\n\n    modifier onlyOwner {\n        require(msg.sender == owner);\n        _;\n    }\n\n    function setOwner(address _new) external onlyOwner {\n        emit NewOwner(owner, _new);\n        owner = _new;\n    }\n}\n\n\ncontract Registry is Owned, IMetadataRegistry, IOwnerRegistry, IReverseRegistry {\n    struct Entry {\n        address owner;\n        address reverse;\n        bool deleted;\n        mapping(string => bytes32) data;\n    }\n\n    event Drained(uint amount);\n    event FeeChanged(uint amount);\n    event ReverseProposed(string name, address indexed reverse);\n\n    mapping(bytes32 => Entry) internal entries;\n    mapping(address => string) internal reverses;\n\n    uint256 public fee = 1 ether;\n\n    modifier whenUnreserved(bytes32 _name) {\n        require(entries[_name].owner == address(0));\n        _;\n    }\n\n    modifier onlyOwnerOf(bytes32 _name) {\n        require(entries[_name].owner == msg.sender);\n        _;\n    }\n\n    modifier whenProposed(string memory _name) {\n        require(entries[keccak256(bytes(_name))].reverse == msg.sender);\n        _;\n    }\n\n    modifier whenEntry(string memory _name) {\n        require(!entries[keccak256(bytes(_name))].deleted);\n        _;\n    }\n\n    modifier whenEntryRaw(bytes32 _name) {\n        require(!entries[_name].deleted);\n        _;\n    }\n\n    modifier whenFeePaid {\n        require(msg.value >= fee);\n        _;\n    }\n\n    constructor(address _certifierContract) public {\n        require(_certifierContract != address(0));\n        entries[keccak256(\"service_transaction_checker\")].data[\"A\"] = bytes20(_certifierContract);\n    }\n\n    // Reservation functions\n    function reserve(bytes32 _name)\n        external\n        payable\n        whenEntryRaw(_name)\n        whenUnreserved(_name)\n        whenFeePaid\n        returns (bool success)\n    {\n        entries[_name].owner = msg.sender;\n        emit Reserved(_name, msg.sender);\n        return true;\n    }\n\n    function transfer(bytes32 _name, address _to)\n        external\n        whenEntryRaw(_name)\n        onlyOwnerOf(_name)\n        returns (bool success)\n    {\n        entries[_name].owner = _to;\n        emit Transferred(_name, msg.sender, _to);\n        return true;\n    }\n\n    function drop(bytes32 _name)\n        external\n        whenEntryRaw(_name)\n        onlyOwnerOf(_name)\n        returns (bool success)\n    {\n        delete reverses[entries[_name].reverse];\n        entries[_name].deleted = true;\n        emit Dropped(_name, msg.sender);\n        return true;\n    }\n\n    // Data admin functions\n    function setData(bytes32 _name, string calldata _key, bytes32 _value)\n        external\n        whenEntryRaw(_name)\n        onlyOwnerOf(_name)\n        returns (bool success)\n    {\n        entries[_name].data[_key] = _value;\n        emit DataChanged(_name, _key, _key);\n        return true;\n    }\n\n    function setAddress(bytes32 _name, string calldata _key, address _value)\n        external\n        whenEntryRaw(_name)\n        onlyOwnerOf(_name)\n        returns (bool success)\n    {\n        entries[_name].data[_key] = bytes20(_value);\n        emit DataChanged(_name, _key, _key);\n        return true;\n    }\n\n    function setUint(bytes32 _name, string calldata _key, uint _value)\n        external\n        whenEntryRaw(_name)\n        onlyOwnerOf(_name)\n        returns (bool success)\n    {\n        entries[_name].data[_key] = bytes32(_value);\n        emit DataChanged(_name, _key, _key);\n        return true;\n    }\n\n    // Reverse registration functions\n    function proposeReverse(string calldata _name, address _who)\n        external\n        whenEntry(_name)\n        onlyOwnerOf(keccak256(bytes(_name)))\n        returns (bool success)\n    {\n        bytes32 sha3Name = keccak256(bytes(_name));\n        if (\n            entries[sha3Name].reverse != address(0) &&\n            keccak256(bytes(reverses[entries[sha3Name].reverse])) == sha3Name\n        ) {\n            delete reverses[entries[sha3Name].reverse];\n            emit ReverseRemoved(_name, entries[sha3Name].reverse);\n        }\n        entries[sha3Name].reverse = _who;\n        emit ReverseProposed(_name, _who);\n        return true;\n    }\n\n    function confirmReverse(string calldata _name)\n        external\n        whenEntry(_name)\n        whenProposed(_name)\n        returns (bool success)\n    {\n        reverses[msg.sender] = _name;\n        emit ReverseConfirmed(_name, msg.sender);\n        return true;\n    }\n\n    function confirmReverseAs(string calldata _name, address _who)\n        external\n        whenEntry(_name)\n        onlyOwner\n        returns (bool success)\n    {\n        reverses[_who] = _name;\n        emit ReverseConfirmed(_name, _who);\n        return true;\n    }\n\n    function removeReverse()\n        external\n        whenEntry(reverses[msg.sender])\n    {\n        emit ReverseRemoved(reverses[msg.sender], msg.sender);\n        delete entries[keccak256(bytes(reverses[msg.sender]))].reverse;\n        delete reverses[msg.sender];\n    }\n\n    // Admin functions for the owner\n    function setFee(uint _amount)\n        external\n        onlyOwner\n        returns (bool)\n    {\n        fee = _amount;\n        emit FeeChanged(_amount);\n        return true;\n    }\n\n    function drain()\n        external\n        onlyOwner\n        returns (bool)\n    {\n        emit Drained(address(this).balance);\n        msg.sender.transfer(address(this).balance);\n        return true;\n    }\n\n    // MetadataRegistry views\n    function getData(bytes32 _name, string calldata _key)\n        external\n        view\n        whenEntryRaw(_name)\n        returns (bytes32)\n    {\n        return entries[_name].data[_key];\n    }\n\n    function getAddress(bytes32 _name, string calldata _key)\n        external\n        view\n        whenEntryRaw(_name)\n        returns (address)\n    {\n        return address(bytes20(entries[_name].data[_key]));\n    }\n\n    function getUint(bytes32 _name, string calldata _key)\n        external\n        view\n        whenEntryRaw(_name)\n        returns (uint)\n    {\n        return uint(entries[_name].data[_key]);\n    }\n\n    // OwnerRegistry views\n    function getOwner(bytes32 _name)\n        external\n        view\n        whenEntryRaw(_name)\n        returns (address)\n    {\n        return entries[_name].owner;\n    }\n\n    // ReversibleRegistry views\n    function hasReverse(bytes32 _name)\n        external\n        view\n        whenEntryRaw(_name)\n        returns (bool)\n    {\n        return entries[_name].reverse != address(0);\n    }\n\n    function getReverse(bytes32 _name)\n        external\n        view\n        whenEntryRaw(_name)\n        returns (address)\n    {\n        return entries[_name].reverse;\n    }\n\n    function canReverse(address _data)\n        external\n        view\n        returns (bool)\n    {\n        return bytes(reverses[_data]).length != 0;\n    }\n\n    function reverse(address _data)\n        external\n        view\n        returns (string memory)\n    {\n        return reverses[_data];\n    }\n\n    function reserved(bytes32 _name)\n        external\n        view\n        whenEntryRaw(_name)\n        returns (bool)\n    {\n        return entries[_name].owner != address(0);\n    }\n}\n",
  "sourcePath": "/home/poa/Dropbox/POA/GitHub/pos-contracts/contracts/Registry.sol",
  "compiler": {
    "name": "solc",
    "version": "0.5.2+commit.1df8f40c.Emscripten.clang"
  },
  "schemaVersion": "3.0.1",
  "updatedAt": "2019-01-16T07:39:32.269Z",
  "devdoc": {
    "methods": {}
  },
  "userdoc": {
    "methods": {}
  }
}