{
  "contractName": "TxPermission",
  "abi": [
    {
      "constant": true,
      "inputs": [],
      "name": "VALIDATOR_SET_CONTRACT",
      "outputs": [
        {
          "name": "",
          "type": "address"
        }
      ],
      "payable": false,
      "stateMutability": "view",
      "type": "function"
    },
    {
      "constant": true,
      "inputs": [],
      "name": "RANDOM_CONTRACT",
      "outputs": [
        {
          "name": "",
          "type": "address"
        }
      ],
      "payable": false,
      "stateMutability": "view",
      "type": "function"
    },
    {
      "constant": false,
      "inputs": [
        {
          "name": "_sender",
          "type": "address"
        }
      ],
      "name": "addAllowedSender",
      "outputs": [],
      "payable": false,
      "stateMutability": "nonpayable",
      "type": "function"
    },
    {
      "constant": false,
      "inputs": [
        {
          "name": "_sender",
          "type": "address"
        }
      ],
      "name": "removeAllowedSender",
      "outputs": [],
      "payable": false,
      "stateMutability": "nonpayable",
      "type": "function"
    },
    {
      "constant": true,
      "inputs": [],
      "name": "contractName",
      "outputs": [
        {
          "name": "",
          "type": "string"
        }
      ],
      "payable": false,
      "stateMutability": "pure",
      "type": "function"
    },
    {
      "constant": true,
      "inputs": [],
      "name": "contractNameHash",
      "outputs": [
        {
          "name": "",
          "type": "bytes32"
        }
      ],
      "payable": false,
      "stateMutability": "pure",
      "type": "function"
    },
    {
      "constant": true,
      "inputs": [],
      "name": "contractVersion",
      "outputs": [
        {
          "name": "",
          "type": "uint256"
        }
      ],
      "payable": false,
      "stateMutability": "pure",
      "type": "function"
    },
    {
      "constant": true,
      "inputs": [],
      "name": "allowedSenders",
      "outputs": [
        {
          "name": "",
          "type": "address[]"
        }
      ],
      "payable": false,
      "stateMutability": "view",
      "type": "function"
    },
    {
      "constant": true,
      "inputs": [
        {
          "name": "_sender",
          "type": "address"
        },
        {
          "name": "_to",
          "type": "address"
        },
        {
          "name": "",
          "type": "uint256"
        },
        {
          "name": "_gasPrice",
          "type": "uint256"
        }
      ],
      "name": "allowedTxTypes",
      "outputs": [
        {
          "name": "",
          "type": "uint32"
        },
        {
          "name": "",
          "type": "bool"
        }
      ],
      "payable": false,
      "stateMutability": "view",
      "type": "function"
    },
    {
      "constant": true,
      "inputs": [
        {
          "name": "_sender",
          "type": "address"
        }
      ],
      "name": "isSenderAllowed",
      "outputs": [
        {
          "name": "",
          "type": "bool"
        }
      ],
      "payable": false,
      "stateMutability": "view",
      "type": "function"
    }
  ],
  "bytecode": "0x608060405234801561001057600080fd5b506109a1806100206000396000f3fe608060405234801561001057600080fd5b50600436106100bb576000357c0100000000000000000000000000000000000000000000000000000000900480639121bf35116100835780639121bf35146101d7578063a0a8e460146101fb578063a78500e914610203578063c746c8f41461025f578063efc7840114610285576100bb565b80633272b28c146100c0578063469ab1e314610118578063471eab5c1461013257806375d0c0dc1461015a57806376137dd9146101d7575b600080fd5b6100c86102bf565b60408051602080825283518183015283519192839290830191858101910280838360005b838110156101045781810151838201526020016100ec565b505050509050019250505060405180910390f35b610120610347565b60408051918252519081900360200190f35b6101586004803603602081101561014857600080fd5b5035600160a060020a03166103c3565b005b6101626105b6565b6040805160208082528351818301528351919283929083019185019080838360005b8381101561019c578181015183820152602001610184565b50505050905090810190601f1680156101c95780820380516001836020036101000a031916815260200191505b509250505060405180910390f35b6101df6105ed565b60408051600160a060020a039092168252519081900360200190f35b6101206105f2565b61023f6004803603608081101561021957600080fd5b50600160a060020a038135811691602081013590911690604081013590606001356105fe565b6040805163ffffffff909316835290151560208301528051918290030190f35b6101586004803603602081101561027557600080fd5b5035600160a060020a0316610798565b6102ab6004803603602081101561029b57600080fd5b5035600160a060020a031661086b565b604080519115158252519081900360200190f35b604080516000805160206109568339815191528152815190819003600e0181206000908152600b602090815290839020805480830284018301909452838352606093909183018282801561033c57602002820191906000526020600020905b8154600160a060020a0316815260019091019060200180831161031e575b505050505090505b90565b60006103516105b6565b6040516020018082805190602001908083835b602083106103835780518252601f199092019160209182019101610364565b6001836020036101000a03801982511681845116808217855250505050505090500191505060405160208183030381529060405280519060200120905090565b604080517f6f776e65720000000000000000000000000000000000000000000000000000008152815190819003600501902060009081526004602052205433600160a060020a039091161461041757600080fd5b604080516000805160206109568339815191528152815190819003600e0190206000908152600b60205290812054905b818110156105b157604080516000805160206109568339815191528152815190819003600e0190206000908152600b6020522080548290811061048657fe5b600091825260209091200154600160a060020a03848116911614156105a957604080516000805160206109568339815191528152815190819003600e0190206000908152600b60205220805460001984019081106104e057fe5b6000918252602080832090910154604080516000805160206109568339815191528152815190819003600e0190208452600b90925291208054600160a060020a03909216918390811061052f57fe5b600091825260208083209091018054600160a060020a039490941673ffffffffffffffffffffffffffffffffffffffff1990941693909317909255604080516000805160206109568339815191528152815190819003600e0190208252600b909252208054906105a3906000198301610918565b506105b1565b600101610447565b505050565b60408051808201909152601681527f54585f5045524d495353494f4e5f434f4e545241435400000000000000000000602082015290565b600081565b67fffffffffffffffe90565b600080600083118061061457506106148661086b565b15610628575063ffffffff9050600061078f565b600160a060020a0385161580156106c75750604080517ffacd743b000000000000000000000000000000000000000000000000000000008152600160a060020a0388166004820152905160009163facd743b916024808301926020929190829003018186803b15801561069a57600080fd5b505afa1580156106ae573d6000803e3d6000fd5b505050506040513d60208110156106c457600080fd5b50515b156106d8575060029050600061078f565b600160a060020a0385161580156107775750604080517f87eed76a000000000000000000000000000000000000000000000000000000008152600160a060020a038816600482015290516000916387eed76a916024808301926020929190829003018186803b15801561074a57600080fd5b505afa15801561075e573d6000803e3d6000fd5b505050506040513d602081101561077457600080fd5b50515b15610788575060029050600061078f565b5060009050805b94509492505050565b604080517f6f776e65720000000000000000000000000000000000000000000000000000008152815190819003600501902060009081526004602052205433600160a060020a03909116146107ec57600080fd5b6107f58161086b565b156107ff57600080fd5b604080516000805160206109568339815191528152815190819003600e0190206000908152600b60209081529181208054600181018255908252919020018054600160a060020a0390921673ffffffffffffffffffffffffffffffffffffffff19909216919091179055565b604080516000805160206109568339815191528152815190819003600e0190206000908152600b60205290812054815b8181101561090c57604080516000805160206109568339815191528152815190819003600e0190206000908152600b602052208054829081106108da57fe5b600091825260209091200154600160a060020a038581169116141561090457600192505050610913565b60010161089b565b5060009150505b919050565b8154818355818111156105b1576000838152602090206105b191810190830161034491905b80821115610951576000815560010161093d565b509056fe616c6c6f77656453656e64657273000000000000000000000000000000000000a165627a7a7230582099f6d55b5ac1e021ccc153a50e4ef458b81f97a2296d898c22681c57bfe861270029",
  "source": "pragma solidity 0.5.2;\n\nimport \"./interfaces/IValidatorSet.sol\";\nimport \"./eternal-storage/EternalStorage.sol\";\n\n\ncontract TxPermission is EternalStorage {\n\n    // ============================================== Constants =======================================================\n\n    /// Addresses of `Random` and `ValidatorSet` contracts.\n    /// Must be set before deploy.\n    address public constant RANDOM_CONTRACT = address(0);\n    address public constant VALIDATOR_SET_CONTRACT = address(0);\n\n    // ============================================== Modifiers =======================================================\n\n    modifier onlyOwner {\n        require(msg.sender == addressStorage[OWNER]);\n        _;\n    }\n\n    // =============================================== Setters ========================================================\n\n    function addAllowedSender(address _sender) public onlyOwner {\n        require(!isSenderAllowed(_sender));\n        addressArrayStorage[ALLOWED_SENDERS].push(_sender);\n    }\n\n    function removeAllowedSender(address _sender) public onlyOwner {\n        uint256 allowedSendersLength = addressArrayStorage[ALLOWED_SENDERS].length;\n\n        for (uint256 i = 0; i < allowedSendersLength; i++) {\n            if (_sender == addressArrayStorage[ALLOWED_SENDERS][i]) {\n                addressArrayStorage[ALLOWED_SENDERS][i] = addressArrayStorage[ALLOWED_SENDERS][allowedSendersLength-1];\n                addressArrayStorage[ALLOWED_SENDERS].length--;\n                break;\n            }\n        }\n    }\n\n    // =============================================== Getters ========================================================\n\n    /// Contract name\n    function contractName() public pure returns(string memory) {\n        return \"TX_PERMISSION_CONTRACT\";\n    }\n\n    /// Contract name hash\n    function contractNameHash() public pure returns(bytes32) {\n        return keccak256(abi.encodePacked(contractName()));\n    }\n\n    /// Contract version\n    function contractVersion() public pure returns(uint256) {\n        return 0xfffffffffffffffe;\n    }\n\n    function allowedSenders() public view returns(address[] memory) {\n        return addressArrayStorage[ALLOWED_SENDERS];\n    }\n\n    /*\n     * Allowed transaction types\n     *\n     * Returns:\n     *  - uint32 - set of allowed transactions for #'sender' depending on tx #'to' address\n     *    and value in wei.\n     *  - bool - if true is returned the same permissions will be applied from the same #'sender'\n     *    without calling this contract again.\n     *\n     * In case of contract creation #'to' address equals to zero-address\n     *\n     * Result is represented as set of flags:\n     *  - 0x01 - basic transaction (e.g. ether transferring to user wallet)\n     *  - 0x02 - contract call\n     *  - 0x04 - contract creation\n     *  - 0x08 - private transaction\n     *\n     * @param _sender Transaction sender address\n     * @param _to Transaction recepient address\n     * @param _value Value in wei for transaction\n     * @param _gasPrice Gas price in wei for transaction\n     *\n     */\n    function allowedTxTypes(\n        address _sender,\n        address _to,\n        uint256 /*_value*/, // solhint-disable-line space-after-comma\n        uint256 _gasPrice\n    )\n        public\n        view\n        returns(uint32, bool)\n    {\n        if (_gasPrice > 0 || isSenderAllowed(_sender)) {\n            // Let `_sender` create any transactions with non-zero gas price\n            // or if he is in the allowedSenders list\n            return (ALL, false);\n        }\n\n        if (_to == RANDOM_CONTRACT && IValidatorSet(VALIDATOR_SET_CONTRACT).isValidator(_sender)) {\n            // Let the validator call any function of `Random` contract with zero gas price\n            return (CALL, false);\n        }\n\n        if (_to == VALIDATOR_SET_CONTRACT && IValidatorSet(VALIDATOR_SET_CONTRACT).isReportValidatorValid(_sender)) {\n            // Let the validator call any function of `ValidatorSet` contract with zero gas price\n            return (CALL, false);\n        }\n\n        // Don't let `_sender` use zero gas price for other cases\n        return (NONE, false);\n    }\n\n    function isSenderAllowed(address _sender) public view returns(bool) {\n        uint256 allowedSendersLength = addressArrayStorage[ALLOWED_SENDERS].length;\n\n        for (uint256 i = 0; i < allowedSendersLength; i++) {\n            if (_sender == addressArrayStorage[ALLOWED_SENDERS][i]) {\n                return true;\n            }\n        }\n\n        return false;\n    }\n\n    // =============================================== Private ========================================================\n\n    bytes32 internal constant ALLOWED_SENDERS = keccak256(\"allowedSenders\");\n    bytes32 internal constant OWNER = keccak256(\"owner\");\n\n    /// Allowed transaction types mask\n    uint32 internal constant NONE = 0;\n    uint32 internal constant ALL = 0xffffffff;\n    uint32 internal constant BASIC = 0x01;\n    uint32 internal constant CALL = 0x02;\n    uint32 internal constant CREATE = 0x04;\n    uint32 internal constant PRIVATE = 0x08;\n}\n",
  "sourcePath": "/home/poa/Dropbox/POA/GitHub/pos-contracts/contracts/TxPermission.sol",
  "compiler": {
    "name": "solc",
    "version": "0.5.2+commit.1df8f40c.Emscripten.clang"
  },
  "schemaVersion": "3.0.1",
  "updatedAt": "2019-01-14T07:38:25.202Z",
  "devdoc": {
    "methods": {}
  },
  "userdoc": {
    "methods": {
      "contractName()": {
        "notice": "Contract name"
      },
      "contractNameHash()": {
        "notice": "Contract name hash"
      },
      "contractVersion()": {
        "notice": "Contract version"
      }
    }
  }
}