{
  "contractName": "TxPermission",
  "abi": [
    {
      "constant": true,
      "inputs": [],
      "name": "VALIDATOR_SET_CONTRACT",
      "outputs": [
        {
          "name": "",
          "type": "address"
        }
      ],
      "payable": false,
      "stateMutability": "view",
      "type": "function"
    },
    {
      "constant": true,
      "inputs": [],
      "name": "RANDOM_CONTRACT",
      "outputs": [
        {
          "name": "",
          "type": "address"
        }
      ],
      "payable": false,
      "stateMutability": "view",
      "type": "function"
    },
    {
      "constant": false,
      "inputs": [
        {
          "name": "_sender",
          "type": "address"
        }
      ],
      "name": "addAllowedSender",
      "outputs": [],
      "payable": false,
      "stateMutability": "nonpayable",
      "type": "function"
    },
    {
      "constant": false,
      "inputs": [
        {
          "name": "_sender",
          "type": "address"
        }
      ],
      "name": "removeAllowedSender",
      "outputs": [],
      "payable": false,
      "stateMutability": "nonpayable",
      "type": "function"
    },
    {
      "constant": true,
      "inputs": [],
      "name": "contractName",
      "outputs": [
        {
          "name": "",
          "type": "string"
        }
      ],
      "payable": false,
      "stateMutability": "pure",
      "type": "function"
    },
    {
      "constant": true,
      "inputs": [],
      "name": "contractNameHash",
      "outputs": [
        {
          "name": "",
          "type": "bytes32"
        }
      ],
      "payable": false,
      "stateMutability": "pure",
      "type": "function"
    },
    {
      "constant": true,
      "inputs": [],
      "name": "contractVersion",
      "outputs": [
        {
          "name": "",
          "type": "uint256"
        }
      ],
      "payable": false,
      "stateMutability": "pure",
      "type": "function"
    },
    {
      "constant": true,
      "inputs": [],
      "name": "allowedSenders",
      "outputs": [
        {
          "name": "",
          "type": "address[]"
        }
      ],
      "payable": false,
      "stateMutability": "view",
      "type": "function"
    },
    {
      "constant": true,
      "inputs": [
        {
          "name": "_sender",
          "type": "address"
        },
        {
          "name": "_to",
          "type": "address"
        },
        {
          "name": "",
          "type": "uint256"
        },
        {
          "name": "_gasPrice",
          "type": "uint256"
        }
      ],
      "name": "allowedTxTypes",
      "outputs": [
        {
          "name": "",
          "type": "uint32"
        },
        {
          "name": "",
          "type": "bool"
        }
      ],
      "payable": false,
      "stateMutability": "view",
      "type": "function"
    },
    {
      "constant": true,
      "inputs": [
        {
          "name": "_sender",
          "type": "address"
        }
      ],
      "name": "isSenderAllowed",
      "outputs": [
        {
          "name": "",
          "type": "bool"
        }
      ],
      "payable": false,
      "stateMutability": "view",
      "type": "function"
    }
  ],
  "bytecode": "0x608060405234801561001057600080fd5b50610a24806100206000396000f3fe608060405234801561001057600080fd5b50600436106100bb576000357c0100000000000000000000000000000000000000000000000000000000900480639121bf35116100835780639121bf35146101fb578063a0a8e46014610203578063a78500e91461020b578063c746c8f414610267578063efc784011461028d576100bb565b80633272b28c146100c0578063469ab1e314610118578063471eab5c1461013257806375d0c0dc1461015a57806376137dd9146101d7575b600080fd5b6100c86102c7565b60408051602080825283518183015283519192839290830191858101910280838360005b838110156101045781810151838201526020016100ec565b505050509050019250505060405180910390f35b61012061034f565b60408051918252519081900360200190f35b6101586004803603602081101561014857600080fd5b5035600160a060020a03166103cb565b005b6101626105be565b6040805160208082528351818301528351919283929083019185019080838360005b8381101561019c578181015183820152602001610184565b50505050905090810190601f1680156101c95780820380516001836020036101000a031916815260200191505b509250505060405180910390f35b6101df6105f5565b60408051600160a060020a039092168252519081900360200190f35b6101df61060d565b610120610625565b6102476004803603608081101561022157600080fd5b50600160a060020a03813581169160208101359091169060408101359060600135610631565b6040805163ffffffff909316835290151560208301528051918290030190f35b6101586004803603602081101561027d57600080fd5b5035600160a060020a031661081b565b6102b3600480360360208110156102a357600080fd5b5035600160a060020a03166108ee565b604080519115158252519081900360200190f35b604080516000805160206109d98339815191528152815190819003600e0181206000908152600b602090815290839020805480830284018301909452838352606093909183018282801561034457602002820191906000526020600020905b8154600160a060020a03168152600190910190602001808311610326575b505050505090505b90565b60006103596105be565b6040516020018082805190602001908083835b6020831061038b5780518252601f19909201916020918201910161036c565b6001836020036101000a03801982511681845116808217855250505050505090500191505060405160208183030381529060405280519060200120905090565b604080517f6f776e65720000000000000000000000000000000000000000000000000000008152815190819003600501902060009081526004602052205433600160a060020a039091161461041f57600080fd5b604080516000805160206109d98339815191528152815190819003600e0190206000908152600b60205290812054905b818110156105b957604080516000805160206109d98339815191528152815190819003600e0190206000908152600b6020522080548290811061048e57fe5b600091825260209091200154600160a060020a03848116911614156105b157604080516000805160206109d98339815191528152815190819003600e0190206000908152600b60205220805460001984019081106104e857fe5b6000918252602080832090910154604080516000805160206109d98339815191528152815190819003600e0190208452600b90925291208054600160a060020a03909216918390811061053757fe5b600091825260208083209091018054600160a060020a039490941673ffffffffffffffffffffffffffffffffffffffff1990941693909317909255604080516000805160206109d98339815191528152815190819003600e0190208252600b909252208054906105ab90600019830161099b565b506105b9565b60010161044f565b505050565b60408051808201909152601681527f54585f5045524d495353494f4e5f434f4e545241435400000000000000000000602082015290565b73100000000000000000000000000000000000000181565b73300000000000000000000000000000000000000181565b67fffffffffffffffe90565b60008060008311806106475750610647866108ee565b1561065b575063ffffffff90506000610812565b600160a060020a0385167330000000000000000000000000000000000000011480156107225750604080517ffacd743b000000000000000000000000000000000000000000000000000000008152600160a060020a038816600482015290517310000000000000000000000000000000000000019163facd743b916024808301926020929190829003018186803b1580156106f557600080fd5b505afa158015610709573d6000803e3d6000fd5b505050506040513d602081101561071f57600080fd5b50515b156107335750600290506000610812565b600160a060020a0385167310000000000000000000000000000000000000011480156107fa5750604080517f87eed76a000000000000000000000000000000000000000000000000000000008152600160a060020a03881660048201529051731000000000000000000000000000000000000001916387eed76a916024808301926020929190829003018186803b1580156107cd57600080fd5b505afa1580156107e1573d6000803e3d6000fd5b505050506040513d60208110156107f757600080fd5b50515b1561080b5750600290506000610812565b5060009050805b94509492505050565b604080517f6f776e65720000000000000000000000000000000000000000000000000000008152815190819003600501902060009081526004602052205433600160a060020a039091161461086f57600080fd5b610878816108ee565b1561088257600080fd5b604080516000805160206109d98339815191528152815190819003600e0190206000908152600b60209081529181208054600181018255908252919020018054600160a060020a0390921673ffffffffffffffffffffffffffffffffffffffff19909216919091179055565b604080516000805160206109d98339815191528152815190819003600e0190206000908152600b60205290812054815b8181101561098f57604080516000805160206109d98339815191528152815190819003600e0190206000908152600b6020522080548290811061095d57fe5b600091825260209091200154600160a060020a038581169116141561098757600192505050610996565b60010161091e565b5060009150505b919050565b8154818355818111156105b9576000838152602090206105b991810190830161034c91905b808211156109d457600081556001016109c0565b509056fe616c6c6f77656453656e64657273000000000000000000000000000000000000a165627a7a72305820f331e07c54563f32e8f1cf4a3202e2ec944847cad25ce481df1879379cee09500029",
  "source": "pragma solidity 0.5.2;\n\nimport \"./interfaces/IValidatorSet.sol\";\nimport \"./eternal-storage/EternalStorage.sol\";\n\n\ncontract TxPermission is EternalStorage {\n\n    // ============================================== Constants =======================================================\n\n    /// Addresses of `Random` and `ValidatorSet` contracts.\n    /// Must be set before deploy.\n    address public constant RANDOM_CONTRACT = address(0x3000000000000000000000000000000000000001);\n    address public constant VALIDATOR_SET_CONTRACT = address(0x1000000000000000000000000000000000000001);\n\n    // ============================================== Modifiers =======================================================\n\n    modifier onlyOwner {\n        require(msg.sender == addressStorage[OWNER]);\n        _;\n    }\n\n    // =============================================== Setters ========================================================\n\n    function addAllowedSender(address _sender) public onlyOwner {\n        require(!isSenderAllowed(_sender));\n        addressArrayStorage[ALLOWED_SENDERS].push(_sender);\n    }\n\n    function removeAllowedSender(address _sender) public onlyOwner {\n        uint256 allowedSendersLength = addressArrayStorage[ALLOWED_SENDERS].length;\n\n        for (uint256 i = 0; i < allowedSendersLength; i++) {\n            if (_sender == addressArrayStorage[ALLOWED_SENDERS][i]) {\n                addressArrayStorage[ALLOWED_SENDERS][i] = addressArrayStorage[ALLOWED_SENDERS][allowedSendersLength-1];\n                addressArrayStorage[ALLOWED_SENDERS].length--;\n                break;\n            }\n        }\n    }\n\n    // =============================================== Getters ========================================================\n\n    /// Contract name\n    function contractName() public pure returns(string memory) {\n        return \"TX_PERMISSION_CONTRACT\";\n    }\n\n    /// Contract name hash\n    function contractNameHash() public pure returns(bytes32) {\n        return keccak256(abi.encodePacked(contractName()));\n    }\n\n    /// Contract version\n    function contractVersion() public pure returns(uint256) {\n        return 0xfffffffffffffffe;\n    }\n\n    function allowedSenders() public view returns(address[] memory) {\n        return addressArrayStorage[ALLOWED_SENDERS];\n    }\n\n    /*\n     * Allowed transaction types\n     *\n     * Returns:\n     *  - uint32 - set of allowed transactions for #'sender' depending on tx #'to' address\n     *    and value in wei.\n     *  - bool - if true is returned the same permissions will be applied from the same #'sender'\n     *    without calling this contract again.\n     *\n     * In case of contract creation #'to' address equals to zero-address\n     *\n     * Result is represented as set of flags:\n     *  - 0x01 - basic transaction (e.g. ether transferring to user wallet)\n     *  - 0x02 - contract call\n     *  - 0x04 - contract creation\n     *  - 0x08 - private transaction\n     *\n     * @param _sender Transaction sender address\n     * @param _to Transaction recepient address\n     * @param _value Value in wei for transaction\n     * @param _gasPrice Gas price in wei for transaction\n     *\n     */\n    function allowedTxTypes(\n        address _sender,\n        address _to,\n        uint256 /*_value*/, // solhint-disable-line space-after-comma\n        uint256 _gasPrice\n    )\n        public\n        view\n        returns(uint32, bool)\n    {\n        if (_gasPrice > 0 || isSenderAllowed(_sender)) {\n            // Let `_sender` create any transactions with non-zero gas price\n            // or if he is in the allowedSenders list\n            return (ALL, false);\n        }\n\n        if (_to == RANDOM_CONTRACT && IValidatorSet(VALIDATOR_SET_CONTRACT).isValidator(_sender)) {\n            // Let the validator call any function of `Random` contract with zero gas price\n            return (CALL, false);\n        }\n\n        if (_to == VALIDATOR_SET_CONTRACT && IValidatorSet(VALIDATOR_SET_CONTRACT).isReportValidatorValid(_sender)) {\n            // Let the validator call any function of `ValidatorSet` contract with zero gas price\n            return (CALL, false);\n        }\n\n        // Don't let `_sender` use zero gas price for other cases\n        return (NONE, false);\n    }\n\n    function isSenderAllowed(address _sender) public view returns(bool) {\n        uint256 allowedSendersLength = addressArrayStorage[ALLOWED_SENDERS].length;\n\n        for (uint256 i = 0; i < allowedSendersLength; i++) {\n            if (_sender == addressArrayStorage[ALLOWED_SENDERS][i]) {\n                return true;\n            }\n        }\n\n        return false;\n    }\n\n    // =============================================== Private ========================================================\n\n    bytes32 internal constant ALLOWED_SENDERS = keccak256(\"allowedSenders\");\n    bytes32 internal constant OWNER = keccak256(\"owner\");\n\n    /// Allowed transaction types mask\n    uint32 internal constant NONE = 0;\n    uint32 internal constant ALL = 0xffffffff;\n    uint32 internal constant BASIC = 0x01;\n    uint32 internal constant CALL = 0x02;\n    uint32 internal constant CREATE = 0x04;\n    uint32 internal constant PRIVATE = 0x08;\n}\n",
  "sourcePath": "/home/poa/Dropbox/POA/GitHub/pos-contracts/contracts/TxPermission.sol",
  "compiler": {
    "name": "solc",
    "version": "0.5.2+commit.1df8f40c.Emscripten.clang"
  },
  "schemaVersion": "3.0.1",
  "updatedAt": "2019-01-15T09:01:22.249Z",
  "devdoc": {
    "methods": {}
  },
  "userdoc": {
    "methods": {
      "contractName()": {
        "notice": "Contract name"
      },
      "contractNameHash()": {
        "notice": "Contract name hash"
      },
      "contractVersion()": {
        "notice": "Contract version"
      }
    }
  }
}