{
  "contractName": "ValidatorSetAuRa",
  "abi": [
    {
      "constant": true,
      "inputs": [
        {
          "name": "_pool",
          "type": "address"
        },
        {
          "name": "_staker",
          "type": "address"
        }
      ],
      "name": "poolStakerIndex",
      "outputs": [
        {
          "name": "",
          "type": "uint256"
        }
      ],
      "payable": false,
      "stateMutability": "view",
      "type": "function"
    },
    {
      "constant": true,
      "inputs": [
        {
          "name": "_observer",
          "type": "address"
        },
        {
          "name": "_staker",
          "type": "address"
        },
        {
          "name": "_stakingEpoch",
          "type": "uint256"
        }
      ],
      "name": "stakeAmountByEpoch",
      "outputs": [
        {
          "name": "",
          "type": "uint256"
        }
      ],
      "payable": false,
      "stateMutability": "view",
      "type": "function"
    },
    {
      "constant": false,
      "inputs": [
        {
          "name": "_erc20TokenContract",
          "type": "address"
        }
      ],
      "name": "setErc20TokenContract",
      "outputs": [],
      "payable": false,
      "stateMutability": "nonpayable",
      "type": "function"
    },
    {
      "constant": false,
      "inputs": [
        {
          "name": "_fromObserver",
          "type": "address"
        },
        {
          "name": "_toObserver",
          "type": "address"
        },
        {
          "name": "_amount",
          "type": "uint256"
        }
      ],
      "name": "moveStake",
      "outputs": [],
      "payable": false,
      "stateMutability": "nonpayable",
      "type": "function"
    },
    {
      "constant": false,
      "inputs": [
        {
          "name": "_minStake",
          "type": "uint256"
        }
      ],
      "name": "setValidatorMinStake",
      "outputs": [],
      "payable": false,
      "stateMutability": "nonpayable",
      "type": "function"
    },
    {
      "constant": true,
      "inputs": [
        {
          "name": "_who",
          "type": "address"
        }
      ],
      "name": "isValidatorOnPreviousEpoch",
      "outputs": [
        {
          "name": "",
          "type": "bool"
        }
      ],
      "payable": false,
      "stateMutability": "view",
      "type": "function"
    },
    {
      "constant": false,
      "inputs": [],
      "name": "removePool",
      "outputs": [],
      "payable": false,
      "stateMutability": "nonpayable",
      "type": "function"
    },
    {
      "constant": true,
      "inputs": [
        {
          "name": "_pool",
          "type": "address"
        }
      ],
      "name": "stakeAmountTotal",
      "outputs": [
        {
          "name": "",
          "type": "uint256"
        }
      ],
      "payable": false,
      "stateMutability": "view",
      "type": "function"
    },
    {
      "constant": true,
      "inputs": [],
      "name": "blockRewardContract",
      "outputs": [
        {
          "name": "",
          "type": "address"
        }
      ],
      "payable": false,
      "stateMutability": "view",
      "type": "function"
    },
    {
      "constant": true,
      "inputs": [
        {
          "name": "_who",
          "type": "address"
        }
      ],
      "name": "bannedUntil",
      "outputs": [
        {
          "name": "",
          "type": "uint256"
        }
      ],
      "payable": false,
      "stateMutability": "view",
      "type": "function"
    },
    {
      "constant": true,
      "inputs": [
        {
          "name": "_who",
          "type": "address"
        }
      ],
      "name": "poolInactiveIndex",
      "outputs": [
        {
          "name": "",
          "type": "uint256"
        }
      ],
      "payable": false,
      "stateMutability": "view",
      "type": "function"
    },
    {
      "constant": true,
      "inputs": [],
      "name": "STAKING_EPOCH_DURATION",
      "outputs": [
        {
          "name": "",
          "type": "uint256"
        }
      ],
      "payable": false,
      "stateMutability": "view",
      "type": "function"
    },
    {
      "constant": true,
      "inputs": [],
      "name": "getPools",
      "outputs": [
        {
          "name": "",
          "type": "address[]"
        }
      ],
      "payable": false,
      "stateMutability": "view",
      "type": "function"
    },
    {
      "constant": true,
      "inputs": [
        {
          "name": "_observer",
          "type": "address"
        },
        {
          "name": "_staker",
          "type": "address"
        }
      ],
      "name": "maxWithdrawAllowed",
      "outputs": [
        {
          "name": "",
          "type": "uint256"
        }
      ],
      "payable": false,
      "stateMutability": "view",
      "type": "function"
    },
    {
      "constant": true,
      "inputs": [],
      "name": "MAX_VALIDATORS",
      "outputs": [
        {
          "name": "",
          "type": "uint256"
        }
      ],
      "payable": false,
      "stateMutability": "view",
      "type": "function"
    },
    {
      "constant": false,
      "inputs": [],
      "name": "finalizeChange",
      "outputs": [],
      "payable": false,
      "stateMutability": "nonpayable",
      "type": "function"
    },
    {
      "constant": true,
      "inputs": [],
      "name": "stakingEpoch",
      "outputs": [
        {
          "name": "",
          "type": "uint256"
        }
      ],
      "payable": false,
      "stateMutability": "view",
      "type": "function"
    },
    {
      "constant": true,
      "inputs": [],
      "name": "getPreviousValidators",
      "outputs": [
        {
          "name": "",
          "type": "address[]"
        }
      ],
      "payable": false,
      "stateMutability": "view",
      "type": "function"
    },
    {
      "constant": true,
      "inputs": [],
      "name": "erc20TokenContract",
      "outputs": [
        {
          "name": "",
          "type": "address"
        }
      ],
      "payable": false,
      "stateMutability": "view",
      "type": "function"
    },
    {
      "constant": true,
      "inputs": [
        {
          "name": "_validator",
          "type": "address"
        }
      ],
      "name": "isReportValidatorValid",
      "outputs": [
        {
          "name": "",
          "type": "bool"
        }
      ],
      "payable": false,
      "stateMutability": "view",
      "type": "function"
    },
    {
      "constant": false,
      "inputs": [
        {
          "name": "_minStake",
          "type": "uint256"
        }
      ],
      "name": "setStakerMinStake",
      "outputs": [],
      "payable": false,
      "stateMutability": "nonpayable",
      "type": "function"
    },
    {
      "constant": true,
      "inputs": [
        {
          "name": "_validator",
          "type": "address"
        }
      ],
      "name": "validatorIndex",
      "outputs": [
        {
          "name": "",
          "type": "uint256"
        }
      ],
      "payable": false,
      "stateMutability": "view",
      "type": "function"
    },
    {
      "constant": true,
      "inputs": [],
      "name": "getStakerMinStake",
      "outputs": [
        {
          "name": "",
          "type": "uint256"
        }
      ],
      "payable": false,
      "stateMutability": "view",
      "type": "function"
    },
    {
      "constant": true,
      "inputs": [
        {
          "name": "_observer",
          "type": "address"
        },
        {
          "name": "_staker",
          "type": "address"
        }
      ],
      "name": "stakeAmount",
      "outputs": [
        {
          "name": "",
          "type": "uint256"
        }
      ],
      "payable": false,
      "stateMutability": "view",
      "type": "function"
    },
    {
      "constant": true,
      "inputs": [
        {
          "name": "_who",
          "type": "address"
        }
      ],
      "name": "isPoolActive",
      "outputs": [
        {
          "name": "",
          "type": "bool"
        }
      ],
      "payable": false,
      "stateMutability": "view",
      "type": "function"
    },
    {
      "constant": true,
      "inputs": [
        {
          "name": "_validator",
          "type": "address"
        }
      ],
      "name": "isValidatorBanned",
      "outputs": [
        {
          "name": "",
          "type": "bool"
        }
      ],
      "payable": false,
      "stateMutability": "view",
      "type": "function"
    },
    {
      "constant": false,
      "inputs": [
        {
          "name": "_toObserver",
          "type": "address"
        },
        {
          "name": "_amount",
          "type": "uint256"
        }
      ],
      "name": "stake",
      "outputs": [],
      "payable": false,
      "stateMutability": "nonpayable",
      "type": "function"
    },
    {
      "constant": true,
      "inputs": [
        {
          "name": "_who",
          "type": "address"
        }
      ],
      "name": "poolIndex",
      "outputs": [
        {
          "name": "",
          "type": "uint256"
        }
      ],
      "payable": false,
      "stateMutability": "view",
      "type": "function"
    },
    {
      "constant": true,
      "inputs": [
        {
          "name": "_who",
          "type": "address"
        }
      ],
      "name": "doesPoolExist",
      "outputs": [
        {
          "name": "",
          "type": "bool"
        }
      ],
      "payable": false,
      "stateMutability": "view",
      "type": "function"
    },
    {
      "constant": true,
      "inputs": [],
      "name": "getValidators",
      "outputs": [
        {
          "name": "",
          "type": "address[]"
        }
      ],
      "payable": false,
      "stateMutability": "view",
      "type": "function"
    },
    {
      "constant": true,
      "inputs": [],
      "name": "STAKE_UNIT",
      "outputs": [
        {
          "name": "",
          "type": "uint256"
        }
      ],
      "payable": false,
      "stateMutability": "view",
      "type": "function"
    },
    {
      "constant": true,
      "inputs": [],
      "name": "validatorSetApplyBlock",
      "outputs": [
        {
          "name": "",
          "type": "uint256"
        }
      ],
      "payable": false,
      "stateMutability": "view",
      "type": "function"
    },
    {
      "constant": true,
      "inputs": [],
      "name": "STAKE_WITHDRAW_DISALLOW_PERIOD",
      "outputs": [
        {
          "name": "",
          "type": "uint256"
        }
      ],
      "payable": false,
      "stateMutability": "view",
      "type": "function"
    },
    {
      "constant": false,
      "inputs": [
        {
          "name": "_observer",
          "type": "address"
        },
        {
          "name": "_staker",
          "type": "address[]"
        },
        {
          "name": "_stakingEpoch",
          "type": "uint256"
        }
      ],
      "name": "clearStakeHistory",
      "outputs": [],
      "payable": false,
      "stateMutability": "nonpayable",
      "type": "function"
    },
    {
      "constant": true,
      "inputs": [],
      "name": "randomContract",
      "outputs": [
        {
          "name": "",
          "type": "address"
        }
      ],
      "payable": false,
      "stateMutability": "view",
      "type": "function"
    },
    {
      "constant": true,
      "inputs": [
        {
          "name": "_pool",
          "type": "address"
        }
      ],
      "name": "poolStakers",
      "outputs": [
        {
          "name": "",
          "type": "address[]"
        }
      ],
      "payable": false,
      "stateMutability": "view",
      "type": "function"
    },
    {
      "constant": true,
      "inputs": [],
      "name": "changeRequestCount",
      "outputs": [
        {
          "name": "",
          "type": "uint256"
        }
      ],
      "payable": false,
      "stateMutability": "view",
      "type": "function"
    },
    {
      "constant": true,
      "inputs": [],
      "name": "getValidatorMinStake",
      "outputs": [
        {
          "name": "",
          "type": "uint256"
        }
      ],
      "payable": false,
      "stateMutability": "view",
      "type": "function"
    },
    {
      "constant": true,
      "inputs": [],
      "name": "getPoolsInactive",
      "outputs": [
        {
          "name": "",
          "type": "address[]"
        }
      ],
      "payable": false,
      "stateMutability": "view",
      "type": "function"
    },
    {
      "constant": true,
      "inputs": [],
      "name": "MAX_OBSERVERS",
      "outputs": [
        {
          "name": "",
          "type": "uint256"
        }
      ],
      "payable": false,
      "stateMutability": "view",
      "type": "function"
    },
    {
      "constant": true,
      "inputs": [],
      "name": "getPendingValidators",
      "outputs": [
        {
          "name": "",
          "type": "address[]"
        }
      ],
      "payable": false,
      "stateMutability": "view",
      "type": "function"
    },
    {
      "constant": false,
      "inputs": [
        {
          "name": "_fromObserver",
          "type": "address"
        },
        {
          "name": "_amount",
          "type": "uint256"
        }
      ],
      "name": "withdraw",
      "outputs": [],
      "payable": false,
      "stateMutability": "nonpayable",
      "type": "function"
    },
    {
      "constant": true,
      "inputs": [
        {
          "name": "_who",
          "type": "address"
        }
      ],
      "name": "isValidator",
      "outputs": [
        {
          "name": "",
          "type": "bool"
        }
      ],
      "payable": false,
      "stateMutability": "view",
      "type": "function"
    },
    {
      "anonymous": false,
      "inputs": [
        {
          "indexed": false,
          "name": "reportingValidator",
          "type": "address"
        },
        {
          "indexed": false,
          "name": "maliciousValidator",
          "type": "address"
        },
        {
          "indexed": false,
          "name": "blockNumber",
          "type": "uint256"
        }
      ],
      "name": "ReportedMalicious",
      "type": "event"
    },
    {
      "anonymous": false,
      "inputs": [
        {
          "indexed": true,
          "name": "toObserver",
          "type": "address"
        },
        {
          "indexed": true,
          "name": "staker",
          "type": "address"
        },
        {
          "indexed": true,
          "name": "stakingEpoch",
          "type": "uint256"
        },
        {
          "indexed": false,
          "name": "amount",
          "type": "uint256"
        }
      ],
      "name": "Staked",
      "type": "event"
    },
    {
      "anonymous": false,
      "inputs": [
        {
          "indexed": false,
          "name": "fromObserver",
          "type": "address"
        },
        {
          "indexed": true,
          "name": "toObserver",
          "type": "address"
        },
        {
          "indexed": true,
          "name": "staker",
          "type": "address"
        },
        {
          "indexed": true,
          "name": "stakingEpoch",
          "type": "uint256"
        },
        {
          "indexed": false,
          "name": "amount",
          "type": "uint256"
        }
      ],
      "name": "StakeMoved",
      "type": "event"
    },
    {
      "anonymous": false,
      "inputs": [
        {
          "indexed": true,
          "name": "fromObserver",
          "type": "address"
        },
        {
          "indexed": true,
          "name": "staker",
          "type": "address"
        },
        {
          "indexed": true,
          "name": "stakingEpoch",
          "type": "uint256"
        },
        {
          "indexed": false,
          "name": "amount",
          "type": "uint256"
        }
      ],
      "name": "Withdrawn",
      "type": "event"
    },
    {
      "constant": false,
      "inputs": [
        {
          "name": "_amount",
          "type": "uint256"
        }
      ],
      "name": "addPool",
      "outputs": [],
      "payable": false,
      "stateMutability": "nonpayable",
      "type": "function"
    },
    {
      "constant": false,
      "inputs": [
        {
          "name": "_blockRewardContract",
          "type": "address"
        },
        {
          "name": "_randomContract",
          "type": "address"
        },
        {
          "name": "_erc20TokenContract",
          "type": "address"
        },
        {
          "name": "_initialValidators",
          "type": "address[]"
        },
        {
          "name": "_stakerMinStake",
          "type": "uint256"
        },
        {
          "name": "_validatorMinStake",
          "type": "uint256"
        }
      ],
      "name": "initialize",
      "outputs": [],
      "payable": false,
      "stateMutability": "nonpayable",
      "type": "function"
    },
    {
      "constant": false,
      "inputs": [],
      "name": "newValidatorSet",
      "outputs": [],
      "payable": false,
      "stateMutability": "nonpayable",
      "type": "function"
    },
    {
      "constant": false,
      "inputs": [
        {
          "name": "_validator",
          "type": "address"
        }
      ],
      "name": "removeMaliciousValidator",
      "outputs": [],
      "payable": false,
      "stateMutability": "nonpayable",
      "type": "function"
    },
    {
      "constant": false,
      "inputs": [
        {
          "name": "",
          "type": "address"
        },
        {
          "name": "",
          "type": "uint256"
        }
      ],
      "name": "reportBenign",
      "outputs": [],
      "payable": false,
      "stateMutability": "nonpayable",
      "type": "function"
    },
    {
      "constant": false,
      "inputs": [
        {
          "name": "_maliciousValidator",
          "type": "address"
        },
        {
          "name": "_blockNumber",
          "type": "uint256"
        },
        {
          "name": "",
          "type": "bytes"
        }
      ],
      "name": "reportMalicious",
      "outputs": [],
      "payable": false,
      "stateMutability": "nonpayable",
      "type": "function"
    },
    {
      "constant": true,
      "inputs": [
        {
          "name": "_validator",
          "type": "address"
        },
        {
          "name": "_blockNumber",
          "type": "uint256"
        }
      ],
      "name": "maliceReportedForBlock",
      "outputs": [
        {
          "name": "",
          "type": "address[]"
        }
      ],
      "payable": false,
      "stateMutability": "view",
      "type": "function"
    },
    {
      "constant": true,
      "inputs": [],
      "name": "stakingEpochStartBlock",
      "outputs": [
        {
          "name": "",
          "type": "uint256"
        }
      ],
      "payable": false,
      "stateMutability": "view",
      "type": "function"
    }
  ],
  "bytecode": "0x608060405234801561001057600080fd5b5061392b806100206000396000f3fe608060405234801561001057600080fd5b50600436106102f55760003560e060020a900480639601ddf9116101a1578063ba483f13116100ed578063d69f13bb116100a6578063ec120a0011610080578063ec120a00146109be578063eebc7a39146109c6578063f3fef3a3146109ce578063facd743b146109fa576102f5565b8063d69f13bb14610982578063dad9ebfd146109ae578063df6f55f5146109b6576102f5565b8063ba483f131461080a578063c3ff9be014610812578063c476dd40146108c7578063ccf69e9b1461094c578063cddb3e7b14610954578063d20777821461097a576102f5565b8063b42754a51161015a578063b604421511610134578063b6044215146107cc578063b7ab4db5146107f2578063b8cad1e5146107fa578063b927ef4314610802576102f5565b8063b42754a5146106e3578063b4fcda1314610709578063b56b366b146107a0576102f5565b80639601ddf91461060f578063a15248fd14610635578063a697ecff1461063d578063a711e6a11461066b578063a92252ae14610691578063adc9772e146106b7576102f5565b80636511391811610260578063752862111161021957806385602ad5116101f357806385602ad5146105bc578063856e8488146105c457806387eed76a146105cc5780638a1422dd146105f2576102f5565b8063752862111461058f5780637769ea0a14610597578063794c0c68146105b4576102f5565b806365113918146104cb5780636579e131146104f1578063673a2a1f146104f95780636bda1577146105515780637069e7461461057f578063714897df14610587576102f5565b8063317ec08b116102b2578063317ec08b1461042557806340deca991461044b5780635267e1d61461045357806356b54bae146104795780635836d08a1461049d5780635ccee1de146104c3576102f5565b806301d0132e146102fa5780630cba33df1461033a5780632405effa14610370578063251441a914610398578063293ba15c146103ce5780632d7416a5146103eb575b600080fd5b6103286004803603604081101561031057600080fd5b50600160a060020a0381358116916020013516610a20565b60408051918252519081900360200190f35b6103286004803603606081101561035057600080fd5b50600160a060020a03813581169160208101359091169060400135610a95565b6103966004803603602081101561038657600080fd5b5035600160a060020a0316610b0a565b005b610396600480360360608110156103ae57600080fd5b50600160a060020a03813581169160208101359091169060400135610bd1565b610396600480360360208110156103e457600080fd5b5035610c5a565b6104116004803603602081101561040157600080fd5b5035600160a060020a0316610cba565b604080519115158252519081900360200190f35b6103966004803603602081101561043b57600080fd5b5035600160a060020a0316610d24565b610396610d49565b6103286004803603602081101561046957600080fd5b5035600160a060020a0316610d77565b610481610ddb565b60408051600160a060020a039092168252519081900360200190f35b610328600480360360208110156104b357600080fd5b5035600160a060020a0316610e26565b610396610e8a565b610328600480360360208110156104e157600080fd5b5035600160a060020a0316610eca565b610328610f2e565b610501610f35565b60408051602080825283518183015283519192839290830191858101910280838360005b8381101561053d578181015183820152602001610525565b505050509050019250505060405180910390f35b6103286004803603604081101561056757600080fd5b50600160a060020a0381358116916020013516610fce565b61032861109d565b6103286110de565b6103966110e3565b610396600480360360208110156105ad57600080fd5b5035611230565b61032861123a565b61050161127b565b610481611312565b610411600480360360208110156105e257600080fd5b5035600160a060020a031661135c565b6103966004803603602081101561060857600080fd5b50356113e3565b6103286004803603602081101561062557600080fd5b5035600160a060020a0316611440565b6103286114a4565b6103286004803603604081101561065357600080fd5b50600160a060020a03813581169160200135166114e5565b6104116004803603602081101561068157600080fd5b5035600160a060020a0316611558565b610411600480360360208110156106a757600080fd5b5035600160a060020a03166115bf565b610396600480360360408110156106cd57600080fd5b50600160a060020a0381351690602001356115d2565b610328600480360360208110156106f957600080fd5b5035600160a060020a03166116d3565b610396600480360360c081101561071f57600080fd5b600160a060020a038235811692602081013582169260408201359092169181019060808101606082013564010000000081111561075b57600080fd5b82018360208201111561076d57600080fd5b8035906020019184602083028401116401000000008311171561078f57600080fd5b919350915080359060200135611737565b610501600480360360408110156107b657600080fd5b50600160a060020a03813516906020013561178c565b610411600480360360208110156107e257600080fd5b5035600160a060020a0316611853565b61050161185e565b6103286118f5565b610328611901565b610328611942565b6103966004803603606081101561082857600080fd5b600160a060020a03823516919081019060408101602082013564010000000081111561085357600080fd5b82018360208201111561086557600080fd5b8035906020019184602083028401116401000000008311171561088757600080fd5b9190808060200260200160405190810160405280939291908181526020018383602002808284376000920191909152509295505091359250611948915050565b610396600480360360608110156108dd57600080fd5b600160a060020a038235169160208101359181019060608101604082013564010000000081111561090d57600080fd5b82018360208201111561091f57600080fd5b8035906020019184600183028401116401000000008311171561094157600080fd5b5090925090506119bf565b610481611b55565b6105016004803603602081101561096a57600080fd5b5035600160a060020a0316611b9f565b610328611c5c565b6103966004803603604081101561099857600080fd5b50600160a060020a038135169060200135611c9d565b610328611ca1565b610501611ce2565b610328611d79565b610501611d7f565b610396600480360360408110156109e457600080fd5b50600160a060020a038135169060200135611e04565b61041160048036036020811015610a1057600080fd5b5035600160a060020a0316611f05565b604080517f706f6f6c5374616b6572496e6465780000000000000000000000000000000000602080830191909152600160a060020a0380861683850152841660608084019190915283518084039091018152608090920183528151918101919091206000908152600290915220545b92915050565b604080517f7374616b65416d6f756e74427945706f63680000000000000000000000000000602080830191909152600160a060020a03958616828401529390941660608501526080808501929092528051808503909201825260a0909301835280519082012060009081526002909152205490565b604080517f6f776e65720000000000000000000000000000000000000000000000000000008152815190819003600501902060009081526004602052205433600160a060020a0390911614610b5e57600080fd5b600160a060020a0381161515610b7357600080fd5b604080517f6572633230546f6b656e436f6e747261637400000000000000000000000000008152815190819003601201902060009081526004602052208054600160a060020a03909216600160a060020a0319909216919091179055565b600160a060020a038381169083161415610bea57600080fd5b33610bf6848284611f6c565b610c018382846120b9565b610c0961123a565b60408051600160a060020a03878116825260208201869052825181861693918816927f1a14670c744779696fb19a86df048997040940566ed12a1dd1c26dc9a4c5a04e92908290030190a450505050565b604080517f6f776e65720000000000000000000000000000000000000000000000000000008152815190819003600501902060009081526004602052205433600160a060020a0390911614610cae57600080fd5b610cb7816121e8565b50565b604080517f697356616c696461746f724f6e50726576696f757345706f6368000000000000602080830191909152600160a060020a038416828401528251808303840181526060909201835281519181019190912060009081526006909152205460ff165b919050565b610d2c611b55565b600160a060020a03163314610d4057600080fd5b610cb781612236565b610d5161123a565b158015610d625750610d6233611f05565b15610d6c57600080fd5b610d753361225f565b565b604080517f7374616b65416d6f756e74546f74616c00000000000000000000000000000000602080830191909152600160a060020a039390931681830152815180820383018152606090910182528051908301206000908152600290925290205490565b604080517f626c6f636b526577617264436f6e74726163740000000000000000000000000081528151908190036013019020600090815260046020522054600160a060020a03165b90565b604080517f62616e6e6564556e74696c000000000000000000000000000000000000000000602080830191909152600160a060020a039390931681830152815180820383018152606090910182528051908301206000908152600290925290205490565b610e92610ddb565b600160a060020a03163314610ea657600080fd5b610eae6123b4565b1515610eb957610d75565b610ec16123d9565b610d754361273b565b604080517f706f6f6c496e616374697665496e646578000000000000000000000000000000602080830191909152600160a060020a039390931681830152815180820383018152606090910182528051908301206000908152600290925290205490565b6201d88081565b604080517f706f6f6c73000000000000000000000000000000000000000000000000000000815281519081900360050181206000908152600b6020908152908390208054808302840183019094528383526060939091830182828015610fc457602002820191906000526020600020905b8154600160a060020a03168152600190910190602001808311610fa6575b5050505050905090565b600080610fda84611f05565b905083600160a060020a031683600160a060020a0316148015610ffa5750805b15611009576000915050610a8f565b611012846115bf565b15611021576000915050610a8f565b61102961277b565b1515611039576000915050610a8f565b8015156110525761104a84846114e5565b915050610a8f565b61105b84610cba565b156110905761104a6110868585611081600161107561123a565b9063ffffffff6127bd16565b610a95565b61107586866114e5565b61104a848461108161123a565b604080517f7374616b696e6745706f63685374617274426c6f636b000000000000000000008152815190819003601601902060009081526002602052205490565b601481565b73fffffffffffffffffffffffffffffffffffffffe331461110357600080fd5b61110b61123a565b151561111657610d75565b61111e611901565b151561122857606061112e61127b565b9050606061113a61185e565b905060005b82518110156111725761116a838281518110151561115957fe5b9060200190602002015160006127d2565b60010161113f565b5060005b81518110156111a9576111a1828281518110151561119057fe5b9060200190602002015160016127d2565b600101611176565b6111b282612844565b6111ba612893565b6111c343612962565b6111cb610ddb565b600160a060020a03166338a0fdde6040518163ffffffff1660e060020a028152600401600060405180830381600087803b15801561120857600080fd5b505af115801561121c573d6000803e3d6000fd5b50505050505050610d75565b610d75612893565b610cb733826115d2565b604080517f7374616b696e6745706f636800000000000000000000000000000000000000008152815190819003600c01902060009081526002602052205490565b604080517f70726576696f757356616c696461746f72730000000000000000000000000000815281519081900360120181206000908152600b6020908152908390208054808302840183019094528383526060939091830182828015610fc457602002820191906000526020600020908154600160a060020a03168152600190910190602001808311610fa6575050505050905090565b604080517f6572633230546f6b656e436f6e7472616374000000000000000000000000000081528151908190036012019020600090815260046020522054600160a060020a031690565b60008061136883611f05565b801561137a5750611378836115bf565b155b905061138461123a565b15806113955750611393611901565b155b156113a1579050610d1f565b60036113ab611901565b430311610a8f5760006113bd84610cba565b80156113cf57506113cd846115bf565b155b905081806113da5750805b92505050610d1f565b604080517f6f776e65720000000000000000000000000000000000000000000000000000008152815190819003600501902060009081526004602052205433600160a060020a039091161461143757600080fd5b610cb7816129a2565b604080517f76616c696461746f72496e646578000000000000000000000000000000000000602080830191909152600160a060020a039390931681830152815180820383018152606090910182528051908301206000908152600290925290205490565b604080517f7374616b65724d696e5374616b650000000000000000000000000000000000008152815190819003600e01902060009081526002602052205490565b604080517f7374616b65416d6f756e74000000000000000000000000000000000000000000602080830191909152600160a060020a039485168284015292909316606080850191909152815180850390910181526080909301815282519282019290922060009081526002909152205490565b604080517f6973506f6f6c4163746976650000000000000000000000000000000000000000602080830191909152600160a060020a039390931681830152815180820383018152606090910182528051908301206000908152600690925290205460ff1690565b60006115ca82610e26565b421092915050565b60006115dc611312565b9050600160a060020a03811615156115f357600080fd5b336115ff8482856120b9565b81600160a060020a031663adc9772e82856040518363ffffffff1660e060020a0281526004018083600160a060020a0316600160a060020a0316815260200182815260200192505050600060405180830381600087803b15801561166257600080fd5b505af1158015611676573d6000803e3d6000fd5b5050505061168261123a565b81600160a060020a031685600160a060020a03167f6c86f3fd5118b3aa8bb4f389a617046de0a3d3d477de1a1673d227f802f616dc866040518082815260200191505060405180910390a450505050565b604080517f706f6f6c496e6465780000000000000000000000000000000000000000000000602080830191909152600160a060020a039390931681830152815180820383018152606090910182528051908301206000908152600290925290205490565b61177a8787878787808060200260200160405190810160405280939291908181526020018383602002808284376000920191909152508992508891506129f09050565b6117834361273b565b50505050505050565b604080517f6d616c6963655265706f72746564466f72426c6f636b00000000000000000000602080830191909152600160a060020a038516828401526060828101859052835180840382018152608084018086528151918401919091206000908152600b8452859020805460a0948102860185019096528582529194909391929091018282801561184657602002820191906000526020600020905b8154600160a060020a03168152600190910190602001808311611828575b5050505050905092915050565b6000610a8f82611558565b604080517f63757272656e7456616c696461746f7273000000000000000000000000000000815281519081900360110181206000908152600b6020908152908390208054808302840183019094528383526060939091830182828015610fc457602002820191906000526020600020908154600160a060020a03168152600190910190602001808311610fa6575050505050905090565b670de0b6b3a764000081565b604080517f76616c696461746f725365744170706c79426c6f636b000000000000000000008152815190819003601601902060009081526002602052205490565b6110e081565b73fffffffffffffffffffffffffffffffffffffffe331461196857600080fd5b611975600261107561123a565b81111561198157600080fd5b60005b82518110156119b9576119b184848381518110151561199f57fe5b90602001906020020151846000612cac565b600101611984565b50505050565b336119c98561135c565b15156119d457600080fd5b438411156119e157600080fd5b6119ea8161135c565b15156119f557600080fd5b604080517f6d616c6963655265706f72746564466f72426c6f636b00000000000000000000602080830191909152600160a060020a03881682840152606080830188905283518084039091018152608090920183528151918101919091206000908152600b909152908120905b8154811015611aab5782600160a060020a03168282815481101515611a8357fe5b600091825260209091200154600160a060020a03161415611aa357600080fd5b600101611a62565b50805460018101825560008281526020908190209091018054600160a060020a03808616600160a060020a031990921682179092556040805191825291891692810192909252818101879052517f729a19138e072a5a8d3a56d74ae0b5c84530f09aacd6e12b24c5b2fdc3f8a3d09181900360600190a1611b2a61185e565b518154611b3e90600263ffffffff612d2416565b1115611b4d57611b4d86612236565b505050505050565b604080517f72616e646f6d436f6e74726163740000000000000000000000000000000000008152815190819003600e019020600090815260046020522054600160a060020a031690565b604080517f706f6f6c5374616b657273000000000000000000000000000000000000000000602080830191909152600160a060020a0384168284015282518083038401815260608381018086528251928401929092206000908152600b845285902080546080948102860185019096528583529094919390920182828015611c5057602002820191906000526020600020905b8154600160a060020a03168152600190910190602001808311611c32575b50505050509050919050565b604080517f6368616e676552657175657374436f756e7400000000000000000000000000008152815190819003601201902060009081526002602052205490565b5050565b604080517f76616c696461746f724d696e5374616b650000000000000000000000000000008152815190819003601101902060009081526002602052205490565b604080517f706f6f6c73496e616374697665000000000000000000000000000000000000008152815190819003600d0181206000908152600b6020908152908390208054808302840183019094528383526060939091830182828015610fc457602002820191906000526020600020908154600160a060020a03168152600190910190602001808311610fa6575050505050905090565b6107d081565b604080516000805160206138e0833981519152815281519081900360110181206000908152600b6020908152908390208054808302840183019094528383526060939091830182828015610fc457602002820191906000526020600020908154600160a060020a03168152600190910190602001808311610fa6575050505050905090565b6000611e0e611312565b9050600160a060020a0381161515611e2557600080fd5b33611e31848285611f6c565b81600160a060020a031663f3fef3a382856040518363ffffffff1660e060020a0281526004018083600160a060020a0316600160a060020a0316815260200182815260200192505050600060405180830381600087803b158015611e9457600080fd5b505af1158015611ea8573d6000803e3d6000fd5b50505050611eb461123a565b81600160a060020a031685600160a060020a03167f91fb9d98b786c57d74c099ccd2beca1739e9f6a81fb49001ca465c4b7591bbe2866040518082815260200191505060405180910390a450505050565b604080517f697356616c696461746f72000000000000000000000000000000000000000000602080830191909152600160a060020a039390931681830152815180820383018152606090910182528051908301206000908152600690925290205460ff1690565b600160a060020a0383161515611f8157600080fd5b801515611f8d57600080fd5b611f978383610fce565b811115611fa357600080fd5b6000611fad61123a565b90506000611fbf8361107587876114e5565b905060008111156120115784600160a060020a031684600160a060020a03161415611ffd57611fec611ca1565b811015611ff857600080fd5b612011565b6120056114a4565b81101561201157600080fd5b61201c858583612d56565b6000612029868685610a95565b905080841161204557612040868685878503612cac565b612052565b6120528686856000612cac565b61206886612063866110758a610d77565b612dc9565b811515611b4d5785600160a060020a031685600160a060020a03161415612097576120928661225f565b6120a1565b6120a18686612e2c565b6120aa86610d77565b1515611b4d57611b4d86612f4c565b600160a060020a03831615156120ce57600080fd5b8015156120da57600080fd5b6120e3836115bf565b156120ed57600080fd5b6120f561277b565b151561210057600080fd5b600061210a61123a565b905060006121288361211c87876114e5565b9063ffffffff61307816565b905084600160a060020a031684600160a060020a0316141561215d5761214c611ca1565b81101561215857600080fd5b612171565b6121656114a4565b81101561217157600080fd5b61217c858583612d56565b6121968585846121918761211c8b8b8a610a95565b612cac565b6121a7856120638561211c89610d77565b84600160a060020a031684600160a060020a031614156121cf576121ca8561308a565b6121e1565b828114156121e1576121e18585613134565b5050505050565b604080517f76616c696461746f724d696e5374616b65000000000000000000000000000000815281519081900360110190206000908152600260205220670de0b6b3a7640000919091029055565b61223f816115bf565b1561224957610cb7565b612252816131d7565b15610cb757610cb76132fb565b600061226a826116d3565b604080517f706f6f6c73000000000000000000000000000000000000000000000000000000815281519081900360050190206000908152600b60205220805491925090600160a060020a038416908290849081106122c457fe5b600091825260209091200154600160a060020a031614156123af578054819060001981019081106122f157fe5b6000918252602090912001548154600160a060020a039091169082908490811061231757fe5b9060005260206000200160006101000a815481600160a060020a030219169083600160a060020a03160217905550612371818381548110151561235657fe5b600091825260209091200154600160a060020a031683613341565b8054612381826000198301613818565b5061238d836000613341565b6123988360006133a4565b6123a183610d77565b156123af576123af83613416565b505050565b60006201d87f6123d26123c561109d565b439063ffffffff6127bd16565b1015905090565b60606123e3610f35565b9050600081511115156123f557600080fd5b805160141061240c57612407816134c9565b612721565b6060612416611b55565b600160a060020a03166350b0021c6040518163ffffffff1660e060020a02815260040160006040518083038186803b15801561245157600080fd5b505afa158015612465573d6000803e3d6000fd5b505050506040513d6000823e601f3d908101601f19168201604052602081101561248e57600080fd5b8101908080516401000000008111156124a657600080fd5b820160208101848111156124b957600080fd5b81518560208202830111640100000000821117156124d657600080fd5b5050805190945060141492506124ee91505057600080fd5b815160408051828152602080840282010190915283919060609082801561251f578160200160208202803883390190505b506040805160148082526102a082019092529192506060919060208201610280803883390190505090506000805b848110156125e95761259e670de0b6b3a764000061259260646125868a8681518110151561257757fe5b90602001906020020151610d77565b9063ffffffff612d2416565b9063ffffffff61350616565b84828151811015156125ac57fe5b6020908102909101015283516125df908590839081106125c857fe5b60209081029091010151839063ffffffff61307816565b915060010161254d565b5060005b601481101561271057600061263985848a8581518110151561260b57fe5b602090810290910181015160408051808401929092528051808303840181529181019052805191012061352a565b9050868181518110151561264957fe5b90602001906020020151848381518110151561266157fe5b600160a060020a03909216602092830290910190910152845185908290811061268657fe5b602090810290910101518751600019909701969303928790879081106126a857fe5b9060200190602002015187828151811015156126c057fe5b600160a060020a0390921660209283029091019091015284518590879081106126e557fe5b9060200190602002015185828151811015156126fd57fe5b60209081029091010152506001016125ed565b612719836134c9565b505050505050505b6127296132fb565b612731613575565b610cb76000612962565b604080517f7374616b696e6745706f63685374617274426c6f636b0000000000000000000081528151908190036016019020600090815260026020522055565b60006201c7a08161278a611901565b90506000811580159061279c57508143115b90508080156127b55750826127b26123c561109d565b11155b935050505090565b6000828211156127cc57600080fd5b50900390565b604080517f697356616c696461746f724f6e50726576696f757345706f6368000000000000602080830191909152600160a060020a0394909416818301528151808203830181526060909101825280519084012060009081526006909352909120805460ff1916911515919091179055565b604080517f70726576696f757356616c696461746f72730000000000000000000000000000815281519081900360120190206000908152600b60209081529190208251611c9d9284019061383c565b606061289d61185e565b905060005b81518110156128f7576128cd82828151811015156128bc57fe5b9060200190602002015160006135bb565b6128ef82828151811015156128de57fe5b90602001906020020151600061361e565b6001016128a2565b6128ff611d7f565b915061290a82613690565b5060005b8151811015611c9d57612938828281518110151561292857fe5b90602001906020020151826135bb565b61295a828281518110151561294957fe5b90602001906020020151600161361e565b60010161290e565b604080517f76616c696461746f725365744170706c79426c6f636b0000000000000000000081528151908190036016019020600090815260026020522055565b604080517f7374616b65724d696e5374616b650000000000000000000000000000000000008152815190819003600e0190206000908152600260205220670de0b6b3a7640000919091029055565b600160a060020a0386161515612a0557600080fd5b600160a060020a0385161515612a1a57600080fd5b8251600010612a2857600080fd5b811515612a3457600080fd5b801515612a4057600080fd5b604080517f626c6f636b526577617264436f6e747261637400000000000000000000000000815281519081900360130181206000908152600460208181528483208054600160a060020a03808e16600160a060020a0319928316179092557f72616e646f6d436f6e74726163740000000000000000000000000000000000008652865195869003600e018620855283835286852080548d84169083161790557f6572633230546f6b656e436f6e747261637400000000000000000000000000008652865195869003601201862085529282528584208054918b1691909316179091557f63757272656e7456616c696461746f72730000000000000000000000000000008352835192839003601190810184208352600b8083528584206000805160206138e083398151915286528651958690039092019094208352929052919091204315612b8d57600080fd5b815415612b9957600080fd5b60005b8551811015612c8557828682815181101515612bb457fe5b6020908102919091018101518254600181018455600093845291909220018054600160a060020a031916600160a060020a0390921691909117905585518290879083908110612bff57fe5b6020908102919091018101518254600181018455600093845291909220018054600160a060020a031916600160a060020a039092169190911790558551612c4c9087908390811061292857fe5b612c5d868281518110151561294957fe5b612c7d8682815181101515612c6e57fe5b9060200190602002015161308a565b600101612b9c565b50612c8f846129a2565b612c98836121e8565b612ca26001612962565b5050505050505050565b604080517f7374616b65416d6f756e74427945706f63680000000000000000000000000000602080830191909152600160a060020a03968716828401529590941660608501526080808501939093528051808503909301835260a0909301835281519184019190912060009081526002909352912055565b6000821515612d3557506000610a8f565b828202828482811515612d4457fe5b0414612d4f57600080fd5b9392505050565b604080517f7374616b65416d6f756e74000000000000000000000000000000000000000000602080830191909152600160a060020a039586168284015294909316606080850191909152815180850390910181526080909301815282519284019290922060009081526002909352912055565b604080517f7374616b65416d6f756e74546f74616c00000000000000000000000000000000602080830191909152600160a060020a0390941681830152815180820383018152606090910182528051908401206000908152600290935290912055565b604080517f706f6f6c5374616b657273000000000000000000000000000000000000000000602080830191909152600160a060020a03851682840152825180830384018152606090920183528151918101919091206000908152600b90915290812090612e998484610a20565b825490915082906000198101908110612eae57fe5b6000918252602090912001548254600160a060020a0390911690839083908110612ed457fe5b9060005260206000200160006101000a815481600160a060020a030219169083600160a060020a03160217905550612f2f848383815481101515612f1457fe5b600091825260209091200154600160a060020a0316836136df565b8154612f3f836000198301613818565b506119b9848460006136df565b604080517f706f6f6c73496e616374697665000000000000000000000000000000000000008152815190819003600d0190206000908152600b60205290812090612f9583610eca565b905082600160a060020a03168282815481101515612faf57fe5b600091825260209091200154600160a060020a031614156123af57815482906000198101908110612fdc57fe5b6000918252602090912001548254600160a060020a039091169083908390811061300257fe5b9060005260206000200160006101000a815481600160a060020a030219169083600160a060020a0316021790555061305c828281548110151561304157fe5b600091825260209091200154600160a060020a031682613752565b815461306c836000198301613818565b506123af836000613752565b600082820183811015612d4f57600080fd5b61309381611853565b151561312b57604080517f706f6f6c73000000000000000000000000000000000000000000000000000000815281519081900360050190206000908152600b6020522080546130e3908390613341565b8054600181018255600082815260209020018054600160a060020a031916600160a060020a03841617905580546107d0101561311e57600080fd5b6131298260016133a4565b505b610cb781612f4c565b604080517f706f6f6c5374616b657273000000000000000000000000000000000000000000602080830191909152600160a060020a03851682840152825180830384018152606090920183528151918101919091206000908152600b9091522080546131a390849084906136df565b805460018101825560009182526020909120018054600160a060020a031916600160a060020a039290921691909117905550565b60006131e28261225f565b6131f182426276a700016137b5565b604080516000805160206138e0833981519152815281519081900360110190206000908152600b60205290812090805b825481101561326e5784600160a060020a0316838281548110151561324257fe5b600091825260209091200154600160a060020a03161415613266576001915061326e565b600101613221565b81156132f05782548390600019016132868282613818565b8154811061329057fe5b6000918252602090912001548354600160a060020a03909116908490839081106132b657fe5b9060005260206000200160006101000a815481600160a060020a030219169083600160a060020a0316021790555060019350505050610d1f565b506000949350505050565b604080517f6368616e676552657175657374436f756e74000000000000000000000000000081528151908190036012019020600090815260026020522080546001019055565b604080517f706f6f6c496e6465780000000000000000000000000000000000000000000000602080830191909152600160a060020a0390941681830152815180820383018152606090910182528051908401206000908152600290935290912055565b604080517f6973506f6f6c4163746976650000000000000000000000000000000000000000602080830191909152600160a060020a0394909416818301528151808203830181526060909101825280519084012060009081526006909352909120805460ff1916911515919091179055565b604080517f706f6f6c73496e616374697665000000000000000000000000000000000000008152815190819003600d0190206000908152600b60205220600160a060020a0382168161346784610eca565b8154811061347157fe5b600091825260209091200154600160a060020a031614611c9d578054613498908390613752565b8054600181018255600082815260209020018054600160a060020a038416600160a060020a03199091161790555050565b604080516000805160206138e0833981519152815281519081900360110190206000908152600b60209081529190208251611c9d9284019061383c565b600080821161351457600080fd5b6000828481151561352157fe5b04949350505050565b600080838381151561353857fe5b0660010190506000195b858160010191508181518110151561355657fe5b6020908102909101015190910390600082136135425795945050505050565b604080517f7374616b696e6745706f636800000000000000000000000000000000000000008152815190819003600c019020600090815260026020522080546001019055565b604080517f76616c696461746f72496e646578000000000000000000000000000000000000602080830191909152600160a060020a0390941681830152815180820383018152606090910182528051908401206000908152600290935290912055565b604080517f697356616c696461746f72000000000000000000000000000000000000000000602080830191909152600160a060020a0394909416818301528151808203830181526060909101825280519084012060009081526006909352909120805460ff1916911515919091179055565b604080517f63757272656e7456616c696461746f7273000000000000000000000000000000815281519081900360110190206000908152600b60209081529190208251611c9d9284019061383c565b604080517f706f6f6c5374616b6572496e6465780000000000000000000000000000000000602080830191909152600160a060020a039586168284015294909316606080850191909152815180850390910181526080909301815282519284019290922060009081526002909352912055565b604080517f706f6f6c496e616374697665496e646578000000000000000000000000000000602080830191909152600160a060020a0390941681830152815180820383018152606090910182528051908401206000908152600290935290912055565b604080517f62616e6e6564556e74696c000000000000000000000000000000000000000000602080830191909152600160a060020a0390941681830152815180820383018152606090910182528051908401206000908152600290935290912055565b8154818355818111156123af576000838152602090206123af9181019083016138a1565b828054828255906000526020600020908101928215613891579160200282015b828111156138915782518254600160a060020a031916600160a060020a0390911617825560209092019160019091019061385c565b5061389d9291506138bb565b5090565b610e2391905b8082111561389d57600081556001016138a7565b610e2391905b8082111561389d578054600160a060020a03191681556001016138c156fe70656e64696e6756616c696461746f7273000000000000000000000000000000a165627a7a72305820daf52d711bfeef6cad523bbc358ebb2d6acd27489e0bce0f7f9ef5265701e5c50029",
  "source": "pragma solidity 0.5.2;\n\nimport \"./abstracts/ValidatorSetBase.sol\";\n\n\ncontract ValidatorSetAuRa is ValidatorSetBase {\n\n    // TODO: add a description for each function\n\n    // ============================================== Constants =======================================================\n\n    uint256 public constant STAKING_EPOCH_DURATION = 120960; // 1 week in blocks (5 seconds per block)\n    uint256 public constant STAKE_WITHDRAW_DISALLOW_PERIOD = 4320; // 6 hours in blocks (staking epoch last blocks)\n\n    // ================================================ Events ========================================================\n\n    event ReportedMalicious(address reportingValidator, address maliciousValidator, uint256 blockNumber);\n\n    // ============================================== Modifiers =======================================================\n\n    modifier onlyBlockRewardContract() {\n        require(msg.sender == address(blockRewardContract()));\n        _;\n    }\n\n    modifier onlyRandomContract() {\n        require(msg.sender == address(randomContract()));\n        _;\n    }\n\n    // =============================================== Setters ========================================================\n\n    function addPool(uint256 _amount) external {\n        stake(msg.sender, _amount);\n    }\n\n    /// Creates an initial set of validators at the start of the network.\n    /// Must be called by the constructor of `Initializer` contract on genesis block.\n    /// This is used instead of `constructor()` because this contract is upgradable.\n    function initialize(\n        address _blockRewardContract,\n        address _randomContract,\n        address _erc20TokenContract,\n        address[] calldata _initialValidators,\n        uint256 _stakerMinStake,\n        uint256 _validatorMinStake\n    ) external {\n        super._initialize(\n            _blockRewardContract,\n            _randomContract,\n            _erc20TokenContract,\n            _initialValidators,\n            _stakerMinStake,\n            _validatorMinStake\n        );\n        _setStakingEpochStartBlock(block.number);\n    }\n\n    function newValidatorSet() external onlyBlockRewardContract {\n        if (!_newValidatorSetCallable()) return;\n        super._newValidatorSet();\n        _setStakingEpochStartBlock(block.number);\n    }\n\n    function removeMaliciousValidator(address _validator) external onlyRandomContract {\n        _removeMaliciousValidatorAuRa(_validator);\n    }\n\n    // solhint-disable no-empty-blocks\n    function reportBenign(address, uint256) external {\n        // does nothing\n    }\n    // solhint-enable no-empty-blocks\n\n    function reportMalicious(address _maliciousValidator, uint256 _blockNumber, bytes calldata) external {\n        address reportingValidator = msg.sender;\n\n        require(isReportValidatorValid(_maliciousValidator));\n        require(_blockNumber <= block.number); // avoid reporting about future blocks\n        require(isReportValidatorValid(reportingValidator));\n\n        address[] storage reportedValidators =\n            addressArrayStorage[keccak256(abi.encode(MALICE_REPORTED_FOR_BLOCK, _maliciousValidator, _blockNumber))];\n\n        // Don't allow reporting validator to report about malicious validator more than once\n        for (uint256 m = 0; m < reportedValidators.length; m++) {\n            if (reportedValidators[m] == reportingValidator) {\n                revert();\n            }\n        }\n\n        reportedValidators.push(reportingValidator);\n\n        emit ReportedMalicious(reportingValidator, _maliciousValidator, _blockNumber);\n\n        // If more than 50% of validators reported about malicious validator\n        // for the same `blockNumber`\n        if (reportedValidators.length.mul(2) > getValidators().length) {\n            _removeMaliciousValidatorAuRa(_maliciousValidator);\n        }\n    }\n\n    // =============================================== Getters ========================================================\n\n    function maliceReportedForBlock(address _validator, uint256 _blockNumber) external view returns(address[] memory) {\n        return addressArrayStorage[keccak256(abi.encode(MALICE_REPORTED_FOR_BLOCK, _validator, _blockNumber))];\n    }\n\n    function stakingEpochStartBlock() public view returns(uint256) {\n        return uintStorage[STAKING_EPOCH_START_BLOCK];\n    }\n\n    // =============================================== Private ========================================================\n\n    bytes32 internal constant STAKING_EPOCH_START_BLOCK = keccak256(\"stakingEpochStartBlock\");\n    bytes32 internal constant MALICE_REPORTED_FOR_BLOCK = \"maliceReportedForBlock\";\n\n    function _removeMaliciousValidatorAuRa(address _validator) internal {\n        if (isValidatorBanned(_validator)) {\n            // The malicious validator is already banned\n            return;\n        }\n\n        if (_removeMaliciousValidator(_validator)) {\n            // From this moment `getPendingValidators()` will return the new validator set\n            _incrementChangeRequestCount();\n        }\n    }\n\n    function _setStakingEpochStartBlock(uint256 _blockNumber) internal {\n        uintStorage[STAKING_EPOCH_START_BLOCK] = _blockNumber;\n    }\n\n    function _areStakeAndWithdrawAllowed() internal view returns(bool) {\n        uint256 allowedDuration = STAKING_EPOCH_DURATION - STAKE_WITHDRAW_DISALLOW_PERIOD;\n        uint256 applyBlock = validatorSetApplyBlock();\n        bool afterValidatorSetApplied = applyBlock != 0 && block.number > applyBlock;\n        return afterValidatorSetApplied && block.number.sub(stakingEpochStartBlock()) <= allowedDuration;\n    }\n\n    function _newValidatorSetCallable() internal view returns(bool) {\n        return block.number.sub(stakingEpochStartBlock()) >= STAKING_EPOCH_DURATION - 1;\n    }\n}\n",
  "sourcePath": "/home/poa/Dropbox/POA/GitHub/pos-contracts/contracts/ValidatorSetAuRa.sol",
  "compiler": {
    "name": "solc",
    "version": "0.5.2+commit.1df8f40c.Emscripten.clang"
  },
  "schemaVersion": "3.0.1",
  "updatedAt": "2019-01-14T07:48:15.096Z",
  "devdoc": {
    "methods": {}
  },
  "userdoc": {
    "methods": {
      "initialize(address,address,address,address[],uint256,uint256)": {
        "notice": "Creates an initial set of validators at the start of the network. Must be called by the constructor of `Initializer` contract on genesis block. This is used instead of `constructor()` because this contract is upgradable."
      }
    }
  }
}