{
  "contractName": "ValidatorSetHBBFT",
  "abi": [
    {
      "constant": true,
      "inputs": [
        {
          "name": "_pool",
          "type": "address"
        },
        {
          "name": "_staker",
          "type": "address"
        }
      ],
      "name": "poolStakerIndex",
      "outputs": [
        {
          "name": "",
          "type": "uint256"
        }
      ],
      "payable": false,
      "stateMutability": "view",
      "type": "function"
    },
    {
      "constant": true,
      "inputs": [
        {
          "name": "_observer",
          "type": "address"
        },
        {
          "name": "_staker",
          "type": "address"
        },
        {
          "name": "_stakingEpoch",
          "type": "uint256"
        }
      ],
      "name": "stakeAmountByEpoch",
      "outputs": [
        {
          "name": "",
          "type": "uint256"
        }
      ],
      "payable": false,
      "stateMutability": "view",
      "type": "function"
    },
    {
      "constant": false,
      "inputs": [
        {
          "name": "_erc20TokenContract",
          "type": "address"
        }
      ],
      "name": "setErc20TokenContract",
      "outputs": [],
      "payable": false,
      "stateMutability": "nonpayable",
      "type": "function"
    },
    {
      "constant": false,
      "inputs": [
        {
          "name": "_fromObserver",
          "type": "address"
        },
        {
          "name": "_toObserver",
          "type": "address"
        },
        {
          "name": "_amount",
          "type": "uint256"
        }
      ],
      "name": "moveStake",
      "outputs": [],
      "payable": false,
      "stateMutability": "nonpayable",
      "type": "function"
    },
    {
      "constant": false,
      "inputs": [
        {
          "name": "_minStake",
          "type": "uint256"
        }
      ],
      "name": "setValidatorMinStake",
      "outputs": [],
      "payable": false,
      "stateMutability": "nonpayable",
      "type": "function"
    },
    {
      "constant": true,
      "inputs": [
        {
          "name": "_who",
          "type": "address"
        }
      ],
      "name": "isValidatorOnPreviousEpoch",
      "outputs": [
        {
          "name": "",
          "type": "bool"
        }
      ],
      "payable": false,
      "stateMutability": "view",
      "type": "function"
    },
    {
      "constant": false,
      "inputs": [],
      "name": "removePool",
      "outputs": [],
      "payable": false,
      "stateMutability": "nonpayable",
      "type": "function"
    },
    {
      "constant": true,
      "inputs": [
        {
          "name": "_pool",
          "type": "address"
        }
      ],
      "name": "stakeAmountTotal",
      "outputs": [
        {
          "name": "",
          "type": "uint256"
        }
      ],
      "payable": false,
      "stateMutability": "view",
      "type": "function"
    },
    {
      "constant": true,
      "inputs": [],
      "name": "blockRewardContract",
      "outputs": [
        {
          "name": "",
          "type": "address"
        }
      ],
      "payable": false,
      "stateMutability": "view",
      "type": "function"
    },
    {
      "constant": true,
      "inputs": [
        {
          "name": "_who",
          "type": "address"
        }
      ],
      "name": "bannedUntil",
      "outputs": [
        {
          "name": "",
          "type": "uint256"
        }
      ],
      "payable": false,
      "stateMutability": "view",
      "type": "function"
    },
    {
      "constant": true,
      "inputs": [
        {
          "name": "_who",
          "type": "address"
        }
      ],
      "name": "poolInactiveIndex",
      "outputs": [
        {
          "name": "",
          "type": "uint256"
        }
      ],
      "payable": false,
      "stateMutability": "view",
      "type": "function"
    },
    {
      "constant": true,
      "inputs": [],
      "name": "getPools",
      "outputs": [
        {
          "name": "",
          "type": "address[]"
        }
      ],
      "payable": false,
      "stateMutability": "view",
      "type": "function"
    },
    {
      "constant": true,
      "inputs": [
        {
          "name": "_observer",
          "type": "address"
        },
        {
          "name": "_staker",
          "type": "address"
        }
      ],
      "name": "maxWithdrawAllowed",
      "outputs": [
        {
          "name": "",
          "type": "uint256"
        }
      ],
      "payable": false,
      "stateMutability": "view",
      "type": "function"
    },
    {
      "constant": true,
      "inputs": [],
      "name": "MAX_VALIDATORS",
      "outputs": [
        {
          "name": "",
          "type": "uint256"
        }
      ],
      "payable": false,
      "stateMutability": "view",
      "type": "function"
    },
    {
      "constant": false,
      "inputs": [],
      "name": "finalizeChange",
      "outputs": [],
      "payable": false,
      "stateMutability": "nonpayable",
      "type": "function"
    },
    {
      "constant": true,
      "inputs": [],
      "name": "stakingEpoch",
      "outputs": [
        {
          "name": "",
          "type": "uint256"
        }
      ],
      "payable": false,
      "stateMutability": "view",
      "type": "function"
    },
    {
      "constant": true,
      "inputs": [],
      "name": "getPreviousValidators",
      "outputs": [
        {
          "name": "",
          "type": "address[]"
        }
      ],
      "payable": false,
      "stateMutability": "view",
      "type": "function"
    },
    {
      "constant": true,
      "inputs": [],
      "name": "erc20TokenContract",
      "outputs": [
        {
          "name": "",
          "type": "address"
        }
      ],
      "payable": false,
      "stateMutability": "view",
      "type": "function"
    },
    {
      "constant": true,
      "inputs": [
        {
          "name": "_validator",
          "type": "address"
        }
      ],
      "name": "isReportValidatorValid",
      "outputs": [
        {
          "name": "",
          "type": "bool"
        }
      ],
      "payable": false,
      "stateMutability": "view",
      "type": "function"
    },
    {
      "constant": false,
      "inputs": [
        {
          "name": "_minStake",
          "type": "uint256"
        }
      ],
      "name": "setStakerMinStake",
      "outputs": [],
      "payable": false,
      "stateMutability": "nonpayable",
      "type": "function"
    },
    {
      "constant": true,
      "inputs": [
        {
          "name": "_validator",
          "type": "address"
        }
      ],
      "name": "validatorIndex",
      "outputs": [
        {
          "name": "",
          "type": "uint256"
        }
      ],
      "payable": false,
      "stateMutability": "view",
      "type": "function"
    },
    {
      "constant": true,
      "inputs": [],
      "name": "getStakerMinStake",
      "outputs": [
        {
          "name": "",
          "type": "uint256"
        }
      ],
      "payable": false,
      "stateMutability": "view",
      "type": "function"
    },
    {
      "constant": true,
      "inputs": [
        {
          "name": "_observer",
          "type": "address"
        },
        {
          "name": "_staker",
          "type": "address"
        }
      ],
      "name": "stakeAmount",
      "outputs": [
        {
          "name": "",
          "type": "uint256"
        }
      ],
      "payable": false,
      "stateMutability": "view",
      "type": "function"
    },
    {
      "constant": true,
      "inputs": [
        {
          "name": "_who",
          "type": "address"
        }
      ],
      "name": "isPoolActive",
      "outputs": [
        {
          "name": "",
          "type": "bool"
        }
      ],
      "payable": false,
      "stateMutability": "view",
      "type": "function"
    },
    {
      "constant": true,
      "inputs": [
        {
          "name": "_validator",
          "type": "address"
        }
      ],
      "name": "isValidatorBanned",
      "outputs": [
        {
          "name": "",
          "type": "bool"
        }
      ],
      "payable": false,
      "stateMutability": "view",
      "type": "function"
    },
    {
      "constant": false,
      "inputs": [
        {
          "name": "_toObserver",
          "type": "address"
        },
        {
          "name": "_amount",
          "type": "uint256"
        }
      ],
      "name": "stake",
      "outputs": [],
      "payable": false,
      "stateMutability": "nonpayable",
      "type": "function"
    },
    {
      "constant": true,
      "inputs": [
        {
          "name": "_who",
          "type": "address"
        }
      ],
      "name": "poolIndex",
      "outputs": [
        {
          "name": "",
          "type": "uint256"
        }
      ],
      "payable": false,
      "stateMutability": "view",
      "type": "function"
    },
    {
      "constant": true,
      "inputs": [
        {
          "name": "_who",
          "type": "address"
        }
      ],
      "name": "doesPoolExist",
      "outputs": [
        {
          "name": "",
          "type": "bool"
        }
      ],
      "payable": false,
      "stateMutability": "view",
      "type": "function"
    },
    {
      "constant": true,
      "inputs": [],
      "name": "getValidators",
      "outputs": [
        {
          "name": "",
          "type": "address[]"
        }
      ],
      "payable": false,
      "stateMutability": "view",
      "type": "function"
    },
    {
      "constant": true,
      "inputs": [],
      "name": "STAKE_UNIT",
      "outputs": [
        {
          "name": "",
          "type": "uint256"
        }
      ],
      "payable": false,
      "stateMutability": "view",
      "type": "function"
    },
    {
      "constant": true,
      "inputs": [],
      "name": "validatorSetApplyBlock",
      "outputs": [
        {
          "name": "",
          "type": "uint256"
        }
      ],
      "payable": false,
      "stateMutability": "view",
      "type": "function"
    },
    {
      "constant": false,
      "inputs": [
        {
          "name": "_observer",
          "type": "address"
        },
        {
          "name": "_staker",
          "type": "address[]"
        },
        {
          "name": "_stakingEpoch",
          "type": "uint256"
        }
      ],
      "name": "clearStakeHistory",
      "outputs": [],
      "payable": false,
      "stateMutability": "nonpayable",
      "type": "function"
    },
    {
      "constant": true,
      "inputs": [],
      "name": "randomContract",
      "outputs": [
        {
          "name": "",
          "type": "address"
        }
      ],
      "payable": false,
      "stateMutability": "view",
      "type": "function"
    },
    {
      "constant": true,
      "inputs": [
        {
          "name": "_pool",
          "type": "address"
        }
      ],
      "name": "poolStakers",
      "outputs": [
        {
          "name": "",
          "type": "address[]"
        }
      ],
      "payable": false,
      "stateMutability": "view",
      "type": "function"
    },
    {
      "constant": true,
      "inputs": [],
      "name": "changeRequestCount",
      "outputs": [
        {
          "name": "",
          "type": "uint256"
        }
      ],
      "payable": false,
      "stateMutability": "view",
      "type": "function"
    },
    {
      "constant": true,
      "inputs": [],
      "name": "getValidatorMinStake",
      "outputs": [
        {
          "name": "",
          "type": "uint256"
        }
      ],
      "payable": false,
      "stateMutability": "view",
      "type": "function"
    },
    {
      "constant": true,
      "inputs": [],
      "name": "getPoolsInactive",
      "outputs": [
        {
          "name": "",
          "type": "address[]"
        }
      ],
      "payable": false,
      "stateMutability": "view",
      "type": "function"
    },
    {
      "constant": true,
      "inputs": [],
      "name": "MAX_OBSERVERS",
      "outputs": [
        {
          "name": "",
          "type": "uint256"
        }
      ],
      "payable": false,
      "stateMutability": "view",
      "type": "function"
    },
    {
      "constant": true,
      "inputs": [],
      "name": "getPendingValidators",
      "outputs": [
        {
          "name": "",
          "type": "address[]"
        }
      ],
      "payable": false,
      "stateMutability": "view",
      "type": "function"
    },
    {
      "constant": false,
      "inputs": [
        {
          "name": "_fromObserver",
          "type": "address"
        },
        {
          "name": "_amount",
          "type": "uint256"
        }
      ],
      "name": "withdraw",
      "outputs": [],
      "payable": false,
      "stateMutability": "nonpayable",
      "type": "function"
    },
    {
      "constant": true,
      "inputs": [
        {
          "name": "_who",
          "type": "address"
        }
      ],
      "name": "isValidator",
      "outputs": [
        {
          "name": "",
          "type": "bool"
        }
      ],
      "payable": false,
      "stateMutability": "view",
      "type": "function"
    },
    {
      "anonymous": false,
      "inputs": [
        {
          "indexed": true,
          "name": "toObserver",
          "type": "address"
        },
        {
          "indexed": true,
          "name": "staker",
          "type": "address"
        },
        {
          "indexed": true,
          "name": "stakingEpoch",
          "type": "uint256"
        },
        {
          "indexed": false,
          "name": "amount",
          "type": "uint256"
        }
      ],
      "name": "Staked",
      "type": "event"
    },
    {
      "anonymous": false,
      "inputs": [
        {
          "indexed": false,
          "name": "fromObserver",
          "type": "address"
        },
        {
          "indexed": true,
          "name": "toObserver",
          "type": "address"
        },
        {
          "indexed": true,
          "name": "staker",
          "type": "address"
        },
        {
          "indexed": true,
          "name": "stakingEpoch",
          "type": "uint256"
        },
        {
          "indexed": false,
          "name": "amount",
          "type": "uint256"
        }
      ],
      "name": "StakeMoved",
      "type": "event"
    },
    {
      "anonymous": false,
      "inputs": [
        {
          "indexed": true,
          "name": "fromObserver",
          "type": "address"
        },
        {
          "indexed": true,
          "name": "staker",
          "type": "address"
        },
        {
          "indexed": true,
          "name": "stakingEpoch",
          "type": "uint256"
        },
        {
          "indexed": false,
          "name": "amount",
          "type": "uint256"
        }
      ],
      "name": "Withdrawn",
      "type": "event"
    },
    {
      "constant": false,
      "inputs": [
        {
          "name": "_publicKey",
          "type": "bytes"
        },
        {
          "name": "_amount",
          "type": "uint256"
        }
      ],
      "name": "addPool",
      "outputs": [],
      "payable": false,
      "stateMutability": "nonpayable",
      "type": "function"
    },
    {
      "constant": false,
      "inputs": [
        {
          "name": "_blockRewardContract",
          "type": "address"
        },
        {
          "name": "_randomContract",
          "type": "address"
        },
        {
          "name": "_erc20TokenContract",
          "type": "address"
        },
        {
          "name": "_initialValidators",
          "type": "address[]"
        },
        {
          "name": "_stakerMinStake",
          "type": "uint256"
        },
        {
          "name": "_validatorMinStake",
          "type": "uint256"
        }
      ],
      "name": "initialize",
      "outputs": [],
      "payable": false,
      "stateMutability": "nonpayable",
      "type": "function"
    },
    {
      "constant": false,
      "inputs": [],
      "name": "newValidatorSet",
      "outputs": [],
      "payable": false,
      "stateMutability": "nonpayable",
      "type": "function"
    },
    {
      "constant": false,
      "inputs": [
        {
          "name": "_validators",
          "type": "address[]"
        },
        {
          "name": "_reportingValidators",
          "type": "address[]"
        }
      ],
      "name": "reportMaliciousValidators",
      "outputs": [],
      "payable": false,
      "stateMutability": "nonpayable",
      "type": "function"
    },
    {
      "constant": false,
      "inputs": [
        {
          "name": "_key",
          "type": "bytes"
        }
      ],
      "name": "savePublicKey",
      "outputs": [],
      "payable": false,
      "stateMutability": "nonpayable",
      "type": "function"
    },
    {
      "constant": true,
      "inputs": [
        {
          "name": "_validator",
          "type": "address"
        }
      ],
      "name": "maliceReported",
      "outputs": [
        {
          "name": "",
          "type": "address[]"
        }
      ],
      "payable": false,
      "stateMutability": "view",
      "type": "function"
    },
    {
      "constant": true,
      "inputs": [
        {
          "name": "_who",
          "type": "address"
        }
      ],
      "name": "publicKey",
      "outputs": [
        {
          "name": "",
          "type": "bytes"
        }
      ],
      "payable": false,
      "stateMutability": "view",
      "type": "function"
    }
  ],
  "bytecode": "0x608060405234801561001057600080fd5b50613c2d806100206000396000f3fe608060405234801561001057600080fd5b50600436106102a45760003560e060020a900480638a1422dd1161016b578063b927ef43116100d2578063dad9ebfd1161008b578063dad9ebfd14610abe578063df6f55f514610ac6578063ec120a0014610ace578063eebc7a3914610ad6578063f3fef3a314610ade578063facd743b14610b0a576102a4565b8063b927ef4314610925578063c3ff9be01461092d578063ccf69e9b146109e2578063cddb3e7b146109ea578063d207778214610a10578063d6fca5dc14610a18576102a4565b8063adc9772e11610124578063adc9772e14610806578063b42754a514610832578063b4fcda1314610858578063b6044215146108ef578063b7ab4db514610915578063b8cad1e51461091d576102a4565b80638a1422dd146107415780639601ddf91461075e578063a15248fd14610784578063a697ecff1461078c578063a711e6a1146107ba578063a92252ae146107e0576102a4565b80635836d08a1161020f57806375286211116101c85780637528621114610660578063794c0c681461066857806385602ad514610670578063856e84881461067857806387eed76a14610680578063888ade0a146106a6576102a4565b80635836d08a146105ce5780635ccee1de146105f457806365113918146105fc578063673a2a1f146106225780636bda15771461062a578063714897df14610658576102a4565b806337890f941161026157806337890f94146103d457806340deca991461044a5780634124344b146104525780634960a9ea146105145780635267e1d61461058457806356b54bae146105aa576102a4565b806301d0132e146102a95780630cba33df146102e95780632405effa1461031f578063251441a914610347578063293ba15c1461037d5780632d7416a51461039a575b600080fd5b6102d7600480360360408110156102bf57600080fd5b50600160a060020a0381358116916020013516610b30565b60408051918252519081900360200190f35b6102d7600480360360608110156102ff57600080fd5b50600160a060020a03813581169160208101359091169060400135610ba5565b6103456004803603602081101561033557600080fd5b5035600160a060020a0316610c1a565b005b6103456004803603606081101561035d57600080fd5b50600160a060020a03813581169160208101359091169060400135610ce1565b6103456004803603602081101561039357600080fd5b5035610d6a565b6103c0600480360360208110156103b057600080fd5b5035600160a060020a0316610dca565b604080519115158252519081900360200190f35b6103fa600480360360208110156103ea57600080fd5b5035600160a060020a0316610e34565b60408051602080825283518183015283519192839290830191858101910280838360005b8381101561043657818101518382015260200161041e565b505050509050019250505060405180910390f35b610345610ef1565b6103456004803603604081101561046857600080fd5b81019060208101813564010000000081111561048357600080fd5b82018360208201111561049557600080fd5b803590602001918460208302840111640100000000831117156104b757600080fd5b9193909290916020810190356401000000008111156104d557600080fd5b8201836020820111156104e757600080fd5b8035906020019184602083028401116401000000008311171561050957600080fd5b509092509050610f1f565b6103456004803603604081101561052a57600080fd5b81019060208101813564010000000081111561054557600080fd5b82018360208201111561055757600080fd5b8035906020019184600183028401116401000000008311171561057957600080fd5b919350915035611110565b6102d76004803603602081101561059a57600080fd5b5035600160a060020a031661115e565b6105b26111c2565b60408051600160a060020a039092168252519081900360200190f35b6102d7600480360360208110156105e457600080fd5b5035600160a060020a031661120d565b610345611271565b6102d76004803603602081101561061257600080fd5b5035600160a060020a0316611299565b6103fa6112fd565b6102d76004803603604081101561064057600080fd5b50600160a060020a0381358116916020013516611396565b6102d7611465565b61034561146a565b6102d76115b7565b6103fa6115f8565b6105b261168f565b6103c06004803603602081101561069657600080fd5b5035600160a060020a03166116d9565b6106cc600480360360208110156106bc57600080fd5b5035600160a060020a0316611760565b6040805160208082528351818301528351919283929083019185019080838360005b838110156107065781810151838201526020016106ee565b50505050905090810190601f1680156107335780820380516001836020036101000a031916815260200191505b509250505060405180910390f35b6103456004803603602081101561075757600080fd5b5035611847565b6102d76004803603602081101561077457600080fd5b5035600160a060020a03166118a4565b6102d7611908565b6102d7600480360360408110156107a257600080fd5b50600160a060020a0381358116916020013516611949565b6103c0600480360360208110156107d057600080fd5b5035600160a060020a03166119bc565b6103c0600480360360208110156107f657600080fd5b5035600160a060020a0316611a23565b6103456004803603604081101561081c57600080fd5b50600160a060020a038135169060200135611a36565b6102d76004803603602081101561084857600080fd5b5035600160a060020a0316611b37565b610345600480360360c081101561086e57600080fd5b600160a060020a03823581169260208101358216926040820135909216918101906080810160608201356401000000008111156108aa57600080fd5b8201836020820111156108bc57600080fd5b803590602001918460208302840111640100000000831117156108de57600080fd5b919350915080359060200135611b9b565b6103c06004803603602081101561090557600080fd5b5035600160a060020a0316611be7565b6103fa611bf2565b6102d7611c89565b6102d7611c95565b6103456004803603606081101561094357600080fd5b600160a060020a03823516919081019060408101602082013564010000000081111561096e57600080fd5b82018360208201111561098057600080fd5b803590602001918460208302840111640100000000831117156109a257600080fd5b9190808060200260200160405190810160405280939291908181526020018383602002808284376000920191909152509295505091359250611cd6915050565b6105b2611d4d565b6103fa60048036036020811015610a0057600080fd5b5035600160a060020a0316611d97565b6102d7611e52565b61034560048036036020811015610a2e57600080fd5b810190602081018135640100000000811115610a4957600080fd5b820183602082011115610a5b57600080fd5b80359060200191846001830284011164010000000083111715610a7d57600080fd5b91908080601f016020809104026020016040519081016040528093929190818152602001838380828437600092019190915250929550611e93945050505050565b6102d7611f36565b6103fa611f77565b6102d761200e565b6103fa612014565b61034560048036036040811015610af457600080fd5b50600160a060020a038135169060200135612099565b6103c060048036036020811015610b2057600080fd5b5035600160a060020a031661219a565b604080517f706f6f6c5374616b6572496e6465780000000000000000000000000000000000602080830191909152600160a060020a0380861683850152841660608084019190915283518084039091018152608090920183528151918101919091206000908152600290915220545b92915050565b604080517f7374616b65416d6f756e74427945706f63680000000000000000000000000000602080830191909152600160a060020a03958616828401529390941660608501526080808501929092528051808503909201825260a0909301835280519082012060009081526002909152205490565b604080517f6f776e65720000000000000000000000000000000000000000000000000000008152815190819003600501902060009081526004602052205433600160a060020a0390911614610c6e57600080fd5b600160a060020a0381161515610c8357600080fd5b604080517f6572633230546f6b656e436f6e747261637400000000000000000000000000008152815190819003601201902060009081526004602052208054600160a060020a03909216600160a060020a0319909216919091179055565b600160a060020a038381169083161415610cfa57600080fd5b33610d06848284612201565b610d1183828461234e565b610d196115b7565b60408051600160a060020a03878116825260208201869052825181861693918816927f1a14670c744779696fb19a86df048997040940566ed12a1dd1c26dc9a4c5a04e92908290030190a450505050565b604080517f6f776e65720000000000000000000000000000000000000000000000000000008152815190819003600501902060009081526004602052205433600160a060020a0390911614610dbe57600080fd5b610dc78161247d565b50565b604080517f697356616c696461746f724f6e50726576696f757345706f6368000000000000602080830191909152600160a060020a038416828401528251808303840181526060909201835281519181019190912060009081526006909152205460ff165b919050565b604080517f6d616c6963655265706f72746564000000000000000000000000000000000000602080830191909152600160a060020a0384168284015282518083038401815260608381018086528251928401929092206000908152600b845285902080546080948102860185019096528583529094919390920182828015610ee557602002820191906000526020600020905b8154600160a060020a03168152600190910190602001808311610ec7575b50505050509050919050565b610ef96115b7565b158015610f0a5750610f0a3361219a565b15610f1457600080fd5b610f1d336124cb565b565b73fffffffffffffffffffffffffffffffffffffffe3314610f3f57600080fd5b828114610f4b57600080fd5b600080610f56611bf2565b51905060005b858110156110f9576000878783818110610f7257fe5b90506020020135600160a060020a0316905060008686848181101515610f9457fe5b90506020020135600160a060020a03169050610faf816116d9565b1515610fbc5750506110f1565b604080517f6d616c6963655265706f72746564000000000000000000000000000000000000602080830191909152600160a060020a03851682840152825180830384018152606090920183528151918101919091206000908152600b909152908120815b815481101561106d5783600160a060020a0316828281548110151561104157fe5b600091825260209091200154600160a060020a03161415611065576001925061106d565b600101611020565b50811561107d57505050506110f1565b8054600181018255600082815260209020018054600160a060020a031916600160a060020a0385161790556110b184611a23565b156110bf57505050506110f1565b8054866110d382600363ffffffff61261b16565b106110eb576110e18561264d565b156110eb57600197505b50505050505b600101610f5c565b50811561110857611108612771565b505050505050565b61111a3382611a36565b61115983838080601f016020809104026020016040519081016040528093929190818152602001838380828437600092019190915250611e9392505050565b505050565b604080517f7374616b65416d6f756e74546f74616c00000000000000000000000000000000602080830191909152600160a060020a039390931681830152815180820383018152606090910182528051908301206000908152600290925290205490565b604080517f626c6f636b526577617264436f6e74726163740000000000000000000000000081528151908190036013019020600090815260046020522054600160a060020a03165b90565b604080517f62616e6e6564556e74696c000000000000000000000000000000000000000000602080830191909152600160a060020a039390931681830152815180820383018152606090910182528051908301206000908152600290925290205490565b73fffffffffffffffffffffffffffffffffffffffe331461129157600080fd5b610f1d6127b7565b604080517f706f6f6c496e616374697665496e646578000000000000000000000000000000602080830191909152600160a060020a039390931681830152815180820383018152606090910182528051908301206000908152600290925290205490565b604080517f706f6f6c73000000000000000000000000000000000000000000000000000000815281519081900360050181206000908152600b602090815290839020805480830284018301909452838352606093909183018282801561138c57602002820191906000526020600020905b8154600160a060020a0316815260019091019060200180831161136e575b5050505050905090565b6000806113a28461219a565b905083600160a060020a031683600160a060020a03161480156113c25750805b156113d1576000915050610b9f565b6113da84611a23565b156113e9576000915050610b9f565b6113f1612b19565b1515611401576000915050610b9f565b80151561141a576114128484611949565b915050610b9f565b61142384610dca565b156114585761141261144e8585611449600161143d6115b7565b9063ffffffff612b3a16565b610ba5565b61143d8686611949565b61141284846114496115b7565b601481565b73fffffffffffffffffffffffffffffffffffffffe331461148a57600080fd5b6114926115b7565b151561149d57610f1d565b6114a5611c95565b15156115af5760606114b56115f8565b905060606114c1611bf2565b905060005b82518110156114f9576114f183828151811015156114e057fe5b906020019060200201516000612b4f565b6001016114c6565b5060005b815181101561153057611528828281518110151561151757fe5b906020019060200201516001612b4f565b6001016114fd565b61153982612bc1565b611541612c14565b61154a43612ce3565b6115526111c2565b600160a060020a03166338a0fdde6040518163ffffffff1660e060020a028152600401600060405180830381600087803b15801561158f57600080fd5b505af11580156115a3573d6000803e3d6000fd5b50505050505050610f1d565b610f1d612c14565b604080517f7374616b696e6745706f636800000000000000000000000000000000000000008152815190819003600c01902060009081526002602052205490565b604080517f70726576696f757356616c696461746f72730000000000000000000000000000815281519081900360120181206000908152600b602090815290839020805480830284018301909452838352606093909183018282801561138c57602002820191906000526020600020908154600160a060020a0316815260019091019060200180831161136e575050505050905090565b604080517f6572633230546f6b656e436f6e7472616374000000000000000000000000000081528151908190036012019020600090815260046020522054600160a060020a031690565b6000806116e58361219a565b80156116f757506116f583611a23565b155b90506117016115b7565b15806117125750611710611c95565b155b1561171e579050610e2f565b6003611728611c95565b430311610b9f57600061173a84610dca565b801561174c575061174a84611a23565b155b905081806117575750805b92505050610e2f565b604080517f7075626c69634b65790000000000000000000000000000000000000000000000602080830191909152600160a060020a038416828401528251808303840181526060808401808652825192840192909220600090815260058452859020805460026001821615610100026000190190911604601f810185900490940285016080908101909652838352909491939092910182828015610ee55780601f1061181a57610100808354040283529160200191610ee5565b820191906000526020600020905b8154815290600101906020018083116118285750939695505050505050565b604080517f6f776e65720000000000000000000000000000000000000000000000000000008152815190819003600501902060009081526004602052205433600160a060020a039091161461189b57600080fd5b610dc781612d23565b604080517f76616c696461746f72496e646578000000000000000000000000000000000000602080830191909152600160a060020a039390931681830152815180820383018152606090910182528051908301206000908152600290925290205490565b604080517f7374616b65724d696e5374616b650000000000000000000000000000000000008152815190819003600e01902060009081526002602052205490565b604080517f7374616b65416d6f756e74000000000000000000000000000000000000000000602080830191909152600160a060020a039485168284015292909316606080850191909152815180850390910181526080909301815282519282019290922060009081526002909152205490565b604080517f6973506f6f6c4163746976650000000000000000000000000000000000000000602080830191909152600160a060020a039390931681830152815180820383018152606090910182528051908301206000908152600690925290205460ff1690565b6000611a2e8261120d565b421092915050565b6000611a4061168f565b9050600160a060020a0381161515611a5757600080fd5b33611a6384828561234e565b81600160a060020a031663adc9772e82856040518363ffffffff1660e060020a0281526004018083600160a060020a0316600160a060020a0316815260200182815260200192505050600060405180830381600087803b158015611ac657600080fd5b505af1158015611ada573d6000803e3d6000fd5b50505050611ae66115b7565b81600160a060020a031685600160a060020a03167f6c86f3fd5118b3aa8bb4f389a617046de0a3d3d477de1a1673d227f802f616dc866040518082815260200191505060405180910390a450505050565b604080517f706f6f6c496e6465780000000000000000000000000000000000000000000000602080830191909152600160a060020a039390931681830152815180820383018152606090910182528051908301206000908152600290925290205490565b611bde878787878780806020026020016040519081016040528093929190818152602001838360200280828437600092019190915250899250889150612d719050565b50505050505050565b6000610b9f826119bc565b604080517f63757272656e7456616c696461746f7273000000000000000000000000000000815281519081900360110181206000908152600b602090815290839020805480830284018301909452838352606093909183018282801561138c57602002820191906000526020600020908154600160a060020a0316815260019091019060200180831161136e575050505050905090565b670de0b6b3a764000081565b604080517f76616c696461746f725365744170706c79426c6f636b000000000000000000008152815190819003601601902060009081526002602052205490565b73fffffffffffffffffffffffffffffffffffffffe3314611cf657600080fd5b611d03600261143d6115b7565b811115611d0f57600080fd5b60005b8251811015611d4757611d3f848483815181101515611d2d57fe5b9060200190602002015184600061302d565b600101611d12565b50505050565b604080517f72616e646f6d436f6e74726163740000000000000000000000000000000000008152815190819003600e019020600090815260046020522054600160a060020a031690565b604080517f706f6f6c5374616b657273000000000000000000000000000000000000000000602080830191909152600160a060020a0384168284015282518083038401815260608381018086528251928401929092206000908152600b845285902080546080948102860185019096528583529094919390920182828015610ee557602002820191906000526020600020908154600160a060020a03168152600190910190602001808311610ec75750505050509050919050565b604080517f6368616e676552657175657374436f756e7400000000000000000000000000008152815190819003601201902060009081526002602052205490565b8051603014611ea157600080fd5b611eab3333611949565b1515611eb657600080fd5b604080517f7075626c69634b65790000000000000000000000000000000000000000000000602080830191909152338284015282518083038401815260609092018352815191810191909120600090815260058252919091208251611f1d92840190613a86565b50611f2733611a23565b1515610dc757610dc7336130a5565b604080517f76616c696461746f724d696e5374616b650000000000000000000000000000008152815190819003601101902060009081526002602052205490565b604080517f706f6f6c73496e616374697665000000000000000000000000000000000000008152815190819003600d0181206000908152600b602090815290839020805480830284018301909452838352606093909183018282801561138c57602002820191906000526020600020908154600160a060020a0316815260019091019060200180831161136e575050505050905090565b6107d081565b60408051600080516020613be2833981519152815281519081900360110181206000908152600b602090815290839020805480830284018301909452838352606093909183018282801561138c57602002820191906000526020600020908154600160a060020a0316815260019091019060200180831161136e575050505050905090565b60006120a361168f565b9050600160a060020a03811615156120ba57600080fd5b336120c6848285612201565b81600160a060020a031663f3fef3a382856040518363ffffffff1660e060020a0281526004018083600160a060020a0316600160a060020a0316815260200182815260200192505050600060405180830381600087803b15801561212957600080fd5b505af115801561213d573d6000803e3d6000fd5b505050506121496115b7565b81600160a060020a031685600160a060020a03167f91fb9d98b786c57d74c099ccd2beca1739e9f6a81fb49001ca465c4b7591bbe2866040518082815260200191505060405180910390a450505050565b604080517f697356616c696461746f72000000000000000000000000000000000000000000602080830191909152600160a060020a039390931681830152815180820383018152606090910182528051908301206000908152600690925290205460ff1690565b600160a060020a038316151561221657600080fd5b80151561222257600080fd5b61222c8383611396565b81111561223857600080fd5b60006122426115b7565b905060006122548361143d8787611949565b905060008111156122a65784600160a060020a031684600160a060020a0316141561229257612281611f36565b81101561228d57600080fd5b6122a6565b61229a611908565b8110156122a657600080fd5b6122b185858361312e565b60006122be868685610ba5565b90508084116122da576122d586868587850361302d565b6122e7565b6122e7868685600061302d565b6122fd866122f88661143d8a61115e565b6131a1565b8115156111085785600160a060020a031685600160a060020a0316141561232c57612327866124cb565b612336565b6123368686613204565b61233f8661115e565b15156111085761110886613324565b600160a060020a038316151561236357600080fd5b80151561236f57600080fd5b61237883611a23565b1561238257600080fd5b61238a612b19565b151561239557600080fd5b600061239f6115b7565b905060006123bd836123b18787611949565b9063ffffffff61345016565b905084600160a060020a031684600160a060020a031614156123f2576123e1611f36565b8110156123ed57600080fd5b612406565b6123fa611908565b81101561240657600080fd5b61241185858361312e565b61242b858584612426876123b18b8b8a610ba5565b61302d565b61243c856122f8856123b18961115e565b84600160a060020a031684600160a060020a031614156124645761245f856130a5565b612476565b82811415612476576124768585613462565b5050505050565b604080517f76616c696461746f724d696e5374616b65000000000000000000000000000000815281519081900360110190206000908152600260205220670de0b6b3a7640000919091029055565b60006124d682611b37565b604080517f706f6f6c73000000000000000000000000000000000000000000000000000000815281519081900360050190206000908152600b60205220805491925090600160a060020a0384169082908490811061253057fe5b600091825260209091200154600160a060020a031614156111595780548190600019810190811061255d57fe5b6000918252602090912001548154600160a060020a039091169082908490811061258357fe5b9060005260206000200160006101000a815481600160a060020a030219169083600160a060020a031602179055506125dd81838154811015156125c257fe5b600091825260209091200154600160a060020a031683613505565b80546125ed826000198301613b04565b506125f9836000613505565b612604836000613568565b61260d8361115e565b1561115957611159836135da565b600082151561262c57506000610b9f565b82820282848281151561263b57fe5b041461264657600080fd5b9392505050565b6000612658826124cb565b61266782426276a7000161368d565b60408051600080516020613be2833981519152815281519081900360110190206000908152600b60205290812090805b82548110156126e45784600160a060020a031683828154811015156126b857fe5b600091825260209091200154600160a060020a031614156126dc57600191506126e4565b600101612697565b81156127665782548390600019016126fc8282613b04565b8154811061270657fe5b6000918252602090912001548354600160a060020a039091169084908390811061272c57fe5b9060005260206000200160006101000a815481600160a060020a030219169083600160a060020a0316021790555060019350505050610e2f565b506000949350505050565b604080517f6368616e676552657175657374436f756e74000000000000000000000000000081528151908190036012019020600090815260026020522080546001019055565b60606127c16112fd565b9050600081511115156127d357600080fd5b80516014106127ea576127e5816136f0565b612aff565b60606127f4611d4d565b600160a060020a03166350b0021c6040518163ffffffff1660e060020a02815260040160006040518083038186803b15801561282f57600080fd5b505afa158015612843573d6000803e3d6000fd5b505050506040513d6000823e601f3d908101601f19168201604052602081101561286c57600080fd5b81019080805164010000000081111561288457600080fd5b8201602081018481111561289757600080fd5b81518560208202830111640100000000821117156128b457600080fd5b5050805190945060141492506128cc91505057600080fd5b81516040805182815260208084028201019091528391906060908280156128fd578160200160208202803883390190505b506040805160148082526102a082019092529192506060919060208201610280803883390190505090506000805b848110156129c75761297c670de0b6b3a764000061297060646129648a8681518110151561295557fe5b9060200190602002015161115e565b9063ffffffff61261b16565b9063ffffffff61372d16565b848281518110151561298a57fe5b6020908102909101015283516129bd908590839081106129a657fe5b60209081029091010151839063ffffffff61345016565b915060010161292b565b5060005b6014811015612aee576000612a1785848a858151811015156129e957fe5b6020908102909101810151604080518084019290925280518083038401815291810190528051910120613751565b90508681815181101515612a2757fe5b906020019060200201518483815181101515612a3f57fe5b600160a060020a039092166020928302909101909101528451859082908110612a6457fe5b60209081029091010151875160001990970196930392879087908110612a8657fe5b906020019060200201518782815181101515612a9e57fe5b600160a060020a039092166020928302909101909101528451859087908110612ac357fe5b906020019060200201518582815181101515612adb57fe5b60209081029091010152506001016129cb565b612af7836136f0565b505050505050505b612b07612771565b612b0f61379c565b610dc76000612ce3565b600080612b24611c95565b90508015801590612b3457508043115b91505090565b600082821115612b4957600080fd5b50900390565b604080517f697356616c696461746f724f6e50726576696f757345706f6368000000000000602080830191909152600160a060020a0394909416818301528151808203830181526060909101825280519084012060009081526006909352909120805460ff1916911515919091179055565b604080517f70726576696f757356616c696461746f72730000000000000000000000000000815281519081900360120190206000908152600b60209081529190208251612c1092840190613b28565b5050565b6060612c1e611bf2565b905060005b8151811015612c7857612c4e8282815181101515612c3d57fe5b9060200190602002015160006137e2565b612c708282815181101515612c5f57fe5b906020019060200201516000613845565b600101612c23565b612c80612014565b9150612c8b826138b7565b5060005b8151811015612c1057612cb98282815181101515612ca957fe5b90602001906020020151826137e2565b612cdb8282815181101515612cca57fe5b906020019060200201516001613845565b600101612c8f565b604080517f76616c696461746f725365744170706c79426c6f636b0000000000000000000081528151908190036016019020600090815260026020522055565b604080517f7374616b65724d696e5374616b650000000000000000000000000000000000008152815190819003600e0190206000908152600260205220670de0b6b3a7640000919091029055565b4315612d7c57600080fd5b600160a060020a0386161515612d9157600080fd5b600160a060020a0385161515612da657600080fd5b8251600010612db457600080fd5b811515612dc057600080fd5b801515612dcc57600080fd5b604080517f626c6f636b526577617264436f6e747261637400000000000000000000000000815281519081900360130181206000908152600460208181528483208054600160a060020a03808e16600160a060020a0319928316179092557f72616e646f6d436f6e74726163740000000000000000000000000000000000008652865195869003600e018620855283835286852080548d84169083161790557f6572633230546f6b656e436f6e747261637400000000000000000000000000008652865195869003601201862085529282528584208054918b1691909316179091557f63757272656e7456616c696461746f72730000000000000000000000000000008352835192839003601190810184208352600b808352858420600080516020613be28339815191528652865195869003909201909420835292905291909120815415612f1a57600080fd5b60005b855181101561300657828682815181101515612f3557fe5b6020908102919091018101518254600181018455600093845291909220018054600160a060020a031916600160a060020a0390921691909117905585518290879083908110612f8057fe5b6020908102919091018101518254600181018455600093845291909220018054600160a060020a031916600160a060020a039092169190911790558551612fcd90879083908110612ca957fe5b612fde8682815181101515612cca57fe5b612ffe8682815181101515612fef57fe5b906020019060200201516130a5565b600101612f1d565b5061301084612d23565b6130198361247d565b6130236001612ce3565b5050505050505050565b604080517f7374616b65416d6f756e74427945706f63680000000000000000000000000000602080830191909152600160a060020a03968716828401529590941660608501526080808501939093528051808503909301835260a0909301835281519184019190912060009081526002909352912055565b6130ae81611760565b5115156130ba57610dc7565b6130c381613906565b604080517f6d616c6963655265706f72746564000000000000000000000000000000000000602080830191909152600160a060020a03841682840152825180830384018152606090920183528151918101919091206000908152600b909152908120610dc791613b89565b604080517f7374616b65416d6f756e74000000000000000000000000000000000000000000602080830191909152600160a060020a039586168284015294909316606080850191909152815180850390910181526080909301815282519284019290922060009081526002909352912055565b604080517f7374616b65416d6f756e74546f74616c00000000000000000000000000000000602080830191909152600160a060020a0390941681830152815180820383018152606090910182528051908401206000908152600290935290912055565b604080517f706f6f6c5374616b657273000000000000000000000000000000000000000000602080830191909152600160a060020a03851682840152825180830384018152606090920183528151918101919091206000908152600b909152908120906132718484610b30565b82549091508290600019810190811061328657fe5b6000918252602090912001548254600160a060020a03909116908390839081106132ac57fe5b9060005260206000200160006101000a815481600160a060020a030219169083600160a060020a031602179055506133078483838154811015156132ec57fe5b600091825260209091200154600160a060020a0316836139b0565b8154613317836000198301613b04565b50611d47848460006139b0565b604080517f706f6f6c73496e616374697665000000000000000000000000000000000000008152815190819003600d0190206000908152600b6020529081209061336d83611299565b905082600160a060020a0316828281548110151561338757fe5b600091825260209091200154600160a060020a03161415611159578154829060001981019081106133b457fe5b6000918252602090912001548254600160a060020a03909116908390839081106133da57fe5b9060005260206000200160006101000a815481600160a060020a030219169083600160a060020a03160217905550613434828281548110151561341957fe5b600091825260209091200154600160a060020a031682613a23565b8154613444836000198301613b04565b50611159836000613a23565b60008282018381101561264657600080fd5b604080517f706f6f6c5374616b657273000000000000000000000000000000000000000000602080830191909152600160a060020a03851682840152825180830384018152606090920183528151918101919091206000908152600b9091522080546134d190849084906139b0565b805460018101825560009182526020909120018054600160a060020a031916600160a060020a039290921691909117905550565b604080517f706f6f6c496e6465780000000000000000000000000000000000000000000000602080830191909152600160a060020a0390941681830152815180820383018152606090910182528051908401206000908152600290935290912055565b604080517f6973506f6f6c4163746976650000000000000000000000000000000000000000602080830191909152600160a060020a0394909416818301528151808203830181526060909101825280519084012060009081526006909352909120805460ff1916911515919091179055565b604080517f706f6f6c73496e616374697665000000000000000000000000000000000000008152815190819003600d0190206000908152600b60205220600160a060020a0382168161362b84611299565b8154811061363557fe5b600091825260209091200154600160a060020a031614612c1057805461365c908390613a23565b8054600181018255600082815260209020018054600160a060020a038416600160a060020a03199091161790555050565b604080517f62616e6e6564556e74696c000000000000000000000000000000000000000000602080830191909152600160a060020a0390941681830152815180820383018152606090910182528051908401206000908152600290935290912055565b60408051600080516020613be2833981519152815281519081900360110190206000908152600b60209081529190208251612c1092840190613b28565b600080821161373b57600080fd5b6000828481151561374857fe5b04949350505050565b600080838381151561375f57fe5b0660010190506000195b858160010191508181518110151561377d57fe5b6020908102909101015190910390600082136137695795945050505050565b604080517f7374616b696e6745706f636800000000000000000000000000000000000000008152815190819003600c019020600090815260026020522080546001019055565b604080517f76616c696461746f72496e646578000000000000000000000000000000000000602080830191909152600160a060020a0390941681830152815180820383018152606090910182528051908401206000908152600290935290912055565b604080517f697356616c696461746f72000000000000000000000000000000000000000000602080830191909152600160a060020a0394909416818301528151808203830181526060909101825280519084012060009081526006909352909120805460ff1916911515919091179055565b604080517f63757272656e7456616c696461746f7273000000000000000000000000000000815281519081900360110190206000908152600b60209081529190208251612c1092840190613b28565b61390f81611be7565b15156139a757604080517f706f6f6c73000000000000000000000000000000000000000000000000000000815281519081900360050190206000908152600b60205220805461395f908390613505565b8054600181018255600082815260209020018054600160a060020a031916600160a060020a03841617905580546107d0101561399a57600080fd5b6139a5826001613568565b505b610dc781613324565b604080517f706f6f6c5374616b6572496e6465780000000000000000000000000000000000602080830191909152600160a060020a039586168284015294909316606080850191909152815180850390910181526080909301815282519284019290922060009081526002909352912055565b604080517f706f6f6c496e616374697665496e646578000000000000000000000000000000602080830191909152600160a060020a0390941681830152815180820383018152606090910182528051908401206000908152600290935290912055565b828054600181600116156101000203166002900490600052602060002090601f016020900481019282601f10613ac757805160ff1916838001178555613af4565b82800160010185558215613af4579182015b82811115613af4578251825591602001919060010190613ad9565b50613b00929150613ba3565b5090565b81548183558181111561115957600083815260209020611159918101908301613ba3565b828054828255906000526020600020908101928215613b7d579160200282015b82811115613b7d5782518254600160a060020a031916600160a060020a03909116178255602090920191600190910190613b48565b50613b00929150613bbd565b5080546000825590600052602060002090810190610dc791905b61120a91905b80821115613b005760008155600101613ba9565b61120a91905b80821115613b00578054600160a060020a0319168155600101613bc356fe70656e64696e6756616c696461746f7273000000000000000000000000000000a165627a7a723058207a98174202b88bbb46f1c8b28ea80ac2964d5749779dc86b3c05a5b6b6ebf6160029",
  "source": "pragma solidity 0.5.2;\n\nimport \"./abstracts/ValidatorSetBase.sol\";\n\n\ncontract ValidatorSetHBBFT is ValidatorSetBase {\n\n    // TODO: add a description for each function\n\n    // =============================================== Setters ========================================================\n\n    function addPool(bytes calldata _publicKey, uint256 _amount) external {\n        stake(msg.sender, _amount);\n        savePublicKey(_publicKey);\n    }\n\n    /// Creates an initial set of validators at the start of the network.\n    /// Must be called by the constructor of `Initializer` contract on genesis block.\n    /// This is used instead of `constructor()` because this contract is upgradable.\n    function initialize(\n        address _blockRewardContract,\n        address _randomContract,\n        address _erc20TokenContract,\n        address[] calldata _initialValidators,\n        uint256 _stakerMinStake,\n        uint256 _validatorMinStake\n    ) external {\n        super._initialize(\n            _blockRewardContract,\n            _randomContract,\n            _erc20TokenContract,\n            _initialValidators,\n            _stakerMinStake,\n            _validatorMinStake\n        );\n    }\n\n    function newValidatorSet() external onlySystem {\n        super._newValidatorSet();\n    }\n\n    function reportMaliciousValidators(address[] calldata _validators, address[] calldata _reportingValidators)\n        external\n        onlySystem\n    {\n        require(_validators.length == _reportingValidators.length);\n\n        bool validatorSetChanged = false;\n\n        uint256 validatorsLength = getValidators().length;\n\n        // Handle each perpetrator-reporter pair\n        for (uint256 i = 0; i < _validators.length; i++) {\n            address maliciousValidator = _validators[i];\n            address reportingValidator = _reportingValidators[i];\n\n            if (!isReportValidatorValid(reportingValidator)) {\n                continue;\n            }\n\n            bool alreadyReported = false;\n\n            address[] storage reportedValidators =\n                addressArrayStorage[keccak256(abi.encode(MALICE_REPORTED, maliciousValidator))];\n\n            // Don't allow `reportingValidator` to report about `maliciousValidator` more than once\n            for (uint256 m = 0; m < reportedValidators.length; m++) {\n                if (reportedValidators[m] == reportingValidator) {\n                    alreadyReported = true;\n                    break;\n                }\n            }\n\n            if (alreadyReported) {\n                continue;\n            } else {\n                reportedValidators.push(reportingValidator);\n            }\n\n            if (isValidatorBanned(maliciousValidator)) {\n                // The `maliciousValidator` is already banned\n                continue;\n            }\n\n            uint256 reportCount = reportedValidators.length;\n\n            // If at least 1/3 of validators reported about `maliciousValidator`\n            if (reportCount.mul(3) >= validatorsLength) {\n                if (_removeMaliciousValidator(maliciousValidator)) {\n                    validatorSetChanged = true;\n                }\n            }\n        }\n\n        if (validatorSetChanged) {\n            _incrementChangeRequestCount();\n            // From this moment `getPendingValidators()` will return the new validator set\n        }\n    }\n\n    function savePublicKey(bytes memory _key) public {\n        require(_key.length == 48); // https://github.com/poanetwork/threshold_crypto/issues/63\n        require(stakeAmount(msg.sender, msg.sender) != 0);\n        bytesStorage[keccak256(abi.encode(PUBLIC_KEY, msg.sender))] = _key;\n\n        if (!isValidatorBanned(msg.sender)) {\n            _addToPools(msg.sender);\n        }\n    }\n\n    // =============================================== Getters ========================================================\n\n    function maliceReported(address _validator) public view returns(address[] memory) {\n        return addressArrayStorage[keccak256(abi.encode(MALICE_REPORTED, _validator))];\n    }\n\n    // Returns the serialized public key of observer/ validator\n    function publicKey(address _who) public view returns(bytes memory) {\n        return bytesStorage[\n            keccak256(abi.encode(PUBLIC_KEY, _who))\n        ];\n    }\n\n    // =============================================== Private ========================================================\n\n    bytes32 internal constant MALICE_REPORTED = \"maliceReported\";\n    bytes32 internal constant PUBLIC_KEY = \"publicKey\";\n\n    // Adds `_who` to the array of pools\n    function _addToPools(address _who) internal {\n        if (publicKey(_who).length == 0) {\n            return;\n        }\n        super._addToPools(_who);\n        delete addressArrayStorage[keccak256(abi.encode(MALICE_REPORTED, _who))];\n    }\n\n    function _areStakeAndWithdrawAllowed() internal view returns(bool) {\n        uint256 applyBlock = validatorSetApplyBlock();\n        return applyBlock != 0 && block.number > applyBlock;\n    }\n}\n",
  "sourcePath": "/home/user/pos-contracts/contracts/ValidatorSetHBBFT.sol",
  "compiler": {
    "name": "solc",
    "version": "0.5.2+commit.1df8f40c.Emscripten.clang"
  },
  "schemaVersion": "3.0.1",
  "updatedAt": "2019-01-15T16:27:03.718Z",
  "devdoc": {
    "methods": {}
  },
  "userdoc": {
    "methods": {
      "initialize(address,address,address,address[],uint256,uint256)": {
        "notice": "Creates an initial set of validators at the start of the network. Must be called by the constructor of `Initializer` contract on genesis block. This is used instead of `constructor()` because this contract is upgradable."
      }
    }
  }
}