{
  "contractName": "ValidatorSetAuRa",
  "abi": [
    {
      "constant": true,
      "inputs": [
        {
          "name": "_pool",
          "type": "address"
        },
        {
          "name": "_staker",
          "type": "address"
        }
      ],
      "name": "poolStakerIndex",
      "outputs": [
        {
          "name": "",
          "type": "uint256"
        }
      ],
      "payable": false,
      "stateMutability": "view",
      "type": "function"
    },
    {
      "constant": true,
      "inputs": [
        {
          "name": "_observer",
          "type": "address"
        },
        {
          "name": "_staker",
          "type": "address"
        },
        {
          "name": "_stakingEpoch",
          "type": "uint256"
        }
      ],
      "name": "stakeAmountByEpoch",
      "outputs": [
        {
          "name": "",
          "type": "uint256"
        }
      ],
      "payable": false,
      "stateMutability": "view",
      "type": "function"
    },
    {
      "constant": false,
      "inputs": [
        {
          "name": "_erc20TokenContract",
          "type": "address"
        }
      ],
      "name": "setErc20TokenContract",
      "outputs": [],
      "payable": false,
      "stateMutability": "nonpayable",
      "type": "function"
    },
    {
      "constant": false,
      "inputs": [
        {
          "name": "_fromObserver",
          "type": "address"
        },
        {
          "name": "_toObserver",
          "type": "address"
        },
        {
          "name": "_amount",
          "type": "uint256"
        }
      ],
      "name": "moveStake",
      "outputs": [],
      "payable": false,
      "stateMutability": "nonpayable",
      "type": "function"
    },
    {
      "constant": false,
      "inputs": [
        {
          "name": "_minStake",
          "type": "uint256"
        }
      ],
      "name": "setValidatorMinStake",
      "outputs": [],
      "payable": false,
      "stateMutability": "nonpayable",
      "type": "function"
    },
    {
      "constant": true,
      "inputs": [
        {
          "name": "_who",
          "type": "address"
        }
      ],
      "name": "isValidatorOnPreviousEpoch",
      "outputs": [
        {
          "name": "",
          "type": "bool"
        }
      ],
      "payable": false,
      "stateMutability": "view",
      "type": "function"
    },
    {
      "constant": false,
      "inputs": [],
      "name": "removePool",
      "outputs": [],
      "payable": false,
      "stateMutability": "nonpayable",
      "type": "function"
    },
    {
      "constant": true,
      "inputs": [
        {
          "name": "_pool",
          "type": "address"
        }
      ],
      "name": "stakeAmountTotal",
      "outputs": [
        {
          "name": "",
          "type": "uint256"
        }
      ],
      "payable": false,
      "stateMutability": "view",
      "type": "function"
    },
    {
      "constant": true,
      "inputs": [],
      "name": "blockRewardContract",
      "outputs": [
        {
          "name": "",
          "type": "address"
        }
      ],
      "payable": false,
      "stateMutability": "view",
      "type": "function"
    },
    {
      "constant": true,
      "inputs": [
        {
          "name": "_who",
          "type": "address"
        }
      ],
      "name": "bannedUntil",
      "outputs": [
        {
          "name": "",
          "type": "uint256"
        }
      ],
      "payable": false,
      "stateMutability": "view",
      "type": "function"
    },
    {
      "constant": true,
      "inputs": [
        {
          "name": "_who",
          "type": "address"
        }
      ],
      "name": "poolInactiveIndex",
      "outputs": [
        {
          "name": "",
          "type": "uint256"
        }
      ],
      "payable": false,
      "stateMutability": "view",
      "type": "function"
    },
    {
      "constant": true,
      "inputs": [],
      "name": "getPools",
      "outputs": [
        {
          "name": "",
          "type": "address[]"
        }
      ],
      "payable": false,
      "stateMutability": "view",
      "type": "function"
    },
    {
      "constant": true,
      "inputs": [
        {
          "name": "_observer",
          "type": "address"
        },
        {
          "name": "_staker",
          "type": "address"
        }
      ],
      "name": "maxWithdrawAllowed",
      "outputs": [
        {
          "name": "",
          "type": "uint256"
        }
      ],
      "payable": false,
      "stateMutability": "view",
      "type": "function"
    },
    {
      "constant": true,
      "inputs": [],
      "name": "MAX_VALIDATORS",
      "outputs": [
        {
          "name": "",
          "type": "uint256"
        }
      ],
      "payable": false,
      "stateMutability": "view",
      "type": "function"
    },
    {
      "constant": false,
      "inputs": [],
      "name": "finalizeChange",
      "outputs": [],
      "payable": false,
      "stateMutability": "nonpayable",
      "type": "function"
    },
    {
      "constant": true,
      "inputs": [],
      "name": "stakingEpoch",
      "outputs": [
        {
          "name": "",
          "type": "uint256"
        }
      ],
      "payable": false,
      "stateMutability": "view",
      "type": "function"
    },
    {
      "constant": true,
      "inputs": [],
      "name": "getPreviousValidators",
      "outputs": [
        {
          "name": "",
          "type": "address[]"
        }
      ],
      "payable": false,
      "stateMutability": "view",
      "type": "function"
    },
    {
      "constant": true,
      "inputs": [],
      "name": "erc20TokenContract",
      "outputs": [
        {
          "name": "",
          "type": "address"
        }
      ],
      "payable": false,
      "stateMutability": "view",
      "type": "function"
    },
    {
      "constant": true,
      "inputs": [
        {
          "name": "_validator",
          "type": "address"
        }
      ],
      "name": "isReportValidatorValid",
      "outputs": [
        {
          "name": "",
          "type": "bool"
        }
      ],
      "payable": false,
      "stateMutability": "view",
      "type": "function"
    },
    {
      "constant": false,
      "inputs": [
        {
          "name": "_minStake",
          "type": "uint256"
        }
      ],
      "name": "setStakerMinStake",
      "outputs": [],
      "payable": false,
      "stateMutability": "nonpayable",
      "type": "function"
    },
    {
      "constant": true,
      "inputs": [
        {
          "name": "_validator",
          "type": "address"
        }
      ],
      "name": "validatorIndex",
      "outputs": [
        {
          "name": "",
          "type": "uint256"
        }
      ],
      "payable": false,
      "stateMutability": "view",
      "type": "function"
    },
    {
      "constant": true,
      "inputs": [],
      "name": "getStakerMinStake",
      "outputs": [
        {
          "name": "",
          "type": "uint256"
        }
      ],
      "payable": false,
      "stateMutability": "view",
      "type": "function"
    },
    {
      "constant": true,
      "inputs": [
        {
          "name": "_observer",
          "type": "address"
        },
        {
          "name": "_staker",
          "type": "address"
        }
      ],
      "name": "stakeAmount",
      "outputs": [
        {
          "name": "",
          "type": "uint256"
        }
      ],
      "payable": false,
      "stateMutability": "view",
      "type": "function"
    },
    {
      "constant": true,
      "inputs": [
        {
          "name": "_who",
          "type": "address"
        }
      ],
      "name": "isPoolActive",
      "outputs": [
        {
          "name": "",
          "type": "bool"
        }
      ],
      "payable": false,
      "stateMutability": "view",
      "type": "function"
    },
    {
      "constant": true,
      "inputs": [
        {
          "name": "_validator",
          "type": "address"
        }
      ],
      "name": "isValidatorBanned",
      "outputs": [
        {
          "name": "",
          "type": "bool"
        }
      ],
      "payable": false,
      "stateMutability": "view",
      "type": "function"
    },
    {
      "constant": false,
      "inputs": [
        {
          "name": "_toObserver",
          "type": "address"
        },
        {
          "name": "_amount",
          "type": "uint256"
        }
      ],
      "name": "stake",
      "outputs": [],
      "payable": false,
      "stateMutability": "nonpayable",
      "type": "function"
    },
    {
      "constant": true,
      "inputs": [
        {
          "name": "_who",
          "type": "address"
        }
      ],
      "name": "poolIndex",
      "outputs": [
        {
          "name": "",
          "type": "uint256"
        }
      ],
      "payable": false,
      "stateMutability": "view",
      "type": "function"
    },
    {
      "constant": true,
      "inputs": [
        {
          "name": "_who",
          "type": "address"
        }
      ],
      "name": "doesPoolExist",
      "outputs": [
        {
          "name": "",
          "type": "bool"
        }
      ],
      "payable": false,
      "stateMutability": "view",
      "type": "function"
    },
    {
      "constant": true,
      "inputs": [],
      "name": "getValidators",
      "outputs": [
        {
          "name": "",
          "type": "address[]"
        }
      ],
      "payable": false,
      "stateMutability": "view",
      "type": "function"
    },
    {
      "constant": true,
      "inputs": [],
      "name": "STAKE_UNIT",
      "outputs": [
        {
          "name": "",
          "type": "uint256"
        }
      ],
      "payable": false,
      "stateMutability": "view",
      "type": "function"
    },
    {
      "constant": true,
      "inputs": [],
      "name": "validatorSetApplyBlock",
      "outputs": [
        {
          "name": "",
          "type": "uint256"
        }
      ],
      "payable": false,
      "stateMutability": "view",
      "type": "function"
    },
    {
      "constant": false,
      "inputs": [
        {
          "name": "_observer",
          "type": "address"
        },
        {
          "name": "_staker",
          "type": "address[]"
        },
        {
          "name": "_stakingEpoch",
          "type": "uint256"
        }
      ],
      "name": "clearStakeHistory",
      "outputs": [],
      "payable": false,
      "stateMutability": "nonpayable",
      "type": "function"
    },
    {
      "constant": true,
      "inputs": [],
      "name": "randomContract",
      "outputs": [
        {
          "name": "",
          "type": "address"
        }
      ],
      "payable": false,
      "stateMutability": "view",
      "type": "function"
    },
    {
      "constant": true,
      "inputs": [
        {
          "name": "_pool",
          "type": "address"
        }
      ],
      "name": "poolStakers",
      "outputs": [
        {
          "name": "",
          "type": "address[]"
        }
      ],
      "payable": false,
      "stateMutability": "view",
      "type": "function"
    },
    {
      "constant": true,
      "inputs": [],
      "name": "changeRequestCount",
      "outputs": [
        {
          "name": "",
          "type": "uint256"
        }
      ],
      "payable": false,
      "stateMutability": "view",
      "type": "function"
    },
    {
      "constant": true,
      "inputs": [],
      "name": "getValidatorMinStake",
      "outputs": [
        {
          "name": "",
          "type": "uint256"
        }
      ],
      "payable": false,
      "stateMutability": "view",
      "type": "function"
    },
    {
      "constant": true,
      "inputs": [],
      "name": "getPoolsInactive",
      "outputs": [
        {
          "name": "",
          "type": "address[]"
        }
      ],
      "payable": false,
      "stateMutability": "view",
      "type": "function"
    },
    {
      "constant": true,
      "inputs": [],
      "name": "MAX_OBSERVERS",
      "outputs": [
        {
          "name": "",
          "type": "uint256"
        }
      ],
      "payable": false,
      "stateMutability": "view",
      "type": "function"
    },
    {
      "constant": true,
      "inputs": [],
      "name": "getPendingValidators",
      "outputs": [
        {
          "name": "",
          "type": "address[]"
        }
      ],
      "payable": false,
      "stateMutability": "view",
      "type": "function"
    },
    {
      "constant": false,
      "inputs": [
        {
          "name": "_fromObserver",
          "type": "address"
        },
        {
          "name": "_amount",
          "type": "uint256"
        }
      ],
      "name": "withdraw",
      "outputs": [],
      "payable": false,
      "stateMutability": "nonpayable",
      "type": "function"
    },
    {
      "constant": true,
      "inputs": [
        {
          "name": "_who",
          "type": "address"
        }
      ],
      "name": "isValidator",
      "outputs": [
        {
          "name": "",
          "type": "bool"
        }
      ],
      "payable": false,
      "stateMutability": "view",
      "type": "function"
    },
    {
      "anonymous": false,
      "inputs": [
        {
          "indexed": false,
          "name": "reportingValidator",
          "type": "address"
        },
        {
          "indexed": false,
          "name": "maliciousValidator",
          "type": "address"
        },
        {
          "indexed": false,
          "name": "blockNumber",
          "type": "uint256"
        }
      ],
      "name": "ReportedMalicious",
      "type": "event"
    },
    {
      "anonymous": false,
      "inputs": [
        {
          "indexed": true,
          "name": "toObserver",
          "type": "address"
        },
        {
          "indexed": true,
          "name": "staker",
          "type": "address"
        },
        {
          "indexed": true,
          "name": "stakingEpoch",
          "type": "uint256"
        },
        {
          "indexed": false,
          "name": "amount",
          "type": "uint256"
        }
      ],
      "name": "Staked",
      "type": "event"
    },
    {
      "anonymous": false,
      "inputs": [
        {
          "indexed": false,
          "name": "fromObserver",
          "type": "address"
        },
        {
          "indexed": true,
          "name": "toObserver",
          "type": "address"
        },
        {
          "indexed": true,
          "name": "staker",
          "type": "address"
        },
        {
          "indexed": true,
          "name": "stakingEpoch",
          "type": "uint256"
        },
        {
          "indexed": false,
          "name": "amount",
          "type": "uint256"
        }
      ],
      "name": "StakeMoved",
      "type": "event"
    },
    {
      "anonymous": false,
      "inputs": [
        {
          "indexed": true,
          "name": "fromObserver",
          "type": "address"
        },
        {
          "indexed": true,
          "name": "staker",
          "type": "address"
        },
        {
          "indexed": true,
          "name": "stakingEpoch",
          "type": "uint256"
        },
        {
          "indexed": false,
          "name": "amount",
          "type": "uint256"
        }
      ],
      "name": "Withdrawn",
      "type": "event"
    },
    {
      "constant": false,
      "inputs": [
        {
          "name": "_amount",
          "type": "uint256"
        }
      ],
      "name": "addPool",
      "outputs": [],
      "payable": false,
      "stateMutability": "nonpayable",
      "type": "function"
    },
    {
      "constant": false,
      "inputs": [
        {
          "name": "_blockRewardContract",
          "type": "address"
        },
        {
          "name": "_randomContract",
          "type": "address"
        },
        {
          "name": "_erc20TokenContract",
          "type": "address"
        },
        {
          "name": "_initialValidators",
          "type": "address[]"
        },
        {
          "name": "_stakerMinStake",
          "type": "uint256"
        },
        {
          "name": "_validatorMinStake",
          "type": "uint256"
        },
        {
          "name": "_stakingEpochDuration",
          "type": "uint256"
        }
      ],
      "name": "initialize",
      "outputs": [],
      "payable": false,
      "stateMutability": "nonpayable",
      "type": "function"
    },
    {
      "constant": false,
      "inputs": [],
      "name": "newValidatorSet",
      "outputs": [],
      "payable": false,
      "stateMutability": "nonpayable",
      "type": "function"
    },
    {
      "constant": false,
      "inputs": [
        {
          "name": "_validator",
          "type": "address"
        }
      ],
      "name": "removeMaliciousValidator",
      "outputs": [],
      "payable": false,
      "stateMutability": "nonpayable",
      "type": "function"
    },
    {
      "constant": false,
      "inputs": [
        {
          "name": "",
          "type": "address"
        },
        {
          "name": "",
          "type": "uint256"
        }
      ],
      "name": "reportBenign",
      "outputs": [],
      "payable": false,
      "stateMutability": "nonpayable",
      "type": "function"
    },
    {
      "constant": false,
      "inputs": [
        {
          "name": "_maliciousValidator",
          "type": "address"
        },
        {
          "name": "_blockNumber",
          "type": "uint256"
        },
        {
          "name": "",
          "type": "bytes"
        }
      ],
      "name": "reportMalicious",
      "outputs": [],
      "payable": false,
      "stateMutability": "nonpayable",
      "type": "function"
    },
    {
      "constant": true,
      "inputs": [
        {
          "name": "_validator",
          "type": "address"
        },
        {
          "name": "_blockNumber",
          "type": "uint256"
        }
      ],
      "name": "maliceReportedForBlock",
      "outputs": [
        {
          "name": "",
          "type": "address[]"
        }
      ],
      "payable": false,
      "stateMutability": "view",
      "type": "function"
    },
    {
      "constant": true,
      "inputs": [],
      "name": "stakeWithdrawDisallowPeriod",
      "outputs": [
        {
          "name": "",
          "type": "uint256"
        }
      ],
      "payable": false,
      "stateMutability": "view",
      "type": "function"
    },
    {
      "constant": true,
      "inputs": [],
      "name": "stakingEpochDuration",
      "outputs": [
        {
          "name": "",
          "type": "uint256"
        }
      ],
      "payable": false,
      "stateMutability": "view",
      "type": "function"
    },
    {
      "constant": true,
      "inputs": [],
      "name": "stakingEpochStartBlock",
      "outputs": [
        {
          "name": "",
          "type": "uint256"
        }
      ],
      "payable": false,
      "stateMutability": "view",
      "type": "function"
    }
  ],
  "bytecode": "0x608060405234801561001057600080fd5b506139ec806100206000396000f3fe608060405234801561001057600080fd5b50600436106102f55760003560e060020a900480639601ddf9116101a1578063c3ff9be0116100ed578063d69f13bb116100a6578063ec120a0011610080578063ec120a00146109c4578063eebc7a39146109cc578063f3fef3a3146109d4578063facd743b14610a00576102f5565b8063d69f13bb14610988578063dad9ebfd146109b4578063df6f55f5146109bc576102f5565b8063c3ff9be014610810578063c476dd40146108c5578063ccf69e9b1461094a578063cddb3e7b14610952578063d207778214610978578063d609ea9314610980576102f5565b8063adc9772e1161015a578063b604421511610134578063b6044215146107d2578063b7ab4db5146107f8578063b8cad1e514610800578063b927ef4314610808576102f5565b8063adc9772e14610754578063b42754a514610780578063b56b366b146107a6576102f5565b80639601ddf9146106a457806397997ebb146106ca578063a15248fd146106d2578063a697ecff146106da578063a711e6a114610708578063a92252ae1461072e576102f5565b806365113918116102605780637767c4761161021957806385602ad5116101f357806385602ad514610651578063856e84881461065957806387eed76a146106615780638a1422dd14610687576102f5565b80637767c4761461058f5780637769ea0a1461062c578063794c0c6814610649576102f5565b806365113918146104cb578063673a2a1f146104f15780636bda1577146105495780637069e74614610577578063714897df1461057f5780637528621114610587576102f5565b8063317ec08b116102b2578063317ec08b1461042557806340deca991461044b5780635267e1d61461045357806356b54bae146104795780635836d08a1461049d5780635ccee1de146104c3576102f5565b806301d0132e146102fa5780630cba33df1461033a5780632405effa14610370578063251441a914610398578063293ba15c146103ce5780632d7416a5146103eb575b600080fd5b6103286004803603604081101561031057600080fd5b50600160a060020a0381358116916020013516610a26565b60408051918252519081900360200190f35b6103286004803603606081101561035057600080fd5b50600160a060020a03813581169160208101359091169060400135610a9b565b6103966004803603602081101561038657600080fd5b5035600160a060020a0316610b10565b005b610396600480360360608110156103ae57600080fd5b50600160a060020a03813581169160208101359091169060400135610bd7565b610396600480360360208110156103e457600080fd5b5035610c60565b6104116004803603602081101561040157600080fd5b5035600160a060020a0316610cc0565b604080519115158252519081900360200190f35b6103966004803603602081101561043b57600080fd5b5035600160a060020a0316610d2a565b610396610d4f565b6103286004803603602081101561046957600080fd5b5035600160a060020a0316610d7d565b610481610de1565b60408051600160a060020a039092168252519081900360200190f35b610328600480360360208110156104b357600080fd5b5035600160a060020a0316610e2c565b610396610e90565b610328600480360360208110156104e157600080fd5b5035600160a060020a0316610ed0565b6104f9610f34565b60408051602080825283518183015283519192839290830191858101910280838360005b8381101561053557818101518382015260200161051d565b505050509050019250505060405180910390f35b6103286004803603604081101561055f57600080fd5b50600160a060020a0381358116916020013516610fcd565b61032861109c565b6103286110dd565b6103966110e2565b610396600480360360e08110156105a557600080fd5b600160a060020a03823581169260208101358216926040820135909216918101906080810160608201356401000000008111156105e157600080fd5b8201836020820111156105f357600080fd5b8035906020019184602083028401116401000000008311171561061557600080fd5b91935091508035906020810135906040013561122f565b6103966004803603602081101561064257600080fd5b50356112a2565b6103286112ac565b6104f96112ed565b610481611384565b6104116004803603602081101561067757600080fd5b5035600160a060020a03166113ce565b6103966004803603602081101561069d57600080fd5b5035611455565b610328600480360360208110156106ba57600080fd5b5035600160a060020a03166114b2565b610328611516565b610328611531565b610328600480360360408110156106f057600080fd5b50600160a060020a0381358116916020013516611572565b6104116004803603602081101561071e57600080fd5b5035600160a060020a03166115e5565b6104116004803603602081101561074457600080fd5b5035600160a060020a031661164c565b6103966004803603604081101561076a57600080fd5b50600160a060020a03813516906020013561165f565b6103286004803603602081101561079657600080fd5b5035600160a060020a0316611760565b6104f9600480360360408110156107bc57600080fd5b50600160a060020a0381351690602001356117c4565b610411600480360360208110156107e857600080fd5b5035600160a060020a031661188b565b6104f9611896565b61032861192d565b610328611939565b6103966004803603606081101561082657600080fd5b600160a060020a03823516919081019060408101602082013564010000000081111561085157600080fd5b82018360208201111561086357600080fd5b8035906020019184602083028401116401000000008311171561088557600080fd5b919080806020026020016040519081016040528093929190818152602001838360200280828437600092019190915250929550509135925061197a915050565b610396600480360360608110156108db57600080fd5b600160a060020a038235169160208101359181019060608101604082013564010000000081111561090b57600080fd5b82018360208201111561091d57600080fd5b8035906020019184600183028401116401000000008311171561093f57600080fd5b5090925090506119f1565b610481611b87565b6104f96004803603602081101561096857600080fd5b5035600160a060020a0316611bd1565b610328611c8e565b610328611ccf565b6103966004803603604081101561099e57600080fd5b50600160a060020a038135169060200135611d10565b610328611d14565b6104f9611d55565b610328611dec565b6104f9611df2565b610396600480360360408110156109ea57600080fd5b50600160a060020a038135169060200135611e77565b61041160048036036020811015610a1657600080fd5b5035600160a060020a0316611f78565b604080517f706f6f6c5374616b6572496e6465780000000000000000000000000000000000602080830191909152600160a060020a0380861683850152841660608084019190915283518084039091018152608090920183528151918101919091206000908152600290915220545b92915050565b604080517f7374616b65416d6f756e74427945706f63680000000000000000000000000000602080830191909152600160a060020a03958616828401529390941660608501526080808501929092528051808503909201825260a0909301835280519082012060009081526002909152205490565b604080517f6f776e65720000000000000000000000000000000000000000000000000000008152815190819003600501902060009081526004602052205433600160a060020a0390911614610b6457600080fd5b600160a060020a0381161515610b7957600080fd5b604080517f6572633230546f6b656e436f6e747261637400000000000000000000000000008152815190819003601201902060009081526004602052208054600160a060020a03909216600160a060020a0319909216919091179055565b600160a060020a038381169083161415610bf057600080fd5b33610bfc848284611fdf565b610c0783828461212c565b610c0f6112ac565b60408051600160a060020a03878116825260208201869052825181861693918816927f1a14670c744779696fb19a86df048997040940566ed12a1dd1c26dc9a4c5a04e92908290030190a450505050565b604080517f6f776e65720000000000000000000000000000000000000000000000000000008152815190819003600501902060009081526004602052205433600160a060020a0390911614610cb457600080fd5b610cbd8161225b565b50565b604080517f697356616c696461746f724f6e50726576696f757345706f6368000000000000602080830191909152600160a060020a038416828401528251808303840181526060909201835281519181019190912060009081526006909152205460ff165b919050565b610d32611b87565b600160a060020a03163314610d4657600080fd5b610cbd816122a9565b610d576112ac565b158015610d685750610d6833611f78565b15610d7257600080fd5b610d7b336122d2565b565b604080517f7374616b65416d6f756e74546f74616c00000000000000000000000000000000602080830191909152600160a060020a039390931681830152815180820383018152606090910182528051908301206000908152600290925290205490565b604080517f626c6f636b526577617264436f6e74726163740000000000000000000000000081528151908190036013019020600090815260046020522054600160a060020a03165b90565b604080517f62616e6e6564556e74696c000000000000000000000000000000000000000000602080830191909152600160a060020a039390931681830152815180820383018152606090910182528051908301206000908152600290925290205490565b610e98610de1565b600160a060020a03163314610eac57600080fd5b610eb4612427565b1515610ebf57610d7b565b610ec7612453565b610d7b436127b5565b604080517f706f6f6c496e616374697665496e646578000000000000000000000000000000602080830191909152600160a060020a039390931681830152815180820383018152606090910182528051908301206000908152600290925290205490565b604080517f706f6f6c73000000000000000000000000000000000000000000000000000000815281519081900360050181206000908152600b6020908152908390208054808302840183019094528383526060939091830182828015610fc357602002820191906000526020600020905b8154600160a060020a03168152600190910190602001808311610fa5575b5050505050905090565b600080610fd984611f78565b905083600160a060020a031683600160a060020a0316148015610ff95750805b15611008576000915050610a95565b6110118461164c565b15611020576000915050610a95565b6110286127f5565b1515611038576000915050610a95565b801515611051576110498484611572565b915050610a95565b61105a84610cc0565b1561108f57611049611085858561108060016110746112ac565b9063ffffffff61284816565b610a9b565b6110748686611572565b61104984846110806112ac565b604080517f7374616b696e6745706f63685374617274426c6f636b000000000000000000008152815190819003601601902060009081526002602052205490565b601481565b73fffffffffffffffffffffffffffffffffffffffe331461110257600080fd5b61110a6112ac565b151561111557610d7b565b61111d611939565b151561122757606061112d6112ed565b90506060611139611896565b905060005b825181101561117157611169838281518110151561115857fe5b90602001906020020151600061285d565b60010161113e565b5060005b81518110156111a8576111a0828281518110151561118f57fe5b90602001906020020151600161285d565b600101611175565b6111b1826128cf565b6111b961291e565b6111c2436129ed565b6111ca610de1565b600160a060020a03166338a0fdde6040518163ffffffff1660e060020a028152600401600060405180830381600087803b15801561120757600080fd5b505af115801561121b573d6000803e3d6000fd5b50505050505050610d7b565b610d7b61291e565b6112728888888888808060200260200160405190810160405280939291908181526020018383602002808284376000920191909152508a9250899150612a2d9050565b61127b81612cdf565b6000611285611516565b1161128f57600080fd5b611298436127b5565b5050505050505050565b610cbd338261165f565b604080517f7374616b696e6745706f636800000000000000000000000000000000000000008152815190819003600c01902060009081526002602052205490565b604080517f70726576696f757356616c696461746f72730000000000000000000000000000815281519081900360120181206000908152600b6020908152908390208054808302840183019094528383526060939091830182828015610fc357602002820191906000526020600020908154600160a060020a03168152600190910190602001808311610fa5575050505050905090565b604080517f6572633230546f6b656e436f6e7472616374000000000000000000000000000081528151908190036012019020600090815260046020522054600160a060020a031690565b6000806113da83611f78565b80156113ec57506113ea8361164c565b155b90506113f66112ac565b15806114075750611405611939565b155b15611413579050610d25565b600361141d611939565b430311610a9557600061142f84610cc0565b8015611441575061143f8461164c565b155b9050818061144c5750805b92505050610d25565b604080517f6f776e65720000000000000000000000000000000000000000000000000000008152815190819003600501902060009081526004602052205433600160a060020a03909116146114a957600080fd5b610cbd81612d1f565b604080517f76616c696461746f72496e646578000000000000000000000000000000000000602080830191909152600160a060020a039390931681830152815180820383018152606090910182528051908301206000908152600290925290205490565b6000601c611522611ccf565b81151561152b57fe5b04905090565b604080517f7374616b65724d696e5374616b650000000000000000000000000000000000008152815190819003600e01902060009081526002602052205490565b604080517f7374616b65416d6f756e74000000000000000000000000000000000000000000602080830191909152600160a060020a039485168284015292909316606080850191909152815180850390910181526080909301815282519282019290922060009081526002909152205490565b604080517f6973506f6f6c4163746976650000000000000000000000000000000000000000602080830191909152600160a060020a039390931681830152815180820383018152606090910182528051908301206000908152600690925290205460ff1690565b600061165782610e2c565b421092915050565b6000611669611384565b9050600160a060020a038116151561168057600080fd5b3361168c84828561212c565b81600160a060020a031663adc9772e82856040518363ffffffff1660e060020a0281526004018083600160a060020a0316600160a060020a0316815260200182815260200192505050600060405180830381600087803b1580156116ef57600080fd5b505af1158015611703573d6000803e3d6000fd5b5050505061170f6112ac565b81600160a060020a031685600160a060020a03167f6c86f3fd5118b3aa8bb4f389a617046de0a3d3d477de1a1673d227f802f616dc866040518082815260200191505060405180910390a450505050565b604080517f706f6f6c496e6465780000000000000000000000000000000000000000000000602080830191909152600160a060020a039390931681830152815180820383018152606090910182528051908301206000908152600290925290205490565b604080517f6d616c6963655265706f72746564466f72426c6f636b00000000000000000000602080830191909152600160a060020a038516828401526060828101859052835180840382018152608084018086528151918401919091206000908152600b8452859020805460a0948102860185019096528582529194909391929091018282801561187e57602002820191906000526020600020905b8154600160a060020a03168152600190910190602001808311611860575b5050505050905092915050565b6000610a95826115e5565b604080517f63757272656e7456616c696461746f7273000000000000000000000000000000815281519081900360110181206000908152600b6020908152908390208054808302840183019094528383526060939091830182828015610fc357602002820191906000526020600020908154600160a060020a03168152600190910190602001808311610fa5575050505050905090565b670de0b6b3a764000081565b604080517f76616c696461746f725365744170706c79426c6f636b000000000000000000008152815190819003601601902060009081526002602052205490565b73fffffffffffffffffffffffffffffffffffffffe331461199a57600080fd5b6119a760026110746112ac565b8111156119b357600080fd5b60005b82518110156119eb576119e38484838151811015156119d157fe5b90602001906020020151846000612d6d565b6001016119b6565b50505050565b336119fb856113ce565b1515611a0657600080fd5b43841115611a1357600080fd5b611a1c816113ce565b1515611a2757600080fd5b604080517f6d616c6963655265706f72746564466f72426c6f636b00000000000000000000602080830191909152600160a060020a03881682840152606080830188905283518084039091018152608090920183528151918101919091206000908152600b909152908120905b8154811015611add5782600160a060020a03168282815481101515611ab557fe5b600091825260209091200154600160a060020a03161415611ad557600080fd5b600101611a94565b50805460018101825560008281526020908190209091018054600160a060020a03808616600160a060020a031990921682179092556040805191825291891692810192909252818101879052517f729a19138e072a5a8d3a56d74ae0b5c84530f09aacd6e12b24c5b2fdc3f8a3d09181900360600190a1611b5c611896565b518154611b7090600263ffffffff612de516565b1115611b7f57611b7f866122a9565b505050505050565b604080517f72616e646f6d436f6e74726163740000000000000000000000000000000000008152815190819003600e019020600090815260046020522054600160a060020a031690565b604080517f706f6f6c5374616b657273000000000000000000000000000000000000000000602080830191909152600160a060020a0384168284015282518083038401815260608381018086528251928401929092206000908152600b845285902080546080948102860185019096528583529094919390920182828015611c8257602002820191906000526020600020905b8154600160a060020a03168152600190910190602001808311611c64575b50505050509050919050565b604080517f6368616e676552657175657374436f756e7400000000000000000000000000008152815190819003601201902060009081526002602052205490565b604080517f7374616b696e6745706f63684475726174696f6e0000000000000000000000008152815190819003601401902060009081526002602052205490565b5050565b604080517f76616c696461746f724d696e5374616b650000000000000000000000000000008152815190819003601101902060009081526002602052205490565b604080517f706f6f6c73496e616374697665000000000000000000000000000000000000008152815190819003600d0181206000908152600b6020908152908390208054808302840183019094528383526060939091830182828015610fc357602002820191906000526020600020908154600160a060020a03168152600190910190602001808311610fa5575050505050905090565b6107d081565b604080516000805160206139a1833981519152815281519081900360110181206000908152600b6020908152908390208054808302840183019094528383526060939091830182828015610fc357602002820191906000526020600020908154600160a060020a03168152600190910190602001808311610fa5575050505050905090565b6000611e81611384565b9050600160a060020a0381161515611e9857600080fd5b33611ea4848285611fdf565b81600160a060020a031663f3fef3a382856040518363ffffffff1660e060020a0281526004018083600160a060020a0316600160a060020a0316815260200182815260200192505050600060405180830381600087803b158015611f0757600080fd5b505af1158015611f1b573d6000803e3d6000fd5b50505050611f276112ac565b81600160a060020a031685600160a060020a03167f91fb9d98b786c57d74c099ccd2beca1739e9f6a81fb49001ca465c4b7591bbe2866040518082815260200191505060405180910390a450505050565b604080517f697356616c696461746f72000000000000000000000000000000000000000000602080830191909152600160a060020a039390931681830152815180820383018152606090910182528051908301206000908152600690925290205460ff1690565b600160a060020a0383161515611ff457600080fd5b80151561200057600080fd5b61200a8383610fcd565b81111561201657600080fd5b60006120206112ac565b90506000612032836110748787611572565b905060008111156120845784600160a060020a031684600160a060020a031614156120705761205f611d14565b81101561206b57600080fd5b612084565b612078611531565b81101561208457600080fd5b61208f858583612e17565b600061209c868685610a9b565b90508084116120b8576120b3868685878503612d6d565b6120c5565b6120c58686856000612d6d565b6120db866120d6866110748a610d7d565b612e8a565b811515611b7f5785600160a060020a031685600160a060020a0316141561210a57612105866122d2565b612114565b6121148686612eed565b61211d86610d7d565b1515611b7f57611b7f8661300d565b600160a060020a038316151561214157600080fd5b80151561214d57600080fd5b6121568361164c565b1561216057600080fd5b6121686127f5565b151561217357600080fd5b600061217d6112ac565b9050600061219b8361218f8787611572565b9063ffffffff61313916565b905084600160a060020a031684600160a060020a031614156121d0576121bf611d14565b8110156121cb57600080fd5b6121e4565b6121d8611531565b8110156121e457600080fd5b6121ef858583612e17565b6122098585846122048761218f8b8b8a610a9b565b612d6d565b61221a856120d68561218f89610d7d565b84600160a060020a031684600160a060020a031614156122425761223d8561314b565b612254565b828114156122545761225485856131f5565b5050505050565b604080517f76616c696461746f724d696e5374616b65000000000000000000000000000000815281519081900360110190206000908152600260205220670de0b6b3a7640000919091029055565b6122b28161164c565b156122bc57610cbd565b6122c581613298565b15610cbd57610cbd6133bc565b60006122dd82611760565b604080517f706f6f6c73000000000000000000000000000000000000000000000000000000815281519081900360050190206000908152600b60205220805491925090600160a060020a0384169082908490811061233757fe5b600091825260209091200154600160a060020a031614156124225780548190600019810190811061236457fe5b6000918252602090912001548154600160a060020a039091169082908490811061238a57fe5b9060005260206000200160006101000a815481600160a060020a030219169083600160a060020a031602179055506123e481838154811015156123c957fe5b600091825260209091200154600160a060020a031683613402565b80546123f48260001983016138d9565b50612400836000613402565b61240b836000613465565b61241483610d7d565b1561242257612422836134d7565b505050565b60006001612433611ccf565b0361244c61243f61109c565b439063ffffffff61284816565b1015905090565b606061245d610f34565b90506000815111151561246f57600080fd5b8051601410612486576124818161358a565b61279b565b6060612490611b87565b600160a060020a03166350b0021c6040518163ffffffff1660e060020a02815260040160006040518083038186803b1580156124cb57600080fd5b505afa1580156124df573d6000803e3d6000fd5b505050506040513d6000823e601f3d908101601f19168201604052602081101561250857600080fd5b81019080805164010000000081111561252057600080fd5b8201602081018481111561253357600080fd5b815185602082028301116401000000008211171561255057600080fd5b50508051909450601414925061256891505057600080fd5b8151604080518281526020808402820101909152839190606090828015612599578160200160208202803883390190505b506040805160148082526102a082019092529192506060919060208201610280803883390190505090506000805b8481101561266357612618670de0b6b3a764000061260c60646126008a868151811015156125f157fe5b90602001906020020151610d7d565b9063ffffffff612de516565b9063ffffffff6135c716565b848281518110151561262657fe5b6020908102909101015283516126599085908390811061264257fe5b60209081029091010151839063ffffffff61313916565b91506001016125c7565b5060005b601481101561278a5760006126b385848a8581518110151561268557fe5b60209081029091018101516040805180840192909252805180830384018152918101905280519101206135eb565b905086818151811015156126c357fe5b9060200190602002015184838151811015156126db57fe5b600160a060020a03909216602092830290910190910152845185908290811061270057fe5b6020908102909101015187516000199097019693039287908790811061272257fe5b90602001906020020151878281518110151561273a57fe5b600160a060020a03909216602092830290910190910152845185908790811061275f57fe5b90602001906020020151858281518110151561277757fe5b6020908102909101015250600101612667565b6127938361358a565b505050505050505b6127a36133bc565b6127ab613636565b610cbd60006129ed565b604080517f7374616b696e6745706f63685374617274426c6f636b0000000000000000000081528151908190036016019020600090815260026020522055565b600080612800611516565b612808611ccf565b0390506000612815611939565b90506000811580159061282757508143115b905080801561284057508261283d61243f61109c565b11155b935050505090565b60008282111561285757600080fd5b50900390565b604080517f697356616c696461746f724f6e50726576696f757345706f6368000000000000602080830191909152600160a060020a0394909416818301528151808203830181526060909101825280519084012060009081526006909352909120805460ff1916911515919091179055565b604080517f70726576696f757356616c696461746f72730000000000000000000000000000815281519081900360120190206000908152600b60209081529190208251611d10928401906138fd565b6060612928611896565b905060005b815181101561298257612958828281518110151561294757fe5b90602001906020020151600061367c565b61297a828281518110151561296957fe5b9060200190602002015160006136df565b60010161292d565b61298a611df2565b915061299582613751565b5060005b8151811015611d10576129c382828151811015156129b357fe5b906020019060200201518261367c565b6129e582828151811015156129d457fe5b9060200190602002015160016136df565b600101612999565b604080517f76616c696461746f725365744170706c79426c6f636b0000000000000000000081528151908190036016019020600090815260026020522055565b600160a060020a0386161515612a4257600080fd5b600160a060020a0385161515612a5757600080fd5b8251600010612a6557600080fd5b811515612a7157600080fd5b801515612a7d57600080fd5b604080517f626c6f636b526577617264436f6e747261637400000000000000000000000000815281519081900360130181206000908152600460208181528483208054600160a060020a03808e16600160a060020a0319928316179092557f72616e646f6d436f6e74726163740000000000000000000000000000000000008652865195869003600e018620855283835286852080548d84169083161790557f6572633230546f6b656e436f6e747261637400000000000000000000000000008652865195869003601201862085529282528584208054918b1691909316179091557f63757272656e7456616c696461746f72730000000000000000000000000000008352835192839003601190810184208352600b8083528584206000805160206139a183398151915286528651958690039092019094208352929052919091204315612bca57600080fd5b815415612bd657600080fd5b60005b8551811015612cc257828682815181101515612bf157fe5b6020908102919091018101518254600181018455600093845291909220018054600160a060020a031916600160a060020a0390921691909117905585518290879083908110612c3c57fe5b6020908102919091018101518254600181018455600093845291909220018054600160a060020a031916600160a060020a039092169190911790558551612c89908790839081106129b357fe5b612c9a86828151811015156129d457fe5b612cba8682815181101515612cab57fe5b9060200190602002015161314b565b600101612bd9565b50612ccc84612d1f565b612cd58361225b565b61129860016129ed565b604080517f7374616b696e6745706f63684475726174696f6e00000000000000000000000081528151908190036014019020600090815260026020522055565b604080517f7374616b65724d696e5374616b650000000000000000000000000000000000008152815190819003600e0190206000908152600260205220670de0b6b3a7640000919091029055565b604080517f7374616b65416d6f756e74427945706f63680000000000000000000000000000602080830191909152600160a060020a03968716828401529590941660608501526080808501939093528051808503909301835260a0909301835281519184019190912060009081526002909352912055565b6000821515612df657506000610a95565b828202828482811515612e0557fe5b0414612e1057600080fd5b9392505050565b604080517f7374616b65416d6f756e74000000000000000000000000000000000000000000602080830191909152600160a060020a039586168284015294909316606080850191909152815180850390910181526080909301815282519284019290922060009081526002909352912055565b604080517f7374616b65416d6f756e74546f74616c00000000000000000000000000000000602080830191909152600160a060020a0390941681830152815180820383018152606090910182528051908401206000908152600290935290912055565b604080517f706f6f6c5374616b657273000000000000000000000000000000000000000000602080830191909152600160a060020a03851682840152825180830384018152606090920183528151918101919091206000908152600b90915290812090612f5a8484610a26565b825490915082906000198101908110612f6f57fe5b6000918252602090912001548254600160a060020a0390911690839083908110612f9557fe5b9060005260206000200160006101000a815481600160a060020a030219169083600160a060020a03160217905550612ff0848383815481101515612fd557fe5b600091825260209091200154600160a060020a0316836137a0565b81546130008360001983016138d9565b506119eb848460006137a0565b604080517f706f6f6c73496e616374697665000000000000000000000000000000000000008152815190819003600d0190206000908152600b6020529081209061305683610ed0565b905082600160a060020a0316828281548110151561307057fe5b600091825260209091200154600160a060020a031614156124225781548290600019810190811061309d57fe5b6000918252602090912001548254600160a060020a03909116908390839081106130c357fe5b9060005260206000200160006101000a815481600160a060020a030219169083600160a060020a0316021790555061311d828281548110151561310257fe5b600091825260209091200154600160a060020a031682613813565b815461312d8360001983016138d9565b50612422836000613813565b600082820183811015612e1057600080fd5b6131548161188b565b15156131ec57604080517f706f6f6c73000000000000000000000000000000000000000000000000000000815281519081900360050190206000908152600b6020522080546131a4908390613402565b8054600181018255600082815260209020018054600160a060020a031916600160a060020a03841617905580546107d010156131df57600080fd5b6131ea826001613465565b505b610cbd8161300d565b604080517f706f6f6c5374616b657273000000000000000000000000000000000000000000602080830191909152600160a060020a03851682840152825180830384018152606090920183528151918101919091206000908152600b90915220805461326490849084906137a0565b805460018101825560009182526020909120018054600160a060020a031916600160a060020a039290921691909117905550565b60006132a3826122d2565b6132b282426276a70001613876565b604080516000805160206139a1833981519152815281519081900360110190206000908152600b60205290812090805b825481101561332f5784600160a060020a0316838281548110151561330357fe5b600091825260209091200154600160a060020a03161415613327576001915061332f565b6001016132e2565b81156133b157825483906000190161334782826138d9565b8154811061335157fe5b6000918252602090912001548354600160a060020a039091169084908390811061337757fe5b9060005260206000200160006101000a815481600160a060020a030219169083600160a060020a0316021790555060019350505050610d25565b506000949350505050565b604080517f6368616e676552657175657374436f756e74000000000000000000000000000081528151908190036012019020600090815260026020522080546001019055565b604080517f706f6f6c496e6465780000000000000000000000000000000000000000000000602080830191909152600160a060020a0390941681830152815180820383018152606090910182528051908401206000908152600290935290912055565b604080517f6973506f6f6c4163746976650000000000000000000000000000000000000000602080830191909152600160a060020a0394909416818301528151808203830181526060909101825280519084012060009081526006909352909120805460ff1916911515919091179055565b604080517f706f6f6c73496e616374697665000000000000000000000000000000000000008152815190819003600d0190206000908152600b60205220600160a060020a0382168161352884610ed0565b8154811061353257fe5b600091825260209091200154600160a060020a031614611d10578054613559908390613813565b8054600181018255600082815260209020018054600160a060020a038416600160a060020a03199091161790555050565b604080516000805160206139a1833981519152815281519081900360110190206000908152600b60209081529190208251611d10928401906138fd565b60008082116135d557600080fd5b600082848115156135e257fe5b04949350505050565b60008083838115156135f957fe5b0660010190506000195b858160010191508181518110151561361757fe5b6020908102909101015190910390600082136136035795945050505050565b604080517f7374616b696e6745706f636800000000000000000000000000000000000000008152815190819003600c019020600090815260026020522080546001019055565b604080517f76616c696461746f72496e646578000000000000000000000000000000000000602080830191909152600160a060020a0390941681830152815180820383018152606090910182528051908401206000908152600290935290912055565b604080517f697356616c696461746f72000000000000000000000000000000000000000000602080830191909152600160a060020a0394909416818301528151808203830181526060909101825280519084012060009081526006909352909120805460ff1916911515919091179055565b604080517f63757272656e7456616c696461746f7273000000000000000000000000000000815281519081900360110190206000908152600b60209081529190208251611d10928401906138fd565b604080517f706f6f6c5374616b6572496e6465780000000000000000000000000000000000602080830191909152600160a060020a039586168284015294909316606080850191909152815180850390910181526080909301815282519284019290922060009081526002909352912055565b604080517f706f6f6c496e616374697665496e646578000000000000000000000000000000602080830191909152600160a060020a0390941681830152815180820383018152606090910182528051908401206000908152600290935290912055565b604080517f62616e6e6564556e74696c000000000000000000000000000000000000000000602080830191909152600160a060020a0390941681830152815180820383018152606090910182528051908401206000908152600290935290912055565b81548183558181111561242257600083815260209020612422918101908301613962565b828054828255906000526020600020908101928215613952579160200282015b828111156139525782518254600160a060020a031916600160a060020a0390911617825560209092019160019091019061391d565b5061395e92915061397c565b5090565b610e2991905b8082111561395e5760008155600101613968565b610e2991905b8082111561395e578054600160a060020a031916815560010161398256fe70656e64696e6756616c696461746f7273000000000000000000000000000000a165627a7a723058201c458159d67a2f51a3aa4a3ad32a77fb698e061676e44c2f6e11db604069f6910029",
  "source": "pragma solidity 0.5.2;\n\nimport \"./abstracts/ValidatorSetBase.sol\";\n\n\ncontract ValidatorSetAuRa is ValidatorSetBase {\n\n    // TODO: add a description for each function\n\n    // ================================================ Events ========================================================\n\n    event ReportedMalicious(address reportingValidator, address maliciousValidator, uint256 blockNumber);\n\n    // ============================================== Modifiers =======================================================\n\n    modifier onlyBlockRewardContract() {\n        require(msg.sender == address(blockRewardContract()));\n        _;\n    }\n\n    modifier onlyRandomContract() {\n        require(msg.sender == address(randomContract()));\n        _;\n    }\n\n    // =============================================== Setters ========================================================\n\n    function addPool(uint256 _amount) external {\n        stake(msg.sender, _amount);\n    }\n\n    /// Creates an initial set of validators at the start of the network.\n    /// Must be called by the constructor of `Initializer` contract on genesis block.\n    /// This is used instead of `constructor()` because this contract is upgradable.\n    function initialize(\n        address _blockRewardContract,\n        address _randomContract,\n        address _erc20TokenContract,\n        address[] calldata _initialValidators,\n        uint256 _stakerMinStake, // in STAKE_UNITs\n        uint256 _validatorMinStake, // in STAKE_UNITs\n        uint256 _stakingEpochDuration // in blocks (e.g., 120960 = 1 week)\n    ) external {\n        super._initialize(\n            _blockRewardContract,\n            _randomContract,\n            _erc20TokenContract,\n            _initialValidators,\n            _stakerMinStake,\n            _validatorMinStake\n        );\n        _setStakingEpochDuration(_stakingEpochDuration);\n        require(stakeWithdrawDisallowPeriod() > 0);\n        _setStakingEpochStartBlock(block.number);\n    }\n\n    function newValidatorSet() external onlyBlockRewardContract {\n        if (!_newValidatorSetCallable()) return;\n        super._newValidatorSet();\n        _setStakingEpochStartBlock(block.number);\n    }\n\n    function removeMaliciousValidator(address _validator) external onlyRandomContract {\n        _removeMaliciousValidatorAuRa(_validator);\n    }\n\n    // solhint-disable no-empty-blocks\n    function reportBenign(address, uint256) external {\n        // does nothing\n    }\n    // solhint-enable no-empty-blocks\n\n    function reportMalicious(address _maliciousValidator, uint256 _blockNumber, bytes calldata) external {\n        address reportingValidator = msg.sender;\n\n        require(isReportValidatorValid(_maliciousValidator));\n        require(_blockNumber <= block.number); // avoid reporting about future blocks\n        require(isReportValidatorValid(reportingValidator));\n\n        address[] storage reportedValidators =\n            addressArrayStorage[keccak256(abi.encode(MALICE_REPORTED_FOR_BLOCK, _maliciousValidator, _blockNumber))];\n\n        // Don't allow reporting validator to report about malicious validator more than once\n        for (uint256 m = 0; m < reportedValidators.length; m++) {\n            if (reportedValidators[m] == reportingValidator) {\n                revert();\n            }\n        }\n\n        reportedValidators.push(reportingValidator);\n\n        emit ReportedMalicious(reportingValidator, _maliciousValidator, _blockNumber);\n\n        // If more than 50% of validators reported about malicious validator\n        // for the same `blockNumber`\n        if (reportedValidators.length.mul(2) > getValidators().length) {\n            _removeMaliciousValidatorAuRa(_maliciousValidator);\n        }\n    }\n\n    // =============================================== Getters ========================================================\n\n    function maliceReportedForBlock(address _validator, uint256 _blockNumber) external view returns(address[] memory) {\n        return addressArrayStorage[keccak256(abi.encode(MALICE_REPORTED_FOR_BLOCK, _validator, _blockNumber))];\n    }\n\n    function stakeWithdrawDisallowPeriod() public view returns(uint256) {\n        return stakingEpochDuration() / 28;\n    }\n\n    function stakingEpochDuration() public view returns(uint256) {\n        return uintStorage[STAKING_EPOCH_DURATION];\n    }\n\n    function stakingEpochStartBlock() public view returns(uint256) {\n        return uintStorage[STAKING_EPOCH_START_BLOCK];\n    }\n\n    // =============================================== Private ========================================================\n\n    bytes32 internal constant STAKING_EPOCH_DURATION = keccak256(\"stakingEpochDuration\");\n    bytes32 internal constant STAKING_EPOCH_START_BLOCK = keccak256(\"stakingEpochStartBlock\");\n    bytes32 internal constant MALICE_REPORTED_FOR_BLOCK = \"maliceReportedForBlock\";\n\n    function _removeMaliciousValidatorAuRa(address _validator) internal {\n        if (isValidatorBanned(_validator)) {\n            // The malicious validator is already banned\n            return;\n        }\n\n        if (_removeMaliciousValidator(_validator)) {\n            // From this moment `getPendingValidators()` will return the new validator set\n            _incrementChangeRequestCount();\n        }\n    }\n\n    function _setStakingEpochDuration(uint256 _duration) internal {\n        uintStorage[STAKING_EPOCH_DURATION] = _duration;\n    }\n\n    function _setStakingEpochStartBlock(uint256 _blockNumber) internal {\n        uintStorage[STAKING_EPOCH_START_BLOCK] = _blockNumber;\n    }\n\n    function _areStakeAndWithdrawAllowed() internal view returns(bool) {\n        uint256 allowedDuration = stakingEpochDuration() - stakeWithdrawDisallowPeriod();\n        uint256 applyBlock = validatorSetApplyBlock();\n        bool afterValidatorSetApplied = applyBlock != 0 && block.number > applyBlock;\n        return afterValidatorSetApplied && block.number.sub(stakingEpochStartBlock()) <= allowedDuration;\n    }\n\n    function _newValidatorSetCallable() internal view returns(bool) {\n        return block.number.sub(stakingEpochStartBlock()) >= stakingEpochDuration() - 1;\n    }\n}\n",
  "sourcePath": "/home/poa/Dropbox/POA/GitHub/pos-contracts/contracts/ValidatorSetAuRa.sol",
  "compiler": {
    "name": "solc",
    "version": "0.5.2+commit.1df8f40c.Emscripten.clang"
  },
  "schemaVersion": "3.0.1",
  "updatedAt": "2019-01-15T09:01:22.264Z",
  "devdoc": {
    "methods": {}
  },
  "userdoc": {
    "methods": {
      "initialize(address,address,address,address[],uint256,uint256,uint256)": {
        "notice": "Creates an initial set of validators at the start of the network. Must be called by the constructor of `Initializer` contract on genesis block. This is used instead of `constructor()` because this contract is upgradable."
      }
    }
  }
}